{
  "contractName": "Item",
  "abi": [
    {
      "constant": true,
      "inputs": [],
      "name": "activated",
      "outputs": [
        {
          "name": "",
          "type": "uint256"
        }
      ],
      "payable": false,
      "stateMutability": "view",
      "type": "function"
    },
    {
      "constant": true,
      "inputs": [],
      "name": "manufacturerID",
      "outputs": [
        {
          "name": "",
          "type": "address"
        }
      ],
      "payable": false,
      "stateMutability": "view",
      "type": "function"
    },
    {
      "constant": true,
      "inputs": [],
      "name": "status",
      "outputs": [
        {
          "name": "",
          "type": "uint8"
        }
      ],
      "payable": false,
      "stateMutability": "view",
      "type": "function"
    },
    {
      "constant": true,
      "inputs": [],
      "name": "created",
      "outputs": [
        {
          "name": "",
          "type": "uint256"
        }
      ],
      "payable": false,
      "stateMutability": "view",
      "type": "function"
    },
    {
      "constant": true,
      "inputs": [],
      "name": "info",
      "outputs": [
        {
          "name": "",
          "type": "string"
        }
      ],
      "payable": false,
      "stateMutability": "view",
      "type": "function"
    },
    {
      "constant": true,
      "inputs": [],
      "name": "warrantyPeriod",
      "outputs": [
        {
          "name": "",
          "type": "uint256"
        }
      ],
      "payable": false,
      "stateMutability": "view",
      "type": "function"
    },
    {
      "constant": true,
      "inputs": [],
      "name": "warrantyTerms",
      "outputs": [
        {
          "name": "",
          "type": "string"
        }
      ],
      "payable": false,
      "stateMutability": "view",
      "type": "function"
    },
    {
      "constant": true,
      "inputs": [
        {
          "name": "",
          "type": "uint256"
        }
      ],
      "name": "history",
      "outputs": [
        {
          "name": "",
          "type": "uint8"
        }
      ],
      "payable": false,
      "stateMutability": "view",
      "type": "function"
    },
    {
      "constant": true,
      "inputs": [],
      "name": "vendorID",
      "outputs": [
        {
          "name": "",
          "type": "address"
        }
      ],
      "payable": false,
      "stateMutability": "view",
      "type": "function"
    },
    {
      "constant": true,
      "inputs": [],
      "name": "id",
      "outputs": [
        {
          "name": "",
          "type": "address"
        }
      ],
      "payable": false,
      "stateMutability": "view",
      "type": "function"
    },
    {
      "constant": true,
      "inputs": [],
      "name": "main",
      "outputs": [
        {
          "name": "",
          "type": "address"
        }
      ],
      "payable": false,
      "stateMutability": "view",
      "type": "function"
    },
    {
      "constant": true,
      "inputs": [],
      "name": "serial",
      "outputs": [
        {
          "name": "",
          "type": "string"
        }
      ],
      "payable": false,
      "stateMutability": "view",
      "type": "function"
    },
    {
      "inputs": [
        {
          "name": "_serial",
          "type": "string"
        },
        {
          "name": "_info",
          "type": "string"
        },
        {
          "name": "_warrantyPeriod",
          "type": "uint256"
        },
        {
          "name": "_warrantyTerms",
          "type": "string"
        }
      ],
      "payable": false,
      "stateMutability": "nonpayable",
      "type": "constructor"
    },
    {
      "constant": false,
      "inputs": [],
      "name": "activateWarranty",
      "outputs": [],
      "payable": false,
      "stateMutability": "nonpayable",
      "type": "function"
    },
    {
      "constant": false,
      "inputs": [
        {
          "name": "vID",
          "type": "address"
        }
      ],
      "name": "setVendor",
      "outputs": [],
      "payable": false,
      "stateMutability": "nonpayable",
      "type": "function"
    },
    {
      "constant": false,
      "inputs": [
        {
          "name": "uID",
          "type": "address"
        }
      ],
      "name": "setOwner",
      "outputs": [],
      "payable": false,
      "stateMutability": "nonpayable",
      "type": "function"
    },
    {
      "constant": false,
      "inputs": [
        {
          "name": "uID",
          "type": "address"
        }
      ],
      "name": "changeOwner",
      "outputs": [],
      "payable": false,
      "stateMutability": "nonpayable",
      "type": "function"
    }
  ],
  "bytecode": "0x608060405230600160006101000a81548173ffffffffffffffffffffffffffffffffffffffff021916908373ffffffffffffffffffffffffffffffffffffffff1602179055503480156200005257600080fd5b50604051620018b1380380620018b1833981018060405260808110156200007857600080fd5b8101908080516401000000008111156200009157600080fd5b82810190506020810184811115620000a857600080fd5b8151856001820283011164010000000082111715620000c657600080fd5b50509291906020018051640100000000811115620000e357600080fd5b82810190506020810184811115620000fa57600080fd5b81518560018202830111640100000000821117156200011857600080fd5b50509291906020018051906020019092919080516401000000008111156200013f57600080fd5b828101905060208101848111156200015657600080fd5b81518560018202830111640100000000821117156200017457600080fd5b50509291905050503373ffffffffffffffffffffffffffffffffffffffff1663dffeadd06040518163ffffffff167c010000000000000000000000000000000000000000000000000000000002815260040160206040518083038186803b158015620001df57600080fd5b505afa158015620001f4573d6000803e3d6000fd5b505050506040513d60208110156200020b57600080fd5b81019080805190602001909291905050506000806101000a81548173ffffffffffffffffffffffffffffffffffffffff021916908373ffffffffffffffffffffffffffffffffffffffff16021790555060008060009054906101000a900473ffffffffffffffffffffffffffffffffffffffff1673ffffffffffffffffffffffffffffffffffffffff1663e11aa6a2336040518263ffffffff167c0100000000000000000000000000000000000000000000000000000000028152600401808273ffffffffffffffffffffffffffffffffffffffff1673ffffffffffffffffffffffffffffffffffffffff16815260200191505060206040518083038186803b1580156200031857600080fd5b505afa1580156200032d573d6000803e3d6000fd5b505050506040513d60208110156200034457600080fd5b81019080805190602001909291905050509050600360058111156200036557fe5b8160058111156200037257fe5b141515620003e8576040517f08c379a00000000000000000000000000000000000000000000000000000000081526004018080602001828103825260138152602001807f57726f6e6720636f6e747261637420747970650000000000000000000000000081525060200191505060405180910390fd5b33600560006101000a81548173ffffffffffffffffffffffffffffffffffffffff021916908373ffffffffffffffffffffffffffffffffffffffff16021790555084600390805190602001906200044192919062000486565b5083600490805190602001906200045a92919062000486565b508260088190555081600990805190602001906200047a92919062000486565b50505050505062000535565b828054600181600116156101000203166002900490600052602060002090601f016020900481019282601f10620004c957805160ff1916838001178555620004fa565b82800160010185558215620004fa579182015b82811115620004f9578251825591602001919060010190620004dc565b5b5090506200050991906200050d565b5090565b6200053291905b808211156200052e57600081600090555060010162000514565b5090565b90565b61136c80620005456000396000f3fe6080604052600436106100e0576000357c01000000000000000000000000000000000000000000000000000000009004806313af4035146100e5578063186601ca146101365780631d31e51714610161578063200d2ed2146101b8578063325a19f1146101f1578063370158ea1461021c5780636dc9869b146102ac5780638bdcbc95146102d757806397d9393514610367578063a6f9dae1146103b8578063a7a38f0b14610409578063a93f6ec214610466578063af640d0f146104bd578063dffeadd014610514578063e8d503e91461056b578063f6d713dd14610582575b600080fd5b3480156100f157600080fd5b506101346004803603602081101561010857600080fd5b81019080803573ffffffffffffffffffffffffffffffffffffffff169060200190929190505050610612565b005b34801561014257600080fd5b5061014b610969565b6040518082815260200191505060405180910390f35b34801561016d57600080fd5b5061017661096f565b604051808273ffffffffffffffffffffffffffffffffffffffff1673ffffffffffffffffffffffffffffffffffffffff16815260200191505060405180910390f35b3480156101c457600080fd5b506101cd610995565b604051808260038111156101dd57fe5b60ff16815260200191505060405180910390f35b3480156101fd57600080fd5b506102066109a8565b6040518082815260200191505060405180910390f35b34801561022857600080fd5b506102316109ae565b6040518080602001828103825283818151815260200191508051906020019080838360005b83811015610271578082015181840152602081019050610256565b50505050905090810190601f16801561029e5780820380516001836020036101000a031916815260200191505b509250505060405180910390f35b3480156102b857600080fd5b506102c1610a4c565b6040518082815260200191505060405180910390f35b3480156102e357600080fd5b506102ec610a52565b6040518080602001828103825283818151815260200191508051906020019080838360005b8381101561032c578082015181840152602081019050610311565b50505050905090810190601f1680156103595780820380516001836020036101000a031916815260200191505b509250505060405180910390f35b34801561037357600080fd5b506103b66004803603602081101561038a57600080fd5b81019080803573ffffffffffffffffffffffffffffffffffffffff169060200190929190505050610af0565b005b3480156103c457600080fd5b50610407600480360360208110156103db57600080fd5b81019080803573ffffffffffffffffffffffffffffffffffffffff169060200190929190505050610e47565b005b34801561041557600080fd5b506104426004803603602081101561042c57600080fd5b81019080803590602001909291905050506110d8565b6040518082600481111561045257fe5b60ff16815260200191505060405180910390f35b34801561047257600080fd5b5061047b61110b565b604051808273ffffffffffffffffffffffffffffffffffffffff1673ffffffffffffffffffffffffffffffffffffffff16815260200191505060405180910390f35b3480156104c957600080fd5b506104d2611131565b604051808273ffffffffffffffffffffffffffffffffffffffff1673ffffffffffffffffffffffffffffffffffffffff16815260200191505060405180910390f35b34801561052057600080fd5b50610529611157565b604051808273ffffffffffffffffffffffffffffffffffffffff1673ffffffffffffffffffffffffffffffffffffffff16815260200191505060405180910390f35b34801561057757600080fd5b5061058061117c565b005b34801561058e57600080fd5b506105976112a2565b6040518080602001828103825283818151815260200191508051906020019080838360005b838110156105d75780820151818401526020810190506105bc565b50505050905090810190601f1680156106045780820380516001836020036101000a031916815260200191505b509250505060405180910390f35b600660009054906101000a900473ffffffffffffffffffffffffffffffffffffffff1673ffffffffffffffffffffffffffffffffffffffff163373ffffffffffffffffffffffffffffffffffffffff161415156106d7576040517f08c379a00000000000000000000000000000000000000000000000000000000081526004018080602001828103825260118152602001807f5065726d697373696f6e2064656e69656400000000000000000000000000000081525060200191505060405180910390fd5b600073ffffffffffffffffffffffffffffffffffffffff16600260009054906101000a900473ffffffffffffffffffffffffffffffffffffffff1673ffffffffffffffffffffffffffffffffffffffff1614151561079d576040517f08c379a00000000000000000000000000000000000000000000000000000000081526004018080602001828103825260148152602001807f4f776e657220697320616c72656164792073657400000000000000000000000081525060200191505060405180910390fd5b60008060009054906101000a900473ffffffffffffffffffffffffffffffffffffffff1673ffffffffffffffffffffffffffffffffffffffff1663e11aa6a2836040518263ffffffff167c0100000000000000000000000000000000000000000000000000000000028152600401808273ffffffffffffffffffffffffffffffffffffffff1673ffffffffffffffffffffffffffffffffffffffff16815260200191505060206040518083038186803b15801561085957600080fd5b505afa15801561086d573d6000803e3d6000fd5b505050506040513d602081101561088357600080fd5b81019080805190602001909291905050509050600260058111156108a357fe5b8160058111156108af57fe5b141515610924576040517f08c379a00000000000000000000000000000000000000000000000000000000081526004018080602001828103825260138152602001807f57726f6e6720636f6e747261637420747970650000000000000000000000000081525060200191505060405180910390fd5b81600260006101000a81548173ffffffffffffffffffffffffffffffffffffffff021916908373ffffffffffffffffffffffffffffffffffffffff1602179055505050565b600a5481565b600560009054906101000a900473ffffffffffffffffffffffffffffffffffffffff1681565b600b60009054906101000a900460ff1681565b60075481565b60048054600181600116156101000203166002900480601f016020809104026020016040519081016040528092919081815260200182805460018160011615610100020316600290048015610a445780601f10610a1957610100808354040283529160200191610a44565b820191906000526020600020905b815481529060010190602001808311610a2757829003601f168201915b505050505081565b60085481565b60098054600181600116156101000203166002900480601f016020809104026020016040519081016040528092919081815260200182805460018160011615610100020316600290048015610ae85780601f10610abd57610100808354040283529160200191610ae8565b820191906000526020600020905b815481529060010190602001808311610acb57829003601f168201915b505050505081565b600560009054906101000a900473ffffffffffffffffffffffffffffffffffffffff1673ffffffffffffffffffffffffffffffffffffffff163373ffffffffffffffffffffffffffffffffffffffff16141515610bb5576040517f08c379a00000000000000000000000000000000000000000000000000000000081526004018080602001828103825260118152602001807f5065726d697373696f6e2064656e69656400000000000000000000000000000081525060200191505060405180910390fd5b600073ffffffffffffffffffffffffffffffffffffffff16600660009054906101000a900473ffffffffffffffffffffffffffffffffffffffff1673ffffffffffffffffffffffffffffffffffffffff16141515610c7b576040517f08c379a00000000000000000000000000000000000000000000000000000000081526004018080602001828103825260158152602001807f56656e646f7220697320616c726561647920736574000000000000000000000081525060200191505060405180910390fd5b60008060009054906101000a900473ffffffffffffffffffffffffffffffffffffffff1673ffffffffffffffffffffffffffffffffffffffff1663e11aa6a2836040518263ffffffff167c0100000000000000000000000000000000000000000000000000000000028152600401808273ffffffffffffffffffffffffffffffffffffffff1673ffffffffffffffffffffffffffffffffffffffff16815260200191505060206040518083038186803b158015610d3757600080fd5b505afa158015610d4b573d6000803e3d6000fd5b505050506040513d6020811015610d6157600080fd5b8101908080519060200190929190505050905060046005811115610d8157fe5b816005811115610d8d57fe5b141515610e02576040517f08c379a00000000000000000000000000000000000000000000000000000000081526004018080602001828103825260138152602001807f57726f6e6720636f6e747261637420747970650000000000000000000000000081525060200191505060405180910390fd5b81600660006101000a81548173ffffffffffffffffffffffffffffffffffffffff021916908373ffffffffffffffffffffffffffffffffffffffff1602179055505050565b600260009054906101000a900473ffffffffffffffffffffffffffffffffffffffff1673ffffffffffffffffffffffffffffffffffffffff163373ffffffffffffffffffffffffffffffffffffffff16141515610f0c576040517f08c379a00000000000000000000000000000000000000000000000000000000081526004018080602001828103825260118152602001807f5065726d697373696f6e2064656e69656400000000000000000000000000000081525060200191505060405180910390fd5b60008060009054906101000a900473ffffffffffffffffffffffffffffffffffffffff1673ffffffffffffffffffffffffffffffffffffffff1663e11aa6a2836040518263ffffffff167c0100000000000000000000000000000000000000000000000000000000028152600401808273ffffffffffffffffffffffffffffffffffffffff1673ffffffffffffffffffffffffffffffffffffffff16815260200191505060206040518083038186803b158015610fc857600080fd5b505afa158015610fdc573d6000803e3d6000fd5b505050506040513d6020811015610ff257600080fd5b810190808051906020019092919050505090506002600581111561101257fe5b81600581111561101e57fe5b141515611093576040517f08c379a00000000000000000000000000000000000000000000000000000000081526004018080602001828103825260138152602001807f57726f6e6720636f6e747261637420747970650000000000000000000000000081525060200191505060405180910390fd5b81600260006101000a81548173ffffffffffffffffffffffffffffffffffffffff021916908373ffffffffffffffffffffffffffffffffffffffff1602179055505050565b600c818154811015156110e757fe5b9060005260206000209060209182820401919006915054906101000a900460ff1681565b600660009054906101000a900473ffffffffffffffffffffffffffffffffffffffff1681565b600160009054906101000a900473ffffffffffffffffffffffffffffffffffffffff1681565b6000809054906101000a900473ffffffffffffffffffffffffffffffffffffffff1681565b600560009054906101000a900473ffffffffffffffffffffffffffffffffffffffff1673ffffffffffffffffffffffffffffffffffffffff163373ffffffffffffffffffffffffffffffffffffffff1614806112255750600660009054906101000a900473ffffffffffffffffffffffffffffffffffffffff1673ffffffffffffffffffffffffffffffffffffffff163373ffffffffffffffffffffffffffffffffffffffff16145b1515611299576040517f08c379a00000000000000000000000000000000000000000000000000000000081526004018080602001828103825260118152602001807f5065726d697373696f6e2064656e69656400000000000000000000000000000081525060200191505060405180910390fd5b42600a81905550565b60038054600181600116156101000203166002900480601f0160208091040260200160405190810160405280929190818152602001828054600181600116156101000203166002900480156113385780601f1061130d57610100808354040283529160200191611338565b820191906000526020600020905b81548152906001019060200180831161131b57829003601f168201915b50505050508156fea165627a7a723058202b306af2648c1ab2379e8dede894cd37577c32f7881ee517feffdd4e309ee1240029",
  "source": "pragma solidity ^0.5.1;\n\nimport \"./Main.sol\";\nimport \"./Manufacturer.sol\";\n\ncontract Item {\n    Main public main;\n\n    address public id = address(this);\n    address private ownerID;\n    string public serial;\n    string public info;\n    address public manufacturerID;\n    address public vendorID;\n    uint public created;\n    uint public warrantyPeriod;\n    string public warrantyTerms;\n    uint public activated;\n\n    Status public status;\n    Action[] public history;\n\n    constructor (string memory _serial, string memory _info, uint _warrantyPeriod, string memory _warrantyTerms) public {\n        main = Manufacturer(msg.sender).main();\n\n        Main.ContractType cType = main.getContractType(msg.sender);\n        require((cType == Main.ContractType.MANUFACTURER), \"Wrong contract type\");\n\n        manufacturerID = msg.sender;\n        serial = _serial;\n        info = _info;\n        warrantyPeriod = _warrantyPeriod;\n        warrantyTerms = _warrantyTerms;\n    }\n\n\n\n// Public\n\n\n\n    function activateWarranty () onlyManufacturerOrVendor public {\n        activated = now;\n    }\n\n    function setVendor (address vID) onlyManufacturer public {\n        require((vendorID == address(0)), \"Vendor is already set\");\n        Main.ContractType cType = main.getContractType(vID);\n        require((cType == Main.ContractType.VENDOR), \"Wrong contract type\");\n        vendorID = vID;\n    }\n\n    function setOwner (address uID) onlyVendor public {\n        require((ownerID == address(0)), \"Owner is already set\");\n        Main.ContractType cType = main.getContractType(uID);\n        require((cType == Main.ContractType.USER), \"Wrong contract type\");\n        ownerID = uID;\n    }\n\n    function changeOwner (address uID) onlyOwner public {\n        Main.ContractType cType = main.getContractType(uID);\n        require((cType == Main.ContractType.USER), \"Wrong contract type\");\n        ownerID = uID;\n    }\n\n\n\n// Internal\n\n\n\n    enum Status {NORMAL, ON_SERVICE, DEFECTED, RETURNED}\n\n    enum Action {CREATION, TRANSFER, CHANGED_OWNER, SERVICE, RETURN}\n\n\n\n// Modifiers\n\n\n\n    modifier onlyOwner {\n        require((msg.sender == ownerID), \"Permission denied\");\n        _;\n    }\n\n    modifier onlyManufacturer {\n        require((msg.sender == manufacturerID), \"Permission denied\");\n        _;\n    }\n\n    modifier onlyVendor {\n        require((msg.sender == vendorID), \"Permission denied\");\n        _;\n    }\n\n    modifier onlyManufacturerOrVendor {\n        require(((msg.sender == manufacturerID) || (msg.sender == vendorID)), \"Permission denied\");\n        _;\n    }\n}\n",
  "sourcePath": "/Users/viktorgronskiy/Documents/Projects/Fun/GuarantSystem/blockchain/Item.sol",
  "compiler": {
    "name": "solc",
    "version": "0.5.1+commit.c8a2cb62.Emscripten.clang"
  },
  "schemaVersion": "3.0.1",
  "updatedAt": "2019-01-31T12:54:06.596Z",
  "devdoc": {
    "methods": {}
  },
  "userdoc": {
    "methods": {}
  }
}