{
  "contractName": "Item",
  "abi": [
    {
      "constant": true,
      "inputs": [],
      "name": "activated",
      "outputs": [
        {
          "name": "",
          "type": "uint256"
        }
      ],
      "payable": false,
      "stateMutability": "view",
      "type": "function"
    },
    {
      "constant": true,
      "inputs": [],
      "name": "manufacturerID",
      "outputs": [
        {
          "name": "",
          "type": "address"
        }
      ],
      "payable": false,
      "stateMutability": "view",
      "type": "function"
    },
    {
      "constant": true,
      "inputs": [],
      "name": "status",
      "outputs": [
        {
          "name": "",
          "type": "uint8"
        }
      ],
      "payable": false,
      "stateMutability": "view",
      "type": "function"
    },
    {
      "constant": true,
      "inputs": [],
      "name": "created",
      "outputs": [
        {
          "name": "",
          "type": "uint256"
        }
      ],
      "payable": false,
      "stateMutability": "view",
      "type": "function"
    },
    {
      "constant": true,
      "inputs": [],
      "name": "info",
      "outputs": [
        {
          "name": "",
          "type": "string"
        }
      ],
      "payable": false,
      "stateMutability": "view",
      "type": "function"
    },
    {
      "constant": true,
      "inputs": [],
      "name": "warrantyPeriod",
      "outputs": [
        {
          "name": "",
          "type": "uint256"
        }
      ],
      "payable": false,
      "stateMutability": "view",
      "type": "function"
    },
    {
      "constant": true,
      "inputs": [],
      "name": "warrantyTerms",
      "outputs": [
        {
          "name": "",
          "type": "string"
        }
      ],
      "payable": false,
      "stateMutability": "view",
      "type": "function"
    },
    {
      "constant": true,
      "inputs": [
        {
          "name": "",
          "type": "uint256"
        }
      ],
      "name": "history",
      "outputs": [
        {
          "name": "",
          "type": "uint8"
        }
      ],
      "payable": false,
      "stateMutability": "view",
      "type": "function"
    },
    {
      "constant": true,
      "inputs": [],
      "name": "vendorID",
      "outputs": [
        {
          "name": "",
          "type": "address"
        }
      ],
      "payable": false,
      "stateMutability": "view",
      "type": "function"
    },
    {
      "constant": true,
      "inputs": [],
      "name": "id",
      "outputs": [
        {
          "name": "",
          "type": "address"
        }
      ],
      "payable": false,
      "stateMutability": "view",
      "type": "function"
    },
    {
      "constant": true,
      "inputs": [],
      "name": "main",
      "outputs": [
        {
          "name": "",
          "type": "address"
        }
      ],
      "payable": false,
      "stateMutability": "view",
      "type": "function"
    },
    {
      "constant": true,
      "inputs": [],
      "name": "serial",
      "outputs": [
        {
          "name": "",
          "type": "string"
        }
      ],
      "payable": false,
      "stateMutability": "view",
      "type": "function"
    },
    {
      "inputs": [
        {
          "name": "_main",
          "type": "address"
        },
        {
          "name": "_serial",
          "type": "string"
        },
        {
          "name": "_info",
          "type": "string"
        },
        {
          "name": "_warrantyPeriod",
          "type": "uint256"
        },
        {
          "name": "_warrantyTerms",
          "type": "string"
        }
      ],
      "payable": false,
      "stateMutability": "nonpayable",
      "type": "constructor"
    },
    {
      "constant": true,
      "inputs": [],
      "name": "getInfo",
      "outputs": [
        {
          "name": "",
          "type": "string"
        },
        {
          "name": "",
          "type": "string"
        },
        {
          "name": "",
          "type": "address"
        },
        {
          "name": "",
          "type": "address"
        },
        {
          "name": "",
          "type": "uint256"
        },
        {
          "name": "",
          "type": "uint256"
        },
        {
          "name": "",
          "type": "string"
        },
        {
          "name": "",
          "type": "uint256"
        },
        {
          "name": "",
          "type": "uint8"
        },
        {
          "name": "",
          "type": "uint8[]"
        }
      ],
      "payable": false,
      "stateMutability": "view",
      "type": "function"
    },
    {
      "constant": false,
      "inputs": [],
      "name": "activateWarranty",
      "outputs": [],
      "payable": false,
      "stateMutability": "nonpayable",
      "type": "function"
    },
    {
      "constant": false,
      "inputs": [
        {
          "name": "vID",
          "type": "address"
        }
      ],
      "name": "setVendor",
      "outputs": [],
      "payable": false,
      "stateMutability": "nonpayable",
      "type": "function"
    },
    {
      "constant": false,
      "inputs": [
        {
          "name": "uID",
          "type": "address"
        }
      ],
      "name": "setOwner",
      "outputs": [],
      "payable": false,
      "stateMutability": "nonpayable",
      "type": "function"
    },
    {
      "constant": false,
      "inputs": [
        {
          "name": "uID",
          "type": "address"
        }
      ],
      "name": "changeOwner",
      "outputs": [],
      "payable": false,
      "stateMutability": "nonpayable",
      "type": "function"
    }
  ],
  "bytecode": "0x608060405260018054600160a060020a031916301790553480156200002357600080fd5b506040516200121e3803806200121e833981018060405260a08110156200004957600080fd5b8151602083018051919392830192916401000000008111156200006b57600080fd5b820160208101848111156200007f57600080fd5b81516401000000008111828201871017156200009a57600080fd5b50509291906020018051640100000000811115620000b757600080fd5b82016020810184811115620000cb57600080fd5b8151640100000000811182820187101715620000e657600080fd5b505060208201516040909201805191949293916401000000008111156200010c57600080fd5b820160208101848111156200012057600080fd5b81516401000000008111828201871017156200013b57600080fd5b505060008054600160a060020a031916600160a060020a038a811691909117808355604080517fc5a887c5000000000000000000000000000000000000000000000000000000008152336004820152905194975092955016925063c5a887c5916024808301926020929190829003018186803b158015620001bb57600080fd5b505afa158015620001d0573d6000803e3d6000fd5b505050506040513d6020811015620001e757600080fd5b505190506003816005811115620001fa57fe5b146200026757604080517f08c379a000000000000000000000000000000000000000000000000000000000815260206004820152601360248201527f57726f6e6720636f6e7472616374207479706500000000000000000000000000604482015290519081900360640190fd5b60058054600160a060020a0319163317905584516200028e906003906020880190620002cc565b508351620002a4906004906020870190620002cc565b5060088390558151620002bf906009906020850190620002cc565b5050505050505062000371565b828054600181600116156101000203166002900490600052602060002090601f016020900481019282601f106200030f57805160ff19168380011785556200033f565b828001600101855582156200033f579182015b828111156200033f57825182559160200191906001019062000322565b506200034d92915062000351565b5090565b6200036e91905b808211156200034d576000815560010162000358565b90565b610e9d80620003816000396000f3fe6080604052600436106100ea577c0100000000000000000000000000000000000000000000000000000000600035046313af403581146100ef578063186601ca146101245780631d31e5171461014b578063200d2ed21461017c578063325a19f1146101b5578063370158ea146101ca5780635a9b0b89146102545780636dc9869b1461044d5780638bdcbc951461046257806397d9393514610477578063a6f9dae1146104aa578063a7a38f0b146104dd578063a93f6ec214610517578063af640d0f1461052c578063dffeadd014610541578063e8d503e914610556578063f6d713dd1461056b575b600080fd5b3480156100fb57600080fd5b506101226004803603602081101561011257600080fd5b5035600160a060020a0316610580565b005b34801561013057600080fd5b50610139610759565b60408051918252519081900360200190f35b34801561015757600080fd5b5061016061075f565b60408051600160a060020a039092168252519081900360200190f35b34801561018857600080fd5b5061019161076e565b604051808260038111156101a157fe5b60ff16815260200191505060405180910390f35b3480156101c157600080fd5b50610139610777565b3480156101d657600080fd5b506101df61077d565b6040805160208082528351818301528351919283929083019185019080838360005b83811015610219578181015183820152602001610201565b50505050905090810190601f1680156102465780820380516001836020036101000a031916815260200191505b509250505060405180910390f35b34801561026057600080fd5b5061026961080b565b6040518080602001806020018b600160a060020a0316600160a060020a031681526020018a600160a060020a0316600160a060020a03168152602001898152602001888152602001806020018781526020018660038111156102c757fe5b60ff1681526020018060200185810385528f818151815260200191508051906020019080838360005b838110156103085781810151838201526020016102f0565b50505050905090810190601f1680156103355780820380516001836020036101000a031916815260200191505b5085810384528e818151815260200191508051906020019080838360005b8381101561036b578181015183820152602001610353565b50505050905090810190601f1680156103985780820380516001836020036101000a031916815260200191505b5085810383528951815289516020918201918b019080838360005b838110156103cb5781810151838201526020016103b3565b50505050905090810190601f1680156103f85780820380516001836020036101000a031916815260200191505b508581038252865181528651602091820191808901910280838360005b8381101561042d578181015183820152602001610415565b505050509050019e50505050505050505050505050505060405180910390f35b34801561045957600080fd5b50610139610aa0565b34801561046e57600080fd5b506101df610aa6565b34801561048357600080fd5b506101226004803603602081101561049a57600080fd5b5035600160a060020a0316610b01565b3480156104b657600080fd5b50610122600480360360208110156104cd57600080fd5b5035600160a060020a0316610cda565b3480156104e957600080fd5b506105076004803603602081101561050057600080fd5b5035610d2a565b604051808260048111156101a157fe5b34801561052357600080fd5b50610160610d5c565b34801561053857600080fd5b50610160610d6b565b34801561054d57600080fd5b50610160610d7a565b34801561056257600080fd5b50610122610d89565b34801561057757600080fd5b506101df610df6565b600654600160a060020a031633146105d0576040805160e560020a62461bcd0281526020600482015260116024820152600080516020610e52833981519152604482015290519081900360640190fd5b600254600160a060020a031615610631576040805160e560020a62461bcd02815260206004820152601460248201527f4f776e657220697320616c726561647920736574000000000000000000000000604482015290519081900360640190fd5b60008054604080517fc5a887c5000000000000000000000000000000000000000000000000000000008152600160a060020a0385811660048301529151919092169163c5a887c5916024808301926020929190829003018186803b15801561069857600080fd5b505afa1580156106ac573d6000803e3d6000fd5b505050506040513d60208110156106c257600080fd5b5051905060028160058111156106d457fe5b14610729576040805160e560020a62461bcd02815260206004820152601360248201527f57726f6e6720636f6e7472616374207479706500000000000000000000000000604482015290519081900360640190fd5b506002805473ffffffffffffffffffffffffffffffffffffffff1916600160a060020a0392909216919091179055565b600a5481565b600554600160a060020a031681565b600b5460ff1681565b60075481565b6004805460408051602060026001851615610100026000190190941693909304601f810184900484028201840190925281815292918301828280156108035780601f106107d857610100808354040283529160200191610803565b820191906000526020600020905b8154815290600101906020018083116107e657829003601f168201915b505050505081565b600554600654600754600854600a54600b5460038054604080516020601f600260001960018716156101000201909516949094049384018190048102820181019092528281526060998a996000998a998a998a998e998b998a998c999298600498600160a060020a039182169891169690959094600994919360ff90911692600c92918c918301828280156108e15780601f106108b6576101008083540402835291602001916108e1565b820191906000526020600020905b8154815290600101906020018083116108c457829003601f168201915b50508c5460408051602060026001851615610100026000190190941693909304601f8101849004840282018401909252818152959f508e94509250840190508282801561096f5780601f106109445761010080835404028352916020019161096f565b820191906000526020600020905b81548152906001019060200180831161095257829003601f168201915b5050875460408051602060026001851615610100026000190190941693909304601f8101849004840282018401909252818152959e50899450925084019050828280156109fd5780601f106109d2576101008083540402835291602001916109fd565b820191906000526020600020905b8154815290600101906020018083116109e057829003601f168201915b5050505050935080805480602002602001604051908101604052809291908181526020018280548015610a7957602002820191906000526020600020906000905b82829054906101000a900460ff166004811115610a5757fe5b815260206001928301818104948501949093039092029101808411610a3e5790505b50505050509050995099509950995099509950995099509950995090919293949596979899565b60085481565b6009805460408051602060026001851615610100026000190190941693909304601f810184900484028201840190925281815292918301828280156108035780601f106107d857610100808354040283529160200191610803565b600554600160a060020a03163314610b51576040805160e560020a62461bcd0281526020600482015260116024820152600080516020610e52833981519152604482015290519081900360640190fd5b600654600160a060020a031615610bb2576040805160e560020a62461bcd02815260206004820152601560248201527f56656e646f7220697320616c7265616479207365740000000000000000000000604482015290519081900360640190fd5b60008054604080517fc5a887c5000000000000000000000000000000000000000000000000000000008152600160a060020a0385811660048301529151919092169163c5a887c5916024808301926020929190829003018186803b158015610c1957600080fd5b505afa158015610c2d573d6000803e3d6000fd5b505050506040513d6020811015610c4357600080fd5b505190506004816005811115610c5557fe5b14610caa576040805160e560020a62461bcd02815260206004820152601360248201527f57726f6e6720636f6e7472616374207479706500000000000000000000000000604482015290519081900360640190fd5b506006805473ffffffffffffffffffffffffffffffffffffffff1916600160a060020a0392909216919091179055565b600254600160a060020a03163314610631576040805160e560020a62461bcd0281526020600482015260116024820152600080516020610e52833981519152604482015290519081900360640190fd5b600c805482908110610d3857fe5b9060005260206000209060209182820401919006915054906101000a900460ff1681565b600654600160a060020a031681565b600154600160a060020a031681565b600054600160a060020a031681565b600554600160a060020a0316331480610dac5750600654600160a060020a031633145b1515610df0576040805160e560020a62461bcd0281526020600482015260116024820152600080516020610e52833981519152604482015290519081900360640190fd5b42600a55565b6003805460408051602060026001851615610100026000190190941693909304601f810184900484028201840190925281815292918301828280156108035780601f106107d85761010080835404028352916020019161080356fe5065726d697373696f6e2064656e696564000000000000000000000000000000a165627a7a72305820cb24656e3fcda5a6df95c12ad9da9ccdab24d78a32c094d674f4acd355ff71800029",
  "source": "pragma solidity ^0.5.1;\n\nimport \"./interfaces/MainInterface.sol\";\n\ncontract Item {\n    MainInterface public main;\n\n    address public id = address(this);\n    address private ownerID;\n    string public serial;\n    string public info;\n    address public manufacturerID;\n    address public vendorID;\n    uint public created;\n    uint public warrantyPeriod;\n    string public warrantyTerms;\n    uint public activated;\n\n    Status public status;\n    Action[] public history;\n\n    constructor (address _main, string memory _serial, string memory _info, uint _warrantyPeriod, string memory _warrantyTerms) public {\n        main = MainInterface(_main);\n\n        MainInterface.ContractType cType = main.contractType(msg.sender);\n        require((cType == MainInterface.ContractType.MANUFACTURER), \"Wrong contract type\");\n\n        manufacturerID = msg.sender;\n        serial = _serial;\n        info = _info;\n        warrantyPeriod = _warrantyPeriod;\n        warrantyTerms = _warrantyTerms;\n    }\n\n\n\n// Getters\n    \n    \n    \n    function getInfo () view public returns (string memory, string memory, address, address, uint, uint, string memory, uint, Status, Action[] memory) {\n        return (serial, info, manufacturerID, vendorID, created, warrantyPeriod, warrantyTerms, activated, status, history);\n    }\n\n\n\n// Public\n\n\n\n    function activateWarranty () onlyManufacturerOrVendor public {\n        activated = now;\n    }\n\n    function setVendor (address vID) onlyManufacturer public {\n        require((vendorID == address(0)), \"Vendor is already set\");\n        MainInterface.ContractType cType = main.contractType(vID);\n        require((cType == MainInterface.ContractType.VENDOR), \"Wrong contract type\");\n        vendorID = vID;\n    }\n\n    function setOwner (address uID) onlyVendor public {\n        require((ownerID == address(0)), \"Owner is already set\");\n        MainInterface.ContractType cType = main.contractType(uID);\n        require((cType == MainInterface.ContractType.USER), \"Wrong contract type\");\n        ownerID = uID;\n    }\n\n    function changeOwner (address uID) onlyOwner public {\n        MainInterface.ContractType cType = main.contractType(uID);\n        require((cType == MainInterface.ContractType.USER), \"Wrong contract type\");\n        ownerID = uID;\n    }\n\n\n\n// Internal\n\n\n\n    enum Status {NORMAL, ON_SERVICE, DEFECTED, RETURNED}\n\n    enum Action {CREATION, TRANSFER, CHANGED_OWNER, SERVICE, RETURN}\n\n\n\n// Modifiers\n\n\n\n    modifier onlyOwner {\n        require((msg.sender == ownerID), \"Permission denied\");\n        _;\n    }\n\n    modifier onlyManufacturer {\n        require((msg.sender == manufacturerID), \"Permission denied\");\n        _;\n    }\n\n    modifier onlyVendor {\n        require((msg.sender == vendorID), \"Permission denied\");\n        _;\n    }\n\n    modifier onlyManufacturerOrVendor {\n        require(((msg.sender == manufacturerID) || (msg.sender == vendorID)), \"Permission denied\");\n        _;\n    }\n}\n",
  "sourcePath": "/Users/viktorgronskiy/Documents/Projects/Fun/GuarantSystem/blockchain/src/Item.sol",
  "compiler": {
    "name": "solc",
    "version": "0.5.1+commit.c8a2cb62.Emscripten.clang"
  },
  "schemaVersion": "3.0.1",
  "updatedAt": "2019-02-02T19:34:55.973Z",
  "devdoc": {
    "methods": {}
  },
  "userdoc": {
    "methods": {}
  }
}