{
  "contractName": "Item",
  "abi": [
    {
      "constant": true,
      "inputs": [],
      "name": "activated",
      "outputs": [
        {
          "name": "",
          "type": "uint256"
        }
      ],
      "payable": false,
      "stateMutability": "view",
      "type": "function"
    },
    {
      "constant": true,
      "inputs": [],
      "name": "manufacturerID",
      "outputs": [
        {
          "name": "",
          "type": "address"
        }
      ],
      "payable": false,
      "stateMutability": "view",
      "type": "function"
    },
    {
      "constant": true,
      "inputs": [],
      "name": "status",
      "outputs": [
        {
          "name": "",
          "type": "uint8"
        }
      ],
      "payable": false,
      "stateMutability": "view",
      "type": "function"
    },
    {
      "constant": true,
      "inputs": [],
      "name": "created",
      "outputs": [
        {
          "name": "",
          "type": "uint256"
        }
      ],
      "payable": false,
      "stateMutability": "view",
      "type": "function"
    },
    {
      "constant": true,
      "inputs": [],
      "name": "info",
      "outputs": [
        {
          "name": "",
          "type": "string"
        }
      ],
      "payable": false,
      "stateMutability": "view",
      "type": "function"
    },
    {
      "constant": true,
      "inputs": [],
      "name": "warrantyPeriod",
      "outputs": [
        {
          "name": "",
          "type": "uint256"
        }
      ],
      "payable": false,
      "stateMutability": "view",
      "type": "function"
    },
    {
      "constant": true,
      "inputs": [],
      "name": "warrantyTerms",
      "outputs": [
        {
          "name": "",
          "type": "string"
        }
      ],
      "payable": false,
      "stateMutability": "view",
      "type": "function"
    },
    {
      "constant": true,
      "inputs": [
        {
          "name": "",
          "type": "uint256"
        }
      ],
      "name": "history",
      "outputs": [
        {
          "name": "",
          "type": "uint8"
        }
      ],
      "payable": false,
      "stateMutability": "view",
      "type": "function"
    },
    {
      "constant": true,
      "inputs": [],
      "name": "vendorID",
      "outputs": [
        {
          "name": "",
          "type": "address"
        }
      ],
      "payable": false,
      "stateMutability": "view",
      "type": "function"
    },
    {
      "constant": true,
      "inputs": [],
      "name": "id",
      "outputs": [
        {
          "name": "",
          "type": "address"
        }
      ],
      "payable": false,
      "stateMutability": "view",
      "type": "function"
    },
    {
      "constant": true,
      "inputs": [],
      "name": "main",
      "outputs": [
        {
          "name": "",
          "type": "address"
        }
      ],
      "payable": false,
      "stateMutability": "view",
      "type": "function"
    },
    {
      "constant": true,
      "inputs": [],
      "name": "serial",
      "outputs": [
        {
          "name": "",
          "type": "string"
        }
      ],
      "payable": false,
      "stateMutability": "view",
      "type": "function"
    },
    {
      "inputs": [
        {
          "name": "_main",
          "type": "address"
        },
        {
          "name": "_serial",
          "type": "string"
        },
        {
          "name": "_info",
          "type": "string"
        },
        {
          "name": "_warrantyPeriod",
          "type": "uint256"
        },
        {
          "name": "_warrantyTerms",
          "type": "string"
        }
      ],
      "payable": false,
      "stateMutability": "nonpayable",
      "type": "constructor"
    },
    {
      "constant": true,
      "inputs": [],
      "name": "getInfo",
      "outputs": [
        {
          "name": "",
          "type": "string"
        },
        {
          "name": "",
          "type": "string"
        },
        {
          "name": "",
          "type": "address"
        },
        {
          "name": "",
          "type": "address"
        },
        {
          "name": "",
          "type": "uint256"
        },
        {
          "name": "",
          "type": "uint256"
        },
        {
          "name": "",
          "type": "string"
        },
        {
          "name": "",
          "type": "uint256"
        },
        {
          "name": "",
          "type": "uint8"
        },
        {
          "name": "",
          "type": "uint8[]"
        }
      ],
      "payable": false,
      "stateMutability": "view",
      "type": "function"
    },
    {
      "constant": false,
      "inputs": [],
      "name": "activateWarranty",
      "outputs": [],
      "payable": false,
      "stateMutability": "nonpayable",
      "type": "function"
    },
    {
      "constant": false,
      "inputs": [
        {
          "name": "vID",
          "type": "address"
        }
      ],
      "name": "setVendor",
      "outputs": [],
      "payable": false,
      "stateMutability": "nonpayable",
      "type": "function"
    },
    {
      "constant": false,
      "inputs": [
        {
          "name": "uID",
          "type": "address"
        }
      ],
      "name": "setOwner",
      "outputs": [],
      "payable": false,
      "stateMutability": "nonpayable",
      "type": "function"
    },
    {
      "constant": false,
      "inputs": [
        {
          "name": "uID",
          "type": "address"
        }
      ],
      "name": "changeOwner",
      "outputs": [],
      "payable": false,
      "stateMutability": "nonpayable",
      "type": "function"
    }
  ],
  "bytecode": "0x608060405230600160006101000a81548173ffffffffffffffffffffffffffffffffffffffff021916908373ffffffffffffffffffffffffffffffffffffffff1602179055503480156200005257600080fd5b5060405162001d5338038062001d53833981018060405260a08110156200007857600080fd5b810190808051906020019092919080516401000000008111156200009b57600080fd5b82810190506020810184811115620000b257600080fd5b8151856001820283011164010000000082111715620000d057600080fd5b50509291906020018051640100000000811115620000ed57600080fd5b828101905060208101848111156200010457600080fd5b81518560018202830111640100000000821117156200012257600080fd5b50509291906020018051906020019092919080516401000000008111156200014957600080fd5b828101905060208101848111156200016057600080fd5b81518560018202830111640100000000821117156200017e57600080fd5b5050929190505050846000806101000a81548173ffffffffffffffffffffffffffffffffffffffff021916908373ffffffffffffffffffffffffffffffffffffffff16021790555060008060009054906101000a900473ffffffffffffffffffffffffffffffffffffffff1673ffffffffffffffffffffffffffffffffffffffff1663c5a887c5336040518263ffffffff167c0100000000000000000000000000000000000000000000000000000000028152600401808273ffffffffffffffffffffffffffffffffffffffff1673ffffffffffffffffffffffffffffffffffffffff16815260200191505060206040518083038186803b1580156200028357600080fd5b505afa15801562000298573d6000803e3d6000fd5b505050506040513d6020811015620002af57600080fd5b8101908080519060200190929190505050905060036005811115620002d057fe5b816005811115620002dd57fe5b14151562000353576040517f08c379a00000000000000000000000000000000000000000000000000000000081526004018080602001828103825260138152602001807f57726f6e6720636f6e747261637420747970650000000000000000000000000081525060200191505060405180910390fd5b33600560006101000a81548173ffffffffffffffffffffffffffffffffffffffff021916908373ffffffffffffffffffffffffffffffffffffffff1602179055508460039080519060200190620003ac929190620003f2565b508360049080519060200190620003c5929190620003f2565b50826008819055508160099080519060200190620003e5929190620003f2565b50505050505050620004a1565b828054600181600116156101000203166002900490600052602060002090601f016020900481019282601f106200043557805160ff191683800117855562000466565b8280016001018555821562000466579182015b828111156200046557825182559160200191906001019062000448565b5b50905062000475919062000479565b5090565b6200049e91905b808211156200049a57600081600090555060010162000480565b5090565b90565b6118a280620004b16000396000f3fe6080604052600436106100eb576000357c01000000000000000000000000000000000000000000000000000000009004806313af4035146100f0578063186601ca146101415780631d31e5171461016c578063200d2ed2146101c3578063325a19f1146101fc578063370158ea146102275780635a9b0b89146102b75780636dc9869b146104f75780638bdcbc951461052257806397d93935146105b2578063a6f9dae114610603578063a7a38f0b14610654578063a93f6ec2146106b1578063af640d0f14610708578063dffeadd01461075f578063e8d503e9146107b6578063f6d713dd146107cd575b600080fd5b3480156100fc57600080fd5b5061013f6004803603602081101561011357600080fd5b81019080803573ffffffffffffffffffffffffffffffffffffffff16906020019092919050505061085d565b005b34801561014d57600080fd5b50610156610bb4565b6040518082815260200191505060405180910390f35b34801561017857600080fd5b50610181610bba565b604051808273ffffffffffffffffffffffffffffffffffffffff1673ffffffffffffffffffffffffffffffffffffffff16815260200191505060405180910390f35b3480156101cf57600080fd5b506101d8610be0565b604051808260038111156101e857fe5b60ff16815260200191505060405180910390f35b34801561020857600080fd5b50610211610bf3565b6040518082815260200191505060405180910390f35b34801561023357600080fd5b5061023c610bf9565b6040518080602001828103825283818151815260200191508051906020019080838360005b8381101561027c578082015181840152602081019050610261565b50505050905090810190601f1680156102a95780820380516001836020036101000a031916815260200191505b509250505060405180910390f35b3480156102c357600080fd5b506102cc610c97565b6040518080602001806020018b73ffffffffffffffffffffffffffffffffffffffff1673ffffffffffffffffffffffffffffffffffffffff1681526020018a73ffffffffffffffffffffffffffffffffffffffff1673ffffffffffffffffffffffffffffffffffffffff1681526020018981526020018881526020018060200187815260200186600381111561035e57fe5b60ff1681526020018060200185810385528f818151815260200191508051906020019080838360005b838110156103a2578082015181840152602081019050610387565b50505050905090810190601f1680156103cf5780820380516001836020036101000a031916815260200191505b5085810384528e818151815260200191508051906020019080838360005b838110156104085780820151818401526020810190506103ed565b50505050905090810190601f1680156104355780820380516001836020036101000a031916815260200191505b50858103835289818151815260200191508051906020019080838360005b8381101561046e578082015181840152602081019050610453565b50505050905090810190601f16801561049b5780820380516001836020036101000a031916815260200191505b50858103825286818151815260200191508051906020019060200280838360005b838110156104d75780820151818401526020810190506104bc565b505050509050019e50505050505050505050505050505060405180910390f35b34801561050357600080fd5b5061050c610f82565b6040518082815260200191505060405180910390f35b34801561052e57600080fd5b50610537610f88565b6040518080602001828103825283818151815260200191508051906020019080838360005b8381101561057757808201518184015260208101905061055c565b50505050905090810190601f1680156105a45780820380516001836020036101000a031916815260200191505b509250505060405180910390f35b3480156105be57600080fd5b50610601600480360360208110156105d557600080fd5b81019080803573ffffffffffffffffffffffffffffffffffffffff169060200190929190505050611026565b005b34801561060f57600080fd5b506106526004803603602081101561062657600080fd5b81019080803573ffffffffffffffffffffffffffffffffffffffff16906020019092919050505061137d565b005b34801561066057600080fd5b5061068d6004803603602081101561067757600080fd5b810190808035906020019092919050505061160e565b6040518082600481111561069d57fe5b60ff16815260200191505060405180910390f35b3480156106bd57600080fd5b506106c6611641565b604051808273ffffffffffffffffffffffffffffffffffffffff1673ffffffffffffffffffffffffffffffffffffffff16815260200191505060405180910390f35b34801561071457600080fd5b5061071d611667565b604051808273ffffffffffffffffffffffffffffffffffffffff1673ffffffffffffffffffffffffffffffffffffffff16815260200191505060405180910390f35b34801561076b57600080fd5b5061077461168d565b604051808273ffffffffffffffffffffffffffffffffffffffff1673ffffffffffffffffffffffffffffffffffffffff16815260200191505060405180910390f35b3480156107c257600080fd5b506107cb6116b2565b005b3480156107d957600080fd5b506107e26117d8565b6040518080602001828103825283818151815260200191508051906020019080838360005b83811015610822578082015181840152602081019050610807565b50505050905090810190601f16801561084f5780820380516001836020036101000a031916815260200191505b509250505060405180910390f35b600660009054906101000a900473ffffffffffffffffffffffffffffffffffffffff1673ffffffffffffffffffffffffffffffffffffffff163373ffffffffffffffffffffffffffffffffffffffff16141515610922576040517f08c379a00000000000000000000000000000000000000000000000000000000081526004018080602001828103825260118152602001807f5065726d697373696f6e2064656e69656400000000000000000000000000000081525060200191505060405180910390fd5b600073ffffffffffffffffffffffffffffffffffffffff16600260009054906101000a900473ffffffffffffffffffffffffffffffffffffffff1673ffffffffffffffffffffffffffffffffffffffff161415156109e8576040517f08c379a00000000000000000000000000000000000000000000000000000000081526004018080602001828103825260148152602001807f4f776e657220697320616c72656164792073657400000000000000000000000081525060200191505060405180910390fd5b60008060009054906101000a900473ffffffffffffffffffffffffffffffffffffffff1673ffffffffffffffffffffffffffffffffffffffff1663c5a887c5836040518263ffffffff167c0100000000000000000000000000000000000000000000000000000000028152600401808273ffffffffffffffffffffffffffffffffffffffff1673ffffffffffffffffffffffffffffffffffffffff16815260200191505060206040518083038186803b158015610aa457600080fd5b505afa158015610ab8573d6000803e3d6000fd5b505050506040513d6020811015610ace57600080fd5b8101908080519060200190929190505050905060026005811115610aee57fe5b816005811115610afa57fe5b141515610b6f576040517f08c379a00000000000000000000000000000000000000000000000000000000081526004018080602001828103825260138152602001807f57726f6e6720636f6e747261637420747970650000000000000000000000000081525060200191505060405180910390fd5b81600260006101000a81548173ffffffffffffffffffffffffffffffffffffffff021916908373ffffffffffffffffffffffffffffffffffffffff1602179055505050565b600a5481565b600560009054906101000a900473ffffffffffffffffffffffffffffffffffffffff1681565b600b60009054906101000a900460ff1681565b60075481565b60048054600181600116156101000203166002900480601f016020809104026020016040519081016040528092919081815260200182805460018160011615610100020316600290048015610c8f5780601f10610c6457610100808354040283529160200191610c8f565b820191906000526020600020905b815481529060010190602001808311610c7257829003601f168201915b505050505081565b6060806000806000806060600080606060036004600560009054906101000a900473ffffffffffffffffffffffffffffffffffffffff16600660009054906101000a900473ffffffffffffffffffffffffffffffffffffffff166007546008546009600a54600b60009054906101000a900460ff16600c898054600181600116156101000203166002900480601f016020809104026020016040519081016040528092919081815260200182805460018160011615610100020316600290048015610da35780601f10610d7857610100808354040283529160200191610da3565b820191906000526020600020905b815481529060010190602001808311610d8657829003601f168201915b50505050509950888054600181600116156101000203166002900480601f016020809104026020016040519081016040528092919081815260200182805460018160011615610100020316600290048015610e3f5780601f10610e1457610100808354040283529160200191610e3f565b820191906000526020600020905b815481529060010190602001808311610e2257829003601f168201915b50505050509850838054600181600116156101000203166002900480601f016020809104026020016040519081016040528092919081815260200182805460018160011615610100020316600290048015610edb5780601f10610eb057610100808354040283529160200191610edb565b820191906000526020600020905b815481529060010190602001808311610ebe57829003601f168201915b5050505050935080805480602002602001604051908101604052809291908181526020018280548015610f5b57602002820191906000526020600020906000905b82829054906101000a900460ff166004811115610f3557fe5b81526020019060010190602082600001049283019260010382029150808411610f1c5790505b50505050509050995099509950995099509950995099509950995090919293949596979899565b60085481565b60098054600181600116156101000203166002900480601f01602080910402602001604051908101604052809291908181526020018280546001816001161561010002031660029004801561101e5780601f10610ff35761010080835404028352916020019161101e565b820191906000526020600020905b81548152906001019060200180831161100157829003601f168201915b505050505081565b600560009054906101000a900473ffffffffffffffffffffffffffffffffffffffff1673ffffffffffffffffffffffffffffffffffffffff163373ffffffffffffffffffffffffffffffffffffffff161415156110eb576040517f08c379a00000000000000000000000000000000000000000000000000000000081526004018080602001828103825260118152602001807f5065726d697373696f6e2064656e69656400000000000000000000000000000081525060200191505060405180910390fd5b600073ffffffffffffffffffffffffffffffffffffffff16600660009054906101000a900473ffffffffffffffffffffffffffffffffffffffff1673ffffffffffffffffffffffffffffffffffffffff161415156111b1576040517f08c379a00000000000000000000000000000000000000000000000000000000081526004018080602001828103825260158152602001807f56656e646f7220697320616c726561647920736574000000000000000000000081525060200191505060405180910390fd5b60008060009054906101000a900473ffffffffffffffffffffffffffffffffffffffff1673ffffffffffffffffffffffffffffffffffffffff1663c5a887c5836040518263ffffffff167c0100000000000000000000000000000000000000000000000000000000028152600401808273ffffffffffffffffffffffffffffffffffffffff1673ffffffffffffffffffffffffffffffffffffffff16815260200191505060206040518083038186803b15801561126d57600080fd5b505afa158015611281573d6000803e3d6000fd5b505050506040513d602081101561129757600080fd5b81019080805190602001909291905050509050600460058111156112b757fe5b8160058111156112c357fe5b141515611338576040517f08c379a00000000000000000000000000000000000000000000000000000000081526004018080602001828103825260138152602001807f57726f6e6720636f6e747261637420747970650000000000000000000000000081525060200191505060405180910390fd5b81600660006101000a81548173ffffffffffffffffffffffffffffffffffffffff021916908373ffffffffffffffffffffffffffffffffffffffff1602179055505050565b600260009054906101000a900473ffffffffffffffffffffffffffffffffffffffff1673ffffffffffffffffffffffffffffffffffffffff163373ffffffffffffffffffffffffffffffffffffffff16141515611442576040517f08c379a00000000000000000000000000000000000000000000000000000000081526004018080602001828103825260118152602001807f5065726d697373696f6e2064656e69656400000000000000000000000000000081525060200191505060405180910390fd5b60008060009054906101000a900473ffffffffffffffffffffffffffffffffffffffff1673ffffffffffffffffffffffffffffffffffffffff1663c5a887c5836040518263ffffffff167c0100000000000000000000000000000000000000000000000000000000028152600401808273ffffffffffffffffffffffffffffffffffffffff1673ffffffffffffffffffffffffffffffffffffffff16815260200191505060206040518083038186803b1580156114fe57600080fd5b505afa158015611512573d6000803e3d6000fd5b505050506040513d602081101561152857600080fd5b810190808051906020019092919050505090506002600581111561154857fe5b81600581111561155457fe5b1415156115c9576040517f08c379a00000000000000000000000000000000000000000000000000000000081526004018080602001828103825260138152602001807f57726f6e6720636f6e747261637420747970650000000000000000000000000081525060200191505060405180910390fd5b81600260006101000a81548173ffffffffffffffffffffffffffffffffffffffff021916908373ffffffffffffffffffffffffffffffffffffffff1602179055505050565b600c8181548110151561161d57fe5b9060005260206000209060209182820401919006915054906101000a900460ff1681565b600660009054906101000a900473ffffffffffffffffffffffffffffffffffffffff1681565b600160009054906101000a900473ffffffffffffffffffffffffffffffffffffffff1681565b6000809054906101000a900473ffffffffffffffffffffffffffffffffffffffff1681565b600560009054906101000a900473ffffffffffffffffffffffffffffffffffffffff1673ffffffffffffffffffffffffffffffffffffffff163373ffffffffffffffffffffffffffffffffffffffff16148061175b5750600660009054906101000a900473ffffffffffffffffffffffffffffffffffffffff1673ffffffffffffffffffffffffffffffffffffffff163373ffffffffffffffffffffffffffffffffffffffff16145b15156117cf576040517f08c379a00000000000000000000000000000000000000000000000000000000081526004018080602001828103825260118152602001807f5065726d697373696f6e2064656e69656400000000000000000000000000000081525060200191505060405180910390fd5b42600a81905550565b60038054600181600116156101000203166002900480601f01602080910402602001604051908101604052809291908181526020018280546001816001161561010002031660029004801561186e5780601f106118435761010080835404028352916020019161186e565b820191906000526020600020905b81548152906001019060200180831161185157829003601f168201915b50505050508156fea165627a7a72305820ba9c6fcf6f34a67b1047776da0f57eaa534b2339f1389138830225d739621dd10029",
  "source": "pragma solidity ^0.5.1;\n\nimport \"./interfaces/Main.sol\";\n\ncontract Item {\n    Main public main;\n\n    address public id = address(this);\n    address private ownerID;\n    string public serial;\n    string public info;\n    address public manufacturerID;\n    address public vendorID;\n    uint public created;\n    uint public warrantyPeriod;\n    string public warrantyTerms;\n    uint public activated;\n\n    Status public status;\n    Action[] public history;\n\n    constructor (address _main, string memory _serial, string memory _info, uint _warrantyPeriod, string memory _warrantyTerms) public {\n        main = Main(_main);\n\n        Main.ContractType cType = main.contractType(msg.sender);\n        require((cType == Main.ContractType.MANUFACTURER), \"Wrong contract type\");\n\n        manufacturerID = msg.sender;\n        serial = _serial;\n        info = _info;\n        warrantyPeriod = _warrantyPeriod;\n        warrantyTerms = _warrantyTerms;\n    }\n\n\n\n// Getters\n    \n    \n    \n    function getInfo () view public returns (string memory, string memory, address, address, uint, uint, string memory, uint, Status, Action[] memory) {\n        return (serial, info, manufacturerID, vendorID, created, warrantyPeriod, warrantyTerms, activated, status, history);\n    }\n\n\n\n// Public\n\n\n\n    function activateWarranty () onlyManufacturerOrVendor public {\n        activated = now;\n    }\n\n    function setVendor (address vID) onlyManufacturer public {\n        require((vendorID == address(0)), \"Vendor is already set\");\n        Main.ContractType cType = main.contractType(vID);\n        require((cType == Main.ContractType.VENDOR), \"Wrong contract type\");\n        vendorID = vID;\n    }\n\n    function setOwner (address uID) onlyVendor public {\n        require((ownerID == address(0)), \"Owner is already set\");\n        Main.ContractType cType = main.contractType(uID);\n        require((cType == Main.ContractType.USER), \"Wrong contract type\");\n        ownerID = uID;\n    }\n\n    function changeOwner (address uID) onlyOwner public {\n        Main.ContractType cType = main.contractType(uID);\n        require((cType == Main.ContractType.USER), \"Wrong contract type\");\n        ownerID = uID;\n    }\n\n\n\n// Internal\n\n\n\n    enum Status {NORMAL, ON_SERVICE, DEFECTED, RETURNED}\n\n    enum Action {CREATION, TRANSFER, CHANGED_OWNER, SERVICE, RETURN}\n\n\n\n// Modifiers\n\n\n\n    modifier onlyOwner {\n        require((msg.sender == ownerID), \"Permission denied\");\n        _;\n    }\n\n    modifier onlyManufacturer {\n        require((msg.sender == manufacturerID), \"Permission denied\");\n        _;\n    }\n\n    modifier onlyVendor {\n        require((msg.sender == vendorID), \"Permission denied\");\n        _;\n    }\n\n    modifier onlyManufacturerOrVendor {\n        require(((msg.sender == manufacturerID) || (msg.sender == vendorID)), \"Permission denied\");\n        _;\n    }\n}\n",
  "sourcePath": "/Users/viktorgronskiy/Documents/Projects/Fun/GuarantSystem/blockchain/src/Item.sol",
  "compiler": {
    "name": "solc",
    "version": "0.5.1+commit.c8a2cb62.Emscripten.clang"
  },
  "schemaVersion": "3.0.1",
  "updatedAt": "2019-02-02T15:05:53.627Z",
  "devdoc": {
    "methods": {}
  },
  "userdoc": {
    "methods": {}
  }
}