{
  "contractName": "Main",
  "abi": [
    {
      "constant": true,
      "inputs": [
        {
          "name": "",
          "type": "uint256"
        },
        {
          "name": "",
          "type": "uint256"
        }
      ],
      "name": "manufacturerList",
      "outputs": [
        {
          "name": "",
          "type": "address"
        }
      ],
      "payable": false,
      "stateMutability": "view",
      "type": "function"
    },
    {
      "constant": true,
      "inputs": [
        {
          "name": "",
          "type": "uint256"
        },
        {
          "name": "",
          "type": "uint256"
        }
      ],
      "name": "serviceCenterList",
      "outputs": [
        {
          "name": "",
          "type": "address"
        }
      ],
      "payable": false,
      "stateMutability": "view",
      "type": "function"
    },
    {
      "constant": true,
      "inputs": [
        {
          "name": "",
          "type": "uint256"
        },
        {
          "name": "",
          "type": "uint256"
        }
      ],
      "name": "userList",
      "outputs": [
        {
          "name": "",
          "type": "address"
        }
      ],
      "payable": false,
      "stateMutability": "view",
      "type": "function"
    },
    {
      "constant": true,
      "inputs": [
        {
          "name": "",
          "type": "address"
        }
      ],
      "name": "contractType",
      "outputs": [
        {
          "name": "",
          "type": "uint8"
        }
      ],
      "payable": false,
      "stateMutability": "view",
      "type": "function"
    },
    {
      "constant": true,
      "inputs": [
        {
          "name": "",
          "type": "uint256"
        },
        {
          "name": "",
          "type": "uint256"
        }
      ],
      "name": "vendorList",
      "outputs": [
        {
          "name": "",
          "type": "address"
        }
      ],
      "payable": false,
      "stateMutability": "view",
      "type": "function"
    },
    {
      "constant": true,
      "inputs": [],
      "name": "main",
      "outputs": [
        {
          "name": "",
          "type": "address"
        }
      ],
      "payable": false,
      "stateMutability": "view",
      "type": "function"
    },
    {
      "constant": true,
      "inputs": [
        {
          "name": "",
          "type": "address"
        }
      ],
      "name": "ownerToID",
      "outputs": [
        {
          "name": "",
          "type": "address"
        }
      ],
      "payable": false,
      "stateMutability": "view",
      "type": "function"
    },
    {
      "inputs": [
        {
          "name": "_userDeployer",
          "type": "address"
        },
        {
          "name": "_manufacturerDeployer",
          "type": "address"
        },
        {
          "name": "_vendorDeployer",
          "type": "address"
        },
        {
          "name": "_serviceCenterDeployer",
          "type": "address"
        }
      ],
      "payable": false,
      "stateMutability": "nonpayable",
      "type": "constructor"
    },
    {
      "constant": false,
      "inputs": [
        {
          "name": "_ownerID",
          "type": "address"
        }
      ],
      "name": "registerUser",
      "outputs": [],
      "payable": false,
      "stateMutability": "nonpayable",
      "type": "function"
    },
    {
      "constant": false,
      "inputs": [
        {
          "name": "_ownerID",
          "type": "address"
        },
        {
          "name": "_name",
          "type": "string"
        },
        {
          "name": "_physicalAddress",
          "type": "string"
        },
        {
          "name": "_registrationNumber",
          "type": "string"
        }
      ],
      "name": "registerManufacturer",
      "outputs": [],
      "payable": false,
      "stateMutability": "nonpayable",
      "type": "function"
    },
    {
      "constant": false,
      "inputs": [
        {
          "name": "_ownerID",
          "type": "address"
        },
        {
          "name": "_name",
          "type": "string"
        },
        {
          "name": "_physicalAddress",
          "type": "string"
        },
        {
          "name": "_registrationNumber",
          "type": "string"
        }
      ],
      "name": "registerVendor",
      "outputs": [],
      "payable": false,
      "stateMutability": "nonpayable",
      "type": "function"
    },
    {
      "constant": false,
      "inputs": [
        {
          "name": "_ownerID",
          "type": "address"
        },
        {
          "name": "_name",
          "type": "string"
        },
        {
          "name": "_physicalAddress",
          "type": "string"
        },
        {
          "name": "_registrationNumber",
          "type": "string"
        }
      ],
      "name": "registerServiceCenter",
      "outputs": [],
      "payable": false,
      "stateMutability": "nonpayable",
      "type": "function"
    }
  ],
  "bytecode": "0x608060405260018054600160a060020a0319163017905534801561002257600080fd5b5060405160808061133a8339810180604052608081101561004257600080fd5b5080516020820151604083015160609093015160078054600160a060020a0319908116600160a060020a03958616179091556008805482169385169390931790925560098054831694841694909417909355600a805490911691909216179055611289806100b16000396000f3fe60806040526004361061008f5760e060020a60003504632199d5cd811461009457806347fa7408146100c95780634a5ddb741461011557806369bddfd6146102e6578063ae2349de14610316578063c02fcf2014610346578063c21ea20014610517578063c5a887c5146106e8578063cce513451461073f578063dffeadd01461076f578063f3e055e314610784575b600080fd5b3480156100a057600080fd5b506100c7600480360360208110156100b757600080fd5b5035600160a060020a03166107b7565b005b3480156100d557600080fd5b506100f9600480360360408110156100ec57600080fd5b508035906020013561094d565b60408051600160a060020a039092168252519081900360200190f35b34801561012157600080fd5b506100c76004803603608081101561013857600080fd5b600160a060020a03823516919081019060408101602082013564010000000081111561016357600080fd5b82018360208201111561017557600080fd5b8035906020019184600183028401116401000000008311171561019757600080fd5b91908080601f01602080910402602001604051908101604052809392919081815260200183838082843760009201919091525092959493602081019350359150506401000000008111156101ea57600080fd5b8201836020820111156101fc57600080fd5b8035906020019184600183028401116401000000008311171561021e57600080fd5b91908080601f016020809104026020016040519081016040528093929190818152602001838380828437600092019190915250929594936020810193503591505064010000000081111561027157600080fd5b82018360208201111561028357600080fd5b803590602001918460018302840111640100000000831117156102a557600080fd5b91908080601f016020809104026020016040519081016040528093929190818152602001838380828437600092019190915250929550610988945050505050565b3480156102f257600080fd5b506100f96004803603604081101561030957600080fd5b5080359060200135610c4f565b34801561032257600080fd5b506100f96004803603604081101561033957600080fd5b5080359060200135610c5d565b34801561035257600080fd5b506100c76004803603608081101561036957600080fd5b600160a060020a03823516919081019060408101602082013564010000000081111561039457600080fd5b8201836020820111156103a657600080fd5b803590602001918460018302840111640100000000831117156103c857600080fd5b91908080601f016020809104026020016040519081016040528093929190818152602001838380828437600092019190915250929594936020810193503591505064010000000081111561041b57600080fd5b82018360208201111561042d57600080fd5b8035906020019184600183028401116401000000008311171561044f57600080fd5b91908080601f01602080910402602001604051908101604052809392919081815260200183838082843760009201919091525092959493602081019350359150506401000000008111156104a257600080fd5b8201836020820111156104b457600080fd5b803590602001918460018302840111640100000000831117156104d657600080fd5b91908080601f016020809104026020016040519081016040528093929190818152602001838380828437600092019190915250929550610c6b945050505050565b34801561052357600080fd5b506100c76004803603608081101561053a57600080fd5b600160a060020a03823516919081019060408101602082013564010000000081111561056557600080fd5b82018360208201111561057757600080fd5b8035906020019184600183028401116401000000008311171561059957600080fd5b91908080601f01602080910402602001604051908101604052809392919081815260200183838082843760009201919091525092959493602081019350359150506401000000008111156105ec57600080fd5b8201836020820111156105fe57600080fd5b8035906020019184600183028401116401000000008311171561062057600080fd5b91908080601f016020809104026020016040519081016040528093929190818152602001838380828437600092019190915250929594936020810193503591505064010000000081111561067357600080fd5b82018360208201111561068557600080fd5b803590602001918460018302840111640100000000831117156106a757600080fd5b91908080601f016020809104026020016040519081016040528093929190818152602001838380828437600092019190915250929550610ef1945050505050565b3480156106f457600080fd5b5061071b6004803603602081101561070b57600080fd5b5035600160a060020a0316611177565b6040518082600581111561072b57fe5b60ff16815260200191505060405180910390f35b34801561074b57600080fd5b506100f96004803603604081101561076257600080fd5b508035906020013561118c565b34801561077b57600080fd5b506100f961119a565b34801561079057600080fd5b506100f9600480360360208110156107a757600080fd5b5035600160a060020a03166111a9565b600754600154604080517fe96e8b26000000000000000000000000000000000000000000000000000000008152600160a060020a039283166004820152848316602482015260a06044820152600060a4820181905260e0606483015260e482018190526101206084830152610124820181905291519193929092169163e96e8b269161016480830192602092919082900301818787803b15801561085a57600080fd5b505af115801561086e573d6000803e3d6000fd5b505050506040513d602081101561088457600080fd5b5051600160a060020a0381166000908152600b60205260409020805491925060029160ff1916600183021790555060408051808201909152600160a060020a038084168252821660208201526002805460018101808355600083905292610910929182027f405787fa12a823e0f2b7631cc41b3ba8828b3321ca811111fa75cd3aa3bb5ace01916111c4565b5050600160a060020a039182166000908152600660205260409020805473ffffffffffffffffffffffffffffffffffffffff191691909216179055565b600380548390811061095b57fe5b90600052602060002090600202018160028110151561097657fe5b0154600160a060020a03169150829050565b6000600a60009054906101000a9004600160a060020a0316600160a060020a031663e96e8b26600160009054906101000a9004600160a060020a0316878787876040518663ffffffff1660e060020a0281526004018086600160a060020a0316600160a060020a0316815260200185600160a060020a0316600160a060020a03168152602001806020018060200180602001848103845287818151815260200191508051906020019080838360005b83811015610a4f578181015183820152602001610a37565b50505050905090810190601f168015610a7c5780820380516001836020036101000a031916815260200191505b50848103835286518152865160209182019188019080838360005b83811015610aaf578181015183820152602001610a97565b50505050905090810190601f168015610adc5780820380516001836020036101000a031916815260200191505b50848103825285518152855160209182019187019080838360005b83811015610b0f578181015183820152602001610af7565b50505050905090810190601f168015610b3c5780820380516001836020036101000a031916815260200191505b5098505050505050505050602060405180830381600087803b158015610b6157600080fd5b505af1158015610b75573d6000803e3d6000fd5b505050506040513d6020811015610b8b57600080fd5b5051600160a060020a038082166000818152600b60209081526040808320805460ff191660059081179091558151808301909252948b16815290810192909252825460018101808555939091529293509091610c0e917f036b6384b5eca791c62761152d0c79bb0604c104a5fb6f4eb0703f3154bb3db0600292830201916111c4565b5050600160a060020a039485166000908152600660205260409020805473ffffffffffffffffffffffffffffffffffffffff19169190951617909355505050565b600580548390811061095b57fe5b600280548390811061095b57fe5b6000600860009054906101000a9004600160a060020a0316600160a060020a031663e96e8b26600160009054906101000a9004600160a060020a0316878787876040518663ffffffff1660e060020a0281526004018086600160a060020a0316600160a060020a0316815260200185600160a060020a0316600160a060020a03168152602001806020018060200180602001848103845287818151815260200191508051906020019080838360005b83811015610d32578181015183820152602001610d1a565b50505050905090810190601f168015610d5f5780820380516001836020036101000a031916815260200191505b50848103835286518152865160209182019188019080838360005b83811015610d92578181015183820152602001610d7a565b50505050905090810190601f168015610dbf5780820380516001836020036101000a031916815260200191505b50848103825285518152855160209182019187019080838360005b83811015610df2578181015183820152602001610dda565b50505050905090810190601f168015610e1f5780820380516001836020036101000a031916815260200191505b5098505050505050505050602060405180830381600087803b158015610e4457600080fd5b505af1158015610e58573d6000803e3d6000fd5b505050506040513d6020811015610e6e57600080fd5b5051600160a060020a038082166000818152600b60209081526040808320805460ff191660039081179091558151808301909252948b16815290810192909252825460018101808555939091529293509091610c0e917fc2575a0e9e593c00f959f8c92f12db2869c3395a3b0502d05e2516446f71f85b600292830201916111c4565b6000600960009054906101000a9004600160a060020a0316600160a060020a031663e96e8b26600160009054906101000a9004600160a060020a0316878787876040518663ffffffff1660e060020a0281526004018086600160a060020a0316600160a060020a0316815260200185600160a060020a0316600160a060020a03168152602001806020018060200180602001848103845287818151815260200191508051906020019080838360005b83811015610fb8578181015183820152602001610fa0565b50505050905090810190601f168015610fe55780820380516001836020036101000a031916815260200191505b50848103835286518152865160209182019188019080838360005b83811015611018578181015183820152602001611000565b50505050905090810190601f1680156110455780820380516001836020036101000a031916815260200191505b50848103825285518152855160209182019187019080838360005b83811015611078578181015183820152602001611060565b50505050905090810190601f1680156110a55780820380516001836020036101000a031916815260200191505b5098505050505050505050602060405180830381600087803b1580156110ca57600080fd5b505af11580156110de573d6000803e3d6000fd5b505050506040513d60208110156110f457600080fd5b5051600160a060020a038082166000818152600b60209081526040808320805460ff191660049081179091558151808301909252948b16815290810192909252825460018101808555939091529293509091610c0e917f8a35acfbc15ff81a39ae7d344fd709f28e8600b4aa8c65c6b64bfe7fe36bd19b600292830201916111c4565b600b6020526000908152604090205460ff1681565b600480548390811061095b57fe5b600154600160a060020a031681565b600660205260009081526040902054600160a060020a031681565b8260028101928215611219579160200282015b82811115611219578251825473ffffffffffffffffffffffffffffffffffffffff1916600160a060020a039091161782556020909201916001909101906111d7565b50611225929150611229565b5090565b61125a91905b8082111561122557805473ffffffffffffffffffffffffffffffffffffffff1916815560010161122f565b9056fea165627a7a72305820876cedd963cf66a3a64864dfef73197d82955094be98e19b1d3bb8670f19bd510029",
  "source": "pragma solidity ^0.5.1;\n\nimport \"./src/interfaces/DeployerInterface.sol\";\nimport \"./src/interfaces/MainInterface.sol\";\n\ncontract Main is MainInterface {\n    address public main = address(this);\n\n    address[2][] public userList;\n    address[2][] public manufacturerList;\n    address[2][] public vendorList;\n    address[2][] public serviceCenterList;\n\n    mapping (address => address) public ownerToID;\n\n    DeployerInterface userDeployer;\n    DeployerInterface manufacturerDeployer;\n    DeployerInterface vendorDeployer;\n    DeployerInterface serviceCenterDeployer;\n\n    mapping (address => ContractType) public contractType;\n\n    constructor (address _userDeployer, address _manufacturerDeployer, address _vendorDeployer, address _serviceCenterDeployer) public {\n        userDeployer = DeployerInterface(_userDeployer);\n        manufacturerDeployer = DeployerInterface(_manufacturerDeployer);\n        vendorDeployer = DeployerInterface(_vendorDeployer);\n        serviceCenterDeployer = DeployerInterface(_serviceCenterDeployer);\n    }\n\n    function registerUser (address _ownerID) public {\n        address newUser = userDeployer.deploy(main, _ownerID, \"\", \"\", \"\");\n        contractType[newUser] = ContractType.USER;\n        userList.push([_ownerID, newUser]);\n        ownerToID[_ownerID] = newUser;\n    }\n\n    function registerManufacturer (address _ownerID, string memory _name, string memory _physicalAddress, string memory _registrationNumber) public {\n        address newManufacturer = manufacturerDeployer.deploy(main, _ownerID, _name, _physicalAddress, _registrationNumber);\n        contractType[newManufacturer] = ContractType.MANUFACTURER;\n        manufacturerList.push([_ownerID, newManufacturer]);\n        ownerToID[_ownerID] = newManufacturer;\n    }\n\n    function registerVendor (address _ownerID, string memory _name, string memory _physicalAddress, string memory _registrationNumber) public {\n        address newVendor = vendorDeployer.deploy(main, _ownerID, _name, _physicalAddress, _registrationNumber);\n        contractType[newVendor] = ContractType.VENDOR;\n        vendorList.push([_ownerID, newVendor]);\n        ownerToID[_ownerID] = newVendor;\n    }\n\n    function registerServiceCenter (address _ownerID, string memory _name, string memory _physicalAddress, string memory _registrationNumber) public {\n        address newServiceCenter = serviceCenterDeployer.deploy(main, _ownerID, _name, _physicalAddress, _registrationNumber);\n        contractType[newServiceCenter] = ContractType.SERVICE_CENTER;\n        serviceCenterList.push([_ownerID, newServiceCenter]);\n        ownerToID[_ownerID] = newServiceCenter;\n    }\n}\n",
  "sourcePath": "/Users/viktorgronskiy/Documents/Projects/Fun/GuarantSystem/blockchain/Main.sol",
  "compiler": {
    "name": "solc",
    "version": "0.5.1+commit.c8a2cb62.Emscripten.clang"
  },
  "schemaVersion": "3.0.1",
  "updatedAt": "2019-02-02T19:37:25.378Z",
  "devdoc": {
    "methods": {}
  },
  "userdoc": {
    "methods": {}
  }
}