{
  "contractName": "Main",
  "abi": [
    {
      "constant": true,
      "inputs": [
        {
          "name": "",
          "type": "address"
        }
      ],
      "name": "contractType",
      "outputs": [
        {
          "name": "",
          "type": "uint8"
        }
      ],
      "payable": false,
      "stateMutability": "view",
      "type": "function"
    },
    {
      "inputs": [
        {
          "name": "_userDeployer",
          "type": "address"
        },
        {
          "name": "_manufacturerDeployer",
          "type": "address"
        },
        {
          "name": "_vendorDeployer",
          "type": "address"
        },
        {
          "name": "_serviceCenterDeployer",
          "type": "address"
        }
      ],
      "payable": false,
      "stateMutability": "nonpayable",
      "type": "constructor"
    }
  ],
  "bytecode": "0x608060405234801561001057600080fd5b5060405160808061011d8339810180604052608081101561003057600080fd5b505060dd806100406000396000f3fe6080604052600436106038577c01000000000000000000000000000000000000000000000000000000006000350463c5a887c58114603d575b600080fd5b348015604857600080fd5b50607960048036036020811015605d57600080fd5b503573ffffffffffffffffffffffffffffffffffffffff16609c565b60405180826005811115608857fe5b60ff16815260200191505060405180910390f35b60006020819052908152604090205460ff168156fea165627a7a72305820ec6df492a8c1534cbde51c48b877181f303640d6d3f92e25ba162c46c99665b30029",
  "source": "pragma solidity ^0.5.1;\n\ncontract Main {\n    constructor (address _userDeployer, address _manufacturerDeployer, address _vendorDeployer, address _serviceCenterDeployer) public {}\n    enum ContractType {NON_AUTHORIZED, ITEM, USER, MANUFACTURER, VENDOR, SERVICE_CENTER}\n    mapping (address => ContractType) public contractType;\n}\n\n",
  "sourcePath": "/Users/viktorgronskiy/Documents/Projects/Fun/GuarantSystem/blockchain/src/interfaces/Main.sol",
  "compiler": {
    "name": "solc",
    "version": "0.5.1+commit.c8a2cb62.Emscripten.clang"
  },
  "schemaVersion": "3.0.1",
  "updatedAt": "2019-02-02T18:52:19.755Z",
  "devdoc": {
    "methods": {}
  },
  "userdoc": {
    "methods": {}
  }
}