{
  "contractName": "MainInterface",
  "abi": [
    {
      "constant": true,
      "inputs": [
        {
          "name": "",
          "type": "address"
        }
      ],
      "name": "contractType",
      "outputs": [
        {
          "name": "",
          "type": "uint8"
        }
      ],
      "payable": false,
      "stateMutability": "view",
      "type": "function"
    }
  ],
  "bytecode": "0x608060405234801561001057600080fd5b5060dd8061001f6000396000f3fe6080604052600436106038577c01000000000000000000000000000000000000000000000000000000006000350463c5a887c58114603d575b600080fd5b348015604857600080fd5b50607960048036036020811015605d57600080fd5b503573ffffffffffffffffffffffffffffffffffffffff16609c565b60405180826005811115608857fe5b60ff16815260200191505060405180910390f35b60006020819052908152604090205460ff168156fea165627a7a72305820a2a8fa2f9e7e5f02989b411db00fb18b047253ffb2dffde517a40ff9d5e0d3e50029",
  "source": "pragma solidity ^0.5.1;\n\ncontract MainInterface {\n    // constructor (address _userDeployer, address _manufacturerDeployer, address _vendorDeployer, address _serviceCenterDeployer) public {}\n    enum ContractType {NON_AUTHORIZED, ITEM, USER, MANUFACTURER, VENDOR, SERVICE_CENTER}\n    mapping (address => ContractType) public contractType;\n\n    // function registerUser (address _ownerID) public {}\n\n    // function registerManufacturer (address _ownerID, string memory _name, string memory _physicalAddress, string memory _registrationNumber) public {}\n\n    // function registerVendor (address _ownerID, string memory _name, string memory _physicalAddress, string memory _registrationNumber) public {}\n\n    // function registerServiceCenter (address _ownerID, string memory _name, string memory _physicalAddress, string memory _registrationNumber) public {}\n}\n\n",
  "sourcePath": "/Users/viktorgronskiy/Documents/Projects/Fun/GuarantSystem/blockchain/src/interfaces/MainInterface.sol",
  "compiler": {
    "name": "solc",
    "version": "0.5.1+commit.c8a2cb62.Emscripten.clang"
  },
  "schemaVersion": "3.0.1",
  "updatedAt": "2019-02-02T19:34:55.943Z",
  "devdoc": {
    "methods": {}
  },
  "userdoc": {
    "methods": {}
  }
}