{
  "contractName": "Manufacturer",
  "abi": [
    {
      "constant": true,
      "inputs": [],
      "name": "name",
      "outputs": [
        {
          "name": "",
          "type": "string"
        }
      ],
      "payable": false,
      "stateMutability": "view",
      "type": "function"
    },
    {
      "constant": true,
      "inputs": [],
      "name": "physicalAddress",
      "outputs": [
        {
          "name": "",
          "type": "string"
        }
      ],
      "payable": false,
      "stateMutability": "view",
      "type": "function"
    },
    {
      "constant": true,
      "inputs": [
        {
          "name": "",
          "type": "uint256"
        }
      ],
      "name": "receivedPartnerships",
      "outputs": [
        {
          "name": "",
          "type": "address"
        }
      ],
      "payable": false,
      "stateMutability": "view",
      "type": "function"
    },
    {
      "constant": true,
      "inputs": [
        {
          "name": "",
          "type": "uint256"
        }
      ],
      "name": "serviceCenters",
      "outputs": [
        {
          "name": "",
          "type": "address"
        }
      ],
      "payable": false,
      "stateMutability": "view",
      "type": "function"
    },
    {
      "constant": true,
      "inputs": [
        {
          "name": "",
          "type": "uint256"
        }
      ],
      "name": "pendingItems",
      "outputs": [
        {
          "name": "",
          "type": "address"
        }
      ],
      "payable": false,
      "stateMutability": "view",
      "type": "function"
    },
    {
      "constant": true,
      "inputs": [
        {
          "name": "",
          "type": "uint256"
        }
      ],
      "name": "requestedPartnerships",
      "outputs": [
        {
          "name": "",
          "type": "address"
        }
      ],
      "payable": false,
      "stateMutability": "view",
      "type": "function"
    },
    {
      "constant": true,
      "inputs": [
        {
          "name": "",
          "type": "uint256"
        }
      ],
      "name": "vendors",
      "outputs": [
        {
          "name": "",
          "type": "address"
        }
      ],
      "payable": false,
      "stateMutability": "view",
      "type": "function"
    },
    {
      "constant": true,
      "inputs": [],
      "name": "id",
      "outputs": [
        {
          "name": "",
          "type": "address"
        }
      ],
      "payable": false,
      "stateMutability": "view",
      "type": "function"
    },
    {
      "constant": true,
      "inputs": [],
      "name": "registrationNumber",
      "outputs": [
        {
          "name": "",
          "type": "string"
        }
      ],
      "payable": false,
      "stateMutability": "view",
      "type": "function"
    },
    {
      "inputs": [
        {
          "name": "_ownerID",
          "type": "address"
        },
        {
          "name": "_name",
          "type": "string"
        },
        {
          "name": "_physicalAddress",
          "type": "string"
        },
        {
          "name": "_registrationNumber",
          "type": "string"
        }
      ],
      "payable": false,
      "stateMutability": "nonpayable",
      "type": "constructor"
    },
    {
      "constant": false,
      "inputs": [
        {
          "name": "_serial",
          "type": "string"
        },
        {
          "name": "_info",
          "type": "string"
        },
        {
          "name": "_warrantyPeriod",
          "type": "uint256"
        },
        {
          "name": "_warrantyTerms",
          "type": "string"
        }
      ],
      "name": "createItem",
      "outputs": [],
      "payable": false,
      "stateMutability": "nonpayable",
      "type": "function"
    },
    {
      "constant": false,
      "inputs": [
        {
          "name": "pID",
          "type": "address"
        }
      ],
      "name": "requestPartnership",
      "outputs": [],
      "payable": false,
      "stateMutability": "nonpayable",
      "type": "function"
    },
    {
      "constant": false,
      "inputs": [],
      "name": "receivePartnershipRequest",
      "outputs": [],
      "payable": false,
      "stateMutability": "nonpayable",
      "type": "function"
    },
    {
      "constant": false,
      "inputs": [
        {
          "name": "pID",
          "type": "address"
        }
      ],
      "name": "cancelPartnership",
      "outputs": [],
      "payable": false,
      "stateMutability": "nonpayable",
      "type": "function"
    }
  ],
  "bytecode": "0x608060405230600160006101000a81548173ffffffffffffffffffffffffffffffffffffffff021916908373ffffffffffffffffffffffffffffffffffffffff1602179055503480156200005257600080fd5b50604051620031bd380380620031bd833981018060405260808110156200007857600080fd5b810190808051906020019092919080516401000000008111156200009b57600080fd5b82810190506020810184811115620000b257600080fd5b8151856001820283011164010000000082111715620000d057600080fd5b50509291906020018051640100000000811115620000ed57600080fd5b828101905060208101848111156200010457600080fd5b81518560018202830111640100000000821117156200012257600080fd5b505092919060200180516401000000008111156200013f57600080fd5b828101905060208101848111156200015657600080fd5b81518560018202830111640100000000821117156200017457600080fd5b5050929190505050336000806101000a81548173ffffffffffffffffffffffffffffffffffffffff021916908373ffffffffffffffffffffffffffffffffffffffff16021790555083600260006101000a81548173ffffffffffffffffffffffffffffffffffffffff021916908373ffffffffffffffffffffffffffffffffffffffff16021790555082600390805190602001906200021592919062000252565b5081600490805190602001906200022e92919062000252565b5080600590805190602001906200024792919062000252565b505050505062000301565b828054600181600116156101000203166002900490600052602060002090601f016020900481019282601f106200029557805160ff1916838001178555620002c6565b82800160010185558215620002c6579182015b82811115620002c5578251825591602001919060010190620002a8565b5b509050620002d59190620002d9565b5090565b620002fe91905b80821115620002fa576000816000905550600101620002e0565b5090565b90565b612eac80620003116000396000f3fe608060405260043610620000cd576000357c01000000000000000000000000000000000000000000000000000000009004806306fdde0314620000d257806340868fff14620001685780634f614ffc14620001fe578063560649251462000218578063569be9b8146200026d578063582c55b314620002ec57806379ac0477146200036b57806383e4604f14620003ea578063867a524014620005f7578063a08d986d1462000676578063af640d0f14620006f5578063b2a1a40a146200074f578063c937cf3714620007e5575b600080fd5b348015620000df57600080fd5b50620000ea6200083a565b6040518080602001828103825283818151815260200191508051906020019080838360005b838110156200012c5780820151818401526020810190506200010f565b50505050905090810190601f1680156200015a5780820380516001836020036101000a031916815260200191505b509250505060405180910390f35b3480156200017557600080fd5b5062000180620008dc565b6040518080602001828103825283818151815260200191508051906020019080838360005b83811015620001c2578082015181840152602081019050620001a5565b50505050905090810190601f168015620001f05780820380516001836020036101000a031916815260200191505b509250505060405180910390f35b3480156200020b57600080fd5b50620002166200097e565b005b3480156200022557600080fd5b506200026b600480360360208110156200023e57600080fd5b81019080803573ffffffffffffffffffffffffffffffffffffffff16906020019092919050505062000af7565b005b3480156200027a57600080fd5b50620002aa600480360360208110156200029357600080fd5b810190808035906020019092919050505062000ed6565b604051808273ffffffffffffffffffffffffffffffffffffffff1673ffffffffffffffffffffffffffffffffffffffff16815260200191505060405180910390f35b348015620002f957600080fd5b5062000329600480360360208110156200031257600080fd5b810190808035906020019092919050505062000f15565b604051808273ffffffffffffffffffffffffffffffffffffffff1673ffffffffffffffffffffffffffffffffffffffff16815260200191505060405180910390f35b3480156200037857600080fd5b50620003a8600480360360208110156200039157600080fd5b810190808035906020019092919050505062000f54565b604051808273ffffffffffffffffffffffffffffffffffffffff1673ffffffffffffffffffffffffffffffffffffffff16815260200191505060405180910390f35b348015620003f757600080fd5b50620005f5600480360360808110156200041057600080fd5b81019080803590602001906401000000008111156200042e57600080fd5b8201836020820111156200044157600080fd5b803590602001918460018302840111640100000000831117156200046457600080fd5b91908080601f016020809104026020016040519081016040528093929190818152602001838380828437600081840152601f19601f82011690508083019250505050505050919291929080359060200190640100000000811115620004c857600080fd5b820183602082011115620004db57600080fd5b80359060200191846001830284011164010000000083111715620004fe57600080fd5b91908080601f016020809104026020016040519081016040528093929190818152602001838380828437600081840152601f19601f82011690508083019250505050505050919291929080359060200190929190803590602001906401000000008111156200056c57600080fd5b8201836020820111156200057f57600080fd5b80359060200191846001830284011164010000000083111715620005a257600080fd5b91908080601f016020809104026020016040519081016040528093929190818152602001838380828437600081840152601f19601f82011690508083019250505050505050919291929050505062000f93565b005b3480156200060457600080fd5b5062000634600480360360208110156200061d57600080fd5b810190808035906020019092919050505062001218565b604051808273ffffffffffffffffffffffffffffffffffffffff1673ffffffffffffffffffffffffffffffffffffffff16815260200191505060405180910390f35b3480156200068357600080fd5b50620006b3600480360360208110156200069c57600080fd5b810190808035906020019092919050505062001257565b604051808273ffffffffffffffffffffffffffffffffffffffff1673ffffffffffffffffffffffffffffffffffffffff16815260200191505060405180910390f35b3480156200070257600080fd5b506200070d62001296565b604051808273ffffffffffffffffffffffffffffffffffffffff1673ffffffffffffffffffffffffffffffffffffffff16815260200191505060405180910390f35b3480156200075c57600080fd5b5062000767620012bc565b6040518080602001828103825283818151815260200191508051906020019080838360005b83811015620007a95780820151818401526020810190506200078c565b50505050905090810190601f168015620007d75780820380516001836020036101000a031916815260200191505b509250505060405180910390f35b348015620007f257600080fd5b5062000838600480360360208110156200080b57600080fd5b81019080803573ffffffffffffffffffffffffffffffffffffffff1690602001909291905050506200135e565b005b60038054600181600116156101000203166002900480601f016020809104026020016040519081016040528092919081815260200182805460018160011615610100020316600290048015620008d45780601f10620008a857610100808354040283529160200191620008d4565b820191906000526020600020905b815481529060010190602001808311620008b657829003601f168201915b505050505081565b60048054600181600116156101000203166002900480601f016020809104026020016040519081016040528092919081815260200182805460018160011615610100020316600290048015620009765780601f106200094a5761010080835404028352916020019162000976565b820191906000526020600020905b8154815290600101906020018083116200095857829003601f168201915b505050505081565b600033905060001515600d60008373ffffffffffffffffffffffffffffffffffffffff1673ffffffffffffffffffffffffffffffffffffffff16815260200190815260200160002060009054906101000a900460ff16151514151562000a72576040517f08c379a00000000000000000000000000000000000000000000000000000000081526004018080602001828103825260298152602001807f506172746e65727368697020726571756573742068617320616c72656164792081526020017f6265656e2073656e74000000000000000000000000000000000000000000000081525060400191505060405180910390fd5b60011515600e60008373ffffffffffffffffffffffffffffffffffffffff1673ffffffffffffffffffffffffffffffffffffffff16815260200190815260200160002060009054906101000a900460ff161515141562000ae85762000ad781620014da565b62000ae281620016ef565b62000af4565b62000af38162001701565b5b50565b600260009054906101000a900473ffffffffffffffffffffffffffffffffffffffff1673ffffffffffffffffffffffffffffffffffffffff163373ffffffffffffffffffffffffffffffffffffffff16148062000ba4575060011515600b60003373ffffffffffffffffffffffffffffffffffffffff1673ffffffffffffffffffffffffffffffffffffffff16815260200190815260200160002060009054906101000a900460ff161515145b8062000c00575060011515600c60003373ffffffffffffffffffffffffffffffffffffffff1673ffffffffffffffffffffffffffffffffffffffff16815260200190815260200160002060009054906101000a900460ff161515145b151562000c9b576040517f08c379a00000000000000000000000000000000000000000000000000000000081526004018080602001828103825260338152602001807f4f6e6c79206f776e6572206f7220706172746e65722076656e646f722063616e81526020017f2063616c6c20746869732066756e6374696f6e0000000000000000000000000081525060400191505060405180910390fd5b600260009054906101000a900473ffffffffffffffffffffffffffffffffffffffff1673ffffffffffffffffffffffffffffffffffffffff163373ffffffffffffffffffffffffffffffffffffffff16148062000d2357508073ffffffffffffffffffffffffffffffffffffffff163373ffffffffffffffffffffffffffffffffffffffff16145b151562000d98576040517f08c379a00000000000000000000000000000000000000000000000000000000081526004018080602001828103825260168152602001807f4e6f7420656e6f756768207065726d697373696f6e730000000000000000000081525060200191505060405180910390fd5b60011515600b60008373ffffffffffffffffffffffffffffffffffffffff1673ffffffffffffffffffffffffffffffffffffffff16815260200190815260200160002060009054906101000a900460ff161515148062000e48575060011515600c60008373ffffffffffffffffffffffffffffffffffffffff1673ffffffffffffffffffffffffffffffffffffffff16815260200190815260200160002060009054906101000a900460ff161515145b151562000ebd576040517f08c379a000000000000000000000000000000000000000000000000000000000815260040180806020018281038252600f8152602001807f4e6f207375636820706172746e6572000000000000000000000000000000000081525060200191505060405180910390fd5b62000ec88162001713565b62000ed38162001928565b50565b60088181548110151562000ee657fe5b906000526020600020016000915054906101000a900473ffffffffffffffffffffffffffffffffffffffff1681565b60078181548110151562000f2557fe5b906000526020600020016000915054906101000a900473ffffffffffffffffffffffffffffffffffffffff1681565b600a8181548110151562000f6457fe5b906000526020600020016000915054906101000a900473ffffffffffffffffffffffffffffffffffffffff1681565b600260009054906101000a900473ffffffffffffffffffffffffffffffffffffffff1673ffffffffffffffffffffffffffffffffffffffff163373ffffffffffffffffffffffffffffffffffffffff161415156200107f576040517f08c379a00000000000000000000000000000000000000000000000000000000081526004018080602001828103825260218152602001807f4f6e6c79206f776e65722063616e2063616c6c20746869732066756e6374696f81526020017f6e0000000000000000000000000000000000000000000000000000000000000081525060400191505060405180910390fd5b6000848484846200108f620024a6565b80806020018060200185815260200180602001848103845288818151815260200191508051906020019080838360005b83811015620010dc578082015181840152602081019050620010bf565b50505050905090810190601f1680156200110a5780820380516001836020036101000a031916815260200191505b50848103835287818151815260200191508051906020019080838360005b838110156200114557808201518184015260208101905062001128565b50505050905090810190601f168015620011735780820380516001836020036101000a031916815260200191505b50848103825285818151815260200191508051906020019080838360005b83811015620011ae57808201518184015260208101905062001191565b50505050905090810190601f168015620011dc5780820380516001836020036101000a031916815260200191505b50975050505050505050604051809103906000f08015801562001203573d6000803e3d6000fd5b509050620012118162001ce1565b5050505050565b6009818154811015156200122857fe5b906000526020600020016000915054906101000a900473ffffffffffffffffffffffffffffffffffffffff1681565b6006818154811015156200126757fe5b906000526020600020016000915054906101000a900473ffffffffffffffffffffffffffffffffffffffff1681565b600160009054906101000a900473ffffffffffffffffffffffffffffffffffffffff1681565b60058054600181600116156101000203166002900480601f016020809104026020016040519081016040528092919081815260200182805460018160011615610100020316600290048015620013565780601f106200132a5761010080835404028352916020019162001356565b820191906000526020600020905b8154815290600101906020018083116200133857829003601f168201915b505050505081565b600260009054906101000a900473ffffffffffffffffffffffffffffffffffffffff1673ffffffffffffffffffffffffffffffffffffffff163373ffffffffffffffffffffffffffffffffffffffff161415156200144a576040517f08c379a00000000000000000000000000000000000000000000000000000000081526004018080602001828103825260218152602001807f4f6e6c79206f776e65722063616e2063616c6c20746869732066756e6374696f81526020017f6e0000000000000000000000000000000000000000000000000000000000000081525060400191505060405180910390fd5b60011515600d60008373ffffffffffffffffffffffffffffffffffffffff1673ffffffffffffffffffffffffffffffffffffffff16815260200190815260200160002060009054906101000a900460ff1615151415620014c057620014af81620014da565b620014ba8162001cf3565b620014cc565b620014cb8162001d05565b5b620014d78162001d17565b50565b60008060009054906101000a900473ffffffffffffffffffffffffffffffffffffffff1673ffffffffffffffffffffffffffffffffffffffff1663e11aa6a2836040518263ffffffff167c0100000000000000000000000000000000000000000000000000000000028152600401808273ffffffffffffffffffffffffffffffffffffffff1673ffffffffffffffffffffffffffffffffffffffff16815260200191505060206040518083038186803b1580156200159757600080fd5b505afa158015620015ac573d6000803e3d6000fd5b505050506040513d6020811015620015c357600080fd5b8101908080519060200190929190505050905060046005811115620015e457fe5b816005811115620015f157fe5b14806200161557506005808111156200160657fe5b8160058111156200161357fe5b145b15156200168a576040517f08c379a00000000000000000000000000000000000000000000000000000000081526004018080602001828103825260138152602001807f57726f6e6720636f6e747261637420747970650000000000000000000000000081525060200191505060405180910390fd5b600460058111156200169857fe5b816005811115620016a557fe5b1415620016bd57620016b7826200201e565b620016eb565b600580811115620016ca57fe5b816005811115620016d757fe5b1415620016ea57620016e98262002030565b5b5b5050565b620016fe6009600e8362002042565b50565b620017106008600d8362002172565b50565b60008060009054906101000a900473ffffffffffffffffffffffffffffffffffffffff1673ffffffffffffffffffffffffffffffffffffffff1663e11aa6a2836040518263ffffffff167c0100000000000000000000000000000000000000000000000000000000028152600401808273ffffffffffffffffffffffffffffffffffffffff1673ffffffffffffffffffffffffffffffffffffffff16815260200191505060206040518083038186803b158015620017d057600080fd5b505afa158015620017e5573d6000803e3d6000fd5b505050506040513d6020811015620017fc57600080fd5b81019080805190602001909291905050509050600460058111156200181d57fe5b8160058111156200182a57fe5b14806200184e57506005808111156200183f57fe5b8160058111156200184c57fe5b145b1515620018c3576040517f08c379a00000000000000000000000000000000000000000000000000000000081526004018080602001828103825260138152602001807f57726f6e6720636f6e747261637420747970650000000000000000000000000081525060200191505060405180910390fd5b60046005811115620018d157fe5b816005811115620018de57fe5b1415620018f657620018f082620022fb565b62001924565b6005808111156200190357fe5b8160058111156200191057fe5b1415620019235762001922826200230d565b5b5b5050565b60008060009054906101000a900473ffffffffffffffffffffffffffffffffffffffff1673ffffffffffffffffffffffffffffffffffffffff1663e11aa6a2836040518263ffffffff167c0100000000000000000000000000000000000000000000000000000000028152600401808273ffffffffffffffffffffffffffffffffffffffff1673ffffffffffffffffffffffffffffffffffffffff16815260200191505060206040518083038186803b158015620019e557600080fd5b505afa158015620019fa573d6000803e3d6000fd5b505050506040513d602081101562001a1157600080fd5b810190808051906020019092919050505090506004600581111562001a3257fe5b81600581111562001a3f57fe5b148062001a63575060058081111562001a5457fe5b81600581111562001a6157fe5b145b151562001ad8576040517f08c379a00000000000000000000000000000000000000000000000000000000081526004018080602001828103825260138152602001807f57726f6e6720636f6e747261637420747970650000000000000000000000000081525060200191505060405180910390fd5b6004600581111562001ae657fe5b81600581111562001af357fe5b141562001bdd5760008290508073ffffffffffffffffffffffffffffffffffffffff166356064925600160009054906101000a900473ffffffffffffffffffffffffffffffffffffffff166040518263ffffffff167c0100000000000000000000000000000000000000000000000000000000028152600401808273ffffffffffffffffffffffffffffffffffffffff1673ffffffffffffffffffffffffffffffffffffffff168152602001915050600060405180830381600087803b15801562001bbd57600080fd5b505af115801562001bd2573d6000803e3d6000fd5b505050505062001cdd565b60058081111562001bea57fe5b81600581111562001bf757fe5b141562001cdc5760008290508073ffffffffffffffffffffffffffffffffffffffff166356064925600160009054906101000a900473ffffffffffffffffffffffffffffffffffffffff166040518263ffffffff167c0100000000000000000000000000000000000000000000000000000000028152600401808273ffffffffffffffffffffffffffffffffffffffff1673ffffffffffffffffffffffffffffffffffffffff168152602001915050600060405180830381600087803b15801562001cc157600080fd5b505af115801562001cd6573d6000803e3d6000fd5b50505050505b5b5050565b62001cf0600a600f8362002172565b50565b62001d026008600d8362002042565b50565b62001d146009600e8362002172565b50565b60008060009054906101000a900473ffffffffffffffffffffffffffffffffffffffff1673ffffffffffffffffffffffffffffffffffffffff1663e11aa6a2836040518263ffffffff167c0100000000000000000000000000000000000000000000000000000000028152600401808273ffffffffffffffffffffffffffffffffffffffff1673ffffffffffffffffffffffffffffffffffffffff16815260200191505060206040518083038186803b15801562001dd457600080fd5b505afa15801562001de9573d6000803e3d6000fd5b505050506040513d602081101562001e0057600080fd5b810190808051906020019092919050505090506004600581111562001e2157fe5b81600581111562001e2e57fe5b148062001e52575060058081111562001e4357fe5b81600581111562001e5057fe5b145b151562001ec7576040517f08c379a00000000000000000000000000000000000000000000000000000000081526004018080602001828103825260138152602001807f57726f6e6720636f6e747261637420747970650000000000000000000000000081525060200191505060405180910390fd5b6004600581111562001ed557fe5b81600581111562001ee257fe5b141562001f735760008290508073ffffffffffffffffffffffffffffffffffffffff16634f614ffc6040518163ffffffff167c0100000000000000000000000000000000000000000000000000000000028152600401600060405180830381600087803b15801562001f5357600080fd5b505af115801562001f68573d6000803e3d6000fd5b50505050506200201a565b60058081111562001f8057fe5b81600581111562001f8d57fe5b1415620020195760008290508073ffffffffffffffffffffffffffffffffffffffff16634f614ffc6040518163ffffffff167c0100000000000000000000000000000000000000000000000000000000028152600401600060405180830381600087803b15801562001ffe57600080fd5b505af115801562002013573d6000803e3d6000fd5b50505050505b5b5050565b6200202d6006600b8362002172565b50565b6200203f6007600c8362002172565b50565b600115158260008373ffffffffffffffffffffffffffffffffffffffff1673ffffffffffffffffffffffffffffffffffffffff16815260200190815260200160002060009054906101000a900460ff1615151415156200210a576040517f08c379a00000000000000000000000000000000000000000000000000000000081526004018080602001828103825260098152602001807f4e6f7420666f756e64000000000000000000000000000000000000000000000081525060200191505060405180910390fd5b6200211683826200231f565b60008260008373ffffffffffffffffffffffffffffffffffffffff1673ffffffffffffffffffffffffffffffffffffffff16815260200190815260200160002060006101000a81548160ff021916908315150217905550505050565b600015158260008373ffffffffffffffffffffffffffffffffffffffff1673ffffffffffffffffffffffffffffffffffffffff16815260200190815260200160002060009054906101000a900460ff1615151415156200223a576040517f08c379a000000000000000000000000000000000000000000000000000000000815260040180806020018281038252600e8152602001807f416c72656164792065786973747300000000000000000000000000000000000081525060200191505060405180910390fd5b828190806001815401808255809150509060018203906000526020600020016000909192909190916101000a81548173ffffffffffffffffffffffffffffffffffffffff021916908373ffffffffffffffffffffffffffffffffffffffff1602179055505060018260008373ffffffffffffffffffffffffffffffffffffffff1673ffffffffffffffffffffffffffffffffffffffff16815260200190815260200160002060006101000a81548160ff021916908315150217905550505050565b6200230a6006600b8362002042565b50565b6200231c6007600c8362002042565b50565b60008090505b8280549050811015620024a1578173ffffffffffffffffffffffffffffffffffffffff1683828154811015156200235857fe5b9060005260206000200160009054906101000a900473ffffffffffffffffffffffffffffffffffffffff1673ffffffffffffffffffffffffffffffffffffffff1614156200249357826001848054905003815481101515620023b657fe5b9060005260206000200160009054906101000a900473ffffffffffffffffffffffffffffffffffffffff168382815481101515620023f057fe5b9060005260206000200160006101000a81548173ffffffffffffffffffffffffffffffffffffffff021916908373ffffffffffffffffffffffffffffffffffffffff1602179055508260018480549050038154811015156200244e57fe5b9060005260206000200160006101000a81549073ffffffffffffffffffffffffffffffffffffffff021916905560018380549050038381620024919190620024b7565b505b808060010191505062002325565b505050565b604051610972806200250f83390190565b815481835581811115620024e157818360005260206000209182019101620024e09190620024e6565b5b505050565b6200250b91905b8082111562002507576000816000905550600101620024ed565b5090565b9056fe6080604052306000806101000a81548173ffffffffffffffffffffffffffffffffffffffff021916908373ffffffffffffffffffffffffffffffffffffffff16021790555034801561005057600080fd5b506040516109723803806109728339810180604052608081101561007357600080fd5b81019080805164010000000081111561008b57600080fd5b828101905060208101848111156100a157600080fd5b81518560018202830111640100000000821117156100be57600080fd5b505092919060200180516401000000008111156100da57600080fd5b828101905060208101848111156100f057600080fd5b815185600182028301116401000000008211171561010d57600080fd5b505092919060200180519060200190929190805164010000000081111561013357600080fd5b8281019050602081018481111561014957600080fd5b815185600182028301116401000000008211171561016657600080fd5b505092919050505033600460006101000a81548173ffffffffffffffffffffffffffffffffffffffff021916908373ffffffffffffffffffffffffffffffffffffffff160217905550600460009054906101000a900473ffffffffffffffffffffffffffffffffffffffff16600160006101000a81548173ffffffffffffffffffffffffffffffffffffffff021916908373ffffffffffffffffffffffffffffffffffffffff1602179055508360029080519060200190610228929190610267565b50826003908051906020019061023f929190610267565b5081600781905550806008908051906020019061025d929190610267565b505050505061030c565b828054600181600116156101000203166002900490600052602060002090601f016020900481019282601f106102a857805160ff19168380011785556102d6565b828001600101855582156102d6579182015b828111156102d55782518255916020019190600101906102ba565b5b5090506102e391906102e7565b5090565b61030991905b808211156103055760008160009055506001016102ed565b5090565b90565b6106578061031b6000396000f3fe608060405260043610610093576000357c010000000000000000000000000000000000000000000000000000000090048063186601ca146100985780631d31e517146100c3578063325a19f11461011a578063370158ea146101455780636dc9869b146101d55780638bdcbc9514610200578063a93f6ec214610290578063af640d0f146102e7578063f6d713dd1461033e575b600080fd5b3480156100a457600080fd5b506100ad6103ce565b6040518082815260200191505060405180910390f35b3480156100cf57600080fd5b506100d86103d4565b604051808273ffffffffffffffffffffffffffffffffffffffff1673ffffffffffffffffffffffffffffffffffffffff16815260200191505060405180910390f35b34801561012657600080fd5b5061012f6103fa565b6040518082815260200191505060405180910390f35b34801561015157600080fd5b5061015a610400565b6040518080602001828103825283818151815260200191508051906020019080838360005b8381101561019a57808201518184015260208101905061017f565b50505050905090810190601f1680156101c75780820380516001836020036101000a031916815260200191505b509250505060405180910390f35b3480156101e157600080fd5b506101ea61049e565b6040518082815260200191505060405180910390f35b34801561020c57600080fd5b506102156104a4565b6040518080602001828103825283818151815260200191508051906020019080838360005b8381101561025557808201518184015260208101905061023a565b50505050905090810190601f1680156102825780820380516001836020036101000a031916815260200191505b509250505060405180910390f35b34801561029c57600080fd5b506102a5610542565b604051808273ffffffffffffffffffffffffffffffffffffffff1673ffffffffffffffffffffffffffffffffffffffff16815260200191505060405180910390f35b3480156102f357600080fd5b506102fc610568565b604051808273ffffffffffffffffffffffffffffffffffffffff1673ffffffffffffffffffffffffffffffffffffffff16815260200191505060405180910390f35b34801561034a57600080fd5b5061035361058d565b6040518080602001828103825283818151815260200191508051906020019080838360005b83811015610393578082015181840152602081019050610378565b50505050905090810190601f1680156103c05780820380516001836020036101000a031916815260200191505b509250505060405180910390f35b60095481565b600460009054906101000a900473ffffffffffffffffffffffffffffffffffffffff1681565b60065481565b60038054600181600116156101000203166002900480601f0160208091040260200160405190810160405280929190818152602001828054600181600116156101000203166002900480156104965780601f1061046b57610100808354040283529160200191610496565b820191906000526020600020905b81548152906001019060200180831161047957829003601f168201915b505050505081565b60075481565b60088054600181600116156101000203166002900480601f01602080910402602001604051908101604052809291908181526020018280546001816001161561010002031660029004801561053a5780601f1061050f5761010080835404028352916020019161053a565b820191906000526020600020905b81548152906001019060200180831161051d57829003601f168201915b505050505081565b600560009054906101000a900473ffffffffffffffffffffffffffffffffffffffff1681565b6000809054906101000a900473ffffffffffffffffffffffffffffffffffffffff1681565b60028054600181600116156101000203166002900480601f0160208091040260200160405190810160405280929190818152602001828054600181600116156101000203166002900480156106235780601f106105f857610100808354040283529160200191610623565b820191906000526020600020905b81548152906001019060200180831161060657829003601f168201915b50505050508156fea165627a7a72305820432af6e8893259160b2fee96f22cb2ed090887520bed154ed5bcc8804f362e300029a165627a7a723058203b93678f8fb98445f44b03e3cc2eac1d2838d9929497755cb7332322d37254190029",
  "source": "pragma solidity ^0.5.1;\n\nimport \"./Main.sol\";\nimport \"./Item.sol\";\nimport \"./Vendor.sol\";\nimport \"./ServiceCenter.sol\";\n\n\n\ncontract Manufacturer {\n    Main main;\n\n    address public id = address(this);\n    address private ownerID;\n    string public name;\n    string public physicalAddress;\n    string public registrationNumber;\n\n    address[] public vendors;\n    address[] public serviceCenters;\n    address[] public receivedPartnerships;\n    address[] public requestedPartnerships;\n    address[] public pendingItems;\n\n\n\n    mapping (address => bool) isInVendors;\n    mapping (address => bool) isInServiceCenters;\n    mapping (address => bool) isReceivedPartnership;\n    mapping (address => bool) isRequestedPartnership;\n    mapping (address => bool) isPendingItem;\n\n\n\n    constructor (address _ownerID, string memory _name, string memory _physicalAddress, string memory _registrationNumber) public {\n        main = Main(msg.sender);\n        ownerID = _ownerID;\n        name = _name;\n        physicalAddress = _physicalAddress;\n        registrationNumber = _registrationNumber;\n    }\n\n\n\n// Public\n\n\n\n    function createItem (string memory _serial, string memory _info, uint _warrantyPeriod, string memory _warrantyTerms) onlyOwner public {\n        Item newItem = new Item(_serial, _info, _warrantyPeriod, _warrantyTerms);\n        _addPendingItem(address(newItem));\n    }\n\n    function requestPartnership (address pID) onlyOwner public {\n        if (isReceivedPartnership[pID] == true) {\n            _addPartner(pID);\n            _removeReceivedPartnership(pID);\n        } else {\n            _addRequestedPartnership(pID);\n        }\n\n        _requestPartnership(pID);\n    }\n\n    function receivePartnershipRequest () public {\n        address pID = msg.sender;\n        require(isReceivedPartnership[pID] == false, \"Partnership request has already been sent\");\n\n        if (isRequestedPartnership[pID] == true) {\n            _addPartner(pID);\n            _removeRequestedPartnership(pID);\n        } else {\n            _addReceivedPartnership(pID);\n        }\n    }\n\n    function cancelPartnership (address pID) onlyOwnerOrPartner public {\n        require((msg.sender == ownerID) || (msg.sender == pID), \"Not enough permissions\");\n        require((isInVendors[pID] == true) || (isInServiceCenters[pID] == true), \"No such partner\");\n\n        _removePartner(pID);\n\n        _requestCancelPartnership(pID);\n    }\n\n\n\n// Internal\n\n\n\n    function _addPartner (address pID) internal {\n        Main.ContractType pType = main.getContractType(pID);\n        require((pType == Main.ContractType.VENDOR) || (pType == Main.ContractType.SERVICE_CENTER), \"Wrong contract type\");\n\n        if (pType == Main.ContractType.VENDOR) { _addVendor(pID); }\n        else if (pType == Main.ContractType.SERVICE_CENTER) { _addServiceCenter(pID); }\n    }\n\n    function _removePartner (address pID) internal {\n        Main.ContractType pType = main.getContractType(pID);\n        require((pType == Main.ContractType.VENDOR) || (pType == Main.ContractType.SERVICE_CENTER), \"Wrong contract type\");\n\n        if (pType == Main.ContractType.VENDOR) { _removeVendor(pID); }\n        else if (pType == Main.ContractType.SERVICE_CENTER) { _removeServiceCenter(pID); }\n    }\n\n    function _requestPartnership (address pID) internal {\n        Main.ContractType pType = main.getContractType(pID);\n        require((pType == Main.ContractType.VENDOR) || (pType == Main.ContractType.SERVICE_CENTER), \"Wrong contract type\");\n\n        if (pType == Main.ContractType.VENDOR) {\n            Vendor vInstance = Vendor(pID);\n            vInstance.receivePartnershipRequest();\n        }\n        else if (pType == Main.ContractType.SERVICE_CENTER) {\n            ServiceCenter scInstance = ServiceCenter(pID);\n            scInstance.receivePartnershipRequest();\n        }\n    }\n\n    function _requestCancelPartnership (address pID) internal {\n        Main.ContractType pType = main.getContractType(pID);\n        require((pType == Main.ContractType.VENDOR) || (pType == Main.ContractType.SERVICE_CENTER), \"Wrong contract type\");\n\n        if (pType == Main.ContractType.VENDOR) {\n            Vendor vInstance = Vendor(pID);\n            vInstance.cancelPartnership(id);\n        }\n        else if (pType == Main.ContractType.SERVICE_CENTER) {\n            ServiceCenter scInstance = ServiceCenter(pID);\n            scInstance.cancelPartnership(id);\n        }\n    }\n\n    function _addPendingItem (address iID) internal { _addTo(pendingItems, isPendingItem, iID); }\n    function _removePendingItem (address iID) internal { _removeFrom(pendingItems, isPendingItem, iID); }\n\n    function _addVendor (address vID) internal { _addTo(vendors, isInVendors, vID); }\n    function _removeVendor (address vID) internal { _removeFrom(vendors, isInVendors, vID); }\n\n    function _addServiceCenter (address scID) internal { _addTo(serviceCenters, isInServiceCenters, scID); }\n    function _removeServiceCenter (address scID) internal { _removeFrom(serviceCenters, isInServiceCenters, scID); }\n\n    function _addRequestedPartnership (address pID) internal { _addTo(requestedPartnerships, isRequestedPartnership, pID); }\n    function _removeRequestedPartnership (address pID) internal { _removeFrom(requestedPartnerships, isRequestedPartnership, pID); }\n\n    function _addReceivedPartnership (address pID) internal { _addTo(receivedPartnerships, isReceivedPartnership, pID); }\n    function _removeReceivedPartnership (address pID) internal { _removeFrom(receivedPartnerships, isReceivedPartnership, pID); }\n\n    function _addTo (address[] storage array, mapping (address => bool) storage map, address aID) internal {\n        require(map[aID] == false, \"Already exists\");\n\n        array.push(aID);\n        map[aID] = true;\n    }\n\n    function _removeFrom (address[] storage array, mapping (address => bool) storage map, address aID) internal {\n        require(map[aID] == true, \"Not found\");\n\n        _removeFromAddressArray(array, aID);\n        map[aID] = false;\n    }\n\n    function _removeFromAddressArray (address[] storage array, address value) internal {\n        for (uint i = 0; i < array.length; i++) {\n            if (array[i] == value) {\n              array[i] = array[array.length - 1];\n              delete array[array.length - 1];\n              array.length = array.length - 1;\n            }\n        }\n    }\n\n\n\n// Modifiers\n\n\n\n    modifier onlyOwner {\n        require(msg.sender == ownerID, \"Only owner can call this function\");\n        _;\n    }\n\n    modifier onlyOwnerOrPartner {\n        require(((msg.sender == ownerID) || (isInVendors[msg.sender] == true) || (isInServiceCenters[msg.sender] == true)), \"Only owner or partner vendor can call this function\");\n        _;\n    }\n}\n\n",
  "sourcePath": "/Users/viktorgronskiy/Documents/Projects/Fun/GuarantSystem/blockchain/Manufacturer.sol",
  "compiler": {
    "name": "solc",
    "version": "0.5.1+commit.c8a2cb62.Emscripten.clang"
  },
  "schemaVersion": "3.0.1",
  "updatedAt": "2019-01-30T14:09:45.215Z",
  "devdoc": {
    "methods": {}
  },
  "userdoc": {
    "methods": {}
  }
}