{
  "contractName": "Manufacturer",
  "abi": [
    {
      "constant": true,
      "inputs": [],
      "name": "name",
      "outputs": [
        {
          "name": "",
          "type": "string"
        }
      ],
      "payable": false,
      "stateMutability": "view",
      "type": "function"
    },
    {
      "constant": false,
      "inputs": [
        {
          "name": "_Type",
          "type": "uint8"
        },
        {
          "name": "_objs",
          "type": "address[]"
        }
      ],
      "name": "receiveRequest",
      "outputs": [],
      "payable": false,
      "stateMutability": "nonpayable",
      "type": "function"
    },
    {
      "constant": false,
      "inputs": [
        {
          "name": "_Type",
          "type": "uint8"
        },
        {
          "name": "_objs",
          "type": "address[]"
        }
      ],
      "name": "receiveCompletedRequestCancel",
      "outputs": [],
      "payable": false,
      "stateMutability": "nonpayable",
      "type": "function"
    },
    {
      "constant": true,
      "inputs": [],
      "name": "physicalAddress",
      "outputs": [
        {
          "name": "",
          "type": "string"
        }
      ],
      "payable": false,
      "stateMutability": "view",
      "type": "function"
    },
    {
      "constant": false,
      "inputs": [
        {
          "name": "pID",
          "type": "address"
        }
      ],
      "name": "cancelPartnership",
      "outputs": [],
      "payable": false,
      "stateMutability": "nonpayable",
      "type": "function"
    },
    {
      "constant": true,
      "inputs": [
        {
          "name": "",
          "type": "uint256"
        }
      ],
      "name": "serviceCenters",
      "outputs": [
        {
          "name": "",
          "type": "address"
        }
      ],
      "payable": false,
      "stateMutability": "view",
      "type": "function"
    },
    {
      "constant": false,
      "inputs": [
        {
          "name": "_Type",
          "type": "uint8"
        },
        {
          "name": "_objs",
          "type": "address[]"
        }
      ],
      "name": "receiveRequestDecline",
      "outputs": [],
      "payable": false,
      "stateMutability": "nonpayable",
      "type": "function"
    },
    {
      "constant": false,
      "inputs": [
        {
          "name": "_Type",
          "type": "uint8"
        },
        {
          "name": "_objs",
          "type": "address[]"
        }
      ],
      "name": "receiveRequestRevert",
      "outputs": [],
      "payable": false,
      "stateMutability": "nonpayable",
      "type": "function"
    },
    {
      "constant": true,
      "inputs": [
        {
          "name": "",
          "type": "uint256"
        }
      ],
      "name": "pendingItems",
      "outputs": [
        {
          "name": "",
          "type": "address"
        }
      ],
      "payable": false,
      "stateMutability": "view",
      "type": "function"
    },
    {
      "constant": false,
      "inputs": [
        {
          "name": "pID",
          "type": "address"
        }
      ],
      "name": "acceptPartnership",
      "outputs": [],
      "payable": false,
      "stateMutability": "nonpayable",
      "type": "function"
    },
    {
      "constant": true,
      "inputs": [
        {
          "name": "",
          "type": "uint256"
        }
      ],
      "name": "vendors",
      "outputs": [
        {
          "name": "",
          "type": "address"
        }
      ],
      "payable": false,
      "stateMutability": "view",
      "type": "function"
    },
    {
      "constant": true,
      "inputs": [],
      "name": "id",
      "outputs": [
        {
          "name": "",
          "type": "address"
        }
      ],
      "payable": false,
      "stateMutability": "view",
      "type": "function"
    },
    {
      "constant": true,
      "inputs": [],
      "name": "registrationNumber",
      "outputs": [
        {
          "name": "",
          "type": "string"
        }
      ],
      "payable": false,
      "stateMutability": "view",
      "type": "function"
    },
    {
      "constant": false,
      "inputs": [
        {
          "name": "pID",
          "type": "address"
        }
      ],
      "name": "requestPartnership",
      "outputs": [],
      "payable": false,
      "stateMutability": "nonpayable",
      "type": "function"
    },
    {
      "constant": true,
      "inputs": [],
      "name": "main",
      "outputs": [
        {
          "name": "",
          "type": "address"
        }
      ],
      "payable": false,
      "stateMutability": "view",
      "type": "function"
    },
    {
      "constant": false,
      "inputs": [
        {
          "name": "pID",
          "type": "address"
        }
      ],
      "name": "revertPartnership",
      "outputs": [],
      "payable": false,
      "stateMutability": "nonpayable",
      "type": "function"
    },
    {
      "constant": false,
      "inputs": [
        {
          "name": "pID",
          "type": "address"
        }
      ],
      "name": "declinePartnership",
      "outputs": [],
      "payable": false,
      "stateMutability": "nonpayable",
      "type": "function"
    },
    {
      "inputs": [
        {
          "name": "_main",
          "type": "address"
        },
        {
          "name": "_ownerID",
          "type": "address"
        },
        {
          "name": "_name",
          "type": "string"
        },
        {
          "name": "_physicalAddress",
          "type": "string"
        },
        {
          "name": "_registrationNumber",
          "type": "string"
        }
      ],
      "payable": false,
      "stateMutability": "nonpayable",
      "type": "constructor"
    },
    {
      "constant": true,
      "inputs": [],
      "name": "getInfo",
      "outputs": [
        {
          "name": "",
          "type": "string"
        },
        {
          "name": "",
          "type": "string"
        },
        {
          "name": "",
          "type": "string"
        }
      ],
      "payable": false,
      "stateMutability": "view",
      "type": "function"
    },
    {
      "constant": true,
      "inputs": [],
      "name": "getVendors",
      "outputs": [
        {
          "name": "",
          "type": "address[]"
        }
      ],
      "payable": false,
      "stateMutability": "view",
      "type": "function"
    },
    {
      "constant": true,
      "inputs": [],
      "name": "getServiceCenters",
      "outputs": [
        {
          "name": "",
          "type": "address[]"
        }
      ],
      "payable": false,
      "stateMutability": "view",
      "type": "function"
    },
    {
      "constant": true,
      "inputs": [],
      "name": "getPendingItems",
      "outputs": [
        {
          "name": "",
          "type": "address[]"
        }
      ],
      "payable": false,
      "stateMutability": "view",
      "type": "function"
    },
    {
      "constant": false,
      "inputs": [
        {
          "name": "_serial",
          "type": "string"
        },
        {
          "name": "_info",
          "type": "string"
        },
        {
          "name": "_warrantyPeriod",
          "type": "uint256"
        },
        {
          "name": "_warrantyTerms",
          "type": "string"
        }
      ],
      "name": "createItem",
      "outputs": [
        {
          "name": "",
          "type": "address"
        }
      ],
      "payable": false,
      "stateMutability": "nonpayable",
      "type": "function"
    },
    {
      "constant": false,
      "inputs": [
        {
          "name": "vID",
          "type": "address"
        },
        {
          "name": "iID",
          "type": "address"
        }
      ],
      "name": "setVendorToItem",
      "outputs": [],
      "payable": false,
      "stateMutability": "nonpayable",
      "type": "function"
    },
    {
      "constant": false,
      "inputs": [
        {
          "name": "iID",
          "type": "address"
        }
      ],
      "name": "activateWarranty",
      "outputs": [],
      "payable": false,
      "stateMutability": "nonpayable",
      "type": "function"
    }
  ],
  "bytecode": "0x6080604052306000806101000a81548173ffffffffffffffffffffffffffffffffffffffff021916908373ffffffffffffffffffffffffffffffffffffffff1602179055503480156200005157600080fd5b506040516200680138038062006801833981018060405260a08110156200007757600080fd5b8101908080519060200190929190805190602001909291908051640100000000811115620000a457600080fd5b82810190506020810184811115620000bb57600080fd5b8151856001820283011164010000000082111715620000d957600080fd5b50509291906020018051640100000000811115620000f657600080fd5b828101905060208101848111156200010d57600080fd5b81518560018202830111640100000000821117156200012b57600080fd5b505092919060200180516401000000008111156200014857600080fd5b828101905060208101848111156200015f57600080fd5b81518560018202830111640100000000821117156200017d57600080fd5b505092919050505084600960006101000a81548173ffffffffffffffffffffffffffffffffffffffff021916908373ffffffffffffffffffffffffffffffffffffffff16021790555083600160006101000a81548173ffffffffffffffffffffffffffffffffffffffff021916908373ffffffffffffffffffffffffffffffffffffffff16021790555082600690805190602001906200021f9291906200025d565b508160079080519060200190620002389291906200025d565b508060089080519060200190620002519291906200025d565b5050505050506200030c565b828054600181600116156101000203166002900490600052602060002090601f016020900481019282601f10620002a057805160ff1916838001178555620002d1565b82800160010185558215620002d1579182015b82811115620002d0578251825591602001919060010190620002b3565b5b509050620002e09190620002e4565b5090565b6200030991905b8082111562000305576000816000905550600101620002eb565b5090565b90565b6164e5806200031c6000396000f3fe60806040526004361062000151576000357c01000000000000000000000000000000000000000000000000000000009004806306fdde0314620001565780631f37c99114620001ec578063381f2e9d14620002c557806340868fff146200039e5780634353800e14620004345780635606492514620004a5578063582c55b314620004fa5780635a9b0b8914620005795780635e26e85614620006ed57806364bebcc514620007c6578063685735b514620008375780636e58c29414620008a857806379ac047714620009815780637aa29a261462000a00578063812842a11462000a55578063824e084d1462000aaa57806383e4604f1462000b1f578063a08d986d1462000d6c578063af640d0f1462000deb578063b2a1a40a1462000e45578063c937cf371462000edb578063dffeadd01462000f30578063eaf7c97a1462000f8a578063fbfca3c61462000fdf575b600080fd5b3480156200016357600080fd5b506200016e62001034565b6040518080602001828103825283818151815260200191508051906020019080838360005b83811015620001b057808201518184015260208101905062000193565b50505050905090810190601f168015620001de5780820380516001836020036101000a031916815260200191505b509250505060405180910390f35b348015620001f957600080fd5b50620002c3600480360360408110156200021257600080fd5b81019080803560ff169060200190929190803590602001906401000000008111156200023d57600080fd5b8201836020820111156200025057600080fd5b803590602001918460208302840111640100000000831117156200027357600080fd5b919080806020026020016040519081016040528093929190818152602001838360200280828437600081840152601f19601f820116905080830192505050505050509192919290505050620010d6565b005b348015620002d257600080fd5b506200039c60048036036040811015620002eb57600080fd5b81019080803560ff169060200190929190803590602001906401000000008111156200031657600080fd5b8201836020820111156200032957600080fd5b803590602001918460208302840111640100000000831117156200034c57600080fd5b919080806020026020016040519081016040528093929190818152602001838360200280828437600081840152601f19601f82011690508083019250505050505050919291929050505062001231565b005b348015620003ab57600080fd5b50620003b662001315565b6040518080602001828103825283818151815260200191508051906020019080838360005b83811015620003f8578082015181840152602081019050620003db565b50505050905090810190601f168015620004265780820380516001836020036101000a031916815260200191505b509250505060405180910390f35b3480156200044157600080fd5b506200044c620013b7565b6040518080602001828103825283818151815260200191508051906020019060200280838360005b838110156200049157808201518184015260208101905062000474565b505050509050019250505060405180910390f35b348015620004b257600080fd5b50620004f860048036036020811015620004cb57600080fd5b81019080803573ffffffffffffffffffffffffffffffffffffffff16906020019092919050505062001447565b005b3480156200050757600080fd5b5062000537600480360360208110156200052057600080fd5b810190808035906020019092919050505062001486565b604051808273ffffffffffffffffffffffffffffffffffffffff1673ffffffffffffffffffffffffffffffffffffffff16815260200191505060405180910390f35b3480156200058657600080fd5b5062000591620014c5565b60405180806020018060200180602001848103845287818151815260200191508051906020019080838360005b83811015620005db578082015181840152602081019050620005be565b50505050905090810190601f168015620006095780820380516001836020036101000a031916815260200191505b50848103835286818151815260200191508051906020019080838360005b838110156200064457808201518184015260208101905062000627565b50505050905090810190601f168015620006725780820380516001836020036101000a031916815260200191505b50848103825285818151815260200191508051906020019080838360005b83811015620006ad57808201518184015260208101905062000690565b50505050905090810190601f168015620006db5780820380516001836020036101000a031916815260200191505b50965050505050505060405180910390f35b348015620006fa57600080fd5b50620007c4600480360360408110156200071357600080fd5b81019080803560ff169060200190929190803590602001906401000000008111156200073e57600080fd5b8201836020820111156200075157600080fd5b803590602001918460208302840111640100000000831117156200077457600080fd5b919080806020026020016040519081016040528093929190818152602001838360200280828437600081840152601f19601f820116905080830192505050505050509192919290505050620016bb565b005b348015620007d357600080fd5b50620007de6200179f565b6040518080602001828103825283818151815260200191508051906020019060200280838360005b838110156200082357808201518184015260208101905062000806565b505050509050019250505060405180910390f35b3480156200084457600080fd5b506200084f6200182f565b6040518080602001828103825283818151815260200191508051906020019060200280838360005b838110156200089457808201518184015260208101905062000877565b505050509050019250505060405180910390f35b348015620008b557600080fd5b506200097f60048036036040811015620008ce57600080fd5b81019080803560ff16906020019092919080359060200190640100000000811115620008f957600080fd5b8201836020820111156200090c57600080fd5b803590602001918460208302840111640100000000831117156200092f57600080fd5b919080806020026020016040519081016040528093929190818152602001838360200280828437600081840152601f19601f820116905080830192505050505050509192919290505050620018bf565b005b3480156200098e57600080fd5b50620009be60048036036020811015620009a757600080fd5b8101908080359060200190929190505050620019a3565b604051808273ffffffffffffffffffffffffffffffffffffffff1673ffffffffffffffffffffffffffffffffffffffff16815260200191505060405180910390f35b34801562000a0d57600080fd5b5062000a536004803603602081101562000a2657600080fd5b81019080803573ffffffffffffffffffffffffffffffffffffffff169060200190929190505050620019e2565b005b34801562000a6257600080fd5b5062000aa86004803603602081101562000a7b57600080fd5b81019080803573ffffffffffffffffffffffffffffffffffffffff16906020019092919050505062001b0d565b005b34801562000ab757600080fd5b5062000b1d6004803603604081101562000ad057600080fd5b81019080803573ffffffffffffffffffffffffffffffffffffffff169060200190929190803573ffffffffffffffffffffffffffffffffffffffff16906020019092919050505062001c80565b005b34801562000b2c57600080fd5b5062000d2a6004803603608081101562000b4557600080fd5b810190808035906020019064010000000081111562000b6357600080fd5b82018360208201111562000b7657600080fd5b8035906020019184600183028401116401000000008311171562000b9957600080fd5b91908080601f016020809104026020016040519081016040528093929190818152602001838380828437600081840152601f19601f8201169050808301925050505050505091929192908035906020019064010000000081111562000bfd57600080fd5b82018360208201111562000c1057600080fd5b8035906020019184600183028401116401000000008311171562000c3357600080fd5b91908080601f016020809104026020016040519081016040528093929190818152602001838380828437600081840152601f19601f820116905080830192505050505050509192919290803590602001909291908035906020019064010000000081111562000ca157600080fd5b82018360208201111562000cb457600080fd5b8035906020019184600183028401116401000000008311171562000cd757600080fd5b91908080601f016020809104026020016040519081016040528093929190818152602001838380828437600081840152601f19601f82011690508083019250505050505050919291929050505062001fc5565b604051808273ffffffffffffffffffffffffffffffffffffffff1673ffffffffffffffffffffffffffffffffffffffff16815260200191505060405180910390f35b34801562000d7957600080fd5b5062000da96004803603602081101562000d9257600080fd5b8101908080359060200190929190505050620022a7565b604051808273ffffffffffffffffffffffffffffffffffffffff1673ffffffffffffffffffffffffffffffffffffffff16815260200191505060405180910390f35b34801562000df857600080fd5b5062000e03620022e6565b604051808273ffffffffffffffffffffffffffffffffffffffff1673ffffffffffffffffffffffffffffffffffffffff16815260200191505060405180910390f35b34801562000e5257600080fd5b5062000e5d6200230b565b6040518080602001828103825283818151815260200191508051906020019080838360005b8381101562000e9f57808201518184015260208101905062000e82565b50505050905090810190601f16801562000ecd5780820380516001836020036101000a031916815260200191505b509250505060405180910390f35b34801562000ee857600080fd5b5062000f2e6004803603602081101562000f0157600080fd5b81019080803573ffffffffffffffffffffffffffffffffffffffff169060200190929190505050620023ad565b005b34801562000f3d57600080fd5b5062000f48620024d8565b604051808273ffffffffffffffffffffffffffffffffffffffff1673ffffffffffffffffffffffffffffffffffffffff16815260200191505060405180910390f35b34801562000f9757600080fd5b5062000fdd6004803603602081101562000fb057600080fd5b81019080803573ffffffffffffffffffffffffffffffffffffffff169060200190929190505050620024fe565b005b34801562000fec57600080fd5b5062001032600480360360208110156200100557600080fd5b81019080803573ffffffffffffffffffffffffffffffffffffffff16906020019092919050505062002629565b005b60068054600181600116156101000203166002900480601f016020809104026020016040519081016040528092919081815260200182805460018160011615610100020316600290048015620010ce5780601f10620010a257610100808354040283529160200191620010ce565b820191906000526020600020905b815481529060010190602001808311620010b057829003601f168201915b505050505081565b620010e0620046d8565b6040805190810160405280846001811115620010f857fe5b8152602001838152509050600033905060026000620011178462002754565b815260200190815260200160002060009054906101000a900460ff16151515620011cf576040517f08c379a00000000000000000000000000000000000000000000000000000000081526004018080602001828103825260218152602001807f526571756573742068617320616c7265616479206265656e207265636569766581526020017f640000000000000000000000000000000000000000000000000000000000000081525060400191505060405180910390fd5b60036000620011de8462002754565b815260200190815260200160002060009054906101000a900460ff16156200121e576200120c8183620027f4565b6200121881836200283a565b6200122b565b6200122a81836200288b565b5b50505050565b6200123b620046d8565b60408051908101604052808460018111156200125357fe5b8152602001838152509050600033905060046000620012728462002754565b815260200190815260200160002060009054906101000a900460ff16151562001303576040517f08c379a00000000000000000000000000000000000000000000000000000000081526004018080602001828103825260188152602001807f52657175657374206973206e6f7420636f6d706c65746564000000000000000081525060200191505060405180910390fd5b6200130f8183620028d1565b50505050565b60078054600181600116156101000203166002900480601f016020809104026020016040519081016040528092919081815260200182805460018160011615610100020316600290048015620013af5780601f106200138357610100808354040283529160200191620013af565b820191906000526020600020905b8154815290600101906020018083116200139157829003601f168201915b505050505081565b6060600c8054806020026020016040519081016040528092919081815260200182805480156200143d57602002820191906000526020600020905b8160009054906101000a900473ffffffffffffffffffffffffffffffffffffffff1673ffffffffffffffffffffffffffffffffffffffff1681526020019060010190808311620013f2575b5050505050905090565b62001451620046d8565b6001816000019060018111156200146457fe5b908160018111156200147257fe5b8152505062001482828262002917565b5050565b600b818154811015156200149657fe5b906000526020600020016000915054906101000a900473ffffffffffffffffffffffffffffffffffffffff1681565b6060806060600660076008828054600181600116156101000203166002900480601f016020809104026020016040519081016040528092919081815260200182805460018160011615610100020316600290048015620015695780601f106200153d5761010080835404028352916020019162001569565b820191906000526020600020905b8154815290600101906020018083116200154b57829003601f168201915b50505050509250818054600181600116156101000203166002900480601f016020809104026020016040519081016040528092919081815260200182805460018160011615610100020316600290048015620016095780601f10620015dd5761010080835404028352916020019162001609565b820191906000526020600020905b815481529060010190602001808311620015eb57829003601f168201915b50505050509150808054600181600116156101000203166002900480601f016020809104026020016040519081016040528092919081815260200182805460018160011615610100020316600290048015620016a95780601f106200167d57610100808354040283529160200191620016a9565b820191906000526020600020905b8154815290600101906020018083116200168b57829003601f168201915b50505050509050925092509250909192565b620016c5620046d8565b6040805190810160405280846001811115620016dd57fe5b8152602001838152509050600033905060036000620016fc8462002754565b815260200190815260200160002060009054906101000a900460ff1615156200178d576040517f08c379a00000000000000000000000000000000000000000000000000000000081526004018080602001828103825260198152602001807f5265717565737420686173206e6f74206265656e2073656e740000000000000081525060200191505060405180910390fd5b6200179981836200283a565b50505050565b6060600a8054806020026020016040519081016040528092919081815260200182805480156200182557602002820191906000526020600020905b8160009054906101000a900473ffffffffffffffffffffffffffffffffffffffff1673ffffffffffffffffffffffffffffffffffffffff1681526020019060010190808311620017da575b5050505050905090565b6060600a805480602002602001604051908101604052809291908181526020018280548015620018b557602002820191906000526020600020905b8160009054906101000a900473ffffffffffffffffffffffffffffffffffffffff1673ffffffffffffffffffffffffffffffffffffffff16815260200190600101908083116200186a575b5050505050905090565b620018c9620046d8565b6040805190810160405280846001811115620018e157fe5b8152602001838152509050600033905060026000620019008462002754565b815260200190815260200160002060009054906101000a900460ff16151562001991576040517f08c379a000000000000000000000000000000000000000000000000000000000815260040180806020018281038252601d8152602001807f5265717565737420686173206e6f74206265656e20726563656976656400000081525060200191505060405180910390fd5b6200199d818362002a64565b50505050565b600c81815481101515620019b357fe5b906000526020600020016000915054906101000a900473ffffffffffffffffffffffffffffffffffffffff1681565b600160009054906101000a900473ffffffffffffffffffffffffffffffffffffffff1673ffffffffffffffffffffffffffffffffffffffff163373ffffffffffffffffffffffffffffffffffffffff1614151562001ace576040517f08c379a00000000000000000000000000000000000000000000000000000000081526004018080602001828103825260218152602001807f4f6e6c79206f776e65722063616e2063616c6c20746869732066756e6374696f81526020017f6e0000000000000000000000000000000000000000000000000000000000000081525060400191505060405180910390fd5b62001ad8620046d8565b60018160000190600181111562001aeb57fe5b9081600181111562001af957fe5b8152505062001b09828262002aaa565b5050565b600160009054906101000a900473ffffffffffffffffffffffffffffffffffffffff1673ffffffffffffffffffffffffffffffffffffffff163373ffffffffffffffffffffffffffffffffffffffff1614151562001bf9576040517f08c379a00000000000000000000000000000000000000000000000000000000081526004018080602001828103825260218152602001807f4f6e6c79206f776e65722063616e2063616c6c20746869732066756e6374696f81526020017f6e0000000000000000000000000000000000000000000000000000000000000081525060400191505060405180910390fd5b60008190508073ffffffffffffffffffffffffffffffffffffffff1663e8d503e96040518163ffffffff167c0100000000000000000000000000000000000000000000000000000000028152600401600060405180830381600087803b15801562001c6357600080fd5b505af115801562001c78573d6000803e3d6000fd5b505050505050565b600160009054906101000a900473ffffffffffffffffffffffffffffffffffffffff1673ffffffffffffffffffffffffffffffffffffffff163373ffffffffffffffffffffffffffffffffffffffff1614151562001d6c576040517f08c379a00000000000000000000000000000000000000000000000000000000081526004018080602001828103825260218152602001807f4f6e6c79206f776e65722063616e2063616c6c20746869732066756e6374696f81526020017f6e0000000000000000000000000000000000000000000000000000000000000081525060400191505060405180910390fd5b6000600960009054906101000a900473ffffffffffffffffffffffffffffffffffffffff1673ffffffffffffffffffffffffffffffffffffffff1663c5a887c5846040518263ffffffff167c0100000000000000000000000000000000000000000000000000000000028152600401808273ffffffffffffffffffffffffffffffffffffffff1673ffffffffffffffffffffffffffffffffffffffff16815260200191505060206040518083038186803b15801562001e2a57600080fd5b505afa15801562001e3f573d6000803e3d6000fd5b505050506040513d602081101562001e5657600080fd5b810190808051906020019092919050505090506004600581111562001e7757fe5b81600581111562001e8457fe5b14151562001efa576040517f08c379a00000000000000000000000000000000000000000000000000000000081526004018080602001828103825260138152602001807f57726f6e6720636f6e747261637420747970650000000000000000000000000081525060200191505060405180910390fd5b60008290508073ffffffffffffffffffffffffffffffffffffffff166397d93935856040518263ffffffff167c0100000000000000000000000000000000000000000000000000000000028152600401808273ffffffffffffffffffffffffffffffffffffffff1673ffffffffffffffffffffffffffffffffffffffff168152602001915050600060405180830381600087803b15801562001f9b57600080fd5b505af115801562001fb0573d6000803e3d6000fd5b5050505062001fbf8362002c5e565b50505050565b6000600160009054906101000a900473ffffffffffffffffffffffffffffffffffffffff1673ffffffffffffffffffffffffffffffffffffffff163373ffffffffffffffffffffffffffffffffffffffff16141515620020b3576040517f08c379a00000000000000000000000000000000000000000000000000000000081526004018080602001828103825260218152602001807f4f6e6c79206f776e65722063616e2063616c6c20746869732066756e6374696f81526020017f6e0000000000000000000000000000000000000000000000000000000000000081525060400191505060405180910390fd5b6000600960009054906101000a900473ffffffffffffffffffffffffffffffffffffffff1686868686620020e6620046fe565b808673ffffffffffffffffffffffffffffffffffffffff1673ffffffffffffffffffffffffffffffffffffffff168152602001806020018060200185815260200180602001848103845288818151815260200191508051906020019080838360005b838110156200216557808201518184015260208101905062002148565b50505050905090810190601f168015620021935780820380516001836020036101000a031916815260200191505b50848103835287818151815260200191508051906020019080838360005b83811015620021ce578082015181840152602081019050620021b1565b50505050905090810190601f168015620021fc5780820380516001836020036101000a031916815260200191505b50848103825285818151815260200191508051906020019080838360005b83811015620022375780820151818401526020810190506200221a565b50505050905090810190601f168015620022655780820380516001836020036101000a031916815260200191505b5098505050505050505050604051809103906000f0801580156200228d573d6000803e3d6000fd5b5090506200229b8162002c70565b80915050949350505050565b600a81815481101515620022b757fe5b906000526020600020016000915054906101000a900473ffffffffffffffffffffffffffffffffffffffff1681565b6000809054906101000a900473ffffffffffffffffffffffffffffffffffffffff1681565b60088054600181600116156101000203166002900480601f016020809104026020016040519081016040528092919081815260200182805460018160011615610100020316600290048015620023a55780601f106200237957610100808354040283529160200191620023a5565b820191906000526020600020905b8154815290600101906020018083116200238757829003601f168201915b505050505081565b600160009054906101000a900473ffffffffffffffffffffffffffffffffffffffff1673ffffffffffffffffffffffffffffffffffffffff163373ffffffffffffffffffffffffffffffffffffffff1614151562002499576040517f08c379a00000000000000000000000000000000000000000000000000000000081526004018080602001828103825260218152602001807f4f6e6c79206f776e65722063616e2063616c6c20746869732066756e6374696f81526020017f6e0000000000000000000000000000000000000000000000000000000000000081525060400191505060405180910390fd5b620024a3620046d8565b600181600001906001811115620024b657fe5b90816001811115620024c457fe5b81525050620024d4828262002c82565b5050565b600960009054906101000a900473ffffffffffffffffffffffffffffffffffffffff1681565b600160009054906101000a900473ffffffffffffffffffffffffffffffffffffffff1673ffffffffffffffffffffffffffffffffffffffff163373ffffffffffffffffffffffffffffffffffffffff16141515620025ea576040517f08c379a00000000000000000000000000000000000000000000000000000000081526004018080602001828103825260218152602001807f4f6e6c79206f776e65722063616e2063616c6c20746869732066756e6374696f81526020017f6e0000000000000000000000000000000000000000000000000000000000000081525060400191505060405180910390fd5b620025f4620046d8565b6001816000019060018111156200260757fe5b908160018111156200261557fe5b8152505062002625828262002e6f565b5050565b600160009054906101000a900473ffffffffffffffffffffffffffffffffffffffff1673ffffffffffffffffffffffffffffffffffffffff163373ffffffffffffffffffffffffffffffffffffffff1614151562002715576040517f08c379a00000000000000000000000000000000000000000000000000000000081526004018080602001828103825260218152602001807f4f6e6c79206f776e65722063616e2063616c6c20746869732066756e6374696f81526020017f6e0000000000000000000000000000000000000000000000000000000000000081525060400191505060405180910390fd5b6200271f620046d8565b6001816000019060018111156200273257fe5b908160018111156200274057fe5b8152505062002750828262003017565b5050565b600081600001518260200151604051602001808360018111156200277457fe5b60ff167f0100000000000000000000000000000000000000000000000000000000000000028152600101828051906020019060200280838360005b83811015620027cc578082015181840152602081019050620027af565b5050505090500192505050604051602081830303815290604052805190602001209050919050565b620028008282620031bf565b600160046000620028118462002754565b815260200190815260200160002060006101000a81548160ff0219169083151502179055505050565b620028468282620033fc565b6200285181620035d8565b600060036000620028628462002754565b815260200190815260200160002060006101000a81548160ff0219169083151502179055505050565b62002897828262003672565b600160026000620028a88462002754565b815260200190815260200160002060006101000a81548160ff0219169083151502179055505050565b620028dd82826200384e565b600060046000620028ee8462002754565b815260200190815260200160002060006101000a81548160ff0219169083151502179055505050565b600160009054906101000a900473ffffffffffffffffffffffffffffffffffffffff1673ffffffffffffffffffffffffffffffffffffffff163373ffffffffffffffffffffffffffffffffffffffff161480620029d357508173ffffffffffffffffffffffffffffffffffffffff163373ffffffffffffffffffffffffffffffffffffffff16148015620029d2575060046000620029b58362002754565b815260200190815260200160002060009054906101000a900460ff165b5b151562002a48576040517f08c379a00000000000000000000000000000000000000000000000000000000081526004018080602001828103825260168152602001807f4e6f7420656e6f756768207065726d697373696f6e730000000000000000000081525060200191505060405180910390fd5b62002a548282620028d1565b62002a60828262003a8b565b5050565b62002a70828262003b80565b60006002600062002a818462002754565b815260200190815260200160002060006101000a81548160ff0219169083151502179055505050565b600160009054906101000a900473ffffffffffffffffffffffffffffffffffffffff1673ffffffffffffffffffffffffffffffffffffffff163373ffffffffffffffffffffffffffffffffffffffff1614151562002b96576040517f08c379a00000000000000000000000000000000000000000000000000000000081526004018080602001828103825260218152602001807f4f6e6c79206f776e65722063616e2063616c6c20746869732066756e6374696f81526020017f6e0000000000000000000000000000000000000000000000000000000000000081525060400191505060405180910390fd5b6002600062002ba58362002754565b815260200190815260200160002060009054906101000a900460ff16151562002c36576040517f08c379a000000000000000000000000000000000000000000000000000000000815260040180806020018281038252600f8152602001807f4e6f20737563682072657175657374000000000000000000000000000000000081525060200191505060405180910390fd5b62002c428282620027f4565b62002c4e828262002a64565b62002c5a828262003d5c565b5050565b62002c6d600c600f8362003e51565b50565b62002c7f600c600f8362003f7a565b50565b600160009054906101000a900473ffffffffffffffffffffffffffffffffffffffff1673ffffffffffffffffffffffffffffffffffffffff163373ffffffffffffffffffffffffffffffffffffffff1614151562002d6e576040517f08c379a00000000000000000000000000000000000000000000000000000000081526004018080602001828103825260218152602001807f4f6e6c79206f776e65722063616e2063616c6c20746869732066756e6374696f81526020017f6e0000000000000000000000000000000000000000000000000000000000000081525060400191505060405180910390fd5b6003600062002d7d8362002754565b815260200190815260200160002060009054906101000a900460ff1615151562002e0f576040517f08c379a000000000000000000000000000000000000000000000000000000000815260040180806020018281038252601d8152602001807f526571756573742068617320616c7265616479206265656e2073656e7400000081525060200191505060405180910390fd5b6002600062002e1e8362002754565b815260200190815260200160002060009054906101000a900460ff161562002e525762002e4c828262002aaa565b62002e6b565b62002e5e8282620040fd565b62002e6a828262003d5c565b5b5050565b600160009054906101000a900473ffffffffffffffffffffffffffffffffffffffff1673ffffffffffffffffffffffffffffffffffffffff163373ffffffffffffffffffffffffffffffffffffffff1614151562002f5b576040517f08c379a00000000000000000000000000000000000000000000000000000000081526004018080602001828103825260218152602001807f4f6e6c79206f776e65722063616e2063616c6c20746869732066756e6374696f81526020017f6e0000000000000000000000000000000000000000000000000000000000000081525060400191505060405180910390fd5b6003600062002f6a8362002754565b815260200190815260200160002060009054906101000a900460ff16151562002ffb576040517f08c379a000000000000000000000000000000000000000000000000000000000815260040180806020018281038252600f8152602001807f4e6f20737563682072657175657374000000000000000000000000000000000081525060200191505060405180910390fd5b6200300782826200283a565b62003013828262004143565b5050565b600160009054906101000a900473ffffffffffffffffffffffffffffffffffffffff1673ffffffffffffffffffffffffffffffffffffffff163373ffffffffffffffffffffffffffffffffffffffff1614151562003103576040517f08c379a00000000000000000000000000000000000000000000000000000000081526004018080602001828103825260218152602001807f4f6e6c79206f776e65722063616e2063616c6c20746869732066756e6374696f81526020017f6e0000000000000000000000000000000000000000000000000000000000000081525060400191505060405180910390fd5b60026000620031128362002754565b815260200190815260200160002060009054906101000a900460ff161515620031a3576040517f08c379a000000000000000000000000000000000000000000000000000000000815260040180806020018281038252600f8152602001807f4e6f20737563682072657175657374000000000000000000000000000000000081525060200191505060405180910390fd5b620031af828262002a64565b620031bb828262004238565b5050565b600180811115620031cc57fe5b81600001516001811115620031dd57fe5b1415620033f8576000600960009054906101000a900473ffffffffffffffffffffffffffffffffffffffff1673ffffffffffffffffffffffffffffffffffffffff1663c5a887c5846040518263ffffffff167c0100000000000000000000000000000000000000000000000000000000028152600401808273ffffffffffffffffffffffffffffffffffffffff1673ffffffffffffffffffffffffffffffffffffffff16815260200191505060206040518083038186803b158015620032a257600080fd5b505afa158015620032b7573d6000803e3d6000fd5b505050506040513d6020811015620032ce57600080fd5b8101908080519060200190929190505050905060046005811115620032ef57fe5b816005811115620032fc57fe5b14806200332057506005808111156200331157fe5b8160058111156200331e57fe5b145b151562003395576040517f08c379a00000000000000000000000000000000000000000000000000000000081526004018080602001828103825260138152602001807f57726f6e6720636f6e747261637420747970650000000000000000000000000081525060200191505060405180910390fd5b60046005811115620033a357fe5b816005811115620033b057fe5b1415620033c857620033c2836200432d565b620033f6565b600580811115620033d557fe5b816005811115620033e257fe5b1415620033f557620033f4836200433f565b5b5b505b5050565b6001808111156200340957fe5b816000015160018111156200341a57fe5b1415620035d4576000600960009054906101000a900473ffffffffffffffffffffffffffffffffffffffff1673ffffffffffffffffffffffffffffffffffffffff1663c5a887c5846040518263ffffffff167c0100000000000000000000000000000000000000000000000000000000028152600401808273ffffffffffffffffffffffffffffffffffffffff1673ffffffffffffffffffffffffffffffffffffffff16815260200191505060206040518083038186803b158015620034df57600080fd5b505afa158015620034f4573d6000803e3d6000fd5b505050506040513d60208110156200350b57600080fd5b81019080805190602001909291905050509050600460058111156200352c57fe5b8160058111156200353957fe5b14806200355d57506005808111156200354e57fe5b8160058111156200355b57fe5b145b1515620035d2576040517f08c379a00000000000000000000000000000000000000000000000000000000081526004018080602001828103825260138152602001807f57726f6e6720636f6e747261637420747970650000000000000000000000000081525060200191505060405180910390fd5b505b5050565b60008090505b8160200151518110156200366e576000600560008460200151848151811015156200360557fe5b9060200190602002015173ffffffffffffffffffffffffffffffffffffffff1673ffffffffffffffffffffffffffffffffffffffff16815260200190815260200160002060006101000a81548160ff0219169083151502179055508080600101915050620035de565b5050565b6001808111156200367f57fe5b816000015160018111156200369057fe5b14156200384a576000600960009054906101000a900473ffffffffffffffffffffffffffffffffffffffff1673ffffffffffffffffffffffffffffffffffffffff1663c5a887c5846040518263ffffffff167c0100000000000000000000000000000000000000000000000000000000028152600401808273ffffffffffffffffffffffffffffffffffffffff1673ffffffffffffffffffffffffffffffffffffffff16815260200191505060206040518083038186803b1580156200375557600080fd5b505afa1580156200376a573d6000803e3d6000fd5b505050506040513d60208110156200378157600080fd5b8101908080519060200190929190505050905060046005811115620037a257fe5b816005811115620037af57fe5b1480620037d35750600580811115620037c457fe5b816005811115620037d157fe5b145b151562003848576040517f08c379a00000000000000000000000000000000000000000000000000000000081526004018080602001828103825260138152602001807f57726f6e6720636f6e747261637420747970650000000000000000000000000081525060200191505060405180910390fd5b505b5050565b6001808111156200385b57fe5b816000015160018111156200386c57fe5b141562003a87576000600960009054906101000a900473ffffffffffffffffffffffffffffffffffffffff1673ffffffffffffffffffffffffffffffffffffffff1663c5a887c5846040518263ffffffff167c0100000000000000000000000000000000000000000000000000000000028152600401808273ffffffffffffffffffffffffffffffffffffffff1673ffffffffffffffffffffffffffffffffffffffff16815260200191505060206040518083038186803b1580156200393157600080fd5b505afa15801562003946573d6000803e3d6000fd5b505050506040513d60208110156200395d57600080fd5b81019080805190602001909291905050509050600460058111156200397e57fe5b8160058111156200398b57fe5b1480620039af5750600580811115620039a057fe5b816005811115620039ad57fe5b145b151562003a24576040517f08c379a00000000000000000000000000000000000000000000000000000000081526004018080602001828103825260138152602001807f57726f6e6720636f6e747261637420747970650000000000000000000000000081525060200191505060405180910390fd5b6004600581111562003a3257fe5b81600581111562003a3f57fe5b141562003a575762003a518362004351565b62003a85565b60058081111562003a6457fe5b81600581111562003a7157fe5b141562003a845762003a838362004363565b5b5b505b5050565b60008290508073ffffffffffffffffffffffffffffffffffffffff1663381f2e9d836000015184602001516040518363ffffffff167c01000000000000000000000000000000000000000000000000000000000281526004018083600181111562003af257fe5b60ff16815260200180602001828103825283818151815260200191508051906020019060200280838360005b8381101562003b3b57808201518184015260208101905062003b1e565b505050509050019350505050600060405180830381600087803b15801562003b6257600080fd5b505af115801562003b77573d6000803e3d6000fd5b50505050505050565b60018081111562003b8d57fe5b8160000151600181111562003b9e57fe5b141562003d58576000600960009054906101000a900473ffffffffffffffffffffffffffffffffffffffff1673ffffffffffffffffffffffffffffffffffffffff1663c5a887c5846040518263ffffffff167c0100000000000000000000000000000000000000000000000000000000028152600401808273ffffffffffffffffffffffffffffffffffffffff1673ffffffffffffffffffffffffffffffffffffffff16815260200191505060206040518083038186803b15801562003c6357600080fd5b505afa15801562003c78573d6000803e3d6000fd5b505050506040513d602081101562003c8f57600080fd5b810190808051906020019092919050505090506004600581111562003cb057fe5b81600581111562003cbd57fe5b148062003ce1575060058081111562003cd257fe5b81600581111562003cdf57fe5b145b151562003d56576040517f08c379a00000000000000000000000000000000000000000000000000000000081526004018080602001828103825260138152602001807f57726f6e6720636f6e747261637420747970650000000000000000000000000081525060200191505060405180910390fd5b505b5050565b60008290508073ffffffffffffffffffffffffffffffffffffffff16631f37c991836000015184602001516040518363ffffffff167c01000000000000000000000000000000000000000000000000000000000281526004018083600181111562003dc357fe5b60ff16815260200180602001828103825283818151815260200191508051906020019060200280838360005b8381101562003e0c57808201518184015260208101905062003def565b505050509050019350505050600060405180830381600087803b15801562003e3357600080fd5b505af115801562003e48573d6000803e3d6000fd5b50505050505050565b8160008273ffffffffffffffffffffffffffffffffffffffff1673ffffffffffffffffffffffffffffffffffffffff16815260200190815260200160002060009054906101000a900460ff16151562003f12576040517f08c379a00000000000000000000000000000000000000000000000000000000081526004018080602001828103825260098152602001807f4e6f7420666f756e64000000000000000000000000000000000000000000000081525060200191505060405180910390fd5b62003f1e838262004375565b60008260008373ffffffffffffffffffffffffffffffffffffffff1673ffffffffffffffffffffffffffffffffffffffff16815260200190815260200160002060006101000a81548160ff021916908315150217905550505050565b8160008273ffffffffffffffffffffffffffffffffffffffff1673ffffffffffffffffffffffffffffffffffffffff16815260200190815260200160002060009054906101000a900460ff161515156200403c576040517f08c379a000000000000000000000000000000000000000000000000000000000815260040180806020018281038252600e8152602001807f416c72656164792065786973747300000000000000000000000000000000000081525060200191505060405180910390fd5b828190806001815401808255809150509060018203906000526020600020016000909192909190916101000a81548173ffffffffffffffffffffffffffffffffffffffff021916908373ffffffffffffffffffffffffffffffffffffffff1602179055505060018260008373ffffffffffffffffffffffffffffffffffffffff1673ffffffffffffffffffffffffffffffffffffffff16815260200190815260200160002060006101000a81548160ff021916908315150217905550505050565b620041098282620044fc565b6001600360006200411a8462002754565b815260200190815260200160002060006101000a81548160ff0219169083151502179055505050565b60008290508073ffffffffffffffffffffffffffffffffffffffff16636e58c294836000015184602001516040518363ffffffff167c010000000000000000000000000000000000000000000000000000000002815260040180836001811115620041aa57fe5b60ff16815260200180602001828103825283818151815260200191508051906020019060200280838360005b83811015620041f3578082015181840152602081019050620041d6565b505050509050019350505050600060405180830381600087803b1580156200421a57600080fd5b505af11580156200422f573d6000803e3d6000fd5b50505050505050565b60008290508073ffffffffffffffffffffffffffffffffffffffff16635e26e856836000015184602001516040518363ffffffff167c0100000000000000000000000000000000000000000000000000000000028152600401808360018111156200429f57fe5b60ff16815260200180602001828103825283818151815260200191508051906020019060200280838360005b83811015620042e8578082015181840152602081019050620042cb565b505050509050019350505050600060405180830381600087803b1580156200430f57600080fd5b505af115801562004324573d6000803e3d6000fd5b50505050505050565b6200433c600a600d8362003f7a565b50565b6200434e600b600e8362003f7a565b50565b62004360600a600d8362003e51565b50565b62004372600b600e8362003e51565b50565b60008090505b8280549050811015620044f7578173ffffffffffffffffffffffffffffffffffffffff168382815481101515620043ae57fe5b9060005260206000200160009054906101000a900473ffffffffffffffffffffffffffffffffffffffff1673ffffffffffffffffffffffffffffffffffffffff161415620044e9578260018480549050038154811015156200440c57fe5b9060005260206000200160009054906101000a900473ffffffffffffffffffffffffffffffffffffffff1683828154811015156200444657fe5b9060005260206000200160006101000a81548173ffffffffffffffffffffffffffffffffffffffff021916908373ffffffffffffffffffffffffffffffffffffffff160217905550826001848054905003815481101515620044a457fe5b9060005260206000200160006101000a81549073ffffffffffffffffffffffffffffffffffffffff021916905582805480919060019003620044e791906200470f565b505b80806001019150506200437b565b505050565b6001808111156200450957fe5b816000015160018111156200451a57fe5b1415620046d4576000600960009054906101000a900473ffffffffffffffffffffffffffffffffffffffff1673ffffffffffffffffffffffffffffffffffffffff1663c5a887c5846040518263ffffffff167c0100000000000000000000000000000000000000000000000000000000028152600401808273ffffffffffffffffffffffffffffffffffffffff1673ffffffffffffffffffffffffffffffffffffffff16815260200191505060206040518083038186803b158015620045df57600080fd5b505afa158015620045f4573d6000803e3d6000fd5b505050506040513d60208110156200460b57600080fd5b81019080805190602001909291905050509050600460058111156200462c57fe5b8160058111156200463957fe5b14806200465d57506005808111156200464e57fe5b8160058111156200465b57fe5b145b1515620046d2576040517f08c379a00000000000000000000000000000000000000000000000000000000081526004018080602001828103825260138152602001807f57726f6e6720636f6e747261637420747970650000000000000000000000000081525060200191505060405180910390fd5b505b5050565b604080519081016040528060006001811115620046f157fe5b8152602001606081525090565b604051611d53806200476783390190565b81548183558181111562004739578183600052602060002091820191016200473891906200473e565b5b505050565b6200476391905b808211156200475f57600081600090555060010162004745565b5090565b9056fe608060405230600160006101000a81548173ffffffffffffffffffffffffffffffffffffffff021916908373ffffffffffffffffffffffffffffffffffffffff1602179055503480156200005257600080fd5b5060405162001d5338038062001d53833981018060405260a08110156200007857600080fd5b810190808051906020019092919080516401000000008111156200009b57600080fd5b82810190506020810184811115620000b257600080fd5b8151856001820283011164010000000082111715620000d057600080fd5b50509291906020018051640100000000811115620000ed57600080fd5b828101905060208101848111156200010457600080fd5b81518560018202830111640100000000821117156200012257600080fd5b50509291906020018051906020019092919080516401000000008111156200014957600080fd5b828101905060208101848111156200016057600080fd5b81518560018202830111640100000000821117156200017e57600080fd5b5050929190505050846000806101000a81548173ffffffffffffffffffffffffffffffffffffffff021916908373ffffffffffffffffffffffffffffffffffffffff16021790555060008060009054906101000a900473ffffffffffffffffffffffffffffffffffffffff1673ffffffffffffffffffffffffffffffffffffffff1663c5a887c5336040518263ffffffff167c0100000000000000000000000000000000000000000000000000000000028152600401808273ffffffffffffffffffffffffffffffffffffffff1673ffffffffffffffffffffffffffffffffffffffff16815260200191505060206040518083038186803b1580156200028357600080fd5b505afa15801562000298573d6000803e3d6000fd5b505050506040513d6020811015620002af57600080fd5b8101908080519060200190929190505050905060036005811115620002d057fe5b816005811115620002dd57fe5b14151562000353576040517f08c379a00000000000000000000000000000000000000000000000000000000081526004018080602001828103825260138152602001807f57726f6e6720636f6e747261637420747970650000000000000000000000000081525060200191505060405180910390fd5b33600560006101000a81548173ffffffffffffffffffffffffffffffffffffffff021916908373ffffffffffffffffffffffffffffffffffffffff1602179055508460039080519060200190620003ac929190620003f2565b508360049080519060200190620003c5929190620003f2565b50826008819055508160099080519060200190620003e5929190620003f2565b50505050505050620004a1565b828054600181600116156101000203166002900490600052602060002090601f016020900481019282601f106200043557805160ff191683800117855562000466565b8280016001018555821562000466579182015b828111156200046557825182559160200191906001019062000448565b5b50905062000475919062000479565b5090565b6200049e91905b808211156200049a57600081600090555060010162000480565b5090565b90565b6118a280620004b16000396000f3fe6080604052600436106100eb576000357c01000000000000000000000000000000000000000000000000000000009004806313af4035146100f0578063186601ca146101415780631d31e5171461016c578063200d2ed2146101c3578063325a19f1146101fc578063370158ea146102275780635a9b0b89146102b75780636dc9869b146104f75780638bdcbc951461052257806397d93935146105b2578063a6f9dae114610603578063a7a38f0b14610654578063a93f6ec2146106b1578063af640d0f14610708578063dffeadd01461075f578063e8d503e9146107b6578063f6d713dd146107cd575b600080fd5b3480156100fc57600080fd5b5061013f6004803603602081101561011357600080fd5b81019080803573ffffffffffffffffffffffffffffffffffffffff16906020019092919050505061085d565b005b34801561014d57600080fd5b50610156610bb4565b6040518082815260200191505060405180910390f35b34801561017857600080fd5b50610181610bba565b604051808273ffffffffffffffffffffffffffffffffffffffff1673ffffffffffffffffffffffffffffffffffffffff16815260200191505060405180910390f35b3480156101cf57600080fd5b506101d8610be0565b604051808260038111156101e857fe5b60ff16815260200191505060405180910390f35b34801561020857600080fd5b50610211610bf3565b6040518082815260200191505060405180910390f35b34801561023357600080fd5b5061023c610bf9565b6040518080602001828103825283818151815260200191508051906020019080838360005b8381101561027c578082015181840152602081019050610261565b50505050905090810190601f1680156102a95780820380516001836020036101000a031916815260200191505b509250505060405180910390f35b3480156102c357600080fd5b506102cc610c97565b6040518080602001806020018b73ffffffffffffffffffffffffffffffffffffffff1673ffffffffffffffffffffffffffffffffffffffff1681526020018a73ffffffffffffffffffffffffffffffffffffffff1673ffffffffffffffffffffffffffffffffffffffff1681526020018981526020018881526020018060200187815260200186600381111561035e57fe5b60ff1681526020018060200185810385528f818151815260200191508051906020019080838360005b838110156103a2578082015181840152602081019050610387565b50505050905090810190601f1680156103cf5780820380516001836020036101000a031916815260200191505b5085810384528e818151815260200191508051906020019080838360005b838110156104085780820151818401526020810190506103ed565b50505050905090810190601f1680156104355780820380516001836020036101000a031916815260200191505b50858103835289818151815260200191508051906020019080838360005b8381101561046e578082015181840152602081019050610453565b50505050905090810190601f16801561049b5780820380516001836020036101000a031916815260200191505b50858103825286818151815260200191508051906020019060200280838360005b838110156104d75780820151818401526020810190506104bc565b505050509050019e50505050505050505050505050505060405180910390f35b34801561050357600080fd5b5061050c610f82565b6040518082815260200191505060405180910390f35b34801561052e57600080fd5b50610537610f88565b6040518080602001828103825283818151815260200191508051906020019080838360005b8381101561057757808201518184015260208101905061055c565b50505050905090810190601f1680156105a45780820380516001836020036101000a031916815260200191505b509250505060405180910390f35b3480156105be57600080fd5b50610601600480360360208110156105d557600080fd5b81019080803573ffffffffffffffffffffffffffffffffffffffff169060200190929190505050611026565b005b34801561060f57600080fd5b506106526004803603602081101561062657600080fd5b81019080803573ffffffffffffffffffffffffffffffffffffffff16906020019092919050505061137d565b005b34801561066057600080fd5b5061068d6004803603602081101561067757600080fd5b810190808035906020019092919050505061160e565b6040518082600481111561069d57fe5b60ff16815260200191505060405180910390f35b3480156106bd57600080fd5b506106c6611641565b604051808273ffffffffffffffffffffffffffffffffffffffff1673ffffffffffffffffffffffffffffffffffffffff16815260200191505060405180910390f35b34801561071457600080fd5b5061071d611667565b604051808273ffffffffffffffffffffffffffffffffffffffff1673ffffffffffffffffffffffffffffffffffffffff16815260200191505060405180910390f35b34801561076b57600080fd5b5061077461168d565b604051808273ffffffffffffffffffffffffffffffffffffffff1673ffffffffffffffffffffffffffffffffffffffff16815260200191505060405180910390f35b3480156107c257600080fd5b506107cb6116b2565b005b3480156107d957600080fd5b506107e26117d8565b6040518080602001828103825283818151815260200191508051906020019080838360005b83811015610822578082015181840152602081019050610807565b50505050905090810190601f16801561084f5780820380516001836020036101000a031916815260200191505b509250505060405180910390f35b600660009054906101000a900473ffffffffffffffffffffffffffffffffffffffff1673ffffffffffffffffffffffffffffffffffffffff163373ffffffffffffffffffffffffffffffffffffffff16141515610922576040517f08c379a00000000000000000000000000000000000000000000000000000000081526004018080602001828103825260118152602001807f5065726d697373696f6e2064656e69656400000000000000000000000000000081525060200191505060405180910390fd5b600073ffffffffffffffffffffffffffffffffffffffff16600260009054906101000a900473ffffffffffffffffffffffffffffffffffffffff1673ffffffffffffffffffffffffffffffffffffffff161415156109e8576040517f08c379a00000000000000000000000000000000000000000000000000000000081526004018080602001828103825260148152602001807f4f776e657220697320616c72656164792073657400000000000000000000000081525060200191505060405180910390fd5b60008060009054906101000a900473ffffffffffffffffffffffffffffffffffffffff1673ffffffffffffffffffffffffffffffffffffffff1663c5a887c5836040518263ffffffff167c0100000000000000000000000000000000000000000000000000000000028152600401808273ffffffffffffffffffffffffffffffffffffffff1673ffffffffffffffffffffffffffffffffffffffff16815260200191505060206040518083038186803b158015610aa457600080fd5b505afa158015610ab8573d6000803e3d6000fd5b505050506040513d6020811015610ace57600080fd5b8101908080519060200190929190505050905060026005811115610aee57fe5b816005811115610afa57fe5b141515610b6f576040517f08c379a00000000000000000000000000000000000000000000000000000000081526004018080602001828103825260138152602001807f57726f6e6720636f6e747261637420747970650000000000000000000000000081525060200191505060405180910390fd5b81600260006101000a81548173ffffffffffffffffffffffffffffffffffffffff021916908373ffffffffffffffffffffffffffffffffffffffff1602179055505050565b600a5481565b600560009054906101000a900473ffffffffffffffffffffffffffffffffffffffff1681565b600b60009054906101000a900460ff1681565b60075481565b60048054600181600116156101000203166002900480601f016020809104026020016040519081016040528092919081815260200182805460018160011615610100020316600290048015610c8f5780601f10610c6457610100808354040283529160200191610c8f565b820191906000526020600020905b815481529060010190602001808311610c7257829003601f168201915b505050505081565b6060806000806000806060600080606060036004600560009054906101000a900473ffffffffffffffffffffffffffffffffffffffff16600660009054906101000a900473ffffffffffffffffffffffffffffffffffffffff166007546008546009600a54600b60009054906101000a900460ff16600c898054600181600116156101000203166002900480601f016020809104026020016040519081016040528092919081815260200182805460018160011615610100020316600290048015610da35780601f10610d7857610100808354040283529160200191610da3565b820191906000526020600020905b815481529060010190602001808311610d8657829003601f168201915b50505050509950888054600181600116156101000203166002900480601f016020809104026020016040519081016040528092919081815260200182805460018160011615610100020316600290048015610e3f5780601f10610e1457610100808354040283529160200191610e3f565b820191906000526020600020905b815481529060010190602001808311610e2257829003601f168201915b50505050509850838054600181600116156101000203166002900480601f016020809104026020016040519081016040528092919081815260200182805460018160011615610100020316600290048015610edb5780601f10610eb057610100808354040283529160200191610edb565b820191906000526020600020905b815481529060010190602001808311610ebe57829003601f168201915b5050505050935080805480602002602001604051908101604052809291908181526020018280548015610f5b57602002820191906000526020600020906000905b82829054906101000a900460ff166004811115610f3557fe5b81526020019060010190602082600001049283019260010382029150808411610f1c5790505b50505050509050995099509950995099509950995099509950995090919293949596979899565b60085481565b60098054600181600116156101000203166002900480601f01602080910402602001604051908101604052809291908181526020018280546001816001161561010002031660029004801561101e5780601f10610ff35761010080835404028352916020019161101e565b820191906000526020600020905b81548152906001019060200180831161100157829003601f168201915b505050505081565b600560009054906101000a900473ffffffffffffffffffffffffffffffffffffffff1673ffffffffffffffffffffffffffffffffffffffff163373ffffffffffffffffffffffffffffffffffffffff161415156110eb576040517f08c379a00000000000000000000000000000000000000000000000000000000081526004018080602001828103825260118152602001807f5065726d697373696f6e2064656e69656400000000000000000000000000000081525060200191505060405180910390fd5b600073ffffffffffffffffffffffffffffffffffffffff16600660009054906101000a900473ffffffffffffffffffffffffffffffffffffffff1673ffffffffffffffffffffffffffffffffffffffff161415156111b1576040517f08c379a00000000000000000000000000000000000000000000000000000000081526004018080602001828103825260158152602001807f56656e646f7220697320616c726561647920736574000000000000000000000081525060200191505060405180910390fd5b60008060009054906101000a900473ffffffffffffffffffffffffffffffffffffffff1673ffffffffffffffffffffffffffffffffffffffff1663c5a887c5836040518263ffffffff167c0100000000000000000000000000000000000000000000000000000000028152600401808273ffffffffffffffffffffffffffffffffffffffff1673ffffffffffffffffffffffffffffffffffffffff16815260200191505060206040518083038186803b15801561126d57600080fd5b505afa158015611281573d6000803e3d6000fd5b505050506040513d602081101561129757600080fd5b81019080805190602001909291905050509050600460058111156112b757fe5b8160058111156112c357fe5b141515611338576040517f08c379a00000000000000000000000000000000000000000000000000000000081526004018080602001828103825260138152602001807f57726f6e6720636f6e747261637420747970650000000000000000000000000081525060200191505060405180910390fd5b81600660006101000a81548173ffffffffffffffffffffffffffffffffffffffff021916908373ffffffffffffffffffffffffffffffffffffffff1602179055505050565b600260009054906101000a900473ffffffffffffffffffffffffffffffffffffffff1673ffffffffffffffffffffffffffffffffffffffff163373ffffffffffffffffffffffffffffffffffffffff16141515611442576040517f08c379a00000000000000000000000000000000000000000000000000000000081526004018080602001828103825260118152602001807f5065726d697373696f6e2064656e69656400000000000000000000000000000081525060200191505060405180910390fd5b60008060009054906101000a900473ffffffffffffffffffffffffffffffffffffffff1673ffffffffffffffffffffffffffffffffffffffff1663c5a887c5836040518263ffffffff167c0100000000000000000000000000000000000000000000000000000000028152600401808273ffffffffffffffffffffffffffffffffffffffff1673ffffffffffffffffffffffffffffffffffffffff16815260200191505060206040518083038186803b1580156114fe57600080fd5b505afa158015611512573d6000803e3d6000fd5b505050506040513d602081101561152857600080fd5b810190808051906020019092919050505090506002600581111561154857fe5b81600581111561155457fe5b1415156115c9576040517f08c379a00000000000000000000000000000000000000000000000000000000081526004018080602001828103825260138152602001807f57726f6e6720636f6e747261637420747970650000000000000000000000000081525060200191505060405180910390fd5b81600260006101000a81548173ffffffffffffffffffffffffffffffffffffffff021916908373ffffffffffffffffffffffffffffffffffffffff1602179055505050565b600c8181548110151561161d57fe5b9060005260206000209060209182820401919006915054906101000a900460ff1681565b600660009054906101000a900473ffffffffffffffffffffffffffffffffffffffff1681565b600160009054906101000a900473ffffffffffffffffffffffffffffffffffffffff1681565b6000809054906101000a900473ffffffffffffffffffffffffffffffffffffffff1681565b600560009054906101000a900473ffffffffffffffffffffffffffffffffffffffff1673ffffffffffffffffffffffffffffffffffffffff163373ffffffffffffffffffffffffffffffffffffffff16148061175b5750600660009054906101000a900473ffffffffffffffffffffffffffffffffffffffff1673ffffffffffffffffffffffffffffffffffffffff163373ffffffffffffffffffffffffffffffffffffffff16145b15156117cf576040517f08c379a00000000000000000000000000000000000000000000000000000000081526004018080602001828103825260118152602001807f5065726d697373696f6e2064656e69656400000000000000000000000000000081525060200191505060405180910390fd5b42600a81905550565b60038054600181600116156101000203166002900480601f01602080910402602001604051908101604052809291908181526020018280546001816001161561010002031660029004801561186e5780601f106118435761010080835404028352916020019161186e565b820191906000526020600020905b81548152906001019060200180831161185157829003601f168201915b50505050508156fea165627a7a72305820ba9c6fcf6f34a67b1047776da0f57eaa534b2339f1389138830225d739621dd10029a165627a7a72305820c26c21e228a3059936312c2a2c2a0388cac8cf4566b06bb1e3268df2253ef6560029",
  "source": "pragma solidity ^0.5.1;\n\nimport \"./Item.sol\";\n\nimport \"./meta/Organization.sol\";\n\nimport \"./interfaces/Main.sol\";\n\ncontract Manufacturer is Organization {\n    Main public main;\n\n    address[] public vendors;\n    address[] public serviceCenters;\n    address[] public pendingItems;\n\n    mapping (address => bool) isInVendors;\n    mapping (address => bool) isInServiceCenters;\n    mapping (address => bool) isPendingItem;\n\n\n\n    constructor (address _main, address _ownerID, string memory _name, string memory _physicalAddress, string memory _registrationNumber) public {\n        main = Main(_main);\n        ownerID = _ownerID;\n        name = _name;\n        physicalAddress = _physicalAddress;\n        registrationNumber = _registrationNumber;\n    }\n\n\n\n// Getters\n\n\n\n    function getInfo () view public returns (string memory, string memory, string memory) {\n        return (name, physicalAddress, registrationNumber);\n    }\n\n    function getVendors () view public returns (address[] memory) {\n        return vendors;\n    }\n    \n    function getServiceCenters () view public returns (address[] memory) {\n        return vendors;\n    }\n    \n    function getPendingItems () view public returns (address[] memory) {\n        return pendingItems;\n    }\n\n\n\n// Public\n\n\n\n    function createItem (string memory _serial, string memory _info, uint _warrantyPeriod, string memory _warrantyTerms) onlyOwner public returns (address) {\n        Item newItem = new Item(address(main), _serial, _info, _warrantyPeriod, _warrantyTerms);\n        addPendingItem(address(newItem));\n        return (address(newItem));\n    }\n\n    function setVendorToItem (address vID, address iID) onlyOwner public {\n        Main.ContractType cType = main.contractType(vID);\n        require((cType == Main.ContractType.VENDOR), \"Wrong contract type\");\n\n        Item iInstance = Item(iID);\n        iInstance.setVendor(vID);\n        removePendingItem(iID);\n    }\n\n    function activateWarranty (address iID) onlyOwner public {\n        Item iInstance = Item(iID);\n        iInstance.activateWarranty();\n    }\n\n\n\n// Internal\n\n\n\n    function addSentRequestHook (address _id, Requestable.Request memory req) internal {\n        if (req.Type == Requestable.RequestType.PARTNERSHIP) {\n            Main.ContractType cType = main.contractType(_id);\n            require(((cType == Main.ContractType.VENDOR) || (cType == Main.ContractType.SERVICE_CENTER)), \"Wrong contract type\");\n        }\n    }\n    function removeSentRequestHook (address _id, Requestable.Request memory req) internal {\n        if (req.Type == Requestable.RequestType.PARTNERSHIP) {\n            Main.ContractType cType = main.contractType(_id);\n            require(((cType == Main.ContractType.VENDOR) || (cType == Main.ContractType.SERVICE_CENTER)), \"Wrong contract type\");\n        }\n    }\n\n    function addReceivedRequestHook (address _id, Requestable.Request memory req) internal {\n        if (req.Type == Requestable.RequestType.PARTNERSHIP) {\n            Main.ContractType cType = main.contractType(_id);\n            require(((cType == Main.ContractType.VENDOR) || (cType == Main.ContractType.SERVICE_CENTER)), \"Wrong contract type\");\n        }\n    }\n    function removeReceivedRequestHook (address _id, Requestable.Request memory req) internal {\n        if (req.Type == Requestable.RequestType.PARTNERSHIP) {\n            Main.ContractType cType = main.contractType(_id);\n            require(((cType == Main.ContractType.VENDOR) || (cType == Main.ContractType.SERVICE_CENTER)), \"Wrong contract type\");\n        }\n    }\n\n    function addCompletedRequestHook (address _id, Requestable.Request memory req) internal {\n        if (req.Type == Requestable.RequestType.PARTNERSHIP) {\n            Main.ContractType cType = main.contractType(_id);\n            require(((cType == Main.ContractType.VENDOR) || (cType == Main.ContractType.SERVICE_CENTER)), \"Wrong contract type\");\n\n            if (cType == Main.ContractType.VENDOR) { addVendor(_id); }\n            else if (cType == Main.ContractType.SERVICE_CENTER) { addServiceCenter(_id); }\n        }\n    }\n    function removeCompletedRequestHook (address _id, Requestable.Request memory req) internal {\n        if (req.Type == Requestable.RequestType.PARTNERSHIP) {\n            Main.ContractType cType = main.contractType(_id);\n            require(((cType == Main.ContractType.VENDOR) || (cType == Main.ContractType.SERVICE_CENTER)), \"Wrong contract type\");\n\n            if (cType == Main.ContractType.VENDOR) { removeVendor(_id); }\n            else if (cType == Main.ContractType.SERVICE_CENTER) { removeServiceCenter(_id); }\n        }\n    }\n\n\n\n    function addPendingItem (address iID) internal { addAddress(pendingItems, isPendingItem, iID); }\n    function removePendingItem (address iID) internal { removeAddress(pendingItems, isPendingItem, iID); }\n\n    function addVendor (address vID) internal { addAddress(vendors, isInVendors, vID); }\n    function removeVendor (address vID) internal { removeAddress(vendors, isInVendors, vID); }\n\n    function addServiceCenter (address scID) internal { addAddress(serviceCenters, isInServiceCenters, scID); }\n    function removeServiceCenter (address scID) internal { removeAddress(serviceCenters, isInServiceCenters, scID); }\n\n\n\n    function addAddress (address[] storage array, mapping (address => bool) storage map, address aID) internal {\n        require(!map[aID], \"Already exists\");\n\n        array.push(aID);\n        map[aID] = true;\n    }\n\n    function removeAddress (address[] storage array, mapping (address => bool) storage map, address aID) internal {\n        require(map[aID], \"Not found\");\n\n        removeFromAddressArray(array, aID);\n        map[aID] = false;\n    }\n\n    function removeFromAddressArray (address[] storage array, address value) internal {\n        for (uint i = 0; i < array.length; i++) {\n            if (array[i] == value) {\n              array[i] = array[array.length - 1];\n              delete array[array.length - 1];\n              array.length--;\n            }\n        }\n    }\n}\n",
  "sourcePath": "/Users/viktorgronskiy/Documents/Projects/Fun/GuarantSystem/blockchain/src/Manufacturer.sol",
  "compiler": {
    "name": "solc",
    "version": "0.5.1+commit.c8a2cb62.Emscripten.clang"
  },
  "schemaVersion": "3.0.1",
  "updatedAt": "2019-02-02T15:05:53.659Z",
  "devdoc": {
    "methods": {}
  },
  "userdoc": {
    "methods": {}
  }
}