{
  "contractName": "Manufacturer",
  "abi": [
    {
      "constant": true,
      "inputs": [],
      "name": "name",
      "outputs": [
        {
          "name": "",
          "type": "string"
        }
      ],
      "payable": false,
      "stateMutability": "view",
      "type": "function"
    },
    {
      "constant": true,
      "inputs": [],
      "name": "physicalAddress",
      "outputs": [
        {
          "name": "",
          "type": "string"
        }
      ],
      "payable": false,
      "stateMutability": "view",
      "type": "function"
    },
    {
      "constant": false,
      "inputs": [],
      "name": "receivePartnershipRequest",
      "outputs": [],
      "payable": false,
      "stateMutability": "nonpayable",
      "type": "function"
    },
    {
      "constant": false,
      "inputs": [
        {
          "name": "pID",
          "type": "address"
        }
      ],
      "name": "cancelPartnership",
      "outputs": [],
      "payable": false,
      "stateMutability": "nonpayable",
      "type": "function"
    },
    {
      "constant": true,
      "inputs": [
        {
          "name": "",
          "type": "uint256"
        }
      ],
      "name": "receivedPartnerships",
      "outputs": [
        {
          "name": "",
          "type": "address"
        }
      ],
      "payable": false,
      "stateMutability": "view",
      "type": "function"
    },
    {
      "constant": true,
      "inputs": [
        {
          "name": "",
          "type": "uint256"
        }
      ],
      "name": "serviceCenters",
      "outputs": [
        {
          "name": "",
          "type": "address"
        }
      ],
      "payable": false,
      "stateMutability": "view",
      "type": "function"
    },
    {
      "constant": true,
      "inputs": [
        {
          "name": "",
          "type": "uint256"
        }
      ],
      "name": "pendingItems",
      "outputs": [
        {
          "name": "",
          "type": "address"
        }
      ],
      "payable": false,
      "stateMutability": "view",
      "type": "function"
    },
    {
      "constant": false,
      "inputs": [
        {
          "name": "pID",
          "type": "address"
        }
      ],
      "name": "acceptPartnership",
      "outputs": [],
      "payable": false,
      "stateMutability": "nonpayable",
      "type": "function"
    },
    {
      "constant": true,
      "inputs": [
        {
          "name": "",
          "type": "uint256"
        }
      ],
      "name": "requestedPartnerships",
      "outputs": [
        {
          "name": "",
          "type": "address"
        }
      ],
      "payable": false,
      "stateMutability": "view",
      "type": "function"
    },
    {
      "constant": true,
      "inputs": [
        {
          "name": "",
          "type": "uint256"
        }
      ],
      "name": "vendors",
      "outputs": [
        {
          "name": "",
          "type": "address"
        }
      ],
      "payable": false,
      "stateMutability": "view",
      "type": "function"
    },
    {
      "constant": false,
      "inputs": [],
      "name": "receivePartnershipRevert",
      "outputs": [],
      "payable": false,
      "stateMutability": "nonpayable",
      "type": "function"
    },
    {
      "constant": true,
      "inputs": [],
      "name": "id",
      "outputs": [
        {
          "name": "",
          "type": "address"
        }
      ],
      "payable": false,
      "stateMutability": "view",
      "type": "function"
    },
    {
      "constant": false,
      "inputs": [],
      "name": "receivePartnershipCancel",
      "outputs": [],
      "payable": false,
      "stateMutability": "nonpayable",
      "type": "function"
    },
    {
      "constant": true,
      "inputs": [],
      "name": "registrationNumber",
      "outputs": [
        {
          "name": "",
          "type": "string"
        }
      ],
      "payable": false,
      "stateMutability": "view",
      "type": "function"
    },
    {
      "constant": false,
      "inputs": [
        {
          "name": "pID",
          "type": "address"
        }
      ],
      "name": "requestPartnership",
      "outputs": [],
      "payable": false,
      "stateMutability": "nonpayable",
      "type": "function"
    },
    {
      "constant": true,
      "inputs": [],
      "name": "main",
      "outputs": [
        {
          "name": "",
          "type": "address"
        }
      ],
      "payable": false,
      "stateMutability": "view",
      "type": "function"
    },
    {
      "constant": false,
      "inputs": [],
      "name": "receivePartnershipDecline",
      "outputs": [],
      "payable": false,
      "stateMutability": "nonpayable",
      "type": "function"
    },
    {
      "constant": false,
      "inputs": [
        {
          "name": "pID",
          "type": "address"
        }
      ],
      "name": "revertPartnership",
      "outputs": [],
      "payable": false,
      "stateMutability": "nonpayable",
      "type": "function"
    },
    {
      "constant": false,
      "inputs": [
        {
          "name": "pID",
          "type": "address"
        }
      ],
      "name": "declinePartnership",
      "outputs": [],
      "payable": false,
      "stateMutability": "nonpayable",
      "type": "function"
    },
    {
      "inputs": [
        {
          "name": "_ownerID",
          "type": "address"
        },
        {
          "name": "_name",
          "type": "string"
        },
        {
          "name": "_physicalAddress",
          "type": "string"
        },
        {
          "name": "_registrationNumber",
          "type": "string"
        }
      ],
      "payable": false,
      "stateMutability": "nonpayable",
      "type": "constructor"
    },
    {
      "constant": false,
      "inputs": [
        {
          "name": "_serial",
          "type": "string"
        },
        {
          "name": "_info",
          "type": "string"
        },
        {
          "name": "_warrantyPeriod",
          "type": "uint256"
        },
        {
          "name": "_warrantyTerms",
          "type": "string"
        }
      ],
      "name": "createItem",
      "outputs": [
        {
          "name": "",
          "type": "address"
        }
      ],
      "payable": false,
      "stateMutability": "nonpayable",
      "type": "function"
    },
    {
      "constant": false,
      "inputs": [
        {
          "name": "vID",
          "type": "address"
        },
        {
          "name": "iID",
          "type": "address"
        }
      ],
      "name": "setVendorToItem",
      "outputs": [],
      "payable": false,
      "stateMutability": "nonpayable",
      "type": "function"
    },
    {
      "constant": false,
      "inputs": [
        {
          "name": "iID",
          "type": "address"
        }
      ],
      "name": "activateWarranty",
      "outputs": [],
      "payable": false,
      "stateMutability": "nonpayable",
      "type": "function"
    }
  ],
  "bytecode": "0x608060405230600160006101000a81548173ffffffffffffffffffffffffffffffffffffffff021916908373ffffffffffffffffffffffffffffffffffffffff1602179055503480156200005257600080fd5b50604051620052e5380380620052e5833981018060405260808110156200007857600080fd5b810190808051906020019092919080516401000000008111156200009b57600080fd5b82810190506020810184811115620000b257600080fd5b8151856001820283011164010000000082111715620000d057600080fd5b50509291906020018051640100000000811115620000ed57600080fd5b828101905060208101848111156200010457600080fd5b81518560018202830111640100000000821117156200012257600080fd5b505092919060200180516401000000008111156200013f57600080fd5b828101905060208101848111156200015657600080fd5b81518560018202830111640100000000821117156200017457600080fd5b50509291905050503373ffffffffffffffffffffffffffffffffffffffff1663dffeadd06040518163ffffffff167c010000000000000000000000000000000000000000000000000000000002815260040160206040518083038186803b158015620001df57600080fd5b505afa158015620001f4573d6000803e3d6000fd5b505050506040513d60208110156200020b57600080fd5b81019080805190602001909291905050506000806101000a81548173ffffffffffffffffffffffffffffffffffffffff021916908373ffffffffffffffffffffffffffffffffffffffff16021790555083600260006101000a81548173ffffffffffffffffffffffffffffffffffffffff021916908373ffffffffffffffffffffffffffffffffffffffff1602179055508260039080519060200190620002b4929190620002f1565b508160049080519060200190620002cd929190620002f1565b508060059080519060200190620002e6929190620002f1565b5050505050620003a0565b828054600181600116156101000203166002900490600052602060002090601f016020900481019282601f106200033457805160ff191683800117855562000365565b8280016001018555821562000365579182015b828111156200036457825182559160200191906001019062000347565b5b50905062000374919062000378565b5090565b6200039d91905b80821115620003995760008160009055506001016200037f565b5090565b90565b614f3580620003b06000396000f3fe60806040526004361062000139576000357c01000000000000000000000000000000000000000000000000000000009004806306fdde03146200013e57806340868fff14620001d45780634f614ffc146200026a578063560649251462000284578063569be9b814620002d9578063582c55b3146200035857806379ac047714620003d75780637aa29a261462000456578063812842a114620004ab578063824e084d146200050057806383e4604f1462000575578063867a524014620007c2578063a08d986d1462000841578063a1d6888014620008c0578063af640d0f14620008da578063b08437fc1462000934578063b2a1a40a146200094e578063c937cf3714620009e4578063dffeadd01462000a39578063e0726b0a1462000a93578063eaf7c97a1462000aad578063fbfca3c61462000b02575b600080fd5b3480156200014b57600080fd5b506200015662000b57565b6040518080602001828103825283818151815260200191508051906020019080838360005b83811015620001985780820151818401526020810190506200017b565b50505050905090810190601f168015620001c65780820380516001836020036101000a031916815260200191505b509250505060405180910390f35b348015620001e157600080fd5b50620001ec62000bf9565b6040518080602001828103825283818151815260200191508051906020019080838360005b838110156200022e57808201518184015260208101905062000211565b50505050905090810190601f1680156200025c5780820380516001836020036101000a031916815260200191505b509250505060405180910390f35b3480156200027757600080fd5b506200028262000c9b565b005b3480156200029157600080fd5b50620002d760048036036020811015620002aa57600080fd5b81019080803573ffffffffffffffffffffffffffffffffffffffff16906020019092919050505062000e07565b005b348015620002e657600080fd5b506200031660048036036020811015620002ff57600080fd5b810190808035906020019092919050505062000f73565b604051808273ffffffffffffffffffffffffffffffffffffffff1673ffffffffffffffffffffffffffffffffffffffff16815260200191505060405180910390f35b3480156200036557600080fd5b5062000395600480360360208110156200037e57600080fd5b810190808035906020019092919050505062000fb2565b604051808273ffffffffffffffffffffffffffffffffffffffff1673ffffffffffffffffffffffffffffffffffffffff16815260200191505060405180910390f35b348015620003e457600080fd5b506200041460048036036020811015620003fd57600080fd5b810190808035906020019092919050505062000ff1565b604051808273ffffffffffffffffffffffffffffffffffffffff1673ffffffffffffffffffffffffffffffffffffffff16815260200191505060405180910390f35b3480156200046357600080fd5b50620004a9600480360360208110156200047c57600080fd5b81019080803573ffffffffffffffffffffffffffffffffffffffff16906020019092919050505062001030565b005b348015620004b857600080fd5b50620004fe60048036036020811015620004d157600080fd5b81019080803573ffffffffffffffffffffffffffffffffffffffff16906020019092919050505062001202565b005b3480156200050d57600080fd5b5062000573600480360360408110156200052657600080fd5b81019080803573ffffffffffffffffffffffffffffffffffffffff169060200190929190803573ffffffffffffffffffffffffffffffffffffffff16906020019092919050505062001375565b005b3480156200058257600080fd5b5062000780600480360360808110156200059b57600080fd5b8101908080359060200190640100000000811115620005b957600080fd5b820183602082011115620005cc57600080fd5b80359060200191846001830284011164010000000083111715620005ef57600080fd5b91908080601f016020809104026020016040519081016040528093929190818152602001838380828437600081840152601f19601f820116905080830192505050505050509192919290803590602001906401000000008111156200065357600080fd5b8201836020820111156200066657600080fd5b803590602001918460018302840111640100000000831117156200068957600080fd5b91908080601f016020809104026020016040519081016040528093929190818152602001838380828437600081840152601f19601f8201169050808301925050505050505091929192908035906020019092919080359060200190640100000000811115620006f757600080fd5b8201836020820111156200070a57600080fd5b803590602001918460018302840111640100000000831117156200072d57600080fd5b91908080601f016020809104026020016040519081016040528093929190818152602001838380828437600081840152601f19601f820116905080830192505050505050509192919290505050620016ae565b604051808273ffffffffffffffffffffffffffffffffffffffff1673ffffffffffffffffffffffffffffffffffffffff16815260200191505060405180910390f35b348015620007cf57600080fd5b50620007ff60048036036020811015620007e857600080fd5b81019080803590602001909291905050506200193a565b604051808273ffffffffffffffffffffffffffffffffffffffff1673ffffffffffffffffffffffffffffffffffffffff16815260200191505060405180910390f35b3480156200084e57600080fd5b506200087e600480360360208110156200086757600080fd5b810190808035906020019092919050505062001979565b604051808273ffffffffffffffffffffffffffffffffffffffff1673ffffffffffffffffffffffffffffffffffffffff16815260200191505060405180910390f35b348015620008cd57600080fd5b50620008d8620019b8565b005b348015620008e757600080fd5b50620008f262001ab3565b604051808273ffffffffffffffffffffffffffffffffffffffff1673ffffffffffffffffffffffffffffffffffffffff16815260200191505060405180910390f35b3480156200094157600080fd5b506200094c62001ad9565b005b3480156200095b57600080fd5b506200096662001bae565b6040518080602001828103825283818151815260200191508051906020019080838360005b83811015620009a85780820151818401526020810190506200098b565b50505050905090810190601f168015620009d65780820380516001836020036101000a031916815260200191505b509250505060405180910390f35b348015620009f157600080fd5b5062000a376004803603602081101562000a0a57600080fd5b81019080803573ffffffffffffffffffffffffffffffffffffffff16906020019092919050505062001c50565b005b34801562000a4657600080fd5b5062000a5162001e3e565b604051808273ffffffffffffffffffffffffffffffffffffffff1673ffffffffffffffffffffffffffffffffffffffff16815260200191505060405180910390f35b34801562000aa057600080fd5b5062000aab62001e63565b005b34801562000aba57600080fd5b5062000b006004803603602081101562000ad357600080fd5b81019080803573ffffffffffffffffffffffffffffffffffffffff16906020019092919050505062001f5e565b005b34801562000b0f57600080fd5b5062000b556004803603602081101562000b2857600080fd5b81019080803573ffffffffffffffffffffffffffffffffffffffff16906020019092919050505062002125565b005b60038054600181600116156101000203166002900480601f01602080910402602001604051908101604052809291908181526020018280546001816001161561010002031660029004801562000bf15780601f1062000bc55761010080835404028352916020019162000bf1565b820191906000526020600020905b81548152906001019060200180831162000bd357829003601f168201915b505050505081565b60048054600181600116156101000203166002900480601f01602080910402602001604051908101604052809291908181526020018280546001816001161561010002031660029004801562000c935780601f1062000c675761010080835404028352916020019162000c93565b820191906000526020600020905b81548152906001019060200180831162000c7557829003601f168201915b505050505081565b6000339050600960008273ffffffffffffffffffffffffffffffffffffffff1673ffffffffffffffffffffffffffffffffffffffff16815260200190815260200160002060009054906101000a900460ff1615151562000d89576040517f08c379a00000000000000000000000000000000000000000000000000000000081526004018080602001828103825260268152602001807f506172746e6572736869702068617320616c7265616479206265656e2072657181526020017f756573746564000000000000000000000000000000000000000000000000000081525060400191505060405180910390fd5b600a60008273ffffffffffffffffffffffffffffffffffffffff1673ffffffffffffffffffffffffffffffffffffffff16815260200190815260200160002060009054906101000a900460ff161562000df85762000de781620022ec565b62000df28162002352565b62000e04565b62000e038162002364565b5b50565b600260009054906101000a900473ffffffffffffffffffffffffffffffffffffffff1673ffffffffffffffffffffffffffffffffffffffff163373ffffffffffffffffffffffffffffffffffffffff16148062000ee557508073ffffffffffffffffffffffffffffffffffffffff163373ffffffffffffffffffffffffffffffffffffffff1614801562000ee45750600860008273ffffffffffffffffffffffffffffffffffffffff1673ffffffffffffffffffffffffffffffffffffffff16815260200190815260200160002060009054906101000a900460ff165b5b151562000f5a576040517f08c379a00000000000000000000000000000000000000000000000000000000081526004018080602001828103825260168152602001807f4e6f7420656e6f756768207065726d697373696f6e730000000000000000000081525060200191505060405180910390fd5b62000f658162002376565b62000f7081620023dc565b50565b60068181548110151562000f8357fe5b906000526020600020016000915054906101000a900473ffffffffffffffffffffffffffffffffffffffff1681565b600c8181548110151562000fc257fe5b906000526020600020016000915054906101000a900473ffffffffffffffffffffffffffffffffffffffff1681565b600d818154811015156200100157fe5b906000526020600020016000915054906101000a900473ffffffffffffffffffffffffffffffffffffffff1681565b600260009054906101000a900473ffffffffffffffffffffffffffffffffffffffff1673ffffffffffffffffffffffffffffffffffffffff163373ffffffffffffffffffffffffffffffffffffffff161415156200111c576040517f08c379a00000000000000000000000000000000000000000000000000000000081526004018080602001828103825260218152602001807f4f6e6c79206f776e65722063616e2063616c6c20746869732066756e6374696f81526020017f6e0000000000000000000000000000000000000000000000000000000000000081525060400191505060405180910390fd5b600960008273ffffffffffffffffffffffffffffffffffffffff1673ffffffffffffffffffffffffffffffffffffffff16815260200190815260200160002060009054906101000a900460ff161515620011de576040517f08c379a000000000000000000000000000000000000000000000000000000000815260040180806020018281038252600f8152602001807f4e6f20737563682072657175657374000000000000000000000000000000000081525060200191505060405180910390fd5b620011e981620022ec565b620011f4816200266d565b620011ff816200267f565b50565b600260009054906101000a900473ffffffffffffffffffffffffffffffffffffffff1673ffffffffffffffffffffffffffffffffffffffff163373ffffffffffffffffffffffffffffffffffffffff16141515620012ee576040517f08c379a00000000000000000000000000000000000000000000000000000000081526004018080602001828103825260218152602001807f4f6e6c79206f776e65722063616e2063616c6c20746869732066756e6374696f81526020017f6e0000000000000000000000000000000000000000000000000000000000000081525060400191505060405180910390fd5b60008190508073ffffffffffffffffffffffffffffffffffffffff1663e8d503e96040518163ffffffff167c0100000000000000000000000000000000000000000000000000000000028152600401600060405180830381600087803b1580156200135857600080fd5b505af11580156200136d573d6000803e3d6000fd5b505050505050565b600260009054906101000a900473ffffffffffffffffffffffffffffffffffffffff1673ffffffffffffffffffffffffffffffffffffffff163373ffffffffffffffffffffffffffffffffffffffff1614151562001461576040517f08c379a00000000000000000000000000000000000000000000000000000000081526004018080602001828103825260218152602001807f4f6e6c79206f776e65722063616e2063616c6c20746869732066756e6374696f81526020017f6e0000000000000000000000000000000000000000000000000000000000000081525060400191505060405180910390fd5b60008060009054906101000a900473ffffffffffffffffffffffffffffffffffffffff1673ffffffffffffffffffffffffffffffffffffffff1663e11aa6a2846040518263ffffffff167c0100000000000000000000000000000000000000000000000000000000028152600401808273ffffffffffffffffffffffffffffffffffffffff1673ffffffffffffffffffffffffffffffffffffffff16815260200191505060206040518083038186803b1580156200151e57600080fd5b505afa15801562001533573d6000803e3d6000fd5b505050506040513d60208110156200154a57600080fd5b81019080805190602001909291905050509050600460058111156200156b57fe5b8160058111156200157857fe5b141515620015ee576040517f08c379a00000000000000000000000000000000000000000000000000000000081526004018080602001828103825260138152602001807f57726f6e6720636f6e747261637420747970650000000000000000000000000081525060200191505060405180910390fd5b60008290508073ffffffffffffffffffffffffffffffffffffffff166397d93935856040518263ffffffff167c0100000000000000000000000000000000000000000000000000000000028152600401808273ffffffffffffffffffffffffffffffffffffffff1673ffffffffffffffffffffffffffffffffffffffff168152602001915050600060405180830381600087803b1580156200168f57600080fd5b505af1158015620016a4573d6000803e3d6000fd5b5050505050505050565b6000600260009054906101000a900473ffffffffffffffffffffffffffffffffffffffff1673ffffffffffffffffffffffffffffffffffffffff163373ffffffffffffffffffffffffffffffffffffffff161415156200179c576040517f08c379a00000000000000000000000000000000000000000000000000000000081526004018080602001828103825260218152602001807f4f6e6c79206f776e65722063616e2063616c6c20746869732066756e6374696f81526020017f6e0000000000000000000000000000000000000000000000000000000000000081525060400191505060405180910390fd5b600085858585620017ac620035f0565b80806020018060200185815260200180602001848103845288818151815260200191508051906020019080838360005b83811015620017f9578082015181840152602081019050620017dc565b50505050905090810190601f168015620018275780820380516001836020036101000a031916815260200191505b50848103835287818151815260200191508051906020019080838360005b838110156200186257808201518184015260208101905062001845565b50505050905090810190601f168015620018905780820380516001836020036101000a031916815260200191505b50848103825285818151815260200191508051906020019080838360005b83811015620018cb578082015181840152602081019050620018ae565b50505050905090810190601f168015620018f95780820380516001836020036101000a031916815260200191505b50975050505050505050604051809103906000f08015801562001920573d6000803e3d6000fd5b5090506200192e81620028b7565b80915050949350505050565b6007818154811015156200194a57fe5b906000526020600020016000915054906101000a900473ffffffffffffffffffffffffffffffffffffffff1681565b600b818154811015156200198957fe5b906000526020600020016000915054906101000a900473ffffffffffffffffffffffffffffffffffffffff1681565b6000339050600960008273ffffffffffffffffffffffffffffffffffffffff1673ffffffffffffffffffffffffffffffffffffffff16815260200190815260200160002060009054906101000a900460ff16151562001aa5576040517f08c379a00000000000000000000000000000000000000000000000000000000081526004018080602001828103825260228152602001807f506172746e65727368697020686173206e6f74206265656e207265717565737481526020017f656400000000000000000000000000000000000000000000000000000000000081525060400191505060405180910390fd5b62001ab0816200266d565b50565b600160009054906101000a900473ffffffffffffffffffffffffffffffffffffffff1681565b6000339050600860008273ffffffffffffffffffffffffffffffffffffffff1673ffffffffffffffffffffffffffffffffffffffff16815260200190815260200160002060009054906101000a900460ff16151562001ba0576040517f08c379a00000000000000000000000000000000000000000000000000000000081526004018080602001828103825260128152602001807f4e6f7420706172746e657265642077697468000000000000000000000000000081525060200191505060405180910390fd5b62001bab8162002376565b50565b60058054600181600116156101000203166002900480601f01602080910402602001604051908101604052809291908181526020018280546001816001161561010002031660029004801562001c485780601f1062001c1c5761010080835404028352916020019162001c48565b820191906000526020600020905b81548152906001019060200180831162001c2a57829003601f168201915b505050505081565b600260009054906101000a900473ffffffffffffffffffffffffffffffffffffffff1673ffffffffffffffffffffffffffffffffffffffff163373ffffffffffffffffffffffffffffffffffffffff1614151562001d3c576040517f08c379a00000000000000000000000000000000000000000000000000000000081526004018080602001828103825260218152602001807f4f6e6c79206f776e65722063616e2063616c6c20746869732066756e6374696f81526020017f6e0000000000000000000000000000000000000000000000000000000000000081525060400191505060405180910390fd5b600a60008273ffffffffffffffffffffffffffffffffffffffff1673ffffffffffffffffffffffffffffffffffffffff16815260200190815260200160002060009054906101000a900460ff1615151562001e25576040517f08c379a00000000000000000000000000000000000000000000000000000000081526004018080602001828103825260268152602001807f506172746e6572736869702068617320616c7265616479206265656e2072657181526020017f756573746564000000000000000000000000000000000000000000000000000081525060400191505060405180910390fd5b62001e3081620028c9565b62001e3b816200267f565b50565b6000809054906101000a900473ffffffffffffffffffffffffffffffffffffffff1681565b6000339050600a60008273ffffffffffffffffffffffffffffffffffffffff1673ffffffffffffffffffffffffffffffffffffffff16815260200190815260200160002060009054906101000a900460ff16151562001f50576040517f08c379a00000000000000000000000000000000000000000000000000000000081526004018080602001828103825260228152602001807f506172746e65727368697020686173206e6f74206265656e207265717565737481526020017f656400000000000000000000000000000000000000000000000000000000000081525060400191505060405180910390fd5b62001f5b8162002352565b50565b600260009054906101000a900473ffffffffffffffffffffffffffffffffffffffff1673ffffffffffffffffffffffffffffffffffffffff163373ffffffffffffffffffffffffffffffffffffffff161415156200204a576040517f08c379a00000000000000000000000000000000000000000000000000000000081526004018080602001828103825260218152602001807f4f6e6c79206f776e65722063616e2063616c6c20746869732066756e6374696f81526020017f6e0000000000000000000000000000000000000000000000000000000000000081525060400191505060405180910390fd5b600a60008273ffffffffffffffffffffffffffffffffffffffff1673ffffffffffffffffffffffffffffffffffffffff16815260200190815260200160002060009054906101000a900460ff1615156200210c576040517f08c379a000000000000000000000000000000000000000000000000000000000815260040180806020018281038252600f8152602001807f4e6f20737563682072657175657374000000000000000000000000000000000081525060200191505060405180910390fd5b620021178162002352565b6200212281620028db565b50565b600260009054906101000a900473ffffffffffffffffffffffffffffffffffffffff1673ffffffffffffffffffffffffffffffffffffffff163373ffffffffffffffffffffffffffffffffffffffff1614151562002211576040517f08c379a00000000000000000000000000000000000000000000000000000000081526004018080602001828103825260218152602001807f4f6e6c79206f776e65722063616e2063616c6c20746869732066756e6374696f81526020017f6e0000000000000000000000000000000000000000000000000000000000000081525060400191505060405180910390fd5b600960008273ffffffffffffffffffffffffffffffffffffffff1673ffffffffffffffffffffffffffffffffffffffff16815260200190815260200160002060009054906101000a900460ff161515620022d3576040517f08c379a000000000000000000000000000000000000000000000000000000000815260040180806020018281038252600f8152602001807f4e6f20737563682072657175657374000000000000000000000000000000000081525060200191505060405180910390fd5b620022de816200266d565b620022e98162002b13565b50565b6001600860008373ffffffffffffffffffffffffffffffffffffffff1673ffffffffffffffffffffffffffffffffffffffff16815260200190815260200160002060006101000a81548160ff0219169083151502179055506200234f8162002d4b565b50565b620023616007600a8362002f60565b50565b62002373600660098362003089565b50565b6000600860008373ffffffffffffffffffffffffffffffffffffffff1673ffffffffffffffffffffffffffffffffffffffff16815260200190815260200160002060006101000a81548160ff021916908315150217905550620023d9816200320c565b50565b60008060009054906101000a900473ffffffffffffffffffffffffffffffffffffffff1673ffffffffffffffffffffffffffffffffffffffff1663e11aa6a2836040518263ffffffff167c0100000000000000000000000000000000000000000000000000000000028152600401808273ffffffffffffffffffffffffffffffffffffffff1673ffffffffffffffffffffffffffffffffffffffff16815260200191505060206040518083038186803b1580156200249957600080fd5b505afa158015620024ae573d6000803e3d6000fd5b505050506040513d6020811015620024c557600080fd5b8101908080519060200190929190505050905060046005811115620024e657fe5b816005811115620024f357fe5b14806200251757506005808111156200250857fe5b8160058111156200251557fe5b145b15156200258c576040517f08c379a00000000000000000000000000000000000000000000000000000000081526004018080602001828103825260138152602001807f57726f6e6720636f6e747261637420747970650000000000000000000000000081525060200191505060405180910390fd5b60008290508073ffffffffffffffffffffffffffffffffffffffff166356064925600160009054906101000a900473ffffffffffffffffffffffffffffffffffffffff166040518263ffffffff167c0100000000000000000000000000000000000000000000000000000000028152600401808273ffffffffffffffffffffffffffffffffffffffff1673ffffffffffffffffffffffffffffffffffffffff168152602001915050600060405180830381600087803b1580156200264f57600080fd5b505af115801562002664573d6000803e3d6000fd5b50505050505050565b6200267c600660098362002f60565b50565b60008060009054906101000a900473ffffffffffffffffffffffffffffffffffffffff1673ffffffffffffffffffffffffffffffffffffffff1663e11aa6a2836040518263ffffffff167c0100000000000000000000000000000000000000000000000000000000028152600401808273ffffffffffffffffffffffffffffffffffffffff1673ffffffffffffffffffffffffffffffffffffffff16815260200191505060206040518083038186803b1580156200273c57600080fd5b505afa15801562002751573d6000803e3d6000fd5b505050506040513d60208110156200276857600080fd5b81019080805190602001909291905050509050600460058111156200278957fe5b8160058111156200279657fe5b1480620027ba5750600580811115620027ab57fe5b816005811115620027b857fe5b145b15156200282f576040517f08c379a00000000000000000000000000000000000000000000000000000000081526004018080602001828103825260138152602001807f57726f6e6720636f6e747261637420747970650000000000000000000000000081525060200191505060405180910390fd5b60008290508073ffffffffffffffffffffffffffffffffffffffff16634f614ffc6040518163ffffffff167c0100000000000000000000000000000000000000000000000000000000028152600401600060405180830381600087803b1580156200289957600080fd5b505af1158015620028ae573d6000803e3d6000fd5b50505050505050565b620028c6600d60108362003089565b50565b620028d86007600a8362003089565b50565b60008060009054906101000a900473ffffffffffffffffffffffffffffffffffffffff1673ffffffffffffffffffffffffffffffffffffffff1663e11aa6a2836040518263ffffffff167c0100000000000000000000000000000000000000000000000000000000028152600401808273ffffffffffffffffffffffffffffffffffffffff1673ffffffffffffffffffffffffffffffffffffffff16815260200191505060206040518083038186803b1580156200299857600080fd5b505afa158015620029ad573d6000803e3d6000fd5b505050506040513d6020811015620029c457600080fd5b8101908080519060200190929190505050905060046005811115620029e557fe5b816005811115620029f257fe5b148062002a16575060058081111562002a0757fe5b81600581111562002a1457fe5b145b151562002a8b576040517f08c379a00000000000000000000000000000000000000000000000000000000081526004018080602001828103825260138152602001807f57726f6e6720636f6e747261637420747970650000000000000000000000000081525060200191505060405180910390fd5b60008290508073ffffffffffffffffffffffffffffffffffffffff1663a1d688806040518163ffffffff167c0100000000000000000000000000000000000000000000000000000000028152600401600060405180830381600087803b15801562002af557600080fd5b505af115801562002b0a573d6000803e3d6000fd5b50505050505050565b60008060009054906101000a900473ffffffffffffffffffffffffffffffffffffffff1673ffffffffffffffffffffffffffffffffffffffff1663e11aa6a2836040518263ffffffff167c0100000000000000000000000000000000000000000000000000000000028152600401808273ffffffffffffffffffffffffffffffffffffffff1673ffffffffffffffffffffffffffffffffffffffff16815260200191505060206040518083038186803b15801562002bd057600080fd5b505afa15801562002be5573d6000803e3d6000fd5b505050506040513d602081101562002bfc57600080fd5b810190808051906020019092919050505090506004600581111562002c1d57fe5b81600581111562002c2a57fe5b148062002c4e575060058081111562002c3f57fe5b81600581111562002c4c57fe5b145b151562002cc3576040517f08c379a00000000000000000000000000000000000000000000000000000000081526004018080602001828103825260138152602001807f57726f6e6720636f6e747261637420747970650000000000000000000000000081525060200191505060405180910390fd5b60008290508073ffffffffffffffffffffffffffffffffffffffff1663e0726b0a6040518163ffffffff167c0100000000000000000000000000000000000000000000000000000000028152600401600060405180830381600087803b15801562002d2d57600080fd5b505af115801562002d42573d6000803e3d6000fd5b50505050505050565b60008060009054906101000a900473ffffffffffffffffffffffffffffffffffffffff1673ffffffffffffffffffffffffffffffffffffffff1663e11aa6a2836040518263ffffffff167c0100000000000000000000000000000000000000000000000000000000028152600401808273ffffffffffffffffffffffffffffffffffffffff1673ffffffffffffffffffffffffffffffffffffffff16815260200191505060206040518083038186803b15801562002e0857600080fd5b505afa15801562002e1d573d6000803e3d6000fd5b505050506040513d602081101562002e3457600080fd5b810190808051906020019092919050505090506004600581111562002e5557fe5b81600581111562002e6257fe5b148062002e86575060058081111562002e7757fe5b81600581111562002e8457fe5b145b151562002efb576040517f08c379a00000000000000000000000000000000000000000000000000000000081526004018080602001828103825260138152602001807f57726f6e6720636f6e747261637420747970650000000000000000000000000081525060200191505060405180910390fd5b6004600581111562002f0957fe5b81600581111562002f1657fe5b141562002f2e5762002f288262003421565b62002f5c565b60058081111562002f3b57fe5b81600581111562002f4857fe5b141562002f5b5762002f5a8262003433565b5b5b5050565b8160008273ffffffffffffffffffffffffffffffffffffffff1673ffffffffffffffffffffffffffffffffffffffff16815260200190815260200160002060009054906101000a900460ff16151562003021576040517f08c379a00000000000000000000000000000000000000000000000000000000081526004018080602001828103825260098152602001807f4e6f7420666f756e64000000000000000000000000000000000000000000000081525060200191505060405180910390fd5b6200302d838262003445565b60008260008373ffffffffffffffffffffffffffffffffffffffff1673ffffffffffffffffffffffffffffffffffffffff16815260200190815260200160002060006101000a81548160ff021916908315150217905550505050565b8160008273ffffffffffffffffffffffffffffffffffffffff1673ffffffffffffffffffffffffffffffffffffffff16815260200190815260200160002060009054906101000a900460ff161515156200314b576040517f08c379a000000000000000000000000000000000000000000000000000000000815260040180806020018281038252600e8152602001807f416c72656164792065786973747300000000000000000000000000000000000081525060200191505060405180910390fd5b828190806001815401808255809150509060018203906000526020600020016000909192909190916101000a81548173ffffffffffffffffffffffffffffffffffffffff021916908373ffffffffffffffffffffffffffffffffffffffff1602179055505060018260008373ffffffffffffffffffffffffffffffffffffffff1673ffffffffffffffffffffffffffffffffffffffff16815260200190815260200160002060006101000a81548160ff021916908315150217905550505050565b60008060009054906101000a900473ffffffffffffffffffffffffffffffffffffffff1673ffffffffffffffffffffffffffffffffffffffff1663e11aa6a2836040518263ffffffff167c0100000000000000000000000000000000000000000000000000000000028152600401808273ffffffffffffffffffffffffffffffffffffffff1673ffffffffffffffffffffffffffffffffffffffff16815260200191505060206040518083038186803b158015620032c957600080fd5b505afa158015620032de573d6000803e3d6000fd5b505050506040513d6020811015620032f557600080fd5b81019080805190602001909291905050509050600460058111156200331657fe5b8160058111156200332357fe5b14806200334757506005808111156200333857fe5b8160058111156200334557fe5b145b1515620033bc576040517f08c379a00000000000000000000000000000000000000000000000000000000081526004018080602001828103825260138152602001807f57726f6e6720636f6e747261637420747970650000000000000000000000000081525060200191505060405180910390fd5b60046005811115620033ca57fe5b816005811115620033d757fe5b1415620033ef57620033e982620035cc565b6200341d565b600580811115620033fc57fe5b8160058111156200340957fe5b14156200341c576200341b82620035de565b5b5b5050565b62003430600b600e8362003089565b50565b62003442600c600f8362003089565b50565b60008090505b8280549050811015620035c7578173ffffffffffffffffffffffffffffffffffffffff1683828154811015156200347e57fe5b9060005260206000200160009054906101000a900473ffffffffffffffffffffffffffffffffffffffff1673ffffffffffffffffffffffffffffffffffffffff161415620035b957826001848054905003815481101515620034dc57fe5b9060005260206000200160009054906101000a900473ffffffffffffffffffffffffffffffffffffffff1683828154811015156200351657fe5b9060005260206000200160006101000a81548173ffffffffffffffffffffffffffffffffffffffff021916908373ffffffffffffffffffffffffffffffffffffffff1602179055508260018480549050038154811015156200357457fe5b9060005260206000200160006101000a81549073ffffffffffffffffffffffffffffffffffffffff021916905582805480919060019003620035b7919062003601565b505b80806001019150506200344b565b505050565b620035db600b600e8362002f60565b50565b620035ed600c600f8362002f60565b50565b6040516118b1806200365983390190565b8154818355818111156200362b578183600052602060002091820191016200362a919062003630565b5b505050565b6200365591905b808211156200365157600081600090555060010162003637565b5090565b9056fe608060405230600160006101000a81548173ffffffffffffffffffffffffffffffffffffffff021916908373ffffffffffffffffffffffffffffffffffffffff1602179055503480156200005257600080fd5b50604051620018b1380380620018b1833981018060405260808110156200007857600080fd5b8101908080516401000000008111156200009157600080fd5b82810190506020810184811115620000a857600080fd5b8151856001820283011164010000000082111715620000c657600080fd5b50509291906020018051640100000000811115620000e357600080fd5b82810190506020810184811115620000fa57600080fd5b81518560018202830111640100000000821117156200011857600080fd5b50509291906020018051906020019092919080516401000000008111156200013f57600080fd5b828101905060208101848111156200015657600080fd5b81518560018202830111640100000000821117156200017457600080fd5b50509291905050503373ffffffffffffffffffffffffffffffffffffffff1663dffeadd06040518163ffffffff167c010000000000000000000000000000000000000000000000000000000002815260040160206040518083038186803b158015620001df57600080fd5b505afa158015620001f4573d6000803e3d6000fd5b505050506040513d60208110156200020b57600080fd5b81019080805190602001909291905050506000806101000a81548173ffffffffffffffffffffffffffffffffffffffff021916908373ffffffffffffffffffffffffffffffffffffffff16021790555060008060009054906101000a900473ffffffffffffffffffffffffffffffffffffffff1673ffffffffffffffffffffffffffffffffffffffff1663e11aa6a2336040518263ffffffff167c0100000000000000000000000000000000000000000000000000000000028152600401808273ffffffffffffffffffffffffffffffffffffffff1673ffffffffffffffffffffffffffffffffffffffff16815260200191505060206040518083038186803b1580156200031857600080fd5b505afa1580156200032d573d6000803e3d6000fd5b505050506040513d60208110156200034457600080fd5b81019080805190602001909291905050509050600360058111156200036557fe5b8160058111156200037257fe5b141515620003e8576040517f08c379a00000000000000000000000000000000000000000000000000000000081526004018080602001828103825260138152602001807f57726f6e6720636f6e747261637420747970650000000000000000000000000081525060200191505060405180910390fd5b33600560006101000a81548173ffffffffffffffffffffffffffffffffffffffff021916908373ffffffffffffffffffffffffffffffffffffffff16021790555084600390805190602001906200044192919062000486565b5083600490805190602001906200045a92919062000486565b508260088190555081600990805190602001906200047a92919062000486565b50505050505062000535565b828054600181600116156101000203166002900490600052602060002090601f016020900481019282601f10620004c957805160ff1916838001178555620004fa565b82800160010185558215620004fa579182015b82811115620004f9578251825591602001919060010190620004dc565b5b5090506200050991906200050d565b5090565b6200053291905b808211156200052e57600081600090555060010162000514565b5090565b90565b61136c80620005456000396000f3fe6080604052600436106100e0576000357c01000000000000000000000000000000000000000000000000000000009004806313af4035146100e5578063186601ca146101365780631d31e51714610161578063200d2ed2146101b8578063325a19f1146101f1578063370158ea1461021c5780636dc9869b146102ac5780638bdcbc95146102d757806397d9393514610367578063a6f9dae1146103b8578063a7a38f0b14610409578063a93f6ec214610466578063af640d0f146104bd578063dffeadd014610514578063e8d503e91461056b578063f6d713dd14610582575b600080fd5b3480156100f157600080fd5b506101346004803603602081101561010857600080fd5b81019080803573ffffffffffffffffffffffffffffffffffffffff169060200190929190505050610612565b005b34801561014257600080fd5b5061014b610969565b6040518082815260200191505060405180910390f35b34801561016d57600080fd5b5061017661096f565b604051808273ffffffffffffffffffffffffffffffffffffffff1673ffffffffffffffffffffffffffffffffffffffff16815260200191505060405180910390f35b3480156101c457600080fd5b506101cd610995565b604051808260038111156101dd57fe5b60ff16815260200191505060405180910390f35b3480156101fd57600080fd5b506102066109a8565b6040518082815260200191505060405180910390f35b34801561022857600080fd5b506102316109ae565b6040518080602001828103825283818151815260200191508051906020019080838360005b83811015610271578082015181840152602081019050610256565b50505050905090810190601f16801561029e5780820380516001836020036101000a031916815260200191505b509250505060405180910390f35b3480156102b857600080fd5b506102c1610a4c565b6040518082815260200191505060405180910390f35b3480156102e357600080fd5b506102ec610a52565b6040518080602001828103825283818151815260200191508051906020019080838360005b8381101561032c578082015181840152602081019050610311565b50505050905090810190601f1680156103595780820380516001836020036101000a031916815260200191505b509250505060405180910390f35b34801561037357600080fd5b506103b66004803603602081101561038a57600080fd5b81019080803573ffffffffffffffffffffffffffffffffffffffff169060200190929190505050610af0565b005b3480156103c457600080fd5b50610407600480360360208110156103db57600080fd5b81019080803573ffffffffffffffffffffffffffffffffffffffff169060200190929190505050610e47565b005b34801561041557600080fd5b506104426004803603602081101561042c57600080fd5b81019080803590602001909291905050506110d8565b6040518082600481111561045257fe5b60ff16815260200191505060405180910390f35b34801561047257600080fd5b5061047b61110b565b604051808273ffffffffffffffffffffffffffffffffffffffff1673ffffffffffffffffffffffffffffffffffffffff16815260200191505060405180910390f35b3480156104c957600080fd5b506104d2611131565b604051808273ffffffffffffffffffffffffffffffffffffffff1673ffffffffffffffffffffffffffffffffffffffff16815260200191505060405180910390f35b34801561052057600080fd5b50610529611157565b604051808273ffffffffffffffffffffffffffffffffffffffff1673ffffffffffffffffffffffffffffffffffffffff16815260200191505060405180910390f35b34801561057757600080fd5b5061058061117c565b005b34801561058e57600080fd5b506105976112a2565b6040518080602001828103825283818151815260200191508051906020019080838360005b838110156105d75780820151818401526020810190506105bc565b50505050905090810190601f1680156106045780820380516001836020036101000a031916815260200191505b509250505060405180910390f35b600660009054906101000a900473ffffffffffffffffffffffffffffffffffffffff1673ffffffffffffffffffffffffffffffffffffffff163373ffffffffffffffffffffffffffffffffffffffff161415156106d7576040517f08c379a00000000000000000000000000000000000000000000000000000000081526004018080602001828103825260118152602001807f5065726d697373696f6e2064656e69656400000000000000000000000000000081525060200191505060405180910390fd5b600073ffffffffffffffffffffffffffffffffffffffff16600260009054906101000a900473ffffffffffffffffffffffffffffffffffffffff1673ffffffffffffffffffffffffffffffffffffffff1614151561079d576040517f08c379a00000000000000000000000000000000000000000000000000000000081526004018080602001828103825260148152602001807f4f776e657220697320616c72656164792073657400000000000000000000000081525060200191505060405180910390fd5b60008060009054906101000a900473ffffffffffffffffffffffffffffffffffffffff1673ffffffffffffffffffffffffffffffffffffffff1663e11aa6a2836040518263ffffffff167c0100000000000000000000000000000000000000000000000000000000028152600401808273ffffffffffffffffffffffffffffffffffffffff1673ffffffffffffffffffffffffffffffffffffffff16815260200191505060206040518083038186803b15801561085957600080fd5b505afa15801561086d573d6000803e3d6000fd5b505050506040513d602081101561088357600080fd5b81019080805190602001909291905050509050600260058111156108a357fe5b8160058111156108af57fe5b141515610924576040517f08c379a00000000000000000000000000000000000000000000000000000000081526004018080602001828103825260138152602001807f57726f6e6720636f6e747261637420747970650000000000000000000000000081525060200191505060405180910390fd5b81600260006101000a81548173ffffffffffffffffffffffffffffffffffffffff021916908373ffffffffffffffffffffffffffffffffffffffff1602179055505050565b600a5481565b600560009054906101000a900473ffffffffffffffffffffffffffffffffffffffff1681565b600b60009054906101000a900460ff1681565b60075481565b60048054600181600116156101000203166002900480601f016020809104026020016040519081016040528092919081815260200182805460018160011615610100020316600290048015610a445780601f10610a1957610100808354040283529160200191610a44565b820191906000526020600020905b815481529060010190602001808311610a2757829003601f168201915b505050505081565b60085481565b60098054600181600116156101000203166002900480601f016020809104026020016040519081016040528092919081815260200182805460018160011615610100020316600290048015610ae85780601f10610abd57610100808354040283529160200191610ae8565b820191906000526020600020905b815481529060010190602001808311610acb57829003601f168201915b505050505081565b600560009054906101000a900473ffffffffffffffffffffffffffffffffffffffff1673ffffffffffffffffffffffffffffffffffffffff163373ffffffffffffffffffffffffffffffffffffffff16141515610bb5576040517f08c379a00000000000000000000000000000000000000000000000000000000081526004018080602001828103825260118152602001807f5065726d697373696f6e2064656e69656400000000000000000000000000000081525060200191505060405180910390fd5b600073ffffffffffffffffffffffffffffffffffffffff16600660009054906101000a900473ffffffffffffffffffffffffffffffffffffffff1673ffffffffffffffffffffffffffffffffffffffff16141515610c7b576040517f08c379a00000000000000000000000000000000000000000000000000000000081526004018080602001828103825260158152602001807f56656e646f7220697320616c726561647920736574000000000000000000000081525060200191505060405180910390fd5b60008060009054906101000a900473ffffffffffffffffffffffffffffffffffffffff1673ffffffffffffffffffffffffffffffffffffffff1663e11aa6a2836040518263ffffffff167c0100000000000000000000000000000000000000000000000000000000028152600401808273ffffffffffffffffffffffffffffffffffffffff1673ffffffffffffffffffffffffffffffffffffffff16815260200191505060206040518083038186803b158015610d3757600080fd5b505afa158015610d4b573d6000803e3d6000fd5b505050506040513d6020811015610d6157600080fd5b8101908080519060200190929190505050905060046005811115610d8157fe5b816005811115610d8d57fe5b141515610e02576040517f08c379a00000000000000000000000000000000000000000000000000000000081526004018080602001828103825260138152602001807f57726f6e6720636f6e747261637420747970650000000000000000000000000081525060200191505060405180910390fd5b81600660006101000a81548173ffffffffffffffffffffffffffffffffffffffff021916908373ffffffffffffffffffffffffffffffffffffffff1602179055505050565b600260009054906101000a900473ffffffffffffffffffffffffffffffffffffffff1673ffffffffffffffffffffffffffffffffffffffff163373ffffffffffffffffffffffffffffffffffffffff16141515610f0c576040517f08c379a00000000000000000000000000000000000000000000000000000000081526004018080602001828103825260118152602001807f5065726d697373696f6e2064656e69656400000000000000000000000000000081525060200191505060405180910390fd5b60008060009054906101000a900473ffffffffffffffffffffffffffffffffffffffff1673ffffffffffffffffffffffffffffffffffffffff1663e11aa6a2836040518263ffffffff167c0100000000000000000000000000000000000000000000000000000000028152600401808273ffffffffffffffffffffffffffffffffffffffff1673ffffffffffffffffffffffffffffffffffffffff16815260200191505060206040518083038186803b158015610fc857600080fd5b505afa158015610fdc573d6000803e3d6000fd5b505050506040513d6020811015610ff257600080fd5b810190808051906020019092919050505090506002600581111561101257fe5b81600581111561101e57fe5b141515611093576040517f08c379a00000000000000000000000000000000000000000000000000000000081526004018080602001828103825260138152602001807f57726f6e6720636f6e747261637420747970650000000000000000000000000081525060200191505060405180910390fd5b81600260006101000a81548173ffffffffffffffffffffffffffffffffffffffff021916908373ffffffffffffffffffffffffffffffffffffffff1602179055505050565b600c818154811015156110e757fe5b9060005260206000209060209182820401919006915054906101000a900460ff1681565b600660009054906101000a900473ffffffffffffffffffffffffffffffffffffffff1681565b600160009054906101000a900473ffffffffffffffffffffffffffffffffffffffff1681565b6000809054906101000a900473ffffffffffffffffffffffffffffffffffffffff1681565b600560009054906101000a900473ffffffffffffffffffffffffffffffffffffffff1673ffffffffffffffffffffffffffffffffffffffff163373ffffffffffffffffffffffffffffffffffffffff1614806112255750600660009054906101000a900473ffffffffffffffffffffffffffffffffffffffff1673ffffffffffffffffffffffffffffffffffffffff163373ffffffffffffffffffffffffffffffffffffffff16145b1515611299576040517f08c379a00000000000000000000000000000000000000000000000000000000081526004018080602001828103825260118152602001807f5065726d697373696f6e2064656e69656400000000000000000000000000000081525060200191505060405180910390fd5b42600a81905550565b60038054600181600116156101000203166002900480601f0160208091040260200160405190810160405280929190818152602001828054600181600116156101000203166002900480156113385780601f1061130d57610100808354040283529160200191611338565b820191906000526020600020905b81548152906001019060200180831161131b57829003601f168201915b50505050508156fea165627a7a72305820b1f51bc4663df52ae0b6883cbf1d0e700bf3f673bd1836e35fa2853c3570f9b70029a165627a7a72305820f6bfdfa771b7e157249e14e2f20aedc7add4e96b5c20ca19549e469b43a62a9f0029",
  "source": "pragma solidity ^0.5.1;\r\n\r\nimport \"./Main.sol\";\r\nimport \"./Organization.sol\";\r\nimport \"./Item.sol\";\r\n\r\ncontract Manufacturer is Organization {\r\n    address[] public vendors;\r\n    address[] public serviceCenters;\r\n    address[] public pendingItems;\r\n\r\n    mapping (address => bool) isInVendors;\r\n    mapping (address => bool) isInServiceCenters;\r\n    mapping (address => bool) isPendingItem;\r\n\r\n\r\n\r\n    constructor (address _ownerID, string memory _name, string memory _physicalAddress, string memory _registrationNumber) public {\r\n        main = Deployer(msg.sender).main();\r\n        ownerID = _ownerID;\r\n        name = _name;\r\n        physicalAddress = _physicalAddress;\r\n        registrationNumber = _registrationNumber;\r\n    }\r\n\r\n\r\n\r\n// Public\r\n\r\n\r\n\r\n    function createItem (string memory _serial, string memory _info, uint _warrantyPeriod, string memory _warrantyTerms) onlyOwner public returns (address) {\r\n        Item newItem = new Item(_serial, _info, _warrantyPeriod, _warrantyTerms);\r\n        _addPendingItem(address(newItem));\r\n        return (address(newItem));\r\n    }\r\n\r\n    function setVendorToItem (address vID, address iID) onlyOwner public {\r\n        Main.ContractType cType = main.getContractType(vID);\r\n        require((cType == Main.ContractType.VENDOR), \"Wrong contract type\");\r\n\r\n        Item iInstance = Item(iID);\r\n        iInstance.setVendor(vID);\r\n    }\r\n\r\n    function activateWarranty (address iID) onlyOwner public {\r\n        Item iInstance = Item(iID);\r\n        iInstance.activateWarranty();\r\n    }\r\n\r\n\r\n\r\n// Internal\r\n\r\n\r\n\r\n    function _addPartnerMethod (address pID) internal {\r\n        Main.ContractType cType = main.getContractType(pID);\r\n        require(((cType == Main.ContractType.VENDOR) || (cType == Main.ContractType.SERVICE_CENTER)), \"Wrong contract type\");\r\n\r\n        if (cType == Main.ContractType.VENDOR) { _addVendor(pID); }\r\n        else if (cType == Main.ContractType.SERVICE_CENTER) { _addServiceCenter(pID); }\r\n    }\r\n\r\n    function _removePartnerMethod (address pID) internal {\r\n        Main.ContractType cType = main.getContractType(pID);\r\n        require(((cType == Main.ContractType.VENDOR) || (cType == Main.ContractType.SERVICE_CENTER)), \"Wrong contract type\");\r\n\r\n        if (cType == Main.ContractType.VENDOR) { _removeVendor(pID); }\r\n        else if (cType == Main.ContractType.SERVICE_CENTER) { _removeServiceCenter(pID); }\r\n    }\r\n\r\n    function _sendPartnershipRequest (address pID) internal {\r\n        Main.ContractType cType = main.getContractType(pID);\r\n        require(((cType == Main.ContractType.VENDOR) || (cType == Main.ContractType.SERVICE_CENTER)), \"Wrong contract type\");\r\n\r\n        Organization oInstance = Organization(pID);\r\n        oInstance.receivePartnershipRequest();\r\n    }\r\n\r\n    function _sendPartnershipDecline (address pID) internal {\r\n        Main.ContractType cType = main.getContractType(pID);\r\n        require(((cType == Main.ContractType.VENDOR) || (cType == Main.ContractType.SERVICE_CENTER)), \"Wrong contract type\");\r\n\r\n        Organization oInstance = Organization(pID);\r\n        oInstance.receivePartnershipDecline();\r\n    }\r\n\r\n    function _sendPartnershipRevert (address pID) internal {\r\n        Main.ContractType cType = main.getContractType(pID);\r\n        require(((cType == Main.ContractType.VENDOR) || (cType == Main.ContractType.SERVICE_CENTER)), \"Wrong contract type\");\r\n\r\n        Organization oInstance = Organization(pID);\r\n        oInstance.receivePartnershipRevert();\r\n    }\r\n\r\n    function _sendPartnershipCancel (address pID) internal {\r\n        Main.ContractType cType = main.getContractType(pID);\r\n        require(((cType == Main.ContractType.VENDOR) || (cType == Main.ContractType.SERVICE_CENTER)), \"Wrong contract type\");\r\n\r\n        Organization oInstance = Organization(pID);\r\n        oInstance.cancelPartnership(id);\r\n    }\r\n\r\n    function _addPendingItem (address iID) internal { _addTo(pendingItems, isPendingItem, iID); }\r\n    function _removePendingItem (address iID) internal { _removeFrom(pendingItems, isPendingItem, iID); }\r\n\r\n    function _addVendor (address vID) internal { _addTo(vendors, isInVendors, vID); }\r\n    function _removeVendor (address vID) internal { _removeFrom(vendors, isInVendors, vID); }\r\n\r\n    function _addServiceCenter (address scID) internal { _addTo(serviceCenters, isInServiceCenters, scID); }\r\n    function _removeServiceCenter (address scID) internal { _removeFrom(serviceCenters, isInServiceCenters, scID); }\r\n}\r\n",
  "sourcePath": "C:\\Users\\zheny\\Desktop\\git\\GuarantSystem\\blockchain\\Manufacturer.sol",
  "compiler": {
    "name": "solc",
    "version": "0.5.1+commit.c8a2cb62.Emscripten.clang"
  },
  "schemaVersion": "3.0.1",
  "updatedAt": "2019-02-01T07:52:03.855Z",
  "devdoc": {
    "methods": {}
  },
  "userdoc": {
    "methods": {}
  }
}