{
  "contractName": "Manufacturer",
  "abi": [
    {
      "constant": true,
      "inputs": [],
      "name": "name",
      "outputs": [
        {
          "name": "",
          "type": "string"
        }
      ],
      "payable": false,
      "stateMutability": "view",
      "type": "function"
    },
    {
      "constant": false,
      "inputs": [
        {
          "name": "_Type",
          "type": "uint8"
        },
        {
          "name": "_objs",
          "type": "address[]"
        }
      ],
      "name": "receiveRequest",
      "outputs": [],
      "payable": false,
      "stateMutability": "nonpayable",
      "type": "function"
    },
    {
      "constant": false,
      "inputs": [
        {
          "name": "_Type",
          "type": "uint8"
        },
        {
          "name": "_objs",
          "type": "address[]"
        }
      ],
      "name": "receiveCompletedRequestCancel",
      "outputs": [],
      "payable": false,
      "stateMutability": "nonpayable",
      "type": "function"
    },
    {
      "constant": true,
      "inputs": [],
      "name": "physicalAddress",
      "outputs": [
        {
          "name": "",
          "type": "string"
        }
      ],
      "payable": false,
      "stateMutability": "view",
      "type": "function"
    },
    {
      "constant": false,
      "inputs": [
        {
          "name": "pID",
          "type": "address"
        }
      ],
      "name": "cancelPartnership",
      "outputs": [],
      "payable": false,
      "stateMutability": "nonpayable",
      "type": "function"
    },
    {
      "constant": true,
      "inputs": [
        {
          "name": "",
          "type": "uint256"
        }
      ],
      "name": "serviceCenters",
      "outputs": [
        {
          "name": "",
          "type": "address"
        }
      ],
      "payable": false,
      "stateMutability": "view",
      "type": "function"
    },
    {
      "constant": false,
      "inputs": [
        {
          "name": "_Type",
          "type": "uint8"
        },
        {
          "name": "_objs",
          "type": "address[]"
        }
      ],
      "name": "receiveRequestDecline",
      "outputs": [],
      "payable": false,
      "stateMutability": "nonpayable",
      "type": "function"
    },
    {
      "constant": false,
      "inputs": [
        {
          "name": "_Type",
          "type": "uint8"
        },
        {
          "name": "_objs",
          "type": "address[]"
        }
      ],
      "name": "receiveRequestRevert",
      "outputs": [],
      "payable": false,
      "stateMutability": "nonpayable",
      "type": "function"
    },
    {
      "constant": true,
      "inputs": [
        {
          "name": "",
          "type": "uint256"
        }
      ],
      "name": "pendingItems",
      "outputs": [
        {
          "name": "",
          "type": "address"
        }
      ],
      "payable": false,
      "stateMutability": "view",
      "type": "function"
    },
    {
      "constant": false,
      "inputs": [
        {
          "name": "pID",
          "type": "address"
        }
      ],
      "name": "acceptPartnership",
      "outputs": [],
      "payable": false,
      "stateMutability": "nonpayable",
      "type": "function"
    },
    {
      "constant": true,
      "inputs": [
        {
          "name": "",
          "type": "uint256"
        }
      ],
      "name": "vendors",
      "outputs": [
        {
          "name": "",
          "type": "address"
        }
      ],
      "payable": false,
      "stateMutability": "view",
      "type": "function"
    },
    {
      "constant": true,
      "inputs": [],
      "name": "id",
      "outputs": [
        {
          "name": "",
          "type": "address"
        }
      ],
      "payable": false,
      "stateMutability": "view",
      "type": "function"
    },
    {
      "constant": true,
      "inputs": [],
      "name": "registrationNumber",
      "outputs": [
        {
          "name": "",
          "type": "string"
        }
      ],
      "payable": false,
      "stateMutability": "view",
      "type": "function"
    },
    {
      "constant": false,
      "inputs": [
        {
          "name": "pID",
          "type": "address"
        }
      ],
      "name": "requestPartnership",
      "outputs": [],
      "payable": false,
      "stateMutability": "nonpayable",
      "type": "function"
    },
    {
      "constant": true,
      "inputs": [],
      "name": "main",
      "outputs": [
        {
          "name": "",
          "type": "address"
        }
      ],
      "payable": false,
      "stateMutability": "view",
      "type": "function"
    },
    {
      "constant": false,
      "inputs": [
        {
          "name": "pID",
          "type": "address"
        }
      ],
      "name": "revertPartnership",
      "outputs": [],
      "payable": false,
      "stateMutability": "nonpayable",
      "type": "function"
    },
    {
      "constant": false,
      "inputs": [
        {
          "name": "pID",
          "type": "address"
        }
      ],
      "name": "declinePartnership",
      "outputs": [],
      "payable": false,
      "stateMutability": "nonpayable",
      "type": "function"
    },
    {
      "inputs": [
        {
          "name": "_main",
          "type": "address"
        },
        {
          "name": "_ownerID",
          "type": "address"
        },
        {
          "name": "_name",
          "type": "string"
        },
        {
          "name": "_physicalAddress",
          "type": "string"
        },
        {
          "name": "_registrationNumber",
          "type": "string"
        }
      ],
      "payable": false,
      "stateMutability": "nonpayable",
      "type": "constructor"
    },
    {
      "constant": true,
      "inputs": [],
      "name": "getInfo",
      "outputs": [
        {
          "name": "",
          "type": "string"
        },
        {
          "name": "",
          "type": "string"
        },
        {
          "name": "",
          "type": "string"
        }
      ],
      "payable": false,
      "stateMutability": "view",
      "type": "function"
    },
    {
      "constant": true,
      "inputs": [],
      "name": "getVendors",
      "outputs": [
        {
          "name": "",
          "type": "address[]"
        }
      ],
      "payable": false,
      "stateMutability": "view",
      "type": "function"
    },
    {
      "constant": true,
      "inputs": [],
      "name": "getServiceCenters",
      "outputs": [
        {
          "name": "",
          "type": "address[]"
        }
      ],
      "payable": false,
      "stateMutability": "view",
      "type": "function"
    },
    {
      "constant": true,
      "inputs": [],
      "name": "getPendingItems",
      "outputs": [
        {
          "name": "",
          "type": "address[]"
        }
      ],
      "payable": false,
      "stateMutability": "view",
      "type": "function"
    },
    {
      "constant": false,
      "inputs": [
        {
          "name": "_serial",
          "type": "string"
        },
        {
          "name": "_info",
          "type": "string"
        },
        {
          "name": "_warrantyPeriod",
          "type": "uint256"
        },
        {
          "name": "_warrantyTerms",
          "type": "string"
        }
      ],
      "name": "createItem",
      "outputs": [
        {
          "name": "",
          "type": "address"
        }
      ],
      "payable": false,
      "stateMutability": "nonpayable",
      "type": "function"
    },
    {
      "constant": false,
      "inputs": [
        {
          "name": "vID",
          "type": "address"
        },
        {
          "name": "iID",
          "type": "address"
        }
      ],
      "name": "setVendorToItem",
      "outputs": [],
      "payable": false,
      "stateMutability": "nonpayable",
      "type": "function"
    },
    {
      "constant": false,
      "inputs": [
        {
          "name": "iID",
          "type": "address"
        }
      ],
      "name": "activateWarranty",
      "outputs": [],
      "payable": false,
      "stateMutability": "nonpayable",
      "type": "function"
    }
  ],
  "bytecode": "0x608060405260008054600160a060020a031916301790553480156200002357600080fd5b5060405162003de438038062003de4833981018060405260a08110156200004957600080fd5b81516020830151604084018051929491938201926401000000008111156200007057600080fd5b820160208101848111156200008457600080fd5b81516401000000008111828201871017156200009f57600080fd5b50509291906020018051640100000000811115620000bc57600080fd5b82016020810184811115620000d057600080fd5b8151640100000000811182820187101715620000eb57600080fd5b505092919060200180516401000000008111156200010857600080fd5b820160208101848111156200011c57600080fd5b81516401000000008111828201871017156200013757600080fd5b505060098054600160a060020a03808b16600160a060020a03199283161790925560018054928a16929091169190911790558551909350620001839250600691506020860190620001bb565b50815162000199906007906020850190620001bb565b508051620001af906008906020840190620001bb565b50505050505062000260565b828054600181600116156101000203166002900490600052602060002090601f016020900481019282601f10620001fe57805160ff19168380011785556200022e565b828001600101855582156200022e579182015b828111156200022e57825182559160200191906001019062000211565b506200023c92915062000240565b5090565b6200025d91905b808211156200023c576000815560010162000247565b90565b613b7480620002706000396000f3fe60806040526004361062000150577c0100000000000000000000000000000000000000000000000000000000600035046306fdde038114620001555780631f37c99114620001e5578063381f2e9d14620002a857806340868fff14620003695780634353800e14620003815780635606492514620003eb578063582c55b314620004225780635a9b0b89146200046c5780635e26e85614620005d157806364bebcc51462000692578063685735b514620006aa5780636e58c29414620006c257806379ac047714620007835780637aa29a2614620007b1578063812842a114620007e8578063824e084d146200081f57806383e4604f146200085e578063a08d986d1462000a34578063af640d0f1462000a62578063b2a1a40a1462000a7a578063c937cf371462000a92578063dffeadd01462000ac9578063eaf7c97a1462000ae1578063fbfca3c61462000b18575b600080fd5b3480156200016257600080fd5b506200016d62000b4f565b6040805160208082528351818301528351919283929083019185019080838360005b83811015620001a95781810151838201526020016200018f565b50505050905090810190601f168015620001d75780820380516001836020036101000a031916815260200191505b509250505060405180910390f35b348015620001f257600080fd5b50620002a6600480360360408110156200020b57600080fd5b60ff82351691908101906040810160208201356401000000008111156200023157600080fd5b8201836020820111156200024457600080fd5b803590602001918460208302840111640100000000831117156200026757600080fd5b91908080602002602001604051908101604052809392919081815260200183836020028082843760009201919091525092955062000be1945050505050565b005b348015620002b557600080fd5b50620002a660048036036040811015620002ce57600080fd5b60ff8235169190810190604081016020820135640100000000811115620002f457600080fd5b8201836020820111156200030757600080fd5b803590602001918460208302840111640100000000831117156200032a57600080fd5b91908080602002602001604051908101604052809392919081815260200183836020028082843760009201919091525092955062000d06945050505050565b3480156200037657600080fd5b506200016d62000db9565b3480156200038e57600080fd5b506200039962000e17565b60408051602080825283518183015283519192839290830191858101910280838360005b83811015620003d7578181015183820152602001620003bd565b505050509050019250505060405180910390f35b348015620003f857600080fd5b50620002a6600480360360208110156200041157600080fd5b5035600160a060020a031662000e7c565b3480156200042f57600080fd5b5062000450600480360360208110156200044857600080fd5b503562000e9a565b60408051600160a060020a039092168252519081900360200190f35b3480156200047957600080fd5b506200048462000ec3565b60405180806020018060200180602001848103845287818151815260200191508051906020019080838360005b83811015620004cb578181015183820152602001620004b1565b50505050905090810190601f168015620004f95780820380516001836020036101000a031916815260200191505b50848103835286518152865160209182019188019080838360005b838110156200052e57818101518382015260200162000514565b50505050905090810190601f1680156200055c5780820380516001836020036101000a031916815260200191505b50848103825285518152855160209182019187019080838360005b838110156200059157818101518382015260200162000577565b50505050905090810190601f168015620005bf5780820380516001836020036101000a031916815260200191505b50965050505050505060405180910390f35b348015620005de57600080fd5b50620002a660048036036040811015620005f757600080fd5b60ff82351691908101906040810160208201356401000000008111156200061d57600080fd5b8201836020820111156200063057600080fd5b803590602001918460208302840111640100000000831117156200065357600080fd5b91908080602002602001604051908101604052809392919081815260200183836020028082843760009201919091525092955062001093945050505050565b3480156200069f57600080fd5b506200039962001146565b348015620006b757600080fd5b5062000399620011a8565b348015620006cf57600080fd5b50620002a660048036036040811015620006e857600080fd5b60ff82351691908101906040810160208201356401000000008111156200070e57600080fd5b8201836020820111156200072157600080fd5b803590602001918460208302840111640100000000831117156200074457600080fd5b9190808060200260200160405190810160405280939291908181526020018383602002808284376000920191909152509295506200120a945050505050565b3480156200079057600080fd5b506200045060048036036020811015620007a957600080fd5b5035620012bd565b348015620007be57600080fd5b50620002a660048036036020811015620007d757600080fd5b5035600160a060020a0316620012cc565b348015620007f557600080fd5b50620002a6600480360360208110156200080e57600080fd5b5035600160a060020a031662001345565b3480156200082c57600080fd5b50620002a6600480360360408110156200084557600080fd5b50600160a060020a03813581169160200135166200141e565b3480156200086b57600080fd5b5062000450600480360360808110156200088457600080fd5b810190602081018135640100000000811115620008a057600080fd5b820183602082011115620008b357600080fd5b80359060200191846001830284011164010000000083111715620008d657600080fd5b91908080601f01602080910402602001604051908101604052809392919081815260200183838082843760009201919091525092959493602081019350359150506401000000008111156200092a57600080fd5b8201836020820111156200093d57600080fd5b803590602001918460018302840111640100000000831117156200096057600080fd5b91908080601f01602080910402602001604051908101604052809392919081815260200183838082843760009201919091525092958435959094909350604081019250602001359050640100000000811115620009bc57600080fd5b820183602082011115620009cf57600080fd5b80359060200191846001830284011164010000000083111715620009f257600080fd5b91908080601f016020809104026020016040519081016040528093929190818152602001838380828437600092019190915250929550620015e3945050505050565b34801562000a4157600080fd5b50620004506004803603602081101562000a5a57600080fd5b5035620017fb565b34801562000a6f57600080fd5b50620004506200180a565b34801562000a8757600080fd5b506200016d62001819565b34801562000a9f57600080fd5b50620002a66004803603602081101562000ab857600080fd5b5035600160a060020a031662001877565b34801562000ad657600080fd5b5062000450620018f0565b34801562000aee57600080fd5b50620002a66004803603602081101562000b0757600080fd5b5035600160a060020a0316620018ff565b34801562000b2557600080fd5b50620002a66004803603602081101562000b3e57600080fd5b5035600160a060020a031662001978565b6006805460408051602060026001851615610100026000190190941693909304601f8101849004840282018401909252818152929183018282801562000bd95780601f1062000bad5761010080835404028352916020019162000bd9565b820191906000526020600020905b81548152906001019060200180831162000bbb57829003601f168201915b505050505081565b62000beb6200287f565b604080519081016040528084600181111562000c0357fe5b81526020018390529050336002600062000c1d84620019f1565b815260208101919091526040016000205460ff161562000cad576040805160e560020a62461bcd02815260206004820152602160248201527f526571756573742068617320616c7265616479206265656e207265636569766560448201527f6400000000000000000000000000000000000000000000000000000000000000606482015290519081900360840190fd5b6003600062000cbc84620019f1565b815260208101919091526040016000205460ff161562000cf45762000ce2818362001a8e565b62000cee818362001ace565b62000d00565b62000d00818362001af6565b50505050565b62000d106200287f565b604080519081016040528084600181111562000d2857fe5b81526020018390529050336004600062000d4284620019f1565b815260208101919091526040016000205460ff16151562000dad576040805160e560020a62461bcd02815260206004820152601860248201527f52657175657374206973206e6f7420636f6d706c657465640000000000000000604482015290519081900360640190fd5b62000d00818362001b13565b6007805460408051602060026001851615610100026000190190941693909304601f8101849004840282018401909252818152929183018282801562000bd95780601f1062000bad5761010080835404028352916020019162000bd9565b6060600c80548060200260200160405190810160405280929190818152602001828054801562000e7157602002820191906000526020600020905b8154600160a060020a0316815260019091019060200180831162000e52575b505050505090505b90565b62000e866200287f565b6001815262000e96828262001b30565b5050565b600b80548290811062000ea957fe5b600091825260209091200154600160a060020a0316905081565b60068054604080516020601f60026000196101006001881615020190951694909404938401819004810282018101909252828152606093849384939192600792600892859183018282801562000f5d5780601f1062000f315761010080835404028352916020019162000f5d565b820191906000526020600020905b81548152906001019060200180831162000f3f57829003601f168201915b5050855460408051602060026001851615610100026000190190941693909304601f81018490048402820184019092528181529598508794509250840190508282801562000fef5780601f1062000fc35761010080835404028352916020019162000fef565b820191906000526020600020905b81548152906001019060200180831162000fd157829003601f168201915b5050845460408051602060026001851615610100026000190190941693909304601f810184900484028201840190925281815295975086945092508401905082828015620010815780601f10620010555761010080835404028352916020019162001081565b820191906000526020600020905b8154815290600101906020018083116200106357829003601f168201915b50505050509050925092509250909192565b6200109d6200287f565b6040805190810160405280846001811115620010b557fe5b815260200183905290503360036000620010cf84620019f1565b815260208101919091526040016000205460ff1615156200113a576040805160e560020a62461bcd02815260206004820152601960248201527f5265717565737420686173206e6f74206265656e2073656e7400000000000000604482015290519081900360640190fd5b62000d00818362001ace565b6060600a80548060200260200160405190810160405280929190818152602001828054801562000e7157602002820191906000526020600020908154600160a060020a0316815260019091019060200180831162000e52575050505050905090565b6060600b80548060200260200160405190810160405280929190818152602001828054801562000e7157602002820191906000526020600020908154600160a060020a0316815260019091019060200180831162000e52575050505050905090565b620012146200287f565b60408051908101604052808460018111156200122c57fe5b8152602001839052905033600260006200124684620019f1565b815260208101919091526040016000205460ff161515620012b1576040805160e560020a62461bcd02815260206004820152601d60248201527f5265717565737420686173206e6f74206265656e207265636569766564000000604482015290519081900360640190fd5b62000d00818362001bec565b600c80548290811062000ea957fe5b600154600160a060020a031633146200132b576040805160e560020a62461bcd028152602060048201526021602482015260008051602062003b29833981519152604482015260f960020a603702606482015290519081900360840190fd5b620013356200287f565b6001815262000e96828262001c09565b600154600160a060020a03163314620013a4576040805160e560020a62461bcd028152602060048201526021602482015260008051602062003b29833981519152604482015260f960020a603702606482015290519081900360840190fd5b600081905080600160a060020a031663e8d503e96040518163ffffffff167c0100000000000000000000000000000000000000000000000000000000028152600401600060405180830381600087803b1580156200140157600080fd5b505af115801562001416573d6000803e3d6000fd5b505050505050565b600154600160a060020a031633146200147d576040805160e560020a62461bcd028152602060048201526021602482015260008051602062003b29833981519152604482015260f960020a603702606482015290519081900360840190fd5b6009546040805160e060020a63c5a887c5028152600160a060020a0385811660048301529151600093929092169163c5a887c591602480820192602092909190829003018186803b158015620014d257600080fd5b505afa158015620014e7573d6000803e3d6000fd5b505050506040513d6020811015620014fe57600080fd5b5051905060048160058111156200151157fe5b1462001556576040805160e560020a62461bcd028152602060048201526013602482015260008051602062003b09833981519152604482015290519081900360640190fd5b604080517f97d93935000000000000000000000000000000000000000000000000000000008152600160a060020a038581166004830152915184928316916397d9393591602480830192600092919082900301818387803b158015620015bb57600080fd5b505af1158015620015d0573d6000803e3d6000fd5b5050505062000d00600c600f8562001d06565b600154600090600160a060020a0316331462001645576040805160e560020a62461bcd028152602060048201526021602482015260008051602062003b29833981519152604482015260f960020a603702606482015290519081900360840190fd5b600954600090600160a060020a0316868686866200166262002897565b8086600160a060020a0316600160a060020a03168152602001806020018060200185815260200180602001848103845288818151815260200191508051906020019080838360005b83811015620016c4578181015183820152602001620016aa565b50505050905090810190601f168015620016f25780820380516001836020036101000a031916815260200191505b50848103835287518152875160209182019189019080838360005b83811015620017275781810151838201526020016200170d565b50505050905090810190601f168015620017555780820380516001836020036101000a031916815260200191505b50848103825285518152855160209182019187019080838360005b838110156200178a57818101518382015260200162001770565b50505050905090810190601f168015620017b85780820380516001836020036101000a031916815260200191505b5098505050505050505050604051809103906000f080158015620017e0573d6000803e3d6000fd5b509050620017f2600c600f8362001ea5565b95945050505050565b600a80548290811062000ea957fe5b600054600160a060020a031681565b6008805460408051602060026001851615610100026000190190941693909304601f8101849004840282018401909252818152929183018282801562000bd95780601f1062000bad5761010080835404028352916020019162000bd9565b600154600160a060020a03163314620018d6576040805160e560020a62461bcd028152602060048201526021602482015260008051602062003b29833981519152604482015260f960020a603702606482015290519081900360840190fd5b620018e06200287f565b6001815262000e96828262001f70565b600954600160a060020a031681565b600154600160a060020a031633146200195e576040805160e560020a62461bcd028152602060048201526021602482015260008051602062003b29833981519152604482015260f960020a603702606482015290519081900360840190fd5b620019686200287f565b6001815262000e9682826200208f565b600154600160a060020a03163314620019d7576040805160e560020a62461bcd028152602060048201526021602482015260008051602062003b29833981519152604482015260f960020a603702606482015290519081900360840190fd5b620019e16200287f565b6001815262000e96828262002180565b6000816000015182602001516040516020018083600181111562001a1157fe5b60ff167f0100000000000000000000000000000000000000000000000000000000000000028152600101828051906020019060200280838360005b8381101562001a6657818101518382015260200162001a4c565b5050505090500192505050604051602081830303815290604052805190602001209050919050565b62001a9a828262002271565b60016004600062001aab84620019f1565b81526020810191909152604001600020805460ff19169115159190911790555050565b62001ada8282620023d0565b62001ae581620024da565b60006003600062001aab84620019f1565b62001b028282620023d0565b60016002600062001aab84620019f1565b62001b1f82826200253f565b60006004600062001aab84620019f1565b600154600160a060020a031633148062001b7d575033600160a060020a03831614801562001b7d57506004600062001b6883620019f1565b815260208101919091526040016000205460ff165b151562001bd4576040805160e560020a62461bcd02815260206004820152601660248201527f4e6f7420656e6f756768207065726d697373696f6e7300000000000000000000604482015290519081900360640190fd5b62001be0828262001b13565b62000e96828262002693565b62001bf88282620023d0565b60006002600062001aab84620019f1565b600154600160a060020a0316331462001c68576040805160e560020a62461bcd028152602060048201526021602482015260008051602062003b29833981519152604482015260f960020a603702606482015290519081900360840190fd5b6002600062001c7783620019f1565b815260208101919091526040016000205460ff16151562001ce2576040805160e560020a62461bcd02815260206004820152600f60248201527f4e6f207375636820726571756573740000000000000000000000000000000000604482015290519081900360640190fd5b62001cee828262001a8e565b62001cfa828262001bec565b62000e9682826200276f565b600160a060020a03811660009081526020839052604090205460ff16151562001d79576040805160e560020a62461bcd02815260206004820152600960248201527f4e6f7420666f756e640000000000000000000000000000000000000000000000604482015290519081900360640190fd5b60005b835481101562001e815781600160a060020a0316848281548110151562001d9f57fe5b600091825260209091200154600160a060020a0316141562001e785783548490600019810190811062001dce57fe5b6000918252602090912001548454600160a060020a039091169085908390811062001df557fe5b6000918252602090912001805473ffffffffffffffffffffffffffffffffffffffff1916600160a060020a039290921691909117905583548490600019810190811062001e3e57fe5b6000918252602090912001805473ffffffffffffffffffffffffffffffffffffffff19169055835462001e76856000198301620028a8565b505b60010162001d7c565b50600160a060020a0316600090815260209190915260409020805460ff1916905550565b600160a060020a03811660009081526020839052604090205460ff161562001f17576040805160e560020a62461bcd02815260206004820152600e60248201527f416c726561647920657869737473000000000000000000000000000000000000604482015290519081900360640190fd5b825460018181018555600094855260208086209092018054600160a060020a0390941673ffffffffffffffffffffffffffffffffffffffff1990941684179055918452919091526040909120805460ff19169091179055565b600154600160a060020a0316331462001fcf576040805160e560020a62461bcd028152602060048201526021602482015260008051602062003b29833981519152604482015260f960020a603702606482015290519081900360840190fd5b6003600062001fde83620019f1565b815260208101919091526040016000205460ff161562002048576040805160e560020a62461bcd02815260206004820152601d60248201527f526571756573742068617320616c7265616479206265656e2073656e74000000604482015290519081900360640190fd5b600260006200205783620019f1565b815260208101919091526040016000205460ff161562002083576200207d828262001c09565b62000e96565b62001cfa8282620027c0565b600154600160a060020a03163314620020ee576040805160e560020a62461bcd028152602060048201526021602482015260008051602062003b29833981519152604482015260f960020a603702606482015290519081900360840190fd5b60036000620020fd83620019f1565b815260208101919091526040016000205460ff16151562002168576040805160e560020a62461bcd02815260206004820152600f60248201527f4e6f207375636820726571756573740000000000000000000000000000000000604482015290519081900360640190fd5b62002174828262001ace565b62000e968282620027dd565b600154600160a060020a03163314620021df576040805160e560020a62461bcd028152602060048201526021602482015260008051602062003b29833981519152604482015260f960020a603702606482015290519081900360840190fd5b60026000620021ee83620019f1565b815260208101919091526040016000205460ff16151562002259576040805160e560020a62461bcd02815260206004820152600f60248201527f4e6f207375636820726571756573740000000000000000000000000000000000604482015290519081900360640190fd5b62002265828262001bec565b62000e9682826200282e565b6001815160018111156200228157fe5b141562000e96576009546040805160e060020a63c5a887c5028152600160a060020a0385811660048301529151600093929092169163c5a887c591602480820192602092909190829003018186803b158015620022dd57600080fd5b505afa158015620022f2573d6000803e3d6000fd5b505050506040513d60208110156200230957600080fd5b5051905060048160058111156200231c57fe5b148062002335575060058160058111156200233357fe5b145b15156200237b576040805160e560020a62461bcd028152602060048201526013602482015260008051602062003b09833981519152604482015290519081900360640190fd5b60048160058111156200238a57fe5b1415620023a657620023a0600a600d8562001ea5565b620023cb565b6005816005811115620023b557fe5b1415620023cb57620023cb600b600e8562001ea5565b505050565b600181516001811115620023e057fe5b141562000e96576009546040805160e060020a63c5a887c5028152600160a060020a0385811660048301529151600093929092169163c5a887c591602480820192602092909190829003018186803b1580156200243c57600080fd5b505afa15801562002451573d6000803e3d6000fd5b505050506040513d60208110156200246857600080fd5b5051905060048160058111156200247b57fe5b148062002494575060058160058111156200249257fe5b145b1515620023cb576040805160e560020a62461bcd028152602060048201526013602482015260008051602062003b09833981519152604482015290519081900360640190fd5b60005b81602001515181101562000e96576000600560008460200151848151811015156200250457fe5b602090810291909101810151600160a060020a03168252810191909152604001600020805460ff1916911515919091179055600101620024dd565b6001815160018111156200254f57fe5b141562000e96576009546040805160e060020a63c5a887c5028152600160a060020a0385811660048301529151600093929092169163c5a887c591602480820192602092909190829003018186803b158015620025ab57600080fd5b505afa158015620025c0573d6000803e3d6000fd5b505050506040513d6020811015620025d757600080fd5b505190506004816005811115620025ea57fe5b148062002603575060058160058111156200260157fe5b145b151562002649576040805160e560020a62461bcd028152602060048201526013602482015260008051602062003b09833981519152604482015290519081900360640190fd5b60048160058111156200265857fe5b14156200266e57620023a0600a600d8562001d06565b60058160058111156200267d57fe5b1415620023cb57620023cb600b600e8562001d06565b805160208201516040517f381f2e9d0000000000000000000000000000000000000000000000000000000081528492600160a060020a0384169263381f2e9d9260040180836001811115620026e457fe5b60ff16815260200180602001828103825283818151815260200191508051906020019060200280838360005b838110156200272a57818101518382015260200162002710565b505050509050019350505050600060405180830381600087803b1580156200275157600080fd5b505af115801562002766573d6000803e3d6000fd5b50505050505050565b805160208201516040517f1f37c9910000000000000000000000000000000000000000000000000000000081528492600160a060020a03841692631f37c9919260040180836001811115620026e457fe5b620027cc8282620023d0565b60016003600062001aab84620019f1565b805160208201516040517f6e58c2940000000000000000000000000000000000000000000000000000000081528492600160a060020a03841692636e58c2949260040180836001811115620026e457fe5b805160208201516040517f5e26e8560000000000000000000000000000000000000000000000000000000081528492600160a060020a03841692635e26e8569260040180836001811115620026e457fe5b60408051808201909152600081526060602082015290565b60405161121e80620028eb83390190565b815481835581811115620023cb57600083815260209020620023cb91810190830162000e7991905b80821115620028e65760008155600101620028d0565b509056fe608060405260018054600160a060020a031916301790553480156200002357600080fd5b506040516200121e3803806200121e833981018060405260a08110156200004957600080fd5b8151602083018051919392830192916401000000008111156200006b57600080fd5b820160208101848111156200007f57600080fd5b81516401000000008111828201871017156200009a57600080fd5b50509291906020018051640100000000811115620000b757600080fd5b82016020810184811115620000cb57600080fd5b8151640100000000811182820187101715620000e657600080fd5b505060208201516040909201805191949293916401000000008111156200010c57600080fd5b820160208101848111156200012057600080fd5b81516401000000008111828201871017156200013b57600080fd5b505060008054600160a060020a031916600160a060020a038a811691909117808355604080517fc5a887c5000000000000000000000000000000000000000000000000000000008152336004820152905194975092955016925063c5a887c5916024808301926020929190829003018186803b158015620001bb57600080fd5b505afa158015620001d0573d6000803e3d6000fd5b505050506040513d6020811015620001e757600080fd5b505190506003816005811115620001fa57fe5b146200026757604080517f08c379a000000000000000000000000000000000000000000000000000000000815260206004820152601360248201527f57726f6e6720636f6e7472616374207479706500000000000000000000000000604482015290519081900360640190fd5b60058054600160a060020a0319163317905584516200028e906003906020880190620002cc565b508351620002a4906004906020870190620002cc565b5060088390558151620002bf906009906020850190620002cc565b5050505050505062000371565b828054600181600116156101000203166002900490600052602060002090601f016020900481019282601f106200030f57805160ff19168380011785556200033f565b828001600101855582156200033f579182015b828111156200033f57825182559160200191906001019062000322565b506200034d92915062000351565b5090565b6200036e91905b808211156200034d576000815560010162000358565b90565b610e9d80620003816000396000f3fe6080604052600436106100ea577c0100000000000000000000000000000000000000000000000000000000600035046313af403581146100ef578063186601ca146101245780631d31e5171461014b578063200d2ed21461017c578063325a19f1146101b5578063370158ea146101ca5780635a9b0b89146102545780636dc9869b1461044d5780638bdcbc951461046257806397d9393514610477578063a6f9dae1146104aa578063a7a38f0b146104dd578063a93f6ec214610517578063af640d0f1461052c578063dffeadd014610541578063e8d503e914610556578063f6d713dd1461056b575b600080fd5b3480156100fb57600080fd5b506101226004803603602081101561011257600080fd5b5035600160a060020a0316610580565b005b34801561013057600080fd5b50610139610759565b60408051918252519081900360200190f35b34801561015757600080fd5b5061016061075f565b60408051600160a060020a039092168252519081900360200190f35b34801561018857600080fd5b5061019161076e565b604051808260038111156101a157fe5b60ff16815260200191505060405180910390f35b3480156101c157600080fd5b50610139610777565b3480156101d657600080fd5b506101df61077d565b6040805160208082528351818301528351919283929083019185019080838360005b83811015610219578181015183820152602001610201565b50505050905090810190601f1680156102465780820380516001836020036101000a031916815260200191505b509250505060405180910390f35b34801561026057600080fd5b5061026961080b565b6040518080602001806020018b600160a060020a0316600160a060020a031681526020018a600160a060020a0316600160a060020a03168152602001898152602001888152602001806020018781526020018660038111156102c757fe5b60ff1681526020018060200185810385528f818151815260200191508051906020019080838360005b838110156103085781810151838201526020016102f0565b50505050905090810190601f1680156103355780820380516001836020036101000a031916815260200191505b5085810384528e818151815260200191508051906020019080838360005b8381101561036b578181015183820152602001610353565b50505050905090810190601f1680156103985780820380516001836020036101000a031916815260200191505b5085810383528951815289516020918201918b019080838360005b838110156103cb5781810151838201526020016103b3565b50505050905090810190601f1680156103f85780820380516001836020036101000a031916815260200191505b508581038252865181528651602091820191808901910280838360005b8381101561042d578181015183820152602001610415565b505050509050019e50505050505050505050505050505060405180910390f35b34801561045957600080fd5b50610139610aa0565b34801561046e57600080fd5b506101df610aa6565b34801561048357600080fd5b506101226004803603602081101561049a57600080fd5b5035600160a060020a0316610b01565b3480156104b657600080fd5b50610122600480360360208110156104cd57600080fd5b5035600160a060020a0316610cda565b3480156104e957600080fd5b506105076004803603602081101561050057600080fd5b5035610d2a565b604051808260048111156101a157fe5b34801561052357600080fd5b50610160610d5c565b34801561053857600080fd5b50610160610d6b565b34801561054d57600080fd5b50610160610d7a565b34801561056257600080fd5b50610122610d89565b34801561057757600080fd5b506101df610df6565b600654600160a060020a031633146105d0576040805160e560020a62461bcd0281526020600482015260116024820152600080516020610e52833981519152604482015290519081900360640190fd5b600254600160a060020a031615610631576040805160e560020a62461bcd02815260206004820152601460248201527f4f776e657220697320616c726561647920736574000000000000000000000000604482015290519081900360640190fd5b60008054604080517fc5a887c5000000000000000000000000000000000000000000000000000000008152600160a060020a0385811660048301529151919092169163c5a887c5916024808301926020929190829003018186803b15801561069857600080fd5b505afa1580156106ac573d6000803e3d6000fd5b505050506040513d60208110156106c257600080fd5b5051905060028160058111156106d457fe5b14610729576040805160e560020a62461bcd02815260206004820152601360248201527f57726f6e6720636f6e7472616374207479706500000000000000000000000000604482015290519081900360640190fd5b506002805473ffffffffffffffffffffffffffffffffffffffff1916600160a060020a0392909216919091179055565b600a5481565b600554600160a060020a031681565b600b5460ff1681565b60075481565b6004805460408051602060026001851615610100026000190190941693909304601f810184900484028201840190925281815292918301828280156108035780601f106107d857610100808354040283529160200191610803565b820191906000526020600020905b8154815290600101906020018083116107e657829003601f168201915b505050505081565b600554600654600754600854600a54600b5460038054604080516020601f600260001960018716156101000201909516949094049384018190048102820181019092528281526060998a996000998a998a998a998e998b998a998c999298600498600160a060020a039182169891169690959094600994919360ff90911692600c92918c918301828280156108e15780601f106108b6576101008083540402835291602001916108e1565b820191906000526020600020905b8154815290600101906020018083116108c457829003601f168201915b50508c5460408051602060026001851615610100026000190190941693909304601f8101849004840282018401909252818152959f508e94509250840190508282801561096f5780601f106109445761010080835404028352916020019161096f565b820191906000526020600020905b81548152906001019060200180831161095257829003601f168201915b5050875460408051602060026001851615610100026000190190941693909304601f8101849004840282018401909252818152959e50899450925084019050828280156109fd5780601f106109d2576101008083540402835291602001916109fd565b820191906000526020600020905b8154815290600101906020018083116109e057829003601f168201915b5050505050935080805480602002602001604051908101604052809291908181526020018280548015610a7957602002820191906000526020600020906000905b82829054906101000a900460ff166004811115610a5757fe5b815260206001928301818104948501949093039092029101808411610a3e5790505b50505050509050995099509950995099509950995099509950995090919293949596979899565b60085481565b6009805460408051602060026001851615610100026000190190941693909304601f810184900484028201840190925281815292918301828280156108035780601f106107d857610100808354040283529160200191610803565b600554600160a060020a03163314610b51576040805160e560020a62461bcd0281526020600482015260116024820152600080516020610e52833981519152604482015290519081900360640190fd5b600654600160a060020a031615610bb2576040805160e560020a62461bcd02815260206004820152601560248201527f56656e646f7220697320616c7265616479207365740000000000000000000000604482015290519081900360640190fd5b60008054604080517fc5a887c5000000000000000000000000000000000000000000000000000000008152600160a060020a0385811660048301529151919092169163c5a887c5916024808301926020929190829003018186803b158015610c1957600080fd5b505afa158015610c2d573d6000803e3d6000fd5b505050506040513d6020811015610c4357600080fd5b505190506004816005811115610c5557fe5b14610caa576040805160e560020a62461bcd02815260206004820152601360248201527f57726f6e6720636f6e7472616374207479706500000000000000000000000000604482015290519081900360640190fd5b506006805473ffffffffffffffffffffffffffffffffffffffff1916600160a060020a0392909216919091179055565b600254600160a060020a03163314610631576040805160e560020a62461bcd0281526020600482015260116024820152600080516020610e52833981519152604482015290519081900360640190fd5b600c805482908110610d3857fe5b9060005260206000209060209182820401919006915054906101000a900460ff1681565b600654600160a060020a031681565b600154600160a060020a031681565b600054600160a060020a031681565b600554600160a060020a0316331480610dac5750600654600160a060020a031633145b1515610df0576040805160e560020a62461bcd0281526020600482015260116024820152600080516020610e52833981519152604482015290519081900360640190fd5b42600a55565b6003805460408051602060026001851615610100026000190190941693909304601f810184900484028201840190925281815292918301828280156108035780601f106107d85761010080835404028352916020019161080356fe5065726d697373696f6e2064656e696564000000000000000000000000000000a165627a7a72305820cb24656e3fcda5a6df95c12ad9da9ccdab24d78a32c094d674f4acd355ff7180002957726f6e6720636f6e74726163742074797065000000000000000000000000004f6e6c79206f776e65722063616e2063616c6c20746869732066756e6374696fa165627a7a72305820972a0d87b8a8050c8d1c3dafd0b9e69d8c4d9d230f9c94ea3bc9b8d84ce040230029",
  "source": "pragma solidity ^0.5.1;\n\nimport \"./Item.sol\";\n\nimport \"./meta/Organization.sol\";\n\nimport \"./interfaces/MainInterface.sol\";\n\ncontract Manufacturer is Organization {\n    MainInterface public main;\n\n    address[] public vendors;\n    address[] public serviceCenters;\n    address[] public pendingItems;\n\n    mapping (address => bool) isInVendors;\n    mapping (address => bool) isInServiceCenters;\n    mapping (address => bool) isPendingItem;\n\n\n\n    constructor (address _main, address _ownerID, string memory _name, string memory _physicalAddress, string memory _registrationNumber) public {\n        main = MainInterface(_main);\n        ownerID = _ownerID;\n        name = _name;\n        physicalAddress = _physicalAddress;\n        registrationNumber = _registrationNumber;\n    }\n\n\n// Getters\n\n\n    function getInfo () view public returns (string memory, string memory, string memory) {\n        return (name, physicalAddress, registrationNumber);\n    }\n\n    function getVendors () view public returns (address[] memory) {\n        return vendors;\n    }\n    \n    function getServiceCenters () view public returns (address[] memory) {\n        return serviceCenters;\n    }\n    \n    function getPendingItems () view public returns (address[] memory) {\n        return pendingItems;\n    }\n\n\n\n// Public\n\n\n\n    function createItem (string memory _serial, string memory _info, uint _warrantyPeriod, string memory _warrantyTerms) onlyOwner public returns (address) {\n        Item newItem = new Item(address(main), _serial, _info, _warrantyPeriod, _warrantyTerms);\n        addAddress(pendingItems, isPendingItem, address(newItem));\n        return (address(newItem));\n    }\n\n    function setVendorToItem (address vID, address iID) onlyOwner public {\n        MainInterface.ContractType cType = main.contractType(vID);\n        require((cType == MainInterface.ContractType.VENDOR), \"Wrong contract type\");\n\n        Item iInstance = Item(iID);\n        iInstance.setVendor(vID);\n        removeAddress(pendingItems, isPendingItem, iID);\n    }\n\n    function activateWarranty (address iID) onlyOwner public {\n        Item iInstance = Item(iID);\n        iInstance.activateWarranty();\n    }\n\n\n\n// Internal\n\n\n\n    function addSentRequestHook (address _id, Requestable.Request memory req) internal {\n        if (req.Type == Requestable.RequestType.PARTNERSHIP) {\n            MainInterface.ContractType cType = main.contractType(_id);\n            require(((cType == MainInterface.ContractType.VENDOR) || (cType == MainInterface.ContractType.SERVICE_CENTER)), \"Wrong contract type\");\n        }\n    }\n    function removeSentRequestHook (address _id, Requestable.Request memory req) internal {\n        if (req.Type == Requestable.RequestType.PARTNERSHIP) {\n            MainInterface.ContractType cType = main.contractType(_id);\n            require(((cType == MainInterface.ContractType.VENDOR) || (cType == MainInterface.ContractType.SERVICE_CENTER)), \"Wrong contract type\");\n        }\n    }\n\n    function addReceivedRequestHook (address _id, Requestable.Request memory req) internal {\n        if (req.Type == Requestable.RequestType.PARTNERSHIP) {\n            MainInterface.ContractType cType = main.contractType(_id);\n            require(((cType == MainInterface.ContractType.VENDOR) || (cType == MainInterface.ContractType.SERVICE_CENTER)), \"Wrong contract type\");\n        }\n    }\n    function removeReceivedRequestHook (address _id, Requestable.Request memory req) internal {\n        if (req.Type == Requestable.RequestType.PARTNERSHIP) {\n            MainInterface.ContractType cType = main.contractType(_id);\n            require(((cType == MainInterface.ContractType.VENDOR) || (cType == MainInterface.ContractType.SERVICE_CENTER)), \"Wrong contract type\");\n        }\n    }\n\n    function addCompletedRequestHook (address _id, Requestable.Request memory req) internal {\n        if (req.Type == Requestable.RequestType.PARTNERSHIP) {\n            MainInterface.ContractType cType = main.contractType(_id);\n            require(((cType == MainInterface.ContractType.VENDOR) || (cType == MainInterface.ContractType.SERVICE_CENTER)), \"Wrong contract type\");\n\n            if (cType == MainInterface.ContractType.VENDOR) { addAddress(vendors, isInVendors, _id); }\n            else if (cType == MainInterface.ContractType.SERVICE_CENTER) { addAddress(serviceCenters, isInServiceCenters, _id); }\n        }\n    }\n    function removeCompletedRequestHook (address _id, Requestable.Request memory req) internal {\n        if (req.Type == Requestable.RequestType.PARTNERSHIP) {\n            MainInterface.ContractType cType = main.contractType(_id);\n            require(((cType == MainInterface.ContractType.VENDOR) || (cType == MainInterface.ContractType.SERVICE_CENTER)), \"Wrong contract type\");\n\n            if (cType == MainInterface.ContractType.VENDOR) { removeAddress(vendors, isInVendors, _id); }\n            else if (cType == MainInterface.ContractType.SERVICE_CENTER) { removeAddress(serviceCenters, isInServiceCenters, _id); }\n        }\n    }\n\n\n    function addAddress (address[] storage array, mapping (address => bool) storage map, address aID) internal {\n        require(!map[aID], \"Already exists\");\n\n        array.push(aID);\n        map[aID] = true;\n    }\n\n    function removeAddress (address[] storage array, mapping (address => bool) storage map, address aID) internal {\n        require(map[aID], \"Not found\");\n\n        for (uint i = 0; i < array.length; i++) {\n            if (array[i] == aID) {\n                array[i] = array[array.length - 1];\n                delete array[array.length - 1];\n                array.length--;\n            }\n        }\n        map[aID] = false;\n    }\n}\n",
  "sourcePath": "/Users/viktorgronskiy/Documents/Projects/Fun/GuarantSystem/blockchain/src/Manufacturer.sol",
  "compiler": {
    "name": "solc",
    "version": "0.5.1+commit.c8a2cb62.Emscripten.clang"
  },
  "schemaVersion": "3.0.1",
  "updatedAt": "2019-02-02T19:34:55.999Z",
  "devdoc": {
    "methods": {}
  },
  "userdoc": {
    "methods": {}
  }
}