{
  "contractName": "Manufacturer",
  "abi": [
    {
      "constant": true,
      "inputs": [],
      "name": "name",
      "outputs": [
        {
          "name": "",
          "type": "string"
        }
      ],
      "payable": false,
      "stateMutability": "view",
      "type": "function"
    },
    {
      "constant": true,
      "inputs": [],
      "name": "physicalAddress",
      "outputs": [
        {
          "name": "",
          "type": "string"
        }
      ],
      "payable": false,
      "stateMutability": "view",
      "type": "function"
    },
    {
      "constant": false,
      "inputs": [],
      "name": "receivePartnershipRequest",
      "outputs": [],
      "payable": false,
      "stateMutability": "nonpayable",
      "type": "function"
    },
    {
      "constant": false,
      "inputs": [
        {
          "name": "pID",
          "type": "address"
        }
      ],
      "name": "cancelPartnership",
      "outputs": [],
      "payable": false,
      "stateMutability": "nonpayable",
      "type": "function"
    },
    {
      "constant": true,
      "inputs": [
        {
          "name": "",
          "type": "uint256"
        }
      ],
      "name": "receivedPartnerships",
      "outputs": [
        {
          "name": "",
          "type": "address"
        }
      ],
      "payable": false,
      "stateMutability": "view",
      "type": "function"
    },
    {
      "constant": true,
      "inputs": [
        {
          "name": "",
          "type": "uint256"
        }
      ],
      "name": "serviceCenters",
      "outputs": [
        {
          "name": "",
          "type": "address"
        }
      ],
      "payable": false,
      "stateMutability": "view",
      "type": "function"
    },
    {
      "constant": true,
      "inputs": [
        {
          "name": "",
          "type": "uint256"
        }
      ],
      "name": "pendingItems",
      "outputs": [
        {
          "name": "",
          "type": "address"
        }
      ],
      "payable": false,
      "stateMutability": "view",
      "type": "function"
    },
    {
      "constant": false,
      "inputs": [
        {
          "name": "pID",
          "type": "address"
        }
      ],
      "name": "acceptPartnership",
      "outputs": [],
      "payable": false,
      "stateMutability": "nonpayable",
      "type": "function"
    },
    {
      "constant": true,
      "inputs": [
        {
          "name": "",
          "type": "uint256"
        }
      ],
      "name": "requestedPartnerships",
      "outputs": [
        {
          "name": "",
          "type": "address"
        }
      ],
      "payable": false,
      "stateMutability": "view",
      "type": "function"
    },
    {
      "constant": true,
      "inputs": [
        {
          "name": "",
          "type": "uint256"
        }
      ],
      "name": "vendors",
      "outputs": [
        {
          "name": "",
          "type": "address"
        }
      ],
      "payable": false,
      "stateMutability": "view",
      "type": "function"
    },
    {
      "constant": false,
      "inputs": [],
      "name": "receivePartnershipRevert",
      "outputs": [],
      "payable": false,
      "stateMutability": "nonpayable",
      "type": "function"
    },
    {
      "constant": true,
      "inputs": [],
      "name": "id",
      "outputs": [
        {
          "name": "",
          "type": "address"
        }
      ],
      "payable": false,
      "stateMutability": "view",
      "type": "function"
    },
    {
      "constant": true,
      "inputs": [],
      "name": "registrationNumber",
      "outputs": [
        {
          "name": "",
          "type": "string"
        }
      ],
      "payable": false,
      "stateMutability": "view",
      "type": "function"
    },
    {
      "constant": false,
      "inputs": [
        {
          "name": "pID",
          "type": "address"
        }
      ],
      "name": "requestPartnership",
      "outputs": [],
      "payable": false,
      "stateMutability": "nonpayable",
      "type": "function"
    },
    {
      "constant": false,
      "inputs": [],
      "name": "receivePartnershipDecline",
      "outputs": [],
      "payable": false,
      "stateMutability": "nonpayable",
      "type": "function"
    },
    {
      "constant": false,
      "inputs": [
        {
          "name": "pID",
          "type": "address"
        }
      ],
      "name": "revertPartnership",
      "outputs": [],
      "payable": false,
      "stateMutability": "nonpayable",
      "type": "function"
    },
    {
      "constant": false,
      "inputs": [
        {
          "name": "pID",
          "type": "address"
        }
      ],
      "name": "declinePartnership",
      "outputs": [],
      "payable": false,
      "stateMutability": "nonpayable",
      "type": "function"
    },
    {
      "inputs": [
        {
          "name": "_ownerID",
          "type": "address"
        },
        {
          "name": "_name",
          "type": "string"
        },
        {
          "name": "_physicalAddress",
          "type": "string"
        },
        {
          "name": "_registrationNumber",
          "type": "string"
        }
      ],
      "payable": false,
      "stateMutability": "nonpayable",
      "type": "constructor"
    },
    {
      "constant": false,
      "inputs": [
        {
          "name": "_serial",
          "type": "string"
        },
        {
          "name": "_info",
          "type": "string"
        },
        {
          "name": "_warrantyPeriod",
          "type": "uint256"
        },
        {
          "name": "_warrantyTerms",
          "type": "string"
        }
      ],
      "name": "createItem",
      "outputs": [
        {
          "name": "",
          "type": "address"
        }
      ],
      "payable": false,
      "stateMutability": "nonpayable",
      "type": "function"
    }
  ],
  "bytecode": "0x6080604052306000806101000a81548173ffffffffffffffffffffffffffffffffffffffff021916908373ffffffffffffffffffffffffffffffffffffffff1602179055503480156200005157600080fd5b5060405162003df538038062003df5833981018060405260808110156200007757600080fd5b810190808051906020019092919080516401000000008111156200009a57600080fd5b82810190506020810184811115620000b157600080fd5b8151856001820283011164010000000082111715620000cf57600080fd5b50509291906020018051640100000000811115620000ec57600080fd5b828101905060208101848111156200010357600080fd5b81518560018202830111640100000000821117156200012157600080fd5b505092919060200180516401000000008111156200013e57600080fd5b828101905060208101848111156200015557600080fd5b81518560018202830111640100000000821117156200017357600080fd5b505092919050505033600a60006101000a81548173ffffffffffffffffffffffffffffffffffffffff021916908373ffffffffffffffffffffffffffffffffffffffff16021790555083600b60006101000a81548173ffffffffffffffffffffffffffffffffffffffff021916908373ffffffffffffffffffffffffffffffffffffffff16021790555082600290805190602001906200021592919062000252565b5081600390805190602001906200022e92919062000252565b5080600490805190602001906200024792919062000252565b505050505062000301565b828054600181600116156101000203166002900490600052602060002090601f016020900481019282601f106200029557805160ff1916838001178555620002c6565b82800160010185558215620002c6579182015b82811115620002c5578251825591602001919060010190620002a8565b5b509050620002d59190620002d9565b5090565b620002fe91905b80821115620002fa576000816000905550600101620002e0565b5090565b90565b613ae480620003116000396000f3fe60806040526004361062000109576000357c01000000000000000000000000000000000000000000000000000000009004806306fdde03146200010e57806340868fff14620001a45780634f614ffc146200023a578063560649251462000254578063569be9b814620002a9578063582c55b3146200032857806379ac047714620003a75780637aa29a26146200042657806383e4604f146200047b578063867a524014620006c8578063a08d986d1462000747578063a1d6888014620007c6578063af640d0f14620007e0578063b2a1a40a146200083a578063c937cf3714620008d0578063e0726b0a1462000925578063eaf7c97a146200093f578063fbfca3c61462000994575b600080fd5b3480156200011b57600080fd5b5062000126620009e9565b6040518080602001828103825283818151815260200191508051906020019080838360005b83811015620001685780820151818401526020810190506200014b565b50505050905090810190601f168015620001965780820380516001836020036101000a031916815260200191505b509250505060405180910390f35b348015620001b157600080fd5b50620001bc62000a8b565b6040518080602001828103825283818151815260200191508051906020019080838360005b83811015620001fe578082015181840152602081019050620001e1565b50505050905090810190601f1680156200022c5780820380516001836020036101000a031916815260200191505b509250505060405180910390f35b3480156200024757600080fd5b506200025262000b2d565b005b3480156200026157600080fd5b50620002a7600480360360208110156200027a57600080fd5b81019080803573ffffffffffffffffffffffffffffffffffffffff16906020019092919050505062000ca6565b005b348015620002b657600080fd5b50620002e660048036036020811015620002cf57600080fd5b810190808035906020019092919050505062000fcd565b604051808273ffffffffffffffffffffffffffffffffffffffff1673ffffffffffffffffffffffffffffffffffffffff16815260200191505060405180910390f35b3480156200033557600080fd5b5062000365600480360360208110156200034e57600080fd5b81019080803590602001909291905050506200100c565b604051808273ffffffffffffffffffffffffffffffffffffffff1673ffffffffffffffffffffffffffffffffffffffff16815260200191505060405180910390f35b348015620003b457600080fd5b50620003e460048036036020811015620003cd57600080fd5b81019080803590602001909291905050506200104b565b604051808273ffffffffffffffffffffffffffffffffffffffff1673ffffffffffffffffffffffffffffffffffffffff16815260200191505060405180910390f35b3480156200043357600080fd5b5062000479600480360360208110156200044c57600080fd5b81019080803573ffffffffffffffffffffffffffffffffffffffff1690602001909291905050506200108a565b005b3480156200048857600080fd5b506200068660048036036080811015620004a157600080fd5b8101908080359060200190640100000000811115620004bf57600080fd5b820183602082011115620004d257600080fd5b80359060200191846001830284011164010000000083111715620004f557600080fd5b91908080601f016020809104026020016040519081016040528093929190818152602001838380828437600081840152601f19601f820116905080830192505050505050509192919290803590602001906401000000008111156200055957600080fd5b8201836020820111156200056c57600080fd5b803590602001918460018302840111640100000000831117156200058f57600080fd5b91908080601f016020809104026020016040519081016040528093929190818152602001838380828437600081840152601f19601f8201169050808301925050505050505091929192908035906020019092919080359060200190640100000000811115620005fd57600080fd5b8201836020820111156200061057600080fd5b803590602001918460018302840111640100000000831117156200063357600080fd5b91908080601f016020809104026020016040519081016040528093929190818152602001838380828437600081840152601f19601f82011690508083019250505050505050919291929050505062001263565b604051808273ffffffffffffffffffffffffffffffffffffffff1673ffffffffffffffffffffffffffffffffffffffff16815260200191505060405180910390f35b348015620006d557600080fd5b506200070560048036036020811015620006ee57600080fd5b8101908080359060200190929190505050620014ef565b604051808273ffffffffffffffffffffffffffffffffffffffff1673ffffffffffffffffffffffffffffffffffffffff16815260200191505060405180910390f35b3480156200075457600080fd5b5062000784600480360360208110156200076d57600080fd5b81019080803590602001909291905050506200152e565b604051808273ffffffffffffffffffffffffffffffffffffffff1673ffffffffffffffffffffffffffffffffffffffff16815260200191505060405180910390f35b348015620007d357600080fd5b50620007de6200156d565b005b348015620007ed57600080fd5b50620007f86200166f565b604051808273ffffffffffffffffffffffffffffffffffffffff1673ffffffffffffffffffffffffffffffffffffffff16815260200191505060405180910390f35b3480156200084757600080fd5b506200085262001694565b6040518080602001828103825283818151815260200191508051906020019080838360005b838110156200089457808201518184015260208101905062000877565b50505050905090810190601f168015620008c25780820380516001836020036101000a031916815260200191505b509250505060405180910390f35b348015620008dd57600080fd5b506200092360048036036020811015620008f657600080fd5b81019080803573ffffffffffffffffffffffffffffffffffffffff16906020019092919050505062001736565b005b3480156200093257600080fd5b506200093d6200192a565b005b3480156200094c57600080fd5b5062000992600480360360208110156200096557600080fd5b81019080803573ffffffffffffffffffffffffffffffffffffffff16906020019092919050505062001a2c565b005b348015620009a157600080fd5b50620009e760048036036020811015620009ba57600080fd5b81019080803573ffffffffffffffffffffffffffffffffffffffff16906020019092919050505062001bfa565b005b60028054600181600116156101000203166002900480601f01602080910402602001604051908101604052809291908181526020018280546001816001161561010002031660029004801562000a835780601f1062000a575761010080835404028352916020019162000a83565b820191906000526020600020905b81548152906001019060200180831162000a6557829003601f168201915b505050505081565b60038054600181600116156101000203166002900480601f01602080910402602001604051908101604052809291908181526020018280546001816001161561010002031660029004801562000b255780601f1062000af95761010080835404028352916020019162000b25565b820191906000526020600020905b81548152906001019060200180831162000b0757829003601f168201915b505050505081565b600033905060001515600860008373ffffffffffffffffffffffffffffffffffffffff1673ffffffffffffffffffffffffffffffffffffffff16815260200190815260200160002060009054906101000a900460ff16151514151562000c21576040517f08c379a00000000000000000000000000000000000000000000000000000000081526004018080602001828103825260268152602001807f506172746e6572736869702068617320616c7265616479206265656e2072657181526020017f756573746564000000000000000000000000000000000000000000000000000081525060400191505060405180910390fd5b60011515600960008373ffffffffffffffffffffffffffffffffffffffff1673ffffffffffffffffffffffffffffffffffffffff16815260200190815260200160002060009054906101000a900460ff161515141562000c975762000c868162001dc8565b62000c918162001e2e565b62000ca3565b62000ca28162001e40565b5b50565b600b60009054906101000a900473ffffffffffffffffffffffffffffffffffffffff1673ffffffffffffffffffffffffffffffffffffffff163373ffffffffffffffffffffffffffffffffffffffff16148062000d53575060011515600760003373ffffffffffffffffffffffffffffffffffffffff1673ffffffffffffffffffffffffffffffffffffffff16815260200190815260200160002060009054906101000a900460ff161515145b151562000dee576040517f08c379a000000000000000000000000000000000000000000000000000000000815260040180806020018281038252602c8152602001807f4f6e6c79206f776e6572206f7220706172746e65722063616e2063616c6c207481526020017f6869732066756e6374696f6e000000000000000000000000000000000000000081525060400191505060405180910390fd5b600160009054906101000a900473ffffffffffffffffffffffffffffffffffffffff1673ffffffffffffffffffffffffffffffffffffffff163373ffffffffffffffffffffffffffffffffffffffff16148062000e7657508073ffffffffffffffffffffffffffffffffffffffff163373ffffffffffffffffffffffffffffffffffffffff16145b151562000eeb576040517f08c379a00000000000000000000000000000000000000000000000000000000081526004018080602001828103825260168152602001807f4e6f7420656e6f756768207065726d697373696f6e730000000000000000000081525060200191505060405180910390fd5b60011515600760008373ffffffffffffffffffffffffffffffffffffffff1673ffffffffffffffffffffffffffffffffffffffff16815260200190815260200160002060009054906101000a900460ff16151514151562000fb4576040517f08c379a000000000000000000000000000000000000000000000000000000000815260040180806020018281038252600f8152602001807f4e6f207375636820706172746e6572000000000000000000000000000000000081525060200191505060405180910390fd5b62000fbf8162001e52565b62000fca8162001eb8565b50565b60058181548110151562000fdd57fe5b906000526020600020016000915054906101000a900473ffffffffffffffffffffffffffffffffffffffff1681565b600d818154811015156200101c57fe5b906000526020600020016000915054906101000a900473ffffffffffffffffffffffffffffffffffffffff1681565b600e818154811015156200105b57fe5b906000526020600020016000915054906101000a900473ffffffffffffffffffffffffffffffffffffffff1681565b600b60009054906101000a900473ffffffffffffffffffffffffffffffffffffffff1673ffffffffffffffffffffffffffffffffffffffff163373ffffffffffffffffffffffffffffffffffffffff1614151562001176576040517f08c379a00000000000000000000000000000000000000000000000000000000081526004018080602001828103825260218152602001807f4f6e6c79206f776e65722063616e2063616c6c20746869732066756e6374696f81526020017f6e0000000000000000000000000000000000000000000000000000000000000081525060400191505060405180910390fd5b60011515600860008373ffffffffffffffffffffffffffffffffffffffff1673ffffffffffffffffffffffffffffffffffffffff16815260200190815260200160002060009054906101000a900460ff1615151415156200123f576040517f08c379a000000000000000000000000000000000000000000000000000000000815260040180806020018281038252600f8152602001807f4e6f20737563682072657175657374000000000000000000000000000000000081525060200191505060405180910390fd5b6200124a8162001dc8565b620012558162002149565b62001260816200215b565b50565b6000600b60009054906101000a900473ffffffffffffffffffffffffffffffffffffffff1673ffffffffffffffffffffffffffffffffffffffff163373ffffffffffffffffffffffffffffffffffffffff1614151562001351576040517f08c379a00000000000000000000000000000000000000000000000000000000081526004018080602001828103825260218152602001807f4f6e6c79206f776e65722063616e2063616c6c20746869732066756e6374696f81526020017f6e0000000000000000000000000000000000000000000000000000000000000081525060400191505060405180910390fd5b60008585858562001361620030de565b80806020018060200185815260200180602001848103845288818151815260200191508051906020019080838360005b83811015620013ae57808201518184015260208101905062001391565b50505050905090810190601f168015620013dc5780820380516001836020036101000a031916815260200191505b50848103835287818151815260200191508051906020019080838360005b8381101562001417578082015181840152602081019050620013fa565b50505050905090810190601f168015620014455780820380516001836020036101000a031916815260200191505b50848103825285818151815260200191508051906020019080838360005b838110156200148057808201518184015260208101905062001463565b50505050905090810190601f168015620014ae5780820380516001836020036101000a031916815260200191505b50975050505050505050604051809103906000f080158015620014d5573d6000803e3d6000fd5b509050620014e38162002394565b80915050949350505050565b600681815481101515620014ff57fe5b906000526020600020016000915054906101000a900473ffffffffffffffffffffffffffffffffffffffff1681565b600c818154811015156200153e57fe5b906000526020600020016000915054906101000a900473ffffffffffffffffffffffffffffffffffffffff1681565b600033905060011515600860008373ffffffffffffffffffffffffffffffffffffffff1673ffffffffffffffffffffffffffffffffffffffff16815260200190815260200160002060009054906101000a900460ff16151514151562001661576040517f08c379a00000000000000000000000000000000000000000000000000000000081526004018080602001828103825260228152602001807f506172746e65727368697020686173206e6f74206265656e207265717565737481526020017f656400000000000000000000000000000000000000000000000000000000000081525060400191505060405180910390fd5b6200166c8162002149565b50565b6000809054906101000a900473ffffffffffffffffffffffffffffffffffffffff1681565b60048054600181600116156101000203166002900480601f0160208091040260200160405190810160405280929190818152602001828054600181600116156101000203166002900480156200172e5780601f1062001702576101008083540402835291602001916200172e565b820191906000526020600020905b8154815290600101906020018083116200171057829003601f168201915b505050505081565b600b60009054906101000a900473ffffffffffffffffffffffffffffffffffffffff1673ffffffffffffffffffffffffffffffffffffffff163373ffffffffffffffffffffffffffffffffffffffff1614151562001822576040517f08c379a00000000000000000000000000000000000000000000000000000000081526004018080602001828103825260218152602001807f4f6e6c79206f776e65722063616e2063616c6c20746869732066756e6374696f81526020017f6e0000000000000000000000000000000000000000000000000000000000000081525060400191505060405180910390fd5b60001515600960008373ffffffffffffffffffffffffffffffffffffffff1673ffffffffffffffffffffffffffffffffffffffff16815260200190815260200160002060009054906101000a900460ff16151514151562001911576040517f08c379a00000000000000000000000000000000000000000000000000000000081526004018080602001828103825260268152602001807f506172746e6572736869702068617320616c7265616479206265656e2072657181526020017f756573746564000000000000000000000000000000000000000000000000000081525060400191505060405180910390fd5b6200191c81620023a6565b62001927816200215b565b50565b600033905060011515600960008373ffffffffffffffffffffffffffffffffffffffff1673ffffffffffffffffffffffffffffffffffffffff16815260200190815260200160002060009054906101000a900460ff16151514151562001a1e576040517f08c379a00000000000000000000000000000000000000000000000000000000081526004018080602001828103825260228152602001807f506172746e65727368697020686173206e6f74206265656e207265717565737481526020017f656400000000000000000000000000000000000000000000000000000000000081525060400191505060405180910390fd5b62001a298162001e2e565b50565b600b60009054906101000a900473ffffffffffffffffffffffffffffffffffffffff1673ffffffffffffffffffffffffffffffffffffffff163373ffffffffffffffffffffffffffffffffffffffff1614151562001b18576040517f08c379a00000000000000000000000000000000000000000000000000000000081526004018080602001828103825260218152602001807f4f6e6c79206f776e65722063616e2063616c6c20746869732066756e6374696f81526020017f6e0000000000000000000000000000000000000000000000000000000000000081525060400191505060405180910390fd5b60011515600960008373ffffffffffffffffffffffffffffffffffffffff1673ffffffffffffffffffffffffffffffffffffffff16815260200190815260200160002060009054906101000a900460ff16151514151562001be1576040517f08c379a000000000000000000000000000000000000000000000000000000000815260040180806020018281038252600f8152602001807f4e6f20737563682072657175657374000000000000000000000000000000000081525060200191505060405180910390fd5b62001bec8162001e2e565b62001bf781620023b8565b50565b600b60009054906101000a900473ffffffffffffffffffffffffffffffffffffffff1673ffffffffffffffffffffffffffffffffffffffff163373ffffffffffffffffffffffffffffffffffffffff1614151562001ce6576040517f08c379a00000000000000000000000000000000000000000000000000000000081526004018080602001828103825260218152602001807f4f6e6c79206f776e65722063616e2063616c6c20746869732066756e6374696f81526020017f6e0000000000000000000000000000000000000000000000000000000000000081525060400191505060405180910390fd5b60011515600860008373ffffffffffffffffffffffffffffffffffffffff1673ffffffffffffffffffffffffffffffffffffffff16815260200190815260200160002060009054906101000a900460ff16151514151562001daf576040517f08c379a000000000000000000000000000000000000000000000000000000000815260040180806020018281038252600f8152602001807f4e6f20737563682072657175657374000000000000000000000000000000000081525060200191505060405180910390fd5b62001dba8162002149565b62001dc581620025f1565b50565b6001600760008373ffffffffffffffffffffffffffffffffffffffff1673ffffffffffffffffffffffffffffffffffffffff16815260200190815260200160002060006101000a81548160ff02191690831515021790555062001e2b816200282a565b50565b62001e3d600660098362002a40565b50565b62001e4f600560088362002b70565b50565b6000600760008373ffffffffffffffffffffffffffffffffffffffff1673ffffffffffffffffffffffffffffffffffffffff16815260200190815260200160002060006101000a81548160ff02191690831515021790555062001eb58162002cf9565b50565b6000600a60009054906101000a900473ffffffffffffffffffffffffffffffffffffffff1673ffffffffffffffffffffffffffffffffffffffff1663e11aa6a2836040518263ffffffff167c0100000000000000000000000000000000000000000000000000000000028152600401808273ffffffffffffffffffffffffffffffffffffffff1673ffffffffffffffffffffffffffffffffffffffff16815260200191505060206040518083038186803b15801562001f7657600080fd5b505afa15801562001f8b573d6000803e3d6000fd5b505050506040513d602081101562001fa257600080fd5b810190808051906020019092919050505090506004600581111562001fc357fe5b81600581111562001fd057fe5b148062001ff4575060058081111562001fe557fe5b81600581111562001ff257fe5b145b151562002069576040517f08c379a00000000000000000000000000000000000000000000000000000000081526004018080602001828103825260138152602001807f57726f6e6720636f6e747261637420747970650000000000000000000000000081525060200191505060405180910390fd5b60008290508073ffffffffffffffffffffffffffffffffffffffff1663560649256000809054906101000a900473ffffffffffffffffffffffffffffffffffffffff166040518263ffffffff167c0100000000000000000000000000000000000000000000000000000000028152600401808273ffffffffffffffffffffffffffffffffffffffff1673ffffffffffffffffffffffffffffffffffffffff168152602001915050600060405180830381600087803b1580156200212b57600080fd5b505af115801562002140573d6000803e3d6000fd5b50505050505050565b62002158600560088362002a40565b50565b6000600a60009054906101000a900473ffffffffffffffffffffffffffffffffffffffff1673ffffffffffffffffffffffffffffffffffffffff1663e11aa6a2836040518263ffffffff167c0100000000000000000000000000000000000000000000000000000000028152600401808273ffffffffffffffffffffffffffffffffffffffff1673ffffffffffffffffffffffffffffffffffffffff16815260200191505060206040518083038186803b1580156200221957600080fd5b505afa1580156200222e573d6000803e3d6000fd5b505050506040513d60208110156200224557600080fd5b81019080805190602001909291905050509050600460058111156200226657fe5b8160058111156200227357fe5b14806200229757506005808111156200228857fe5b8160058111156200229557fe5b145b15156200230c576040517f08c379a00000000000000000000000000000000000000000000000000000000081526004018080602001828103825260138152602001807f57726f6e6720636f6e747261637420747970650000000000000000000000000081525060200191505060405180910390fd5b60008290508073ffffffffffffffffffffffffffffffffffffffff16634f614ffc6040518163ffffffff167c0100000000000000000000000000000000000000000000000000000000028152600401600060405180830381600087803b1580156200237657600080fd5b505af11580156200238b573d6000803e3d6000fd5b50505050505050565b620023a3600e60118362002b70565b50565b620023b5600660098362002b70565b50565b6000600a60009054906101000a900473ffffffffffffffffffffffffffffffffffffffff1673ffffffffffffffffffffffffffffffffffffffff1663e11aa6a2836040518263ffffffff167c0100000000000000000000000000000000000000000000000000000000028152600401808273ffffffffffffffffffffffffffffffffffffffff1673ffffffffffffffffffffffffffffffffffffffff16815260200191505060206040518083038186803b1580156200247657600080fd5b505afa1580156200248b573d6000803e3d6000fd5b505050506040513d6020811015620024a257600080fd5b8101908080519060200190929190505050905060046005811115620024c357fe5b816005811115620024d057fe5b1480620024f45750600580811115620024e557fe5b816005811115620024f257fe5b145b151562002569576040517f08c379a00000000000000000000000000000000000000000000000000000000081526004018080602001828103825260138152602001807f57726f6e6720636f6e747261637420747970650000000000000000000000000081525060200191505060405180910390fd5b60008290508073ffffffffffffffffffffffffffffffffffffffff1663a1d688806040518163ffffffff167c0100000000000000000000000000000000000000000000000000000000028152600401600060405180830381600087803b158015620025d357600080fd5b505af1158015620025e8573d6000803e3d6000fd5b50505050505050565b6000600a60009054906101000a900473ffffffffffffffffffffffffffffffffffffffff1673ffffffffffffffffffffffffffffffffffffffff1663e11aa6a2836040518263ffffffff167c0100000000000000000000000000000000000000000000000000000000028152600401808273ffffffffffffffffffffffffffffffffffffffff1673ffffffffffffffffffffffffffffffffffffffff16815260200191505060206040518083038186803b158015620026af57600080fd5b505afa158015620026c4573d6000803e3d6000fd5b505050506040513d6020811015620026db57600080fd5b8101908080519060200190929190505050905060046005811115620026fc57fe5b8160058111156200270957fe5b14806200272d57506005808111156200271e57fe5b8160058111156200272b57fe5b145b1515620027a2576040517f08c379a00000000000000000000000000000000000000000000000000000000081526004018080602001828103825260138152602001807f57726f6e6720636f6e747261637420747970650000000000000000000000000081525060200191505060405180910390fd5b60008290508073ffffffffffffffffffffffffffffffffffffffff1663e0726b0a6040518163ffffffff167c0100000000000000000000000000000000000000000000000000000000028152600401600060405180830381600087803b1580156200280c57600080fd5b505af115801562002821573d6000803e3d6000fd5b50505050505050565b6000600a60009054906101000a900473ffffffffffffffffffffffffffffffffffffffff1673ffffffffffffffffffffffffffffffffffffffff1663e11aa6a2836040518263ffffffff167c0100000000000000000000000000000000000000000000000000000000028152600401808273ffffffffffffffffffffffffffffffffffffffff1673ffffffffffffffffffffffffffffffffffffffff16815260200191505060206040518083038186803b158015620028e857600080fd5b505afa158015620028fd573d6000803e3d6000fd5b505050506040513d60208110156200291457600080fd5b81019080805190602001909291905050509050600460058111156200293557fe5b8160058111156200294257fe5b14806200296657506005808111156200295757fe5b8160058111156200296457fe5b145b1515620029db576040517f08c379a00000000000000000000000000000000000000000000000000000000081526004018080602001828103825260138152602001807f57726f6e6720636f6e747261637420747970650000000000000000000000000081525060200191505060405180910390fd5b60046005811115620029e957fe5b816005811115620029f657fe5b141562002a0e5762002a088262002f0f565b62002a3c565b60058081111562002a1b57fe5b81600581111562002a2857fe5b141562002a3b5762002a3a8262002f21565b5b5b5050565b600115158260008373ffffffffffffffffffffffffffffffffffffffff1673ffffffffffffffffffffffffffffffffffffffff16815260200190815260200160002060009054906101000a900460ff16151514151562002b08576040517f08c379a00000000000000000000000000000000000000000000000000000000081526004018080602001828103825260098152602001807f4e6f7420666f756e64000000000000000000000000000000000000000000000081525060200191505060405180910390fd5b62002b14838262002f33565b60008260008373ffffffffffffffffffffffffffffffffffffffff1673ffffffffffffffffffffffffffffffffffffffff16815260200190815260200160002060006101000a81548160ff021916908315150217905550505050565b600015158260008373ffffffffffffffffffffffffffffffffffffffff1673ffffffffffffffffffffffffffffffffffffffff16815260200190815260200160002060009054906101000a900460ff16151514151562002c38576040517f08c379a000000000000000000000000000000000000000000000000000000000815260040180806020018281038252600e8152602001807f416c72656164792065786973747300000000000000000000000000000000000081525060200191505060405180910390fd5b828190806001815401808255809150509060018203906000526020600020016000909192909190916101000a81548173ffffffffffffffffffffffffffffffffffffffff021916908373ffffffffffffffffffffffffffffffffffffffff1602179055505060018260008373ffffffffffffffffffffffffffffffffffffffff1673ffffffffffffffffffffffffffffffffffffffff16815260200190815260200160002060006101000a81548160ff021916908315150217905550505050565b6000600a60009054906101000a900473ffffffffffffffffffffffffffffffffffffffff1673ffffffffffffffffffffffffffffffffffffffff1663e11aa6a2836040518263ffffffff167c0100000000000000000000000000000000000000000000000000000000028152600401808273ffffffffffffffffffffffffffffffffffffffff1673ffffffffffffffffffffffffffffffffffffffff16815260200191505060206040518083038186803b15801562002db757600080fd5b505afa15801562002dcc573d6000803e3d6000fd5b505050506040513d602081101562002de357600080fd5b810190808051906020019092919050505090506004600581111562002e0457fe5b81600581111562002e1157fe5b148062002e35575060058081111562002e2657fe5b81600581111562002e3357fe5b145b151562002eaa576040517f08c379a00000000000000000000000000000000000000000000000000000000081526004018080602001828103825260138152602001807f57726f6e6720636f6e747261637420747970650000000000000000000000000081525060200191505060405180910390fd5b6004600581111562002eb857fe5b81600581111562002ec557fe5b141562002edd5762002ed782620030ba565b62002f0b565b60058081111562002eea57fe5b81600581111562002ef757fe5b141562002f0a5762002f0982620030cc565b5b5b5050565b62002f1e600c600f8362002b70565b50565b62002f30600d60108362002b70565b50565b60008090505b8280549050811015620030b5578173ffffffffffffffffffffffffffffffffffffffff16838281548110151562002f6c57fe5b9060005260206000200160009054906101000a900473ffffffffffffffffffffffffffffffffffffffff1673ffffffffffffffffffffffffffffffffffffffff161415620030a75782600184805490500381548110151562002fca57fe5b9060005260206000200160009054906101000a900473ffffffffffffffffffffffffffffffffffffffff1683828154811015156200300457fe5b9060005260206000200160006101000a81548173ffffffffffffffffffffffffffffffffffffffff021916908373ffffffffffffffffffffffffffffffffffffffff1602179055508260018480549050038154811015156200306257fe5b9060005260206000200160006101000a81549073ffffffffffffffffffffffffffffffffffffffff021916905582805480919060019003620030a59190620030ef565b505b808060010191505062002f39565b505050565b620030c9600c600f8362002a40565b50565b620030db600d60108362002a40565b50565b604051610972806200314783390190565b81548183558181111562003119578183600052602060002091820191016200311891906200311e565b5b505050565b6200314391905b808211156200313f57600081600090555060010162003125565b5090565b9056fe6080604052306000806101000a81548173ffffffffffffffffffffffffffffffffffffffff021916908373ffffffffffffffffffffffffffffffffffffffff16021790555034801561005057600080fd5b506040516109723803806109728339810180604052608081101561007357600080fd5b81019080805164010000000081111561008b57600080fd5b828101905060208101848111156100a157600080fd5b81518560018202830111640100000000821117156100be57600080fd5b505092919060200180516401000000008111156100da57600080fd5b828101905060208101848111156100f057600080fd5b815185600182028301116401000000008211171561010d57600080fd5b505092919060200180519060200190929190805164010000000081111561013357600080fd5b8281019050602081018481111561014957600080fd5b815185600182028301116401000000008211171561016657600080fd5b505092919050505033600460006101000a81548173ffffffffffffffffffffffffffffffffffffffff021916908373ffffffffffffffffffffffffffffffffffffffff160217905550600460009054906101000a900473ffffffffffffffffffffffffffffffffffffffff16600160006101000a81548173ffffffffffffffffffffffffffffffffffffffff021916908373ffffffffffffffffffffffffffffffffffffffff1602179055508360029080519060200190610228929190610267565b50826003908051906020019061023f929190610267565b5081600781905550806008908051906020019061025d929190610267565b505050505061030c565b828054600181600116156101000203166002900490600052602060002090601f016020900481019282601f106102a857805160ff19168380011785556102d6565b828001600101855582156102d6579182015b828111156102d55782518255916020019190600101906102ba565b5b5090506102e391906102e7565b5090565b61030991905b808211156103055760008160009055506001016102ed565b5090565b90565b6106578061031b6000396000f3fe608060405260043610610093576000357c010000000000000000000000000000000000000000000000000000000090048063186601ca146100985780631d31e517146100c3578063325a19f11461011a578063370158ea146101455780636dc9869b146101d55780638bdcbc9514610200578063a93f6ec214610290578063af640d0f146102e7578063f6d713dd1461033e575b600080fd5b3480156100a457600080fd5b506100ad6103ce565b6040518082815260200191505060405180910390f35b3480156100cf57600080fd5b506100d86103d4565b604051808273ffffffffffffffffffffffffffffffffffffffff1673ffffffffffffffffffffffffffffffffffffffff16815260200191505060405180910390f35b34801561012657600080fd5b5061012f6103fa565b6040518082815260200191505060405180910390f35b34801561015157600080fd5b5061015a610400565b6040518080602001828103825283818151815260200191508051906020019080838360005b8381101561019a57808201518184015260208101905061017f565b50505050905090810190601f1680156101c75780820380516001836020036101000a031916815260200191505b509250505060405180910390f35b3480156101e157600080fd5b506101ea61049e565b6040518082815260200191505060405180910390f35b34801561020c57600080fd5b506102156104a4565b6040518080602001828103825283818151815260200191508051906020019080838360005b8381101561025557808201518184015260208101905061023a565b50505050905090810190601f1680156102825780820380516001836020036101000a031916815260200191505b509250505060405180910390f35b34801561029c57600080fd5b506102a5610542565b604051808273ffffffffffffffffffffffffffffffffffffffff1673ffffffffffffffffffffffffffffffffffffffff16815260200191505060405180910390f35b3480156102f357600080fd5b506102fc610568565b604051808273ffffffffffffffffffffffffffffffffffffffff1673ffffffffffffffffffffffffffffffffffffffff16815260200191505060405180910390f35b34801561034a57600080fd5b5061035361058d565b6040518080602001828103825283818151815260200191508051906020019080838360005b83811015610393578082015181840152602081019050610378565b50505050905090810190601f1680156103c05780820380516001836020036101000a031916815260200191505b509250505060405180910390f35b60095481565b600460009054906101000a900473ffffffffffffffffffffffffffffffffffffffff1681565b60065481565b60038054600181600116156101000203166002900480601f0160208091040260200160405190810160405280929190818152602001828054600181600116156101000203166002900480156104965780601f1061046b57610100808354040283529160200191610496565b820191906000526020600020905b81548152906001019060200180831161047957829003601f168201915b505050505081565b60075481565b60088054600181600116156101000203166002900480601f01602080910402602001604051908101604052809291908181526020018280546001816001161561010002031660029004801561053a5780601f1061050f5761010080835404028352916020019161053a565b820191906000526020600020905b81548152906001019060200180831161051d57829003601f168201915b505050505081565b600560009054906101000a900473ffffffffffffffffffffffffffffffffffffffff1681565b6000809054906101000a900473ffffffffffffffffffffffffffffffffffffffff1681565b60028054600181600116156101000203166002900480601f0160208091040260200160405190810160405280929190818152602001828054600181600116156101000203166002900480156106235780601f106105f857610100808354040283529160200191610623565b820191906000526020600020905b81548152906001019060200180831161060657829003601f168201915b50505050508156fea165627a7a72305820432af6e8893259160b2fee96f22cb2ed090887520bed154ed5bcc8804f362e300029a165627a7a723058209d7225590a4575e894390e1b879aeb36e5f54be00625c877e2b6dbac73db553d0029",
  "source": "pragma solidity ^0.5.1;\n\nimport \"./Main.sol\";\nimport \"./Item.sol\";\nimport \"./Organization.sol\";\n\n\n\ncontract Manufacturer is Organization {\n    Main main;\n\n    address private ownerID;\n\n    address[] public vendors;\n    address[] public serviceCenters;\n    address[] public pendingItems;\n\n    mapping (address => bool) isInVendors;\n    mapping (address => bool) isInServiceCenters;\n    mapping (address => bool) isPendingItem;\n\n\n\n    constructor (address _ownerID, string memory _name, string memory _physicalAddress, string memory _registrationNumber) public {\n        main = Main(msg.sender);\n        ownerID = _ownerID;\n        name = _name;\n        physicalAddress = _physicalAddress;\n        registrationNumber = _registrationNumber;\n    }\n\n\n\n// Public\n\n\n\n    function createItem (string memory _serial, string memory _info, uint _warrantyPeriod, string memory _warrantyTerms) onlyOwner public returns (address) {\n        Item newItem = new Item(_serial, _info, _warrantyPeriod, _warrantyTerms);\n        _addPendingItem(address(newItem));\n        return (address(newItem));\n    }\n\n\n\n// Internal\n\n\n\n    function _addPartnerMethod (address pID) internal {\n        Main.ContractType pType = main.getContractType(pID);\n        require((pType == Main.ContractType.VENDOR) || (pType == Main.ContractType.SERVICE_CENTER), \"Wrong contract type\");\n\n        if (pType == Main.ContractType.VENDOR) { _addVendor(pID); }\n        else if (pType == Main.ContractType.SERVICE_CENTER) { _addServiceCenter(pID); }\n    }\n\n    function _removePartnerMethod (address pID) internal {\n        Main.ContractType pType = main.getContractType(pID);\n        require((pType == Main.ContractType.VENDOR) || (pType == Main.ContractType.SERVICE_CENTER), \"Wrong contract type\");\n\n        if (pType == Main.ContractType.VENDOR) { _removeVendor(pID); }\n        else if (pType == Main.ContractType.SERVICE_CENTER) { _removeServiceCenter(pID); }\n    }\n\n    function _sendPartnershipRequest (address pID) internal {\n        Main.ContractType pType = main.getContractType(pID);\n        require((pType == Main.ContractType.VENDOR) || (pType == Main.ContractType.SERVICE_CENTER), \"Wrong contract type\");\n\n        Organization oInstance = Organization(pID);\n        oInstance.receivePartnershipRequest();\n    }\n\n    function _sendPartnershipDecline (address pID) internal {\n        Main.ContractType pType = main.getContractType(pID);\n        require((pType == Main.ContractType.VENDOR) || (pType == Main.ContractType.SERVICE_CENTER), \"Wrong contract type\");\n\n        Organization oInstance = Organization(pID);\n        oInstance.receivePartnershipDecline();\n    }\n\n    function _sendPartnershipRevert (address pID) internal {\n        Main.ContractType pType = main.getContractType(pID);\n        require((pType == Main.ContractType.VENDOR) || (pType == Main.ContractType.SERVICE_CENTER), \"Wrong contract type\");\n\n        Organization oInstance = Organization(pID);\n        oInstance.receivePartnershipRevert();\n    }\n\n    function _sendPartnershipCancel (address pID) internal {\n        Main.ContractType pType = main.getContractType(pID);\n        require((pType == Main.ContractType.VENDOR) || (pType == Main.ContractType.SERVICE_CENTER), \"Wrong contract type\");\n\n        Organization oInstance = Organization(pID);\n        oInstance.cancelPartnership(id);\n    }\n\n    function _addPendingItem (address iID) internal { _addTo(pendingItems, isPendingItem, iID); }\n    function _removePendingItem (address iID) internal { _removeFrom(pendingItems, isPendingItem, iID); }\n\n    function _addVendor (address vID) internal { _addTo(vendors, isInVendors, vID); }\n    function _removeVendor (address vID) internal { _removeFrom(vendors, isInVendors, vID); }\n\n    function _addServiceCenter (address scID) internal { _addTo(serviceCenters, isInServiceCenters, scID); }\n    function _removeServiceCenter (address scID) internal { _removeFrom(serviceCenters, isInServiceCenters, scID); }\n\n\n\n// Modifiers\n\n\n\n    modifier onlyOwner {\n        require(msg.sender == ownerID, \"Only owner can call this function\");\n        _;\n    }\n\n    modifier onlyOwnerOrPartner {\n        require(((msg.sender == ownerID) || (isInPartnership[msg.sender] == true)), \"Only owner or partner can call this function\");\n        _;\n    }\n}\n",
  "sourcePath": "/Users/viktorgronskiy/Documents/Projects/Fun/GuarantSystem/blockchain/Manufacturer.sol",
  "compiler": {
    "name": "solc",
    "version": "0.5.1+commit.c8a2cb62.Emscripten.clang"
  },
  "schemaVersion": "3.0.1",
  "updatedAt": "2019-01-30T16:15:40.761Z",
  "devdoc": {
    "methods": {}
  },
  "userdoc": {
    "methods": {}
  }
}