{
  "contractName": "Organization",
  "abi": [
    {
      "constant": true,
      "inputs": [],
      "name": "name",
      "outputs": [
        {
          "name": "",
          "type": "string"
        }
      ],
      "payable": false,
      "stateMutability": "view",
      "type": "function"
    },
    {
      "constant": true,
      "inputs": [],
      "name": "physicalAddress",
      "outputs": [
        {
          "name": "",
          "type": "string"
        }
      ],
      "payable": false,
      "stateMutability": "view",
      "type": "function"
    },
    {
      "constant": true,
      "inputs": [
        {
          "name": "",
          "type": "uint256"
        }
      ],
      "name": "receivedPartnerships",
      "outputs": [
        {
          "name": "",
          "type": "address"
        }
      ],
      "payable": false,
      "stateMutability": "view",
      "type": "function"
    },
    {
      "constant": true,
      "inputs": [
        {
          "name": "",
          "type": "uint256"
        }
      ],
      "name": "requestedPartnerships",
      "outputs": [
        {
          "name": "",
          "type": "address"
        }
      ],
      "payable": false,
      "stateMutability": "view",
      "type": "function"
    },
    {
      "constant": true,
      "inputs": [],
      "name": "id",
      "outputs": [
        {
          "name": "",
          "type": "address"
        }
      ],
      "payable": false,
      "stateMutability": "view",
      "type": "function"
    },
    {
      "constant": true,
      "inputs": [],
      "name": "registrationNumber",
      "outputs": [
        {
          "name": "",
          "type": "string"
        }
      ],
      "payable": false,
      "stateMutability": "view",
      "type": "function"
    },
    {
      "constant": false,
      "inputs": [
        {
          "name": "pID",
          "type": "address"
        }
      ],
      "name": "requestPartnership",
      "outputs": [],
      "payable": false,
      "stateMutability": "nonpayable",
      "type": "function"
    },
    {
      "constant": false,
      "inputs": [
        {
          "name": "pID",
          "type": "address"
        }
      ],
      "name": "acceptPartnership",
      "outputs": [],
      "payable": false,
      "stateMutability": "nonpayable",
      "type": "function"
    },
    {
      "constant": false,
      "inputs": [
        {
          "name": "pID",
          "type": "address"
        }
      ],
      "name": "declinePartnership",
      "outputs": [],
      "payable": false,
      "stateMutability": "nonpayable",
      "type": "function"
    },
    {
      "constant": false,
      "inputs": [
        {
          "name": "pID",
          "type": "address"
        }
      ],
      "name": "revertPartnership",
      "outputs": [],
      "payable": false,
      "stateMutability": "nonpayable",
      "type": "function"
    },
    {
      "constant": false,
      "inputs": [
        {
          "name": "pID",
          "type": "address"
        }
      ],
      "name": "cancelPartnership",
      "outputs": [],
      "payable": false,
      "stateMutability": "nonpayable",
      "type": "function"
    },
    {
      "constant": false,
      "inputs": [],
      "name": "receivePartnershipRequest",
      "outputs": [],
      "payable": false,
      "stateMutability": "nonpayable",
      "type": "function"
    },
    {
      "constant": false,
      "inputs": [],
      "name": "receivePartnershipDecline",
      "outputs": [],
      "payable": false,
      "stateMutability": "nonpayable",
      "type": "function"
    },
    {
      "constant": false,
      "inputs": [],
      "name": "receivePartnershipRevert",
      "outputs": [],
      "payable": false,
      "stateMutability": "nonpayable",
      "type": "function"
    }
  ],
  "bytecode": "0x6080604052306000806101000a81548173ffffffffffffffffffffffffffffffffffffffff021916908373ffffffffffffffffffffffffffffffffffffffff16021790555034801561005057600080fd5b50611e26806100606000396000f3fe6080604052600436106100ca576000357c01000000000000000000000000000000000000000000000000000000009004806306fdde03146100cf57806340868fff1461015f5780634f614ffc146101ef5780635606492514610206578063569be9b8146102575780637aa29a26146102d2578063867a524014610323578063a1d688801461039e578063af640d0f146103b5578063b2a1a40a1461040c578063c937cf371461049c578063e0726b0a146104ed578063eaf7c97a14610504578063fbfca3c614610555575b600080fd5b3480156100db57600080fd5b506100e46105a6565b6040518080602001828103825283818151815260200191508051906020019080838360005b83811015610124578082015181840152602081019050610109565b50505050905090810190601f1680156101515780820380516001836020036101000a031916815260200191505b509250505060405180910390f35b34801561016b57600080fd5b50610174610644565b6040518080602001828103825283818151815260200191508051906020019080838360005b838110156101b4578082015181840152602081019050610199565b50505050905090810190601f1680156101e15780820380516001836020036101000a031916815260200191505b509250505060405180910390f35b3480156101fb57600080fd5b506102046106e2565b005b34801561021257600080fd5b506102556004803603602081101561022957600080fd5b81019080803573ffffffffffffffffffffffffffffffffffffffff169060200190929190505050610852565b005b34801561026357600080fd5b506102906004803603602081101561027a57600080fd5b8101908080359060200190929190505050610b70565b604051808273ffffffffffffffffffffffffffffffffffffffff1673ffffffffffffffffffffffffffffffffffffffff16815260200191505060405180910390f35b3480156102de57600080fd5b50610321600480360360208110156102f557600080fd5b81019080803573ffffffffffffffffffffffffffffffffffffffff169060200190929190505050610bae565b005b34801561032f57600080fd5b5061035c6004803603602081101561034657600080fd5b8101908080359060200190929190505050610d7f565b604051808273ffffffffffffffffffffffffffffffffffffffff1673ffffffffffffffffffffffffffffffffffffffff16815260200191505060405180910390f35b3480156103aa57600080fd5b506103b3610dbd565b005b3480156103c157600080fd5b506103ca610ebc565b604051808273ffffffffffffffffffffffffffffffffffffffff1673ffffffffffffffffffffffffffffffffffffffff16815260200191505060405180910390f35b34801561041857600080fd5b50610421610ee1565b6040518080602001828103825283818151815260200191508051906020019080838360005b83811015610461578082015181840152602081019050610446565b50505050905090810190601f16801561048e5780820380516001836020036101000a031916815260200191505b509250505060405180910390f35b3480156104a857600080fd5b506104eb600480360360208110156104bf57600080fd5b81019080803573ffffffffffffffffffffffffffffffffffffffff169060200190929190505050610f7f565b005b3480156104f957600080fd5b5061050261116d565b005b34801561051057600080fd5b506105536004803603602081101561052757600080fd5b81019080803573ffffffffffffffffffffffffffffffffffffffff16906020019092919050505061126c565b005b34801561056157600080fd5b506105a46004803603602081101561057857600080fd5b81019080803573ffffffffffffffffffffffffffffffffffffffff169060200190929190505050611434565b005b60028054600181600116156101000203166002900480601f01602080910402602001604051908101604052809291908181526020018280546001816001161561010002031660029004801561063c5780601f106106115761010080835404028352916020019161063c565b820191906000526020600020905b81548152906001019060200180831161061f57829003601f168201915b505050505081565b60038054600181600116156101000203166002900480601f0160208091040260200160405190810160405280929190818152602001828054600181600116156101000203166002900480156106da5780601f106106af576101008083540402835291602001916106da565b820191906000526020600020905b8154815290600101906020018083116106bd57829003601f168201915b505050505081565b600033905060001515600860008373ffffffffffffffffffffffffffffffffffffffff1673ffffffffffffffffffffffffffffffffffffffff16815260200190815260200160002060009054906101000a900460ff1615151415156107d5576040517f08c379a00000000000000000000000000000000000000000000000000000000081526004018080602001828103825260268152602001807f506172746e6572736869702068617320616c7265616479206265656e2072657181526020017f756573746564000000000000000000000000000000000000000000000000000081525060400191505060405180910390fd5b60011515600960008373ffffffffffffffffffffffffffffffffffffffff1673ffffffffffffffffffffffffffffffffffffffff16815260200190815260200160002060009054906101000a900460ff161515141561084557610837816115fc565b61084081611660565b61084f565b61084e81611670565b5b50565b600160009054906101000a900473ffffffffffffffffffffffffffffffffffffffff1673ffffffffffffffffffffffffffffffffffffffff163373ffffffffffffffffffffffffffffffffffffffff1614806108fe575060011515600760003373ffffffffffffffffffffffffffffffffffffffff1673ffffffffffffffffffffffffffffffffffffffff16815260200190815260200160002060009054906101000a900460ff161515145b1515610998576040517f08c379a000000000000000000000000000000000000000000000000000000000815260040180806020018281038252602c8152602001807f4f6e6c79206f776e6572206f7220706172746e65722063616e2063616c6c207481526020017f6869732066756e6374696f6e000000000000000000000000000000000000000081525060400191505060405180910390fd5b600160009054906101000a900473ffffffffffffffffffffffffffffffffffffffff1673ffffffffffffffffffffffffffffffffffffffff163373ffffffffffffffffffffffffffffffffffffffff161480610a1f57508073ffffffffffffffffffffffffffffffffffffffff163373ffffffffffffffffffffffffffffffffffffffff16145b1515610a93576040517f08c379a00000000000000000000000000000000000000000000000000000000081526004018080602001828103825260168152602001807f4e6f7420656e6f756768207065726d697373696f6e730000000000000000000081525060200191505060405180910390fd5b60011515600760008373ffffffffffffffffffffffffffffffffffffffff1673ffffffffffffffffffffffffffffffffffffffff16815260200190815260200160002060009054906101000a900460ff161515141515610b5b576040517f08c379a000000000000000000000000000000000000000000000000000000000815260040180806020018281038252600f8152602001807f4e6f207375636820706172746e6572000000000000000000000000000000000081525060200191505060405180910390fd5b610b6481611680565b610b6d816116e4565b50565b600581815481101515610b7f57fe5b906000526020600020016000915054906101000a900473ffffffffffffffffffffffffffffffffffffffff1681565b600160009054906101000a900473ffffffffffffffffffffffffffffffffffffffff1673ffffffffffffffffffffffffffffffffffffffff163373ffffffffffffffffffffffffffffffffffffffff16141515610c99576040517f08c379a00000000000000000000000000000000000000000000000000000000081526004018080602001828103825260218152602001807f4f6e6c79206f776e65722063616e2063616c6c20746869732066756e6374696f81526020017f6e0000000000000000000000000000000000000000000000000000000000000081525060400191505060405180910390fd5b60011515600860008373ffffffffffffffffffffffffffffffffffffffff1673ffffffffffffffffffffffffffffffffffffffff16815260200190815260200160002060009054906101000a900460ff161515141515610d61576040517f08c379a000000000000000000000000000000000000000000000000000000000815260040180806020018281038252600f8152602001807f4e6f20737563682072657175657374000000000000000000000000000000000081525060200191505060405180910390fd5b610d6a816115fc565b610d73816117c1565b610d7c816117d1565b50565b600681815481101515610d8e57fe5b906000526020600020016000915054906101000a900473ffffffffffffffffffffffffffffffffffffffff1681565b600033905060011515600860008373ffffffffffffffffffffffffffffffffffffffff1673ffffffffffffffffffffffffffffffffffffffff16815260200190815260200160002060009054906101000a900460ff161515141515610eb0576040517f08c379a00000000000000000000000000000000000000000000000000000000081526004018080602001828103825260228152602001807f506172746e65727368697020686173206e6f74206265656e207265717565737481526020017f656400000000000000000000000000000000000000000000000000000000000081525060400191505060405180910390fd5b610eb9816117c1565b50565b6000809054906101000a900473ffffffffffffffffffffffffffffffffffffffff1681565b60048054600181600116156101000203166002900480601f016020809104026020016040519081016040528092919081815260200182805460018160011615610100020316600290048015610f775780601f10610f4c57610100808354040283529160200191610f77565b820191906000526020600020905b815481529060010190602001808311610f5a57829003601f168201915b505050505081565b600160009054906101000a900473ffffffffffffffffffffffffffffffffffffffff1673ffffffffffffffffffffffffffffffffffffffff163373ffffffffffffffffffffffffffffffffffffffff1614151561106a576040517f08c379a00000000000000000000000000000000000000000000000000000000081526004018080602001828103825260218152602001807f4f6e6c79206f776e65722063616e2063616c6c20746869732066756e6374696f81526020017f6e0000000000000000000000000000000000000000000000000000000000000081525060400191505060405180910390fd5b60001515600960008373ffffffffffffffffffffffffffffffffffffffff1673ffffffffffffffffffffffffffffffffffffffff16815260200190815260200160002060009054906101000a900460ff161515141515611158576040517f08c379a00000000000000000000000000000000000000000000000000000000081526004018080602001828103825260268152602001807f506172746e6572736869702068617320616c7265616479206265656e2072657181526020017f756573746564000000000000000000000000000000000000000000000000000081525060400191505060405180910390fd5b61116181611856565b61116a816117d1565b50565b600033905060011515600960008373ffffffffffffffffffffffffffffffffffffffff1673ffffffffffffffffffffffffffffffffffffffff16815260200190815260200160002060009054906101000a900460ff161515141515611260576040517f08c379a00000000000000000000000000000000000000000000000000000000081526004018080602001828103825260228152602001807f506172746e65727368697020686173206e6f74206265656e207265717565737481526020017f656400000000000000000000000000000000000000000000000000000000000081525060400191505060405180910390fd5b61126981611660565b50565b600160009054906101000a900473ffffffffffffffffffffffffffffffffffffffff1673ffffffffffffffffffffffffffffffffffffffff163373ffffffffffffffffffffffffffffffffffffffff16141515611357576040517f08c379a00000000000000000000000000000000000000000000000000000000081526004018080602001828103825260218152602001807f4f6e6c79206f776e65722063616e2063616c6c20746869732066756e6374696f81526020017f6e0000000000000000000000000000000000000000000000000000000000000081525060400191505060405180910390fd5b60011515600960008373ffffffffffffffffffffffffffffffffffffffff1673ffffffffffffffffffffffffffffffffffffffff16815260200190815260200160002060009054906101000a900460ff16151514151561141f576040517f08c379a000000000000000000000000000000000000000000000000000000000815260040180806020018281038252600f8152602001807f4e6f20737563682072657175657374000000000000000000000000000000000081525060200191505060405180910390fd5b61142881611660565b61143181611866565b50565b600160009054906101000a900473ffffffffffffffffffffffffffffffffffffffff1673ffffffffffffffffffffffffffffffffffffffff163373ffffffffffffffffffffffffffffffffffffffff1614151561151f576040517f08c379a00000000000000000000000000000000000000000000000000000000081526004018080602001828103825260218152602001807f4f6e6c79206f776e65722063616e2063616c6c20746869732066756e6374696f81526020017f6e0000000000000000000000000000000000000000000000000000000000000081525060400191505060405180910390fd5b60011515600860008373ffffffffffffffffffffffffffffffffffffffff1673ffffffffffffffffffffffffffffffffffffffff16815260200190815260200160002060009054906101000a900460ff1615151415156115e7576040517f08c379a000000000000000000000000000000000000000000000000000000000815260040180806020018281038252600f8152602001807f4e6f20737563682072657175657374000000000000000000000000000000000081525060200191505060405180910390fd5b6115f0816117c1565b6115f9816118eb565b50565b6001600760008373ffffffffffffffffffffffffffffffffffffffff1673ffffffffffffffffffffffffffffffffffffffff16815260200190815260200160002060006101000a81548160ff02191690831515021790555061165d81611970565b50565b61166d6006600983611973565b50565b61167d6005600883611aa0565b50565b6000600760008373ffffffffffffffffffffffffffffffffffffffff1673ffffffffffffffffffffffffffffffffffffffff16815260200190815260200160002060006101000a81548160ff0219169083151502179055506116e181611c28565b50565b60008190508073ffffffffffffffffffffffffffffffffffffffff1663560649256000809054906101000a900473ffffffffffffffffffffffffffffffffffffffff166040518263ffffffff167c0100000000000000000000000000000000000000000000000000000000028152600401808273ffffffffffffffffffffffffffffffffffffffff1673ffffffffffffffffffffffffffffffffffffffff168152602001915050600060405180830381600087803b1580156117a557600080fd5b505af11580156117b9573d6000803e3d6000fd5b505050505050565b6117ce6005600883611973565b50565b60008190508073ffffffffffffffffffffffffffffffffffffffff16634f614ffc6040518163ffffffff167c0100000000000000000000000000000000000000000000000000000000028152600401600060405180830381600087803b15801561183a57600080fd5b505af115801561184e573d6000803e3d6000fd5b505050505050565b6118636006600983611aa0565b50565b60008190508073ffffffffffffffffffffffffffffffffffffffff1663a1d688806040518163ffffffff167c0100000000000000000000000000000000000000000000000000000000028152600401600060405180830381600087803b1580156118cf57600080fd5b505af11580156118e3573d6000803e3d6000fd5b505050505050565b60008190508073ffffffffffffffffffffffffffffffffffffffff1663e0726b0a6040518163ffffffff167c0100000000000000000000000000000000000000000000000000000000028152600401600060405180830381600087803b15801561195457600080fd5b505af1158015611968573d6000803e3d6000fd5b505050505050565b50565b600115158260008373ffffffffffffffffffffffffffffffffffffffff1673ffffffffffffffffffffffffffffffffffffffff16815260200190815260200160002060009054906101000a900460ff161515141515611a3a576040517f08c379a00000000000000000000000000000000000000000000000000000000081526004018080602001828103825260098152602001807f4e6f7420666f756e64000000000000000000000000000000000000000000000081525060200191505060405180910390fd5b611a448382611c2b565b60008260008373ffffffffffffffffffffffffffffffffffffffff1673ffffffffffffffffffffffffffffffffffffffff16815260200190815260200160002060006101000a81548160ff021916908315150217905550505050565b600015158260008373ffffffffffffffffffffffffffffffffffffffff1673ffffffffffffffffffffffffffffffffffffffff16815260200190815260200160002060009054906101000a900460ff161515141515611b67576040517f08c379a000000000000000000000000000000000000000000000000000000000815260040180806020018281038252600e8152602001807f416c72656164792065786973747300000000000000000000000000000000000081525060200191505060405180910390fd5b828190806001815401808255809150509060018203906000526020600020016000909192909190916101000a81548173ffffffffffffffffffffffffffffffffffffffff021916908373ffffffffffffffffffffffffffffffffffffffff1602179055505060018260008373ffffffffffffffffffffffffffffffffffffffff1673ffffffffffffffffffffffffffffffffffffffff16815260200190815260200160002060006101000a81548160ff021916908315150217905550505050565b50565b60008090505b8280549050811015611da4578173ffffffffffffffffffffffffffffffffffffffff168382815481101515611c6257fe5b9060005260206000200160009054906101000a900473ffffffffffffffffffffffffffffffffffffffff1673ffffffffffffffffffffffffffffffffffffffff161415611d9757826001848054905003815481101515611cbe57fe5b9060005260206000200160009054906101000a900473ffffffffffffffffffffffffffffffffffffffff168382815481101515611cf757fe5b9060005260206000200160006101000a81548173ffffffffffffffffffffffffffffffffffffffff021916908373ffffffffffffffffffffffffffffffffffffffff160217905550826001848054905003815481101515611d5457fe5b9060005260206000200160006101000a81549073ffffffffffffffffffffffffffffffffffffffff021916905582805480919060019003611d959190611da9565b505b8080600101915050611c31565b505050565b815481835581811115611dd057818360005260206000209182019101611dcf9190611dd5565b5b505050565b611df791905b80821115611df3576000816000905550600101611ddb565b5090565b9056fea165627a7a723058203863a094eff3c02b6ad7bd55dfaf8e891760a365ace3936166a415a780798ae80029",
  "source": "pragma solidity ^0.5.1;\n\n\n\ncontract Organization {\n    address public id = address(this);\n    address private ownerID;\n    string public name;\n    string public physicalAddress;\n    string public registrationNumber;\n\n    address[] public receivedPartnerships;\n    address[] public requestedPartnerships;\n\n    mapping (address => bool) isInPartnership;\n    mapping (address => bool) isReceivedPartnership;\n    mapping (address => bool) isRequestedPartnership;\n\n\n\n// Public\n\n\n\n    function requestPartnership (address pID) onlyOwner public {\n        require(isRequestedPartnership[pID] == false, \"Partnership has already been requested\");\n\n        _addRequestedPartnership(pID);\n        _sendPartnershipRequest(pID);\n    }\n\n    function acceptPartnership (address pID) onlyOwner public {\n        require(isReceivedPartnership[pID] == true, \"No such request\");\n        _addPartner(pID);\n        _removeReceivedPartnership(pID);\n        _sendPartnershipRequest(pID);\n    }\n\n    function declinePartnership (address pID) onlyOwner public {\n        require(isReceivedPartnership[pID] == true, \"No such request\");\n        _removeReceivedPartnership(pID);\n        _sendPartnershipDecline(pID);\n    }\n\n    function revertPartnership (address pID) onlyOwner public {\n        require(isRequestedPartnership[pID] == true, \"No such request\");\n        _removeRequestedPartnership(pID);\n        _sendPartnershipRevert(pID);\n    }\n\n\n    function cancelPartnership (address pID) onlyOwnerOrPartner public {\n        require(((msg.sender == ownerID) || (msg.sender == pID)), \"Not enough permissions\");\n        require(isInPartnership[pID] == true, \"No such partner\");\n\n        _removePartner(pID);\n\n        _sendPartnershipCancel(pID);\n    }\n\n    function receivePartnershipRequest () public {\n        address pID = msg.sender;\n        require(isReceivedPartnership[pID] == false, \"Partnership has already been requested\");\n\n        if (isRequestedPartnership[pID] == true) {\n            _addPartner(pID);\n            _removeRequestedPartnership(pID);\n        } else {\n            _addReceivedPartnership(pID);\n        }\n    }\n\n    function receivePartnershipDecline () public {\n        address pID = msg.sender;\n        require(isRequestedPartnership[pID] == true, \"Partnership has not been requested\");\n\n        _removeRequestedPartnership(pID);\n    }\n\n    function receivePartnershipRevert () public {\n        address pID = msg.sender;\n        require(isReceivedPartnership[pID] == true, \"Partnership has not been requested\");\n\n        _removeReceivedPartnership(pID);\n    }\n\n\n\n// Internal\n\n\n    function _addPartnerMethod (address pID) internal {}\n    function _removePartnerMethod (address pID) internal {}\n\n    function _addPartner (address pID) internal {\n        isInPartnership[pID] = true;\n        _addPartnerMethod(pID);\n    }\n\n    function _removePartner (address pID) internal {\n        isInPartnership[pID] = false;\n        _removePartnerMethod(pID);\n    }\n\n    function _sendPartnershipRequest (address pID) internal {\n        Organization oInstance = Organization(pID);\n        oInstance.receivePartnershipRequest();\n    }\n\n    function _sendPartnershipDecline (address pID) internal {\n        Organization oInstance = Organization(pID);\n        oInstance.receivePartnershipDecline();\n    }\n\n    function _sendPartnershipRevert (address pID) internal {\n        Organization oInstance = Organization(pID);\n        oInstance.receivePartnershipRevert();\n    }\n\n    function _sendPartnershipCancel (address pID) internal {\n        Organization oInstance = Organization(pID);\n        oInstance.cancelPartnership(id);\n    }\n\n    function _addRequestedPartnership (address pID) internal { _addTo(requestedPartnerships, isRequestedPartnership, pID); }\n    function _removeRequestedPartnership (address pID) internal { _removeFrom(requestedPartnerships, isRequestedPartnership, pID); }\n\n    function _addReceivedPartnership (address pID) internal { _addTo(receivedPartnerships, isReceivedPartnership, pID); }\n    function _removeReceivedPartnership (address pID) internal { _removeFrom(receivedPartnerships, isReceivedPartnership, pID); }\n\n    function _addTo (address[] storage array, mapping (address => bool) storage map, address aID) internal {\n        require(map[aID] == false, \"Already exists\");\n\n        array.push(aID);\n        map[aID] = true;\n    }\n\n    function _removeFrom (address[] storage array, mapping (address => bool) storage map, address aID) internal {\n        require(map[aID] == true, \"Not found\");\n\n        _removeFromAddressArray(array, aID);\n        map[aID] = false;\n    }\n\n    function _removeFromAddressArray (address[] storage array, address value) internal {\n        for (uint i = 0; i < array.length; i++) {\n            if (array[i] == value) {\n              array[i] = array[array.length - 1];\n              delete array[array.length - 1];\n              array.length--;\n            }\n        }\n    }\n\n\n\n// Modifiers\n\n\n\n    modifier onlyOwner {\n        require(msg.sender == ownerID, \"Only owner can call this function\");\n        _;\n    }\n\n    modifier onlyOwnerOrPartner {\n        require(((msg.sender == ownerID) || (isInPartnership[msg.sender] == true)), \"Only owner or partner can call this function\");\n        _;\n    }\n}\n\n",
  "sourcePath": "/Users/viktorgronskiy/Documents/Projects/Fun/GuarantSystem/blockchain/Organization.sol",
  "compiler": {
    "name": "solc",
    "version": "0.5.1+commit.c8a2cb62.Emscripten.clang"
  },
  "schemaVersion": "3.0.1",
  "updatedAt": "2019-01-30T16:15:40.718Z",
  "devdoc": {
    "methods": {}
  },
  "userdoc": {
    "methods": {}
  }
}