{
  "contractName": "Organization",
  "abi": [
    {
      "constant": true,
      "inputs": [],
      "name": "name",
      "outputs": [
        {
          "name": "",
          "type": "string"
        }
      ],
      "payable": false,
      "stateMutability": "view",
      "type": "function"
    },
    {
      "constant": true,
      "inputs": [],
      "name": "physicalAddress",
      "outputs": [
        {
          "name": "",
          "type": "string"
        }
      ],
      "payable": false,
      "stateMutability": "view",
      "type": "function"
    },
    {
      "constant": true,
      "inputs": [
        {
          "name": "",
          "type": "uint256"
        }
      ],
      "name": "receivedPartnerships",
      "outputs": [
        {
          "name": "",
          "type": "address"
        }
      ],
      "payable": false,
      "stateMutability": "view",
      "type": "function"
    },
    {
      "constant": true,
      "inputs": [
        {
          "name": "",
          "type": "uint256"
        }
      ],
      "name": "requestedPartnerships",
      "outputs": [
        {
          "name": "",
          "type": "address"
        }
      ],
      "payable": false,
      "stateMutability": "view",
      "type": "function"
    },
    {
      "constant": true,
      "inputs": [],
      "name": "id",
      "outputs": [
        {
          "name": "",
          "type": "address"
        }
      ],
      "payable": false,
      "stateMutability": "view",
      "type": "function"
    },
    {
      "constant": true,
      "inputs": [],
      "name": "registrationNumber",
      "outputs": [
        {
          "name": "",
          "type": "string"
        }
      ],
      "payable": false,
      "stateMutability": "view",
      "type": "function"
    },
    {
      "constant": true,
      "inputs": [],
      "name": "main",
      "outputs": [
        {
          "name": "",
          "type": "address"
        }
      ],
      "payable": false,
      "stateMutability": "view",
      "type": "function"
    },
    {
      "constant": false,
      "inputs": [
        {
          "name": "pID",
          "type": "address"
        }
      ],
      "name": "requestPartnership",
      "outputs": [],
      "payable": false,
      "stateMutability": "nonpayable",
      "type": "function"
    },
    {
      "constant": false,
      "inputs": [
        {
          "name": "pID",
          "type": "address"
        }
      ],
      "name": "acceptPartnership",
      "outputs": [],
      "payable": false,
      "stateMutability": "nonpayable",
      "type": "function"
    },
    {
      "constant": false,
      "inputs": [
        {
          "name": "pID",
          "type": "address"
        }
      ],
      "name": "declinePartnership",
      "outputs": [],
      "payable": false,
      "stateMutability": "nonpayable",
      "type": "function"
    },
    {
      "constant": false,
      "inputs": [
        {
          "name": "pID",
          "type": "address"
        }
      ],
      "name": "revertPartnership",
      "outputs": [],
      "payable": false,
      "stateMutability": "nonpayable",
      "type": "function"
    },
    {
      "constant": false,
      "inputs": [
        {
          "name": "pID",
          "type": "address"
        }
      ],
      "name": "cancelPartnership",
      "outputs": [],
      "payable": false,
      "stateMutability": "nonpayable",
      "type": "function"
    },
    {
      "constant": false,
      "inputs": [],
      "name": "receivePartnershipRequest",
      "outputs": [],
      "payable": false,
      "stateMutability": "nonpayable",
      "type": "function"
    },
    {
      "constant": false,
      "inputs": [],
      "name": "receivePartnershipDecline",
      "outputs": [],
      "payable": false,
      "stateMutability": "nonpayable",
      "type": "function"
    },
    {
      "constant": false,
      "inputs": [],
      "name": "receivePartnershipRevert",
      "outputs": [],
      "payable": false,
      "stateMutability": "nonpayable",
      "type": "function"
    },
    {
      "constant": false,
      "inputs": [],
      "name": "receivePartnershipCancel",
      "outputs": [],
      "payable": false,
      "stateMutability": "nonpayable",
      "type": "function"
    }
  ],
  "bytecode": "0x608060405230600160006101000a81548173ffffffffffffffffffffffffffffffffffffffff021916908373ffffffffffffffffffffffffffffffffffffffff16021790555034801561005157600080fd5b50611d4e806100616000396000f3fe6080604052600436106100e0576000357c01000000000000000000000000000000000000000000000000000000009004806306fdde03146100e557806340868fff146101755780634f614ffc14610205578063560649251461021c578063569be9b81461026d5780637aa29a26146102e8578063867a524014610339578063a1d68880146103b4578063af640d0f146103cb578063b08437fc14610422578063b2a1a40a14610439578063c937cf37146104c9578063dffeadd01461051a578063e0726b0a14610571578063eaf7c97a14610588578063fbfca3c6146105d9575b600080fd5b3480156100f157600080fd5b506100fa61062a565b6040518080602001828103825283818151815260200191508051906020019080838360005b8381101561013a57808201518184015260208101905061011f565b50505050905090810190601f1680156101675780820380516001836020036101000a031916815260200191505b509250505060405180910390f35b34801561018157600080fd5b5061018a6106c8565b6040518080602001828103825283818151815260200191508051906020019080838360005b838110156101ca5780820151818401526020810190506101af565b50505050905090810190601f1680156101f75780820380516001836020036101000a031916815260200191505b509250505060405180910390f35b34801561021157600080fd5b5061021a610766565b005b34801561022857600080fd5b5061026b6004803603602081101561023f57600080fd5b81019080803573ffffffffffffffffffffffffffffffffffffffff1690602001909291905050506108c9565b005b34801561027957600080fd5b506102a66004803603602081101561029057600080fd5b8101908080359060200190929190505050610a2e565b604051808273ffffffffffffffffffffffffffffffffffffffff1673ffffffffffffffffffffffffffffffffffffffff16815260200191505060405180910390f35b3480156102f457600080fd5b506103376004803603602081101561030b57600080fd5b81019080803573ffffffffffffffffffffffffffffffffffffffff169060200190929190505050610a6c565b005b34801561034557600080fd5b506103726004803603602081101561035c57600080fd5b8101908080359060200190929190505050610c36565b604051808273ffffffffffffffffffffffffffffffffffffffff1673ffffffffffffffffffffffffffffffffffffffff16815260200191505060405180910390f35b3480156103c057600080fd5b506103c9610c74565b005b3480156103d757600080fd5b506103e0610d6c565b604051808273ffffffffffffffffffffffffffffffffffffffff1673ffffffffffffffffffffffffffffffffffffffff16815260200191505060405180910390f35b34801561042e57600080fd5b50610437610d92565b005b34801561044557600080fd5b5061044e610e64565b6040518080602001828103825283818151815260200191508051906020019080838360005b8381101561048e578082015181840152602081019050610473565b50505050905090810190601f1680156104bb5780820380516001836020036101000a031916815260200191505b509250505060405180910390f35b3480156104d557600080fd5b50610518600480360360208110156104ec57600080fd5b81019080803573ffffffffffffffffffffffffffffffffffffffff169060200190929190505050610f02565b005b34801561052657600080fd5b5061052f6110ea565b604051808273ffffffffffffffffffffffffffffffffffffffff1673ffffffffffffffffffffffffffffffffffffffff16815260200191505060405180910390f35b34801561057d57600080fd5b5061058661110f565b005b34801561059457600080fd5b506105d7600480360360208110156105ab57600080fd5b81019080803573ffffffffffffffffffffffffffffffffffffffff169060200190929190505050611207565b005b3480156105e557600080fd5b50610628600480360360208110156105fc57600080fd5b81019080803573ffffffffffffffffffffffffffffffffffffffff1690602001909291905050506113c8565b005b60038054600181600116156101000203166002900480601f0160208091040260200160405190810160405280929190818152602001828054600181600116156101000203166002900480156106c05780601f10610695576101008083540402835291602001916106c0565b820191906000526020600020905b8154815290600101906020018083116106a357829003601f168201915b505050505081565b60048054600181600116156101000203166002900480601f01602080910402602001604051908101604052809291908181526020018280546001816001161561010002031660029004801561075e5780601f106107335761010080835404028352916020019161075e565b820191906000526020600020905b81548152906001019060200180831161074157829003601f168201915b505050505081565b6000339050600960008273ffffffffffffffffffffffffffffffffffffffff1673ffffffffffffffffffffffffffffffffffffffff16815260200190815260200160002060009054906101000a900460ff16151515610853576040517f08c379a00000000000000000000000000000000000000000000000000000000081526004018080602001828103825260268152602001807f506172746e6572736869702068617320616c7265616479206265656e2072657181526020017f756573746564000000000000000000000000000000000000000000000000000081525060400191505060405180910390fd5b600a60008273ffffffffffffffffffffffffffffffffffffffff1673ffffffffffffffffffffffffffffffffffffffff16815260200190815260200160002060009054906101000a900460ff16156108bc576108ae81611589565b6108b7816115ed565b6108c6565b6108c5816115fd565b5b50565b600260009054906101000a900473ffffffffffffffffffffffffffffffffffffffff1673ffffffffffffffffffffffffffffffffffffffff163373ffffffffffffffffffffffffffffffffffffffff1614806109a557508073ffffffffffffffffffffffffffffffffffffffff163373ffffffffffffffffffffffffffffffffffffffff161480156109a45750600860008273ffffffffffffffffffffffffffffffffffffffff1673ffffffffffffffffffffffffffffffffffffffff16815260200190815260200160002060009054906101000a900460ff165b5b1515610a19576040517f08c379a00000000000000000000000000000000000000000000000000000000081526004018080602001828103825260168152602001807f4e6f7420656e6f756768207065726d697373696f6e730000000000000000000081525060200191505060405180910390fd5b610a228161160d565b610a2b81611671565b50565b600681815481101515610a3d57fe5b906000526020600020016000915054906101000a900473ffffffffffffffffffffffffffffffffffffffff1681565b600260009054906101000a900473ffffffffffffffffffffffffffffffffffffffff1673ffffffffffffffffffffffffffffffffffffffff163373ffffffffffffffffffffffffffffffffffffffff16141515610b57576040517f08c379a00000000000000000000000000000000000000000000000000000000081526004018080602001828103825260218152602001807f4f6e6c79206f776e65722063616e2063616c6c20746869732066756e6374696f81526020017f6e0000000000000000000000000000000000000000000000000000000000000081525060400191505060405180910390fd5b600960008273ffffffffffffffffffffffffffffffffffffffff1673ffffffffffffffffffffffffffffffffffffffff16815260200190815260200160002060009054906101000a900460ff161515610c18576040517f08c379a000000000000000000000000000000000000000000000000000000000815260040180806020018281038252600f8152602001807f4e6f20737563682072657175657374000000000000000000000000000000000081525060200191505060405180910390fd5b610c2181611589565b610c2a816116f6565b610c3381611706565b50565b600781815481101515610c4557fe5b906000526020600020016000915054906101000a900473ffffffffffffffffffffffffffffffffffffffff1681565b6000339050600960008273ffffffffffffffffffffffffffffffffffffffff1673ffffffffffffffffffffffffffffffffffffffff16815260200190815260200160002060009054906101000a900460ff161515610d60576040517f08c379a00000000000000000000000000000000000000000000000000000000081526004018080602001828103825260228152602001807f506172746e65727368697020686173206e6f74206265656e207265717565737481526020017f656400000000000000000000000000000000000000000000000000000000000081525060400191505060405180910390fd5b610d69816116f6565b50565b600160009054906101000a900473ffffffffffffffffffffffffffffffffffffffff1681565b6000339050600860008273ffffffffffffffffffffffffffffffffffffffff1673ffffffffffffffffffffffffffffffffffffffff16815260200190815260200160002060009054906101000a900460ff161515610e58576040517f08c379a00000000000000000000000000000000000000000000000000000000081526004018080602001828103825260128152602001807f4e6f7420706172746e657265642077697468000000000000000000000000000081525060200191505060405180910390fd5b610e618161160d565b50565b60058054600181600116156101000203166002900480601f016020809104026020016040519081016040528092919081815260200182805460018160011615610100020316600290048015610efa5780601f10610ecf57610100808354040283529160200191610efa565b820191906000526020600020905b815481529060010190602001808311610edd57829003601f168201915b505050505081565b600260009054906101000a900473ffffffffffffffffffffffffffffffffffffffff1673ffffffffffffffffffffffffffffffffffffffff163373ffffffffffffffffffffffffffffffffffffffff16141515610fed576040517f08c379a00000000000000000000000000000000000000000000000000000000081526004018080602001828103825260218152602001807f4f6e6c79206f776e65722063616e2063616c6c20746869732066756e6374696f81526020017f6e0000000000000000000000000000000000000000000000000000000000000081525060400191505060405180910390fd5b600a60008273ffffffffffffffffffffffffffffffffffffffff1673ffffffffffffffffffffffffffffffffffffffff16815260200190815260200160002060009054906101000a900460ff161515156110d5576040517f08c379a00000000000000000000000000000000000000000000000000000000081526004018080602001828103825260268152602001807f506172746e6572736869702068617320616c7265616479206265656e2072657181526020017f756573746564000000000000000000000000000000000000000000000000000081525060400191505060405180910390fd5b6110de8161178b565b6110e781611706565b50565b6000809054906101000a900473ffffffffffffffffffffffffffffffffffffffff1681565b6000339050600a60008273ffffffffffffffffffffffffffffffffffffffff1673ffffffffffffffffffffffffffffffffffffffff16815260200190815260200160002060009054906101000a900460ff1615156111fb576040517f08c379a00000000000000000000000000000000000000000000000000000000081526004018080602001828103825260228152602001807f506172746e65727368697020686173206e6f74206265656e207265717565737481526020017f656400000000000000000000000000000000000000000000000000000000000081525060400191505060405180910390fd5b611204816115ed565b50565b600260009054906101000a900473ffffffffffffffffffffffffffffffffffffffff1673ffffffffffffffffffffffffffffffffffffffff163373ffffffffffffffffffffffffffffffffffffffff161415156112f2576040517f08c379a00000000000000000000000000000000000000000000000000000000081526004018080602001828103825260218152602001807f4f6e6c79206f776e65722063616e2063616c6c20746869732066756e6374696f81526020017f6e0000000000000000000000000000000000000000000000000000000000000081525060400191505060405180910390fd5b600a60008273ffffffffffffffffffffffffffffffffffffffff1673ffffffffffffffffffffffffffffffffffffffff16815260200190815260200160002060009054906101000a900460ff1615156113b3576040517f08c379a000000000000000000000000000000000000000000000000000000000815260040180806020018281038252600f8152602001807f4e6f20737563682072657175657374000000000000000000000000000000000081525060200191505060405180910390fd5b6113bc816115ed565b6113c58161179b565b50565b600260009054906101000a900473ffffffffffffffffffffffffffffffffffffffff1673ffffffffffffffffffffffffffffffffffffffff163373ffffffffffffffffffffffffffffffffffffffff161415156114b3576040517f08c379a00000000000000000000000000000000000000000000000000000000081526004018080602001828103825260218152602001807f4f6e6c79206f776e65722063616e2063616c6c20746869732066756e6374696f81526020017f6e0000000000000000000000000000000000000000000000000000000000000081525060400191505060405180910390fd5b600960008273ffffffffffffffffffffffffffffffffffffffff1673ffffffffffffffffffffffffffffffffffffffff16815260200190815260200160002060009054906101000a900460ff161515611574576040517f08c379a000000000000000000000000000000000000000000000000000000000815260040180806020018281038252600f8152602001807f4e6f20737563682072657175657374000000000000000000000000000000000081525060200191505060405180910390fd5b61157d816116f6565b61158681611820565b50565b6001600860008373ffffffffffffffffffffffffffffffffffffffff1673ffffffffffffffffffffffffffffffffffffffff16815260200190815260200160002060006101000a81548160ff0219169083151502179055506115ea816118a5565b50565b6115fa6007600a836118a8565b50565b61160a60066009836119ce565b50565b6000600860008373ffffffffffffffffffffffffffffffffffffffff1673ffffffffffffffffffffffffffffffffffffffff16815260200190815260200160002060006101000a81548160ff02191690831515021790555061166e81611b50565b50565b60008190508073ffffffffffffffffffffffffffffffffffffffff1663b08437fc6040518163ffffffff167c0100000000000000000000000000000000000000000000000000000000028152600401600060405180830381600087803b1580156116da57600080fd5b505af11580156116ee573d6000803e3d6000fd5b505050505050565b61170360066009836118a8565b50565b60008190508073ffffffffffffffffffffffffffffffffffffffff16634f614ffc6040518163ffffffff167c0100000000000000000000000000000000000000000000000000000000028152600401600060405180830381600087803b15801561176f57600080fd5b505af1158015611783573d6000803e3d6000fd5b505050505050565b6117986007600a836119ce565b50565b60008190508073ffffffffffffffffffffffffffffffffffffffff1663a1d688806040518163ffffffff167c0100000000000000000000000000000000000000000000000000000000028152600401600060405180830381600087803b15801561180457600080fd5b505af1158015611818573d6000803e3d6000fd5b505050505050565b60008190508073ffffffffffffffffffffffffffffffffffffffff1663e0726b0a6040518163ffffffff167c0100000000000000000000000000000000000000000000000000000000028152600401600060405180830381600087803b15801561188957600080fd5b505af115801561189d573d6000803e3d6000fd5b505050505050565b50565b8160008273ffffffffffffffffffffffffffffffffffffffff1673ffffffffffffffffffffffffffffffffffffffff16815260200190815260200160002060009054906101000a900460ff161515611968576040517f08c379a00000000000000000000000000000000000000000000000000000000081526004018080602001828103825260098152602001807f4e6f7420666f756e64000000000000000000000000000000000000000000000081525060200191505060405180910390fd5b6119728382611b53565b60008260008373ffffffffffffffffffffffffffffffffffffffff1673ffffffffffffffffffffffffffffffffffffffff16815260200190815260200160002060006101000a81548160ff021916908315150217905550505050565b8160008273ffffffffffffffffffffffffffffffffffffffff1673ffffffffffffffffffffffffffffffffffffffff16815260200190815260200160002060009054906101000a900460ff16151515611a8f576040517f08c379a000000000000000000000000000000000000000000000000000000000815260040180806020018281038252600e8152602001807f416c72656164792065786973747300000000000000000000000000000000000081525060200191505060405180910390fd5b828190806001815401808255809150509060018203906000526020600020016000909192909190916101000a81548173ffffffffffffffffffffffffffffffffffffffff021916908373ffffffffffffffffffffffffffffffffffffffff1602179055505060018260008373ffffffffffffffffffffffffffffffffffffffff1673ffffffffffffffffffffffffffffffffffffffff16815260200190815260200160002060006101000a81548160ff021916908315150217905550505050565b50565b60008090505b8280549050811015611ccc578173ffffffffffffffffffffffffffffffffffffffff168382815481101515611b8a57fe5b9060005260206000200160009054906101000a900473ffffffffffffffffffffffffffffffffffffffff1673ffffffffffffffffffffffffffffffffffffffff161415611cbf57826001848054905003815481101515611be657fe5b9060005260206000200160009054906101000a900473ffffffffffffffffffffffffffffffffffffffff168382815481101515611c1f57fe5b9060005260206000200160006101000a81548173ffffffffffffffffffffffffffffffffffffffff021916908373ffffffffffffffffffffffffffffffffffffffff160217905550826001848054905003815481101515611c7c57fe5b9060005260206000200160006101000a81549073ffffffffffffffffffffffffffffffffffffffff021916905582805480919060019003611cbd9190611cd1565b505b8080600101915050611b59565b505050565b815481835581811115611cf857818360005260206000209182019101611cf79190611cfd565b5b505050565b611d1f91905b80821115611d1b576000816000905550600101611d03565b5090565b9056fea165627a7a72305820ea73adc0a944c91703ef31d3fc1af94b33f30ee6081f4f9083babad163df1c2b0029",
  "source": "pragma solidity ^0.5.1;\n\nimport \"./Main.sol\";\n\ncontract Organization {\n    Main public main;\n\n    address public id = address(this);\n    address internal ownerID;\n\n    string public name;\n    string public physicalAddress;\n    string public registrationNumber;\n\n    address[] public receivedPartnerships;\n    address[] public requestedPartnerships;\n\n    mapping (address => bool) isInPartnership;\n    mapping (address => bool) isReceivedPartnership;\n    mapping (address => bool) isRequestedPartnership;\n\n\n\n// Public\n\n\n\n    function requestPartnership (address pID) onlyOwner public {\n        require(!isRequestedPartnership[pID], \"Partnership has already been requested\");\n\n        _addRequestedPartnership(pID);\n        _sendPartnershipRequest(pID);\n    }\n\n    function acceptPartnership (address pID) onlyOwner public {\n        require(isReceivedPartnership[pID], \"No such request\");\n        _addPartner(pID);\n        _removeReceivedPartnership(pID);\n        _sendPartnershipRequest(pID);\n    }\n\n    function declinePartnership (address pID) onlyOwner public {\n        require(isReceivedPartnership[pID], \"No such request\");\n        _removeReceivedPartnership(pID);\n        _sendPartnershipDecline(pID);\n    }\n\n    function revertPartnership (address pID) onlyOwner public {\n        require(isRequestedPartnership[pID], \"No such request\");\n        _removeRequestedPartnership(pID);\n        _sendPartnershipRevert(pID);\n    }\n\n\n    function cancelPartnership (address pID) public {\n        require(((msg.sender == ownerID) || ((msg.sender == pID) && isInPartnership[pID])), \"Not enough permissions\");\n\n        _removePartner(pID);\n        _sendPartnershipCancel(pID);\n    }\n\n    function receivePartnershipRequest () public {\n        address pID = msg.sender;\n        require(!isReceivedPartnership[pID], \"Partnership has already been requested\");\n\n        if (isRequestedPartnership[pID]) {\n            _addPartner(pID);\n            _removeRequestedPartnership(pID);\n        } else {\n            _addReceivedPartnership(pID);\n        }\n    }\n\n    function receivePartnershipDecline () public {\n        address pID = msg.sender;\n        require(isRequestedPartnership[pID], \"Partnership has not been requested\");\n\n        _removeRequestedPartnership(pID);\n    }\n\n    function receivePartnershipRevert () public {\n        address pID = msg.sender;\n        require(isReceivedPartnership[pID], \"Partnership has not been requested\");\n\n        _removeReceivedPartnership(pID);\n    }\n\n    function receivePartnershipCancel () public {\n        address pID = msg.sender;\n        require(isInPartnership[pID], \"Not partnered with\");\n\n        _removePartner(pID);\n    }\n\n\n\n// Internal\n\n\n\n    function _addPartnerMethod (address pID) internal {}\n    function _removePartnerMethod (address pID) internal {}\n\n    function _addPartner (address pID) internal {\n        isInPartnership[pID] = true;\n        _addPartnerMethod(pID);\n    }\n\n    function _removePartner (address pID) internal {\n        isInPartnership[pID] = false;\n        _removePartnerMethod(pID);\n    }\n\n    function _sendPartnershipRequest (address pID) internal {\n        Organization oInstance = Organization(pID);\n        oInstance.receivePartnershipRequest();\n    }\n\n    function _sendPartnershipDecline (address pID) internal {\n        Organization oInstance = Organization(pID);\n        oInstance.receivePartnershipDecline();\n    }\n\n    function _sendPartnershipRevert (address pID) internal {\n        Organization oInstance = Organization(pID);\n        oInstance.receivePartnershipRevert();\n    }\n\n    function _sendPartnershipCancel (address pID) internal {\n        Organization oInstance = Organization(pID);\n        oInstance.receivePartnershipCancel();\n    }\n\n    function _addRequestedPartnership (address pID) internal { _addTo(requestedPartnerships, isRequestedPartnership, pID); }\n    function _removeRequestedPartnership (address pID) internal { _removeFrom(requestedPartnerships, isRequestedPartnership, pID); }\n\n    function _addReceivedPartnership (address pID) internal { _addTo(receivedPartnerships, isReceivedPartnership, pID); }\n    function _removeReceivedPartnership (address pID) internal { _removeFrom(receivedPartnerships, isReceivedPartnership, pID); }\n\n    function _addTo (address[] storage array, mapping (address => bool) storage map, address aID) internal {\n        require(!map[aID], \"Already exists\");\n\n        array.push(aID);\n        map[aID] = true;\n    }\n\n    function _removeFrom (address[] storage array, mapping (address => bool) storage map, address aID) internal {\n        require(map[aID], \"Not found\");\n\n        _removeFromAddressArray(array, aID);\n        map[aID] = false;\n    }\n\n    function _removeFromAddressArray (address[] storage array, address value) internal {\n        for (uint i = 0; i < array.length; i++) {\n            if (array[i] == value) {\n              array[i] = array[array.length - 1];\n              delete array[array.length - 1];\n              array.length--;\n            }\n        }\n    }\n\n\n\n// Modifiers\n\n\n\n    modifier onlyOwner {\n        require(msg.sender == ownerID, \"Only owner can call this function\");\n        _;\n    }\n}\n\n",
  "sourcePath": "/Users/viktorgronskiy/Documents/Projects/Fun/GuarantSystem/blockchain/Organization.sol",
  "compiler": {
    "name": "solc",
    "version": "0.5.1+commit.c8a2cb62.Emscripten.clang"
  },
  "schemaVersion": "3.0.1",
  "updatedAt": "2019-01-31T12:54:06.670Z",
  "devdoc": {
    "methods": {}
  },
  "userdoc": {
    "methods": {}
  }
}