{
  "contractName": "ServiceCenter",
  "abi": [
    {
      "constant": true,
      "inputs": [],
      "name": "name",
      "outputs": [
        {
          "name": "",
          "type": "string"
        }
      ],
      "payable": false,
      "stateMutability": "view",
      "type": "function"
    },
    {
      "constant": true,
      "inputs": [],
      "name": "physicalAddress",
      "outputs": [
        {
          "name": "",
          "type": "string"
        }
      ],
      "payable": false,
      "stateMutability": "view",
      "type": "function"
    },
    {
      "constant": false,
      "inputs": [],
      "name": "receivePartnershipRequest",
      "outputs": [],
      "payable": false,
      "stateMutability": "nonpayable",
      "type": "function"
    },
    {
      "constant": false,
      "inputs": [
        {
          "name": "pID",
          "type": "address"
        }
      ],
      "name": "cancelPartnership",
      "outputs": [],
      "payable": false,
      "stateMutability": "nonpayable",
      "type": "function"
    },
    {
      "constant": true,
      "inputs": [
        {
          "name": "",
          "type": "uint256"
        }
      ],
      "name": "receivedPartnerships",
      "outputs": [
        {
          "name": "",
          "type": "address"
        }
      ],
      "payable": false,
      "stateMutability": "view",
      "type": "function"
    },
    {
      "constant": true,
      "inputs": [
        {
          "name": "",
          "type": "uint256"
        }
      ],
      "name": "pendingItems",
      "outputs": [
        {
          "name": "",
          "type": "address"
        }
      ],
      "payable": false,
      "stateMutability": "view",
      "type": "function"
    },
    {
      "constant": false,
      "inputs": [
        {
          "name": "pID",
          "type": "address"
        }
      ],
      "name": "acceptPartnership",
      "outputs": [],
      "payable": false,
      "stateMutability": "nonpayable",
      "type": "function"
    },
    {
      "constant": true,
      "inputs": [
        {
          "name": "",
          "type": "uint256"
        }
      ],
      "name": "requestedPartnerships",
      "outputs": [
        {
          "name": "",
          "type": "address"
        }
      ],
      "payable": false,
      "stateMutability": "view",
      "type": "function"
    },
    {
      "constant": true,
      "inputs": [
        {
          "name": "",
          "type": "uint256"
        }
      ],
      "name": "manufacturers",
      "outputs": [
        {
          "name": "",
          "type": "address"
        }
      ],
      "payable": false,
      "stateMutability": "view",
      "type": "function"
    },
    {
      "constant": false,
      "inputs": [],
      "name": "receivePartnershipRevert",
      "outputs": [],
      "payable": false,
      "stateMutability": "nonpayable",
      "type": "function"
    },
    {
      "constant": true,
      "inputs": [],
      "name": "id",
      "outputs": [
        {
          "name": "",
          "type": "address"
        }
      ],
      "payable": false,
      "stateMutability": "view",
      "type": "function"
    },
    {
      "constant": true,
      "inputs": [],
      "name": "registrationNumber",
      "outputs": [
        {
          "name": "",
          "type": "string"
        }
      ],
      "payable": false,
      "stateMutability": "view",
      "type": "function"
    },
    {
      "constant": false,
      "inputs": [
        {
          "name": "pID",
          "type": "address"
        }
      ],
      "name": "requestPartnership",
      "outputs": [],
      "payable": false,
      "stateMutability": "nonpayable",
      "type": "function"
    },
    {
      "constant": false,
      "inputs": [],
      "name": "receivePartnershipDecline",
      "outputs": [],
      "payable": false,
      "stateMutability": "nonpayable",
      "type": "function"
    },
    {
      "constant": false,
      "inputs": [
        {
          "name": "pID",
          "type": "address"
        }
      ],
      "name": "revertPartnership",
      "outputs": [],
      "payable": false,
      "stateMutability": "nonpayable",
      "type": "function"
    },
    {
      "constant": false,
      "inputs": [
        {
          "name": "pID",
          "type": "address"
        }
      ],
      "name": "declinePartnership",
      "outputs": [],
      "payable": false,
      "stateMutability": "nonpayable",
      "type": "function"
    },
    {
      "inputs": [
        {
          "name": "_ownerID",
          "type": "address"
        },
        {
          "name": "_name",
          "type": "string"
        },
        {
          "name": "_physicalAddress",
          "type": "string"
        },
        {
          "name": "_registrationNumber",
          "type": "string"
        }
      ],
      "payable": false,
      "stateMutability": "nonpayable",
      "type": "constructor"
    }
  ],
  "bytecode": "0x6080604052306000806101000a81548173ffffffffffffffffffffffffffffffffffffffff021916908373ffffffffffffffffffffffffffffffffffffffff1602179055503480156200005157600080fd5b5060405162002c2738038062002c27833981018060405260808110156200007757600080fd5b810190808051906020019092919080516401000000008111156200009a57600080fd5b82810190506020810184811115620000b157600080fd5b8151856001820283011164010000000082111715620000cf57600080fd5b50509291906020018051640100000000811115620000ec57600080fd5b828101905060208101848111156200010357600080fd5b81518560018202830111640100000000821117156200012157600080fd5b505092919060200180516401000000008111156200013e57600080fd5b828101905060208101848111156200015557600080fd5b81518560018202830111640100000000821117156200017357600080fd5b505092919050505033600a60006101000a81548173ffffffffffffffffffffffffffffffffffffffff021916908373ffffffffffffffffffffffffffffffffffffffff16021790555083600b60006101000a81548173ffffffffffffffffffffffffffffffffffffffff021916908373ffffffffffffffffffffffffffffffffffffffff16021790555082600290805190602001906200021592919062000252565b5081600390805190602001906200022e92919062000252565b5080600490805190602001906200024792919062000252565b505050505062000301565b828054600181600116156101000203166002900490600052602060002090601f016020900481019282601f106200029557805160ff1916838001178555620002c6565b82800160010185558215620002c6579182015b82811115620002c5578251825591602001919060010190620002a8565b5b509050620002d59190620002d9565b5090565b620002fe91905b80821115620002fa576000816000905550600101620002e0565b5090565b90565b61291680620003116000396000f3fe6080604052600436106100e0576000357c01000000000000000000000000000000000000000000000000000000009004806306fdde03146100e557806340868fff146101755780634f614ffc14610205578063560649251461021c578063569be9b81461026d57806379ac0477146102e85780637aa29a2614610363578063867a5240146103b457806390175af11461042f578063a1d68880146104aa578063af640d0f146104c1578063b2a1a40a14610518578063c937cf37146105a8578063e0726b0a146105f9578063eaf7c97a14610610578063fbfca3c614610661575b600080fd5b3480156100f157600080fd5b506100fa6106b2565b6040518080602001828103825283818151815260200191508051906020019080838360005b8381101561013a57808201518184015260208101905061011f565b50505050905090810190601f1680156101675780820380516001836020036101000a031916815260200191505b509250505060405180910390f35b34801561018157600080fd5b5061018a610750565b6040518080602001828103825283818151815260200191508051906020019080838360005b838110156101ca5780820151818401526020810190506101af565b50505050905090810190601f1680156101f75780820380516001836020036101000a031916815260200191505b509250505060405180910390f35b34801561021157600080fd5b5061021a6107ee565b005b34801561022857600080fd5b5061026b6004803603602081101561023f57600080fd5b81019080803573ffffffffffffffffffffffffffffffffffffffff16906020019092919050505061095e565b005b34801561027957600080fd5b506102a66004803603602081101561029057600080fd5b8101908080359060200190929190505050610c7c565b604051808273ffffffffffffffffffffffffffffffffffffffff1673ffffffffffffffffffffffffffffffffffffffff16815260200191505060405180910390f35b3480156102f457600080fd5b506103216004803603602081101561030b57600080fd5b8101908080359060200190929190505050610cba565b604051808273ffffffffffffffffffffffffffffffffffffffff1673ffffffffffffffffffffffffffffffffffffffff16815260200191505060405180910390f35b34801561036f57600080fd5b506103b26004803603602081101561038657600080fd5b81019080803573ffffffffffffffffffffffffffffffffffffffff169060200190929190505050610cf8565b005b3480156103c057600080fd5b506103ed600480360360208110156103d757600080fd5b8101908080359060200190929190505050610ec9565b604051808273ffffffffffffffffffffffffffffffffffffffff1673ffffffffffffffffffffffffffffffffffffffff16815260200191505060405180910390f35b34801561043b57600080fd5b506104686004803603602081101561045257600080fd5b8101908080359060200190929190505050610f07565b604051808273ffffffffffffffffffffffffffffffffffffffff1673ffffffffffffffffffffffffffffffffffffffff16815260200191505060405180910390f35b3480156104b657600080fd5b506104bf610f45565b005b3480156104cd57600080fd5b506104d6611044565b604051808273ffffffffffffffffffffffffffffffffffffffff1673ffffffffffffffffffffffffffffffffffffffff16815260200191505060405180910390f35b34801561052457600080fd5b5061052d611069565b6040518080602001828103825283818151815260200191508051906020019080838360005b8381101561056d578082015181840152602081019050610552565b50505050905090810190601f16801561059a5780820380516001836020036101000a031916815260200191505b509250505060405180910390f35b3480156105b457600080fd5b506105f7600480360360208110156105cb57600080fd5b81019080803573ffffffffffffffffffffffffffffffffffffffff169060200190929190505050611107565b005b34801561060557600080fd5b5061060e6112f5565b005b34801561061c57600080fd5b5061065f6004803603602081101561063357600080fd5b81019080803573ffffffffffffffffffffffffffffffffffffffff1690602001909291905050506113f4565b005b34801561066d57600080fd5b506106b06004803603602081101561068457600080fd5b81019080803573ffffffffffffffffffffffffffffffffffffffff1690602001909291905050506115bc565b005b60028054600181600116156101000203166002900480601f0160208091040260200160405190810160405280929190818152602001828054600181600116156101000203166002900480156107485780601f1061071d57610100808354040283529160200191610748565b820191906000526020600020905b81548152906001019060200180831161072b57829003601f168201915b505050505081565b60038054600181600116156101000203166002900480601f0160208091040260200160405190810160405280929190818152602001828054600181600116156101000203166002900480156107e65780601f106107bb576101008083540402835291602001916107e6565b820191906000526020600020905b8154815290600101906020018083116107c957829003601f168201915b505050505081565b600033905060001515600860008373ffffffffffffffffffffffffffffffffffffffff1673ffffffffffffffffffffffffffffffffffffffff16815260200190815260200160002060009054906101000a900460ff1615151415156108e1576040517f08c379a00000000000000000000000000000000000000000000000000000000081526004018080602001828103825260268152602001807f506172746e6572736869702068617320616c7265616479206265656e2072657181526020017f756573746564000000000000000000000000000000000000000000000000000081525060400191505060405180910390fd5b60011515600960008373ffffffffffffffffffffffffffffffffffffffff1673ffffffffffffffffffffffffffffffffffffffff16815260200190815260200160002060009054906101000a900460ff16151514156109515761094381611784565b61094c816117e8565b61095b565b61095a816117f8565b5b50565b600b60009054906101000a900473ffffffffffffffffffffffffffffffffffffffff1673ffffffffffffffffffffffffffffffffffffffff163373ffffffffffffffffffffffffffffffffffffffff161480610a0a575060011515600760003373ffffffffffffffffffffffffffffffffffffffff1673ffffffffffffffffffffffffffffffffffffffff16815260200190815260200160002060009054906101000a900460ff161515145b1515610aa4576040517f08c379a000000000000000000000000000000000000000000000000000000000815260040180806020018281038252602c8152602001807f4f6e6c79206f776e6572206f7220706172746e65722063616e2063616c6c207481526020017f6869732066756e6374696f6e000000000000000000000000000000000000000081525060400191505060405180910390fd5b600160009054906101000a900473ffffffffffffffffffffffffffffffffffffffff1673ffffffffffffffffffffffffffffffffffffffff163373ffffffffffffffffffffffffffffffffffffffff161480610b2b57508073ffffffffffffffffffffffffffffffffffffffff163373ffffffffffffffffffffffffffffffffffffffff16145b1515610b9f576040517f08c379a00000000000000000000000000000000000000000000000000000000081526004018080602001828103825260168152602001807f4e6f7420656e6f756768207065726d697373696f6e730000000000000000000081525060200191505060405180910390fd5b60011515600760008373ffffffffffffffffffffffffffffffffffffffff1673ffffffffffffffffffffffffffffffffffffffff16815260200190815260200160002060009054906101000a900460ff161515141515610c67576040517f08c379a000000000000000000000000000000000000000000000000000000000815260040180806020018281038252600f8152602001807f4e6f207375636820706172746e6572000000000000000000000000000000000081525060200191505060405180910390fd5b610c7081611808565b610c798161186c565b50565b600581815481101515610c8b57fe5b906000526020600020016000915054906101000a900473ffffffffffffffffffffffffffffffffffffffff1681565b600d81815481101515610cc957fe5b906000526020600020016000915054906101000a900473ffffffffffffffffffffffffffffffffffffffff1681565b600b60009054906101000a900473ffffffffffffffffffffffffffffffffffffffff1673ffffffffffffffffffffffffffffffffffffffff163373ffffffffffffffffffffffffffffffffffffffff16141515610de3576040517f08c379a00000000000000000000000000000000000000000000000000000000081526004018080602001828103825260218152602001807f4f6e6c79206f776e65722063616e2063616c6c20746869732066756e6374696f81526020017f6e0000000000000000000000000000000000000000000000000000000000000081525060400191505060405180910390fd5b60011515600860008373ffffffffffffffffffffffffffffffffffffffff1673ffffffffffffffffffffffffffffffffffffffff16815260200190815260200160002060009054906101000a900460ff161515141515610eab576040517f08c379a000000000000000000000000000000000000000000000000000000000815260040180806020018281038252600f8152602001807f4e6f20737563682072657175657374000000000000000000000000000000000081525060200191505060405180910390fd5b610eb481611784565b610ebd81611ad2565b610ec681611ae2565b50565b600681815481101515610ed857fe5b906000526020600020016000915054906101000a900473ffffffffffffffffffffffffffffffffffffffff1681565b600c81815481101515610f1657fe5b906000526020600020016000915054906101000a900473ffffffffffffffffffffffffffffffffffffffff1681565b600033905060011515600860008373ffffffffffffffffffffffffffffffffffffffff1673ffffffffffffffffffffffffffffffffffffffff16815260200190815260200160002060009054906101000a900460ff161515141515611038576040517f08c379a00000000000000000000000000000000000000000000000000000000081526004018080602001828103825260228152602001807f506172746e65727368697020686173206e6f74206265656e207265717565737481526020017f656400000000000000000000000000000000000000000000000000000000000081525060400191505060405180910390fd5b61104181611ad2565b50565b6000809054906101000a900473ffffffffffffffffffffffffffffffffffffffff1681565b60048054600181600116156101000203166002900480601f0160208091040260200160405190810160405280929190818152602001828054600181600116156101000203166002900480156110ff5780601f106110d4576101008083540402835291602001916110ff565b820191906000526020600020905b8154815290600101906020018083116110e257829003601f168201915b505050505081565b600b60009054906101000a900473ffffffffffffffffffffffffffffffffffffffff1673ffffffffffffffffffffffffffffffffffffffff163373ffffffffffffffffffffffffffffffffffffffff161415156111f2576040517f08c379a00000000000000000000000000000000000000000000000000000000081526004018080602001828103825260218152602001807f4f6e6c79206f776e65722063616e2063616c6c20746869732066756e6374696f81526020017f6e0000000000000000000000000000000000000000000000000000000000000081525060400191505060405180910390fd5b60001515600960008373ffffffffffffffffffffffffffffffffffffffff1673ffffffffffffffffffffffffffffffffffffffff16815260200190815260200160002060009054906101000a900460ff1615151415156112e0576040517f08c379a00000000000000000000000000000000000000000000000000000000081526004018080602001828103825260268152602001807f506172746e6572736869702068617320616c7265616479206265656e2072657181526020017f756573746564000000000000000000000000000000000000000000000000000081525060400191505060405180910390fd5b6112e981611cf0565b6112f281611ae2565b50565b600033905060011515600960008373ffffffffffffffffffffffffffffffffffffffff1673ffffffffffffffffffffffffffffffffffffffff16815260200190815260200160002060009054906101000a900460ff1615151415156113e8576040517f08c379a00000000000000000000000000000000000000000000000000000000081526004018080602001828103825260228152602001807f506172746e65727368697020686173206e6f74206265656e207265717565737481526020017f656400000000000000000000000000000000000000000000000000000000000081525060400191505060405180910390fd5b6113f1816117e8565b50565b600b60009054906101000a900473ffffffffffffffffffffffffffffffffffffffff1673ffffffffffffffffffffffffffffffffffffffff163373ffffffffffffffffffffffffffffffffffffffff161415156114df576040517f08c379a00000000000000000000000000000000000000000000000000000000081526004018080602001828103825260218152602001807f4f6e6c79206f776e65722063616e2063616c6c20746869732066756e6374696f81526020017f6e0000000000000000000000000000000000000000000000000000000000000081525060400191505060405180910390fd5b60011515600960008373ffffffffffffffffffffffffffffffffffffffff1673ffffffffffffffffffffffffffffffffffffffff16815260200190815260200160002060009054906101000a900460ff1615151415156115a7576040517f08c379a000000000000000000000000000000000000000000000000000000000815260040180806020018281038252600f8152602001807f4e6f20737563682072657175657374000000000000000000000000000000000081525060200191505060405180910390fd5b6115b0816117e8565b6115b981611d00565b50565b600b60009054906101000a900473ffffffffffffffffffffffffffffffffffffffff1673ffffffffffffffffffffffffffffffffffffffff163373ffffffffffffffffffffffffffffffffffffffff161415156116a7576040517f08c379a00000000000000000000000000000000000000000000000000000000081526004018080602001828103825260218152602001807f4f6e6c79206f776e65722063616e2063616c6c20746869732066756e6374696f81526020017f6e0000000000000000000000000000000000000000000000000000000000000081525060400191505060405180910390fd5b60011515600860008373ffffffffffffffffffffffffffffffffffffffff1673ffffffffffffffffffffffffffffffffffffffff16815260200190815260200160002060009054906101000a900460ff16151514151561176f576040517f08c379a000000000000000000000000000000000000000000000000000000000815260040180806020018281038252600f8152602001807f4e6f20737563682072657175657374000000000000000000000000000000000081525060200191505060405180910390fd5b61177881611ad2565b61178181611f0e565b50565b6001600760008373ffffffffffffffffffffffffffffffffffffffff1673ffffffffffffffffffffffffffffffffffffffff16815260200190815260200160002060006101000a81548160ff0219169083151502179055506117e58161211c565b50565b6117f560066009836122b1565b50565b61180560056008836123de565b50565b6000600760008373ffffffffffffffffffffffffffffffffffffffff1673ffffffffffffffffffffffffffffffffffffffff16815260200190815260200160002060006101000a81548160ff02191690831515021790555061186981612566565b50565b6000600a60009054906101000a900473ffffffffffffffffffffffffffffffffffffffff1673ffffffffffffffffffffffffffffffffffffffff1663e11aa6a2836040518263ffffffff167c0100000000000000000000000000000000000000000000000000000000028152600401808273ffffffffffffffffffffffffffffffffffffffff1673ffffffffffffffffffffffffffffffffffffffff16815260200191505060206040518083038186803b15801561192957600080fd5b505afa15801561193d573d6000803e3d6000fd5b505050506040513d602081101561195357600080fd5b810190808051906020019092919050505090506003600581111561197357fe5b81600581111561197f57fe5b1415156119f4576040517f08c379a00000000000000000000000000000000000000000000000000000000081526004018080602001828103825260138152602001807f57726f6e6720636f6e747261637420747970650000000000000000000000000081525060200191505060405180910390fd5b60008290508073ffffffffffffffffffffffffffffffffffffffff1663560649256000809054906101000a900473ffffffffffffffffffffffffffffffffffffffff166040518263ffffffff167c0100000000000000000000000000000000000000000000000000000000028152600401808273ffffffffffffffffffffffffffffffffffffffff1673ffffffffffffffffffffffffffffffffffffffff168152602001915050600060405180830381600087803b158015611ab557600080fd5b505af1158015611ac9573d6000803e3d6000fd5b50505050505050565b611adf60056008836122b1565b50565b6000600a60009054906101000a900473ffffffffffffffffffffffffffffffffffffffff1673ffffffffffffffffffffffffffffffffffffffff1663e11aa6a2836040518263ffffffff167c0100000000000000000000000000000000000000000000000000000000028152600401808273ffffffffffffffffffffffffffffffffffffffff1673ffffffffffffffffffffffffffffffffffffffff16815260200191505060206040518083038186803b158015611b9f57600080fd5b505afa158015611bb3573d6000803e3d6000fd5b505050506040513d6020811015611bc957600080fd5b8101908080519060200190929190505050905060036005811115611be957fe5b816005811115611bf557fe5b141515611c6a576040517f08c379a00000000000000000000000000000000000000000000000000000000081526004018080602001828103825260138152602001807f57726f6e6720636f6e747261637420747970650000000000000000000000000081525060200191505060405180910390fd5b60008290508073ffffffffffffffffffffffffffffffffffffffff16634f614ffc6040518163ffffffff167c0100000000000000000000000000000000000000000000000000000000028152600401600060405180830381600087803b158015611cd357600080fd5b505af1158015611ce7573d6000803e3d6000fd5b50505050505050565b611cfd60066009836123de565b50565b6000600a60009054906101000a900473ffffffffffffffffffffffffffffffffffffffff1673ffffffffffffffffffffffffffffffffffffffff1663e11aa6a2836040518263ffffffff167c0100000000000000000000000000000000000000000000000000000000028152600401808273ffffffffffffffffffffffffffffffffffffffff1673ffffffffffffffffffffffffffffffffffffffff16815260200191505060206040518083038186803b158015611dbd57600080fd5b505afa158015611dd1573d6000803e3d6000fd5b505050506040513d6020811015611de757600080fd5b8101908080519060200190929190505050905060036005811115611e0757fe5b816005811115611e1357fe5b141515611e88576040517f08c379a00000000000000000000000000000000000000000000000000000000081526004018080602001828103825260138152602001807f57726f6e6720636f6e747261637420747970650000000000000000000000000081525060200191505060405180910390fd5b60008290508073ffffffffffffffffffffffffffffffffffffffff1663a1d688806040518163ffffffff167c0100000000000000000000000000000000000000000000000000000000028152600401600060405180830381600087803b158015611ef157600080fd5b505af1158015611f05573d6000803e3d6000fd5b50505050505050565b6000600a60009054906101000a900473ffffffffffffffffffffffffffffffffffffffff1673ffffffffffffffffffffffffffffffffffffffff1663e11aa6a2836040518263ffffffff167c0100000000000000000000000000000000000000000000000000000000028152600401808273ffffffffffffffffffffffffffffffffffffffff1673ffffffffffffffffffffffffffffffffffffffff16815260200191505060206040518083038186803b158015611fcb57600080fd5b505afa158015611fdf573d6000803e3d6000fd5b505050506040513d6020811015611ff557600080fd5b810190808051906020019092919050505090506003600581111561201557fe5b81600581111561202157fe5b141515612096576040517f08c379a00000000000000000000000000000000000000000000000000000000081526004018080602001828103825260138152602001807f57726f6e6720636f6e747261637420747970650000000000000000000000000081525060200191505060405180910390fd5b60008290508073ffffffffffffffffffffffffffffffffffffffff1663e0726b0a6040518163ffffffff167c0100000000000000000000000000000000000000000000000000000000028152600401600060405180830381600087803b1580156120ff57600080fd5b505af1158015612113573d6000803e3d6000fd5b50505050505050565b6000600a60009054906101000a900473ffffffffffffffffffffffffffffffffffffffff1673ffffffffffffffffffffffffffffffffffffffff1663e11aa6a2836040518263ffffffff167c0100000000000000000000000000000000000000000000000000000000028152600401808273ffffffffffffffffffffffffffffffffffffffff1673ffffffffffffffffffffffffffffffffffffffff16815260200191505060206040518083038186803b1580156121d957600080fd5b505afa1580156121ed573d6000803e3d6000fd5b505050506040513d602081101561220357600080fd5b810190808051906020019092919050505090506003600581111561222357fe5b81600581111561222f57fe5b1415156122a4576040517f08c379a00000000000000000000000000000000000000000000000000000000081526004018080602001828103825260138152602001807f57726f6e6720636f6e747261637420747970650000000000000000000000000081525060200191505060405180910390fd5b6122ad826126fb565b5050565b600115158260008373ffffffffffffffffffffffffffffffffffffffff1673ffffffffffffffffffffffffffffffffffffffff16815260200190815260200160002060009054906101000a900460ff161515141515612378576040517f08c379a00000000000000000000000000000000000000000000000000000000081526004018080602001828103825260098152602001807f4e6f7420666f756e64000000000000000000000000000000000000000000000081525060200191505060405180910390fd5b612382838261270b565b60008260008373ffffffffffffffffffffffffffffffffffffffff1673ffffffffffffffffffffffffffffffffffffffff16815260200190815260200160002060006101000a81548160ff021916908315150217905550505050565b600015158260008373ffffffffffffffffffffffffffffffffffffffff1673ffffffffffffffffffffffffffffffffffffffff16815260200190815260200160002060009054906101000a900460ff1615151415156124a5576040517f08c379a000000000000000000000000000000000000000000000000000000000815260040180806020018281038252600e8152602001807f416c72656164792065786973747300000000000000000000000000000000000081525060200191505060405180910390fd5b828190806001815401808255809150509060018203906000526020600020016000909192909190916101000a81548173ffffffffffffffffffffffffffffffffffffffff021916908373ffffffffffffffffffffffffffffffffffffffff1602179055505060018260008373ffffffffffffffffffffffffffffffffffffffff1673ffffffffffffffffffffffffffffffffffffffff16815260200190815260200160002060006101000a81548160ff021916908315150217905550505050565b6000600a60009054906101000a900473ffffffffffffffffffffffffffffffffffffffff1673ffffffffffffffffffffffffffffffffffffffff1663e11aa6a2836040518263ffffffff167c0100000000000000000000000000000000000000000000000000000000028152600401808273ffffffffffffffffffffffffffffffffffffffff1673ffffffffffffffffffffffffffffffffffffffff16815260200191505060206040518083038186803b15801561262357600080fd5b505afa158015612637573d6000803e3d6000fd5b505050506040513d602081101561264d57600080fd5b810190808051906020019092919050505090506003600581111561266d57fe5b81600581111561267957fe5b1415156126ee576040517f08c379a00000000000000000000000000000000000000000000000000000000081526004018080602001828103825260138152602001807f57726f6e6720636f6e747261637420747970650000000000000000000000000081525060200191505060405180910390fd5b6126f782612889565b5050565b612708600c600e836123de565b50565b60008090505b8280549050811015612884578173ffffffffffffffffffffffffffffffffffffffff16838281548110151561274257fe5b9060005260206000200160009054906101000a900473ffffffffffffffffffffffffffffffffffffffff1673ffffffffffffffffffffffffffffffffffffffff1614156128775782600184805490500381548110151561279e57fe5b9060005260206000200160009054906101000a900473ffffffffffffffffffffffffffffffffffffffff1683828154811015156127d757fe5b9060005260206000200160006101000a81548173ffffffffffffffffffffffffffffffffffffffff021916908373ffffffffffffffffffffffffffffffffffffffff16021790555082600184805490500381548110151561283457fe5b9060005260206000200160006101000a81549073ffffffffffffffffffffffffffffffffffffffff0219169055828054809190600190036128759190612899565b505b8080600101915050612711565b505050565b612896600c600e836122b1565b50565b8154818355818111156128c0578183600052602060002091820191016128bf91906128c5565b5b505050565b6128e791905b808211156128e35760008160009055506001016128cb565b5090565b9056fea165627a7a723058207eefcc229c9f9d4e80d323bfa857117d61f0c66aba4df10fc4ad4e2d4060f0640029",
  "source": "pragma solidity ^0.5.1;\n\nimport \"./Main.sol\";\nimport \"./Organization.sol\";\n\n\n\ncontract ServiceCenter is Organization {\n    Main main;\n\n    address private ownerID;\n\n    address[] public manufacturers;\n    address[] public pendingItems;\n\n    mapping (address => bool) isInManufacturers;\n    mapping (address => bool) isPendingItem;\n\n\n\n    constructor (address _ownerID, string memory _name, string memory _physicalAddress, string memory _registrationNumber) public {\n        main = Main(msg.sender);\n        ownerID = _ownerID;\n        name = _name;\n        physicalAddress = _physicalAddress;\n        registrationNumber = _registrationNumber;\n    }\n\n\n\n// Public\n\n\n\n// Internal\n\n\n\n    function _addPartnerMethod (address pID) internal {\n        Main.ContractType pType = main.getContractType(pID);\n        require(pType == Main.ContractType.MANUFACTURER, \"Wrong contract type\");\n\n        _addManufacturer(pID);\n    }\n\n    function _removePartnerMethod (address pID) internal {\n        Main.ContractType pType = main.getContractType(pID);\n        require(pType == Main.ContractType.MANUFACTURER, \"Wrong contract type\");\n\n        _removeManufacturer(pID);\n    }\n\n    function _sendPartnershipRequest (address pID) internal {\n        Main.ContractType pType = main.getContractType(pID);\n        require(pType == Main.ContractType.MANUFACTURER, \"Wrong contract type\");\n\n        Organization oInstance = Organization(pID);\n        oInstance.receivePartnershipRequest();\n    }\n\n    function _sendPartnershipDecline (address pID) internal {\n        Main.ContractType pType = main.getContractType(pID);\n        require(pType == Main.ContractType.MANUFACTURER, \"Wrong contract type\");\n\n        Organization oInstance = Organization(pID);\n        oInstance.receivePartnershipDecline();\n    }\n\n    function _sendPartnershipRevert (address pID) internal {\n        Main.ContractType pType = main.getContractType(pID);\n        require(pType == Main.ContractType.MANUFACTURER, \"Wrong contract type\");\n\n        Organization oInstance = Organization(pID);\n        oInstance.receivePartnershipRevert();\n    }\n\n    function _sendPartnershipCancel (address pID) internal {\n        Main.ContractType pType = main.getContractType(pID);\n        require(pType == Main.ContractType.MANUFACTURER, \"Wrong contract type\");\n\n        Organization oInstance = Organization(pID);\n        oInstance.cancelPartnership(id);\n    }\n\n    function _addPendingItem (address iID) internal { _addTo(pendingItems, isPendingItem, iID); }\n    function _removePendingItem (address iID) internal { _removeFrom(pendingItems, isPendingItem, iID); }\n\n    function _addManufacturer (address mID) internal { _addTo(manufacturers, isInManufacturers, mID); }\n    function _removeManufacturer (address mID) internal { _removeFrom(manufacturers, isInManufacturers, mID); }\n\n\n\n// Modifiers\n\n\n\n    modifier onlyOwner {\n        require(msg.sender == ownerID, \"Only owner can call this function\");\n        _;\n    }\n\n    modifier onlyOwnerOrPartner {\n        require(((msg.sender == ownerID) || (isInPartnership[msg.sender] == true)), \"Only owner or partner can call this function\");\n        _;\n    }\n}\n\n",
  "sourcePath": "/Users/viktorgronskiy/Documents/Projects/Fun/GuarantSystem/blockchain/ServiceCenter.sol",
  "compiler": {
    "name": "solc",
    "version": "0.5.1+commit.c8a2cb62.Emscripten.clang"
  },
  "schemaVersion": "3.0.1",
  "updatedAt": "2019-01-30T16:15:40.748Z",
  "devdoc": {
    "methods": {}
  },
  "userdoc": {
    "methods": {}
  }
}