{
  "contractName": "ServiceCenter",
  "abi": [
    {
      "constant": true,
      "inputs": [],
      "name": "name",
      "outputs": [
        {
          "name": "",
          "type": "string"
        }
      ],
      "payable": false,
      "stateMutability": "view",
      "type": "function"
    },
    {
      "constant": false,
      "inputs": [
        {
          "name": "_Type",
          "type": "uint8"
        },
        {
          "name": "_objs",
          "type": "address[]"
        }
      ],
      "name": "receiveRequest",
      "outputs": [],
      "payable": false,
      "stateMutability": "nonpayable",
      "type": "function"
    },
    {
      "constant": false,
      "inputs": [
        {
          "name": "_Type",
          "type": "uint8"
        },
        {
          "name": "_objs",
          "type": "address[]"
        }
      ],
      "name": "receiveCompletedRequestCancel",
      "outputs": [],
      "payable": false,
      "stateMutability": "nonpayable",
      "type": "function"
    },
    {
      "constant": true,
      "inputs": [],
      "name": "physicalAddress",
      "outputs": [
        {
          "name": "",
          "type": "string"
        }
      ],
      "payable": false,
      "stateMutability": "view",
      "type": "function"
    },
    {
      "constant": false,
      "inputs": [
        {
          "name": "pID",
          "type": "address"
        }
      ],
      "name": "cancelPartnership",
      "outputs": [],
      "payable": false,
      "stateMutability": "nonpayable",
      "type": "function"
    },
    {
      "constant": false,
      "inputs": [
        {
          "name": "_Type",
          "type": "uint8"
        },
        {
          "name": "_objs",
          "type": "address[]"
        }
      ],
      "name": "receiveRequestDecline",
      "outputs": [],
      "payable": false,
      "stateMutability": "nonpayable",
      "type": "function"
    },
    {
      "constant": false,
      "inputs": [
        {
          "name": "_Type",
          "type": "uint8"
        },
        {
          "name": "_objs",
          "type": "address[]"
        }
      ],
      "name": "receiveRequestRevert",
      "outputs": [],
      "payable": false,
      "stateMutability": "nonpayable",
      "type": "function"
    },
    {
      "constant": true,
      "inputs": [
        {
          "name": "",
          "type": "uint256"
        }
      ],
      "name": "pendingItems",
      "outputs": [
        {
          "name": "",
          "type": "address"
        }
      ],
      "payable": false,
      "stateMutability": "view",
      "type": "function"
    },
    {
      "constant": false,
      "inputs": [
        {
          "name": "pID",
          "type": "address"
        }
      ],
      "name": "acceptPartnership",
      "outputs": [],
      "payable": false,
      "stateMutability": "nonpayable",
      "type": "function"
    },
    {
      "constant": true,
      "inputs": [
        {
          "name": "",
          "type": "uint256"
        }
      ],
      "name": "manufacturers",
      "outputs": [
        {
          "name": "",
          "type": "address"
        }
      ],
      "payable": false,
      "stateMutability": "view",
      "type": "function"
    },
    {
      "constant": true,
      "inputs": [],
      "name": "id",
      "outputs": [
        {
          "name": "",
          "type": "address"
        }
      ],
      "payable": false,
      "stateMutability": "view",
      "type": "function"
    },
    {
      "constant": true,
      "inputs": [],
      "name": "registrationNumber",
      "outputs": [
        {
          "name": "",
          "type": "string"
        }
      ],
      "payable": false,
      "stateMutability": "view",
      "type": "function"
    },
    {
      "constant": false,
      "inputs": [
        {
          "name": "pID",
          "type": "address"
        }
      ],
      "name": "requestPartnership",
      "outputs": [],
      "payable": false,
      "stateMutability": "nonpayable",
      "type": "function"
    },
    {
      "constant": true,
      "inputs": [],
      "name": "main",
      "outputs": [
        {
          "name": "",
          "type": "address"
        }
      ],
      "payable": false,
      "stateMutability": "view",
      "type": "function"
    },
    {
      "constant": false,
      "inputs": [
        {
          "name": "pID",
          "type": "address"
        }
      ],
      "name": "revertPartnership",
      "outputs": [],
      "payable": false,
      "stateMutability": "nonpayable",
      "type": "function"
    },
    {
      "constant": false,
      "inputs": [
        {
          "name": "pID",
          "type": "address"
        }
      ],
      "name": "declinePartnership",
      "outputs": [],
      "payable": false,
      "stateMutability": "nonpayable",
      "type": "function"
    },
    {
      "inputs": [
        {
          "name": "_main",
          "type": "address"
        },
        {
          "name": "_ownerID",
          "type": "address"
        },
        {
          "name": "_name",
          "type": "string"
        },
        {
          "name": "_physicalAddress",
          "type": "string"
        },
        {
          "name": "_registrationNumber",
          "type": "string"
        }
      ],
      "payable": false,
      "stateMutability": "nonpayable",
      "type": "constructor"
    },
    {
      "constant": true,
      "inputs": [],
      "name": "getInfo",
      "outputs": [
        {
          "name": "",
          "type": "string"
        },
        {
          "name": "",
          "type": "string"
        },
        {
          "name": "",
          "type": "string"
        }
      ],
      "payable": false,
      "stateMutability": "view",
      "type": "function"
    },
    {
      "constant": true,
      "inputs": [],
      "name": "getManufacturers",
      "outputs": [
        {
          "name": "",
          "type": "address[]"
        }
      ],
      "payable": false,
      "stateMutability": "view",
      "type": "function"
    },
    {
      "constant": true,
      "inputs": [],
      "name": "getPendingItems",
      "outputs": [
        {
          "name": "",
          "type": "address[]"
        }
      ],
      "payable": false,
      "stateMutability": "view",
      "type": "function"
    }
  ],
  "bytecode": "0x608060405260008054600160a060020a031916301790553480156200002357600080fd5b506040516200221338038062002213833981018060405260a08110156200004957600080fd5b81516020830151604084018051929491938201926401000000008111156200007057600080fd5b820160208101848111156200008457600080fd5b81516401000000008111828201871017156200009f57600080fd5b50509291906020018051640100000000811115620000bc57600080fd5b82016020810184811115620000d057600080fd5b8151640100000000811182820187101715620000eb57600080fd5b505092919060200180516401000000008111156200010857600080fd5b820160208101848111156200011c57600080fd5b81516401000000008111828201871017156200013757600080fd5b505060098054600160a060020a03808b16600160a060020a03199283161790925560018054928a16929091169190911790558551909350620001839250600691506020860190620001bb565b50815162000199906007906020850190620001bb565b508051620001af906008906020840190620001bb565b50505050505062000260565b828054600181600116156101000203166002900490600052602060002090601f016020900481019282601f10620001fe57805160ff19168380011785556200022e565b828001600101855582156200022e579182015b828111156200022e57825182559160200191906001019062000211565b506200023c92915062000240565b5090565b6200025d91905b808211156200023c576000815560010162000247565b90565b611fa380620002706000396000f3fe608060405260043610610100577c0100000000000000000000000000000000000000000000000000000000600035046306fdde0381146101055780631f37c9911461018f578063381f2e9d1461024b57806340868fff146103055780634353800e1461031a578063560649251461037f5780635a9b0b89146103b25780635e26e8561461050b5780636e58c294146105c557806379ac04771461067f5780637aa29a26146106c557806390175af1146106f8578063af640d0f14610722578063b2a1a40a14610737578063bc8a23451461074c578063c937cf3714610761578063dffeadd014610794578063eaf7c97a146107a9578063fbfca3c6146107dc575b600080fd5b34801561011157600080fd5b5061011a61080f565b6040805160208082528351818301528351919283929083019185019080838360005b8381101561015457818101518382015260200161013c565b50505050905090810190601f1680156101815780820380516001836020036101000a031916815260200191505b509250505060405180910390f35b34801561019b57600080fd5b50610249600480360360408110156101b257600080fd5b60ff82351691908101906040810160208201356401000000008111156101d757600080fd5b8201836020820111156101e957600080fd5b8035906020019184602083028401116401000000008311171561020b57600080fd5b91908080602002602001604051908101604052809392919081815260200183836020028082843760009201919091525092955061089d945050505050565b005b34801561025757600080fd5b506102496004803603604081101561026e57600080fd5b60ff823516919081019060408101602082013564010000000081111561029357600080fd5b8201836020820111156102a557600080fd5b803590602001918460208302840111640100000000831117156102c757600080fd5b9190808060200260200160405190810160405280939291908181526020018383602002808284376000920191909152509295506109b2945050505050565b34801561031157600080fd5b5061011a610a5d565b34801561032657600080fd5b5061032f610ab8565b60408051602080825283518183015283519192839290830191858101910280838360005b8381101561036b578181015183820152602001610353565b505050509050019250505060405180910390f35b34801561038b57600080fd5b50610249600480360360208110156103a257600080fd5b5035600160a060020a0316610b1b565b3480156103be57600080fd5b506103c7610b35565b60405180806020018060200180602001848103845287818151815260200191508051906020019080838360005b8381101561040c5781810151838201526020016103f4565b50505050905090810190601f1680156104395780820380516001836020036101000a031916815260200191505b50848103835286518152865160209182019188019080838360005b8381101561046c578181015183820152602001610454565b50505050905090810190601f1680156104995780820380516001836020036101000a031916815260200191505b50848103825285518152855160209182019187019080838360005b838110156104cc5781810151838201526020016104b4565b50505050905090810190601f1680156104f95780820380516001836020036101000a031916815260200191505b50965050505050505060405180910390f35b34801561051757600080fd5b506102496004803603604081101561052e57600080fd5b60ff823516919081019060408101602082013564010000000081111561055357600080fd5b82018360208201111561056557600080fd5b8035906020019184602083028401116401000000008311171561058757600080fd5b919080806020026020016040519081016040528093929190818152602001838360200280828437600092019190915250929550610cf9945050505050565b3480156105d157600080fd5b50610249600480360360408110156105e857600080fd5b60ff823516919081019060408101602082013564010000000081111561060d57600080fd5b82018360208201111561061f57600080fd5b8035906020019184602083028401116401000000008311171561064157600080fd5b919080806020026020016040519081016040528093929190818152602001838360200280828437600092019190915250929550610da4945050505050565b34801561068b57600080fd5b506106a9600480360360208110156106a257600080fd5b5035610e4f565b60408051600160a060020a039092168252519081900360200190f35b3480156106d157600080fd5b50610249600480360360208110156106e857600080fd5b5035600160a060020a0316610e77565b34801561070457600080fd5b506106a96004803603602081101561071b57600080fd5b5035610eea565b34801561072e57600080fd5b506106a9610ef8565b34801561074357600080fd5b5061011a610f07565b34801561075857600080fd5b5061032f610f62565b34801561076d57600080fd5b506102496004803603602081101561078457600080fd5b5035600160a060020a0316610fc2565b3480156107a057600080fd5b506106a9611035565b3480156107b557600080fd5b50610249600480360360208110156107cc57600080fd5b5035600160a060020a0316611044565b3480156107e857600080fd5b50610249600480360360208110156107ff57600080fd5b5035600160a060020a03166110b7565b6006805460408051602060026001851615610100026000190190941693909304601f810184900484028201840190925281815292918301828280156108955780601f1061086a57610100808354040283529160200191610895565b820191906000526020600020905b81548152906001019060200180831161087857829003601f168201915b505050505081565b6108a5611f02565b60408051908101604052808460018111156108bc57fe5b8152602001839052905033600260006108d48461112a565b815260208101919091526040016000205460ff1615610963576040805160e560020a62461bcd02815260206004820152602160248201527f526571756573742068617320616c7265616479206265656e207265636569766560448201527f6400000000000000000000000000000000000000000000000000000000000000606482015290519081900360840190fd5b600360006109708461112a565b815260208101919091526040016000205460ff16156109a25761099381836111c4565b61099d8183611200565b6109ac565b6109ac8183611222565b50505050565b6109ba611f02565b60408051908101604052808460018111156109d157fe5b8152602001839052905033600460006109e98461112a565b815260208101919091526040016000205460ff161515610a53576040805160e560020a62461bcd02815260206004820152601860248201527f52657175657374206973206e6f7420636f6d706c657465640000000000000000604482015290519081900360640190fd5b6109ac818361123b565b6007805460408051602060026001851615610100026000190190941693909304601f810184900484028201840190925281815292918301828280156108955780601f1061086a57610100808354040283529160200191610895565b6060600b805480602002602001604051908101604052809291908181526020018280548015610b1057602002820191906000526020600020905b8154600160a060020a03168152600190910190602001808311610af2575b505050505090505b90565b610b23611f02565b60018152610b318282611254565b5050565b60068054604080516020601f600260001961010060018816150201909516949094049384018190048102820181019092528281526060938493849391926007926008928591830182828015610bcb5780601f10610ba057610100808354040283529160200191610bcb565b820191906000526020600020905b815481529060010190602001808311610bae57829003601f168201915b5050855460408051602060026001851615610100026000190190941693909304601f810184900484028201840190925281815295985087945092508401905082828015610c595780601f10610c2e57610100808354040283529160200191610c59565b820191906000526020600020905b815481529060010190602001808311610c3c57829003601f168201915b5050845460408051602060026001851615610100026000190190941693909304601f810184900484028201840190925281815295975086945092508401905082828015610ce75780601f10610cbc57610100808354040283529160200191610ce7565b820191906000526020600020905b815481529060010190602001808311610cca57829003601f168201915b50505050509050925092509250909192565b610d01611f02565b6040805190810160405280846001811115610d1857fe5b815260200183905290503360036000610d308461112a565b815260208101919091526040016000205460ff161515610d9a576040805160e560020a62461bcd02815260206004820152601960248201527f5265717565737420686173206e6f74206265656e2073656e7400000000000000604482015290519081900360640190fd5b6109ac8183611200565b610dac611f02565b6040805190810160405280846001811115610dc357fe5b815260200183905290503360026000610ddb8461112a565b815260208101919091526040016000205460ff161515610e45576040805160e560020a62461bcd02815260206004820152601d60248201527f5265717565737420686173206e6f74206265656e207265636569766564000000604482015290519081900360640190fd5b6109ac8183611307565b600b805482908110610e5d57fe5b600091825260209091200154600160a060020a0316905081565b600154600160a060020a03163314610ed4576040805160e560020a62461bcd0281526020600482015260216024820152600080516020611f58833981519152604482015260f960020a603702606482015290519081900360840190fd5b610edc611f02565b60018152610b318282611320565b600a805482908110610e5d57fe5b600054600160a060020a031681565b6008805460408051602060026001851615610100026000190190941693909304601f810184900484028201840190925281815292918301828280156108955780601f1061086a57610100808354040283529160200191610895565b6060600a805480602002602001604051908101604052809291908181526020018280548015610b1057602002820191906000526020600020908154600160a060020a03168152600190910190602001808311610af2575050505050905090565b600154600160a060020a0316331461101f576040805160e560020a62461bcd0281526020600482015260216024820152600080516020611f58833981519152604482015260f960020a603702606482015290519081900360840190fd5b611027611f02565b60018152610b318282611412565b600954600160a060020a031681565b600154600160a060020a031633146110a1576040805160e560020a62461bcd0281526020600482015260216024820152600080516020611f58833981519152604482015260f960020a603702606482015290519081900360840190fd5b6110a9611f02565b60018152610b318282611524565b600154600160a060020a03163314611114576040805160e560020a62461bcd0281526020600482015260216024820152600080516020611f58833981519152604482015260f960020a603702606482015290519081900360840190fd5b61111c611f02565b60018152610b31828261160c565b6000816000015182602001516040516020018083600181111561114957fe5b60ff167f0100000000000000000000000000000000000000000000000000000000000000028152600101828051906020019060200280838360005b8381101561119c578181015183820152602001611184565b5050505090500192505050604051602081830303815290604052805190602001209050919050565b6111ce82826116f4565b6001600460006111dd8461112a565b81526020810191909152604001600020805460ff19169115159190911790555050565b61120a8282611812565b61121381611922565b6000600360006111dd8461112a565b61122c8282611812565b6001600260006111dd8461112a565b6112458282611984565b6000600460006111dd8461112a565b600154600160a060020a031633148061129d575033600160a060020a03831614801561129d5750600460006112888361112a565b815260208101919091526040016000205460ff165b15156112f3576040805160e560020a62461bcd02815260206004820152601660248201527f4e6f7420656e6f756768207065726d697373696f6e7300000000000000000000604482015290519081900360640190fd5b6112fd828261123b565b610b318282611a9d565b6113118282611812565b6000600260006111dd8461112a565b600154600160a060020a0316331461137d576040805160e560020a62461bcd0281526020600482015260216024820152600080516020611f58833981519152604482015260f960020a603702606482015290519081900360840190fd5b6002600061138a8361112a565b815260208101919091526040016000205460ff1615156113f4576040805160e560020a62461bcd02815260206004820152600f60248201527f4e6f207375636820726571756573740000000000000000000000000000000000604482015290519081900360640190fd5b6113fe82826111c4565b6114088282611307565b610b318282611b74565b600154600160a060020a0316331461146f576040805160e560020a62461bcd0281526020600482015260216024820152600080516020611f58833981519152604482015260f960020a603702606482015290519081900360840190fd5b6003600061147c8361112a565b815260208101919091526040016000205460ff16156114e5576040805160e560020a62461bcd02815260206004820152601d60248201527f526571756573742068617320616c7265616479206265656e2073656e74000000604482015290519081900360640190fd5b600260006114f28361112a565b815260208101919091526040016000205460ff161561151a576115158282611320565b610b31565b6114088282611bc4565b600154600160a060020a03163314611581576040805160e560020a62461bcd0281526020600482015260216024820152600080516020611f58833981519152604482015260f960020a603702606482015290519081900360840190fd5b6003600061158e8361112a565b815260208101919091526040016000205460ff1615156115f8576040805160e560020a62461bcd02815260206004820152600f60248201527f4e6f207375636820726571756573740000000000000000000000000000000000604482015290519081900360640190fd5b6116028282611200565b610b318282611bdd565b600154600160a060020a03163314611669576040805160e560020a62461bcd0281526020600482015260216024820152600080516020611f58833981519152604482015260f960020a603702606482015290519081900360840190fd5b600260006116768361112a565b815260208101919091526040016000205460ff1615156116e0576040805160e560020a62461bcd02815260206004820152600f60248201527f4e6f207375636820726571756573740000000000000000000000000000000000604482015290519081900360640190fd5b6116ea8282611307565b610b318282611c2d565b60018151600181111561170357fe5b1415610b3157600954604080517fc5a887c5000000000000000000000000000000000000000000000000000000008152600160a060020a0385811660048301529151600093929092169163c5a887c591602480820192602092909190829003018186803b15801561177357600080fd5b505afa158015611787573d6000803e3d6000fd5b505050506040513d602081101561179d57600080fd5b5051905060038160058111156117af57fe5b14611804576040805160e560020a62461bcd02815260206004820152601360248201527f57726f6e6720636f6e7472616374207479706500000000000000000000000000604482015290519081900360640190fd5b61180d83611c7d565b505050565b60018151600181111561182157fe5b1415610b3157600954604080517fc5a887c5000000000000000000000000000000000000000000000000000000008152600160a060020a0385811660048301529151600093929092169163c5a887c591602480820192602092909190829003018186803b15801561189157600080fd5b505afa1580156118a5573d6000803e3d6000fd5b505050506040513d60208110156118bb57600080fd5b5051905060038160058111156118cd57fe5b1461180d576040805160e560020a62461bcd02815260206004820152601360248201527f57726f6e6720636f6e7472616374207479706500000000000000000000000000604482015290519081900360640190fd5b60005b816020015151811015610b315760006005600084602001518481518110151561194a57fe5b602090810291909101810151600160a060020a03168252810191909152604001600020805460ff1916911515919091179055600101611925565b60018151600181111561199357fe5b1415610b3157600954604080517fc5a887c5000000000000000000000000000000000000000000000000000000008152600160a060020a0385811660048301529151600093929092169163c5a887c591602480820192602092909190829003018186803b158015611a0357600080fd5b505afa158015611a17573d6000803e3d6000fd5b505050506040513d6020811015611a2d57600080fd5b505190506003816005811115611a3f57fe5b14611a94576040805160e560020a62461bcd02815260206004820152601360248201527f57726f6e6720636f6e7472616374207479706500000000000000000000000000604482015290519081900360640190fd5b61180d83611c8d565b805160208201516040517f381f2e9d0000000000000000000000000000000000000000000000000000000081528492600160a060020a0384169263381f2e9d9260040180836001811115611aed57fe5b60ff16815260200180602001828103825283818151815260200191508051906020019060200280838360005b83811015611b31578181015183820152602001611b19565b505050509050019350505050600060405180830381600087803b158015611b5757600080fd5b505af1158015611b6b573d6000803e3d6000fd5b50505050505050565b805160208201516040517f1f37c9910000000000000000000000000000000000000000000000000000000081528492600160a060020a03841692631f37c9919260040180836001811115611aed57fe5b611bce8282611812565b6001600360006111dd8461112a565b805160208201516040517f6e58c2940000000000000000000000000000000000000000000000000000000081528492600160a060020a03841692636e58c2949260040180836001811115611aed57fe5b805160208201516040517f5e26e8560000000000000000000000000000000000000000000000000000000081528492600160a060020a03841692635e26e8569260040180836001811115611aed57fe5b611c8a600a600c83611c9a565b50565b611c8a600a600c83611d64565b600160a060020a03811660009081526020839052604090205460ff1615611d0b576040805160e560020a62461bcd02815260206004820152600e60248201527f416c726561647920657869737473000000000000000000000000000000000000604482015290519081900360640190fd5b825460018181018555600094855260208086209092018054600160a060020a0390941673ffffffffffffffffffffffffffffffffffffffff1990941684179055918452919091526040909120805460ff19169091179055565b600160a060020a03811660009081526020839052604090205460ff161515611dd6576040805160e560020a62461bcd02815260206004820152600960248201527f4e6f7420666f756e640000000000000000000000000000000000000000000000604482015290519081900360640190fd5b611de08382611e03565b600160a060020a0316600090815260209190915260409020805460ff1916905550565b60005b825481101561180d5781600160a060020a03168382815481101515611e2757fe5b600091825260209091200154600160a060020a03161415611efa57825483906000198101908110611e5457fe5b6000918252602090912001548354600160a060020a0390911690849083908110611e7a57fe5b6000918252602090912001805473ffffffffffffffffffffffffffffffffffffffff1916600160a060020a0392909216919091179055825483906000198101908110611ec257fe5b6000918252602090912001805473ffffffffffffffffffffffffffffffffffffffff191690558254611ef8846000198301611f1a565b505b600101611e06565b60408051808201909152600081526060602082015290565b81548183558181111561180d5760008381526020902061180d918101908301610b1891905b80821115611f535760008155600101611f3f565b509056fe4f6e6c79206f776e65722063616e2063616c6c20746869732066756e6374696fa165627a7a72305820baeaf21d273468a36fd18872fed99e27b4a46e93bdbcda9548d2d38398ce2c180029",
  "source": "pragma solidity ^0.5.1;\n\nimport \"./meta/Organization.sol\";\n\nimport \"./interfaces/MainInterface.sol\";\n\ncontract ServiceCenter is Organization {\n    MainInterface public main;\n\n    address[] public manufacturers;\n    address[] public pendingItems;\n\n    mapping (address => bool) isInManufacturers;\n    mapping (address => bool) isPendingItem;\n\n\n\n    constructor (address _main, address _ownerID, string memory _name, string memory _physicalAddress, string memory _registrationNumber) public {\n        main = MainInterface(_main);\n        ownerID = _ownerID;\n        name = _name;\n        physicalAddress = _physicalAddress;\n        registrationNumber = _registrationNumber;\n    }\n\n\n\n// Getters\n\n\n    \n    function getInfo () view public returns (string memory, string memory, string memory) {\n        return (name, physicalAddress, registrationNumber);\n    }\n\n    function getManufacturers () view public returns (address[] memory) {\n        return manufacturers;\n    }\n    \n    function getPendingItems () view public returns (address[] memory) {\n        return pendingItems;\n    }\n\n\n\n// Internal\n\n\n\n    function addSentRequestHook (address _id, Requestable.Request memory req) internal {\n        if (req.Type == Requestable.RequestType.PARTNERSHIP) {\n            MainInterface.ContractType cType = main.contractType(_id);\n            require(cType == MainInterface.ContractType.MANUFACTURER, \"Wrong contract type\");\n        }\n    }\n    function removeSentRequestHook (address _id, Requestable.Request memory req) internal {\n        if (req.Type == Requestable.RequestType.PARTNERSHIP) {\n            MainInterface.ContractType cType = main.contractType(_id);\n            require(cType == MainInterface.ContractType.MANUFACTURER, \"Wrong contract type\");\n        }\n    }\n\n    function addReceivedRequestHook (address _id, Requestable.Request memory req) internal {\n        if (req.Type == Requestable.RequestType.PARTNERSHIP) {\n            MainInterface.ContractType cType = main.contractType(_id);\n            require(cType == MainInterface.ContractType.MANUFACTURER, \"Wrong contract type\");\n        }\n    }\n    function removeReceivedRequestHook (address _id, Requestable.Request memory req) internal {\n        if (req.Type == Requestable.RequestType.PARTNERSHIP) {\n            MainInterface.ContractType cType = main.contractType(_id);\n            require(cType == MainInterface.ContractType.MANUFACTURER, \"Wrong contract type\");\n        }\n    }\n\n    function addCompletedRequestHook (address _id, Requestable.Request memory req) internal {\n        if (req.Type == Requestable.RequestType.PARTNERSHIP) {\n            MainInterface.ContractType cType = main.contractType(_id);\n            require(cType == MainInterface.ContractType.MANUFACTURER, \"Wrong contract type\");\n\n            addManufacturer(_id);\n        }\n    }\n    function removeCompletedRequestHook (address _id, Requestable.Request memory req) internal {\n        if (req.Type == Requestable.RequestType.PARTNERSHIP) {\n            MainInterface.ContractType cType = main.contractType(_id);\n            require(cType == MainInterface.ContractType.MANUFACTURER, \"Wrong contract type\");\n\n            removeManufacturer(_id);\n        }\n    }\n\n\n\n    function addPendingItem (address iID) internal { addAddress(pendingItems, isPendingItem, iID); }\n    function removePendingItem (address iID) internal { removeAddress(pendingItems, isPendingItem, iID); }\n\n    function addManufacturer (address mID) internal { addAddress(manufacturers, isInManufacturers, mID); }\n    function removeManufacturer (address mID) internal { removeAddress(manufacturers, isInManufacturers, mID); }\n\n\n\n    function addAddress (address[] storage array, mapping (address => bool) storage map, address aID) internal {\n        require(!map[aID], \"Already exists\");\n\n        array.push(aID);\n        map[aID] = true;\n    }\n\n    function removeAddress (address[] storage array, mapping (address => bool) storage map, address aID) internal {\n        require(map[aID], \"Not found\");\n\n        removeFromAddressArray(array, aID);\n        map[aID] = false;\n    }\n\n    function removeFromAddressArray (address[] storage array, address value) internal {\n        for (uint i = 0; i < array.length; i++) {\n            if (array[i] == value) {\n              array[i] = array[array.length - 1];\n              delete array[array.length - 1];\n              array.length--;\n            }\n        }\n    }\n}\n\n",
  "sourcePath": "/Users/viktorgronskiy/Documents/Projects/Fun/GuarantSystem/blockchain/src/ServiceCenter.sol",
  "compiler": {
    "name": "solc",
    "version": "0.5.1+commit.c8a2cb62.Emscripten.clang"
  },
  "schemaVersion": "3.0.1",
  "updatedAt": "2019-02-02T19:34:55.979Z",
  "devdoc": {
    "methods": {}
  },
  "userdoc": {
    "methods": {}
  }
}