{
  "contractName": "ServiceCenter",
  "abi": [
    {
      "constant": true,
      "inputs": [],
      "name": "name",
      "outputs": [
        {
          "name": "",
          "type": "string"
        }
      ],
      "payable": false,
      "stateMutability": "view",
      "type": "function"
    },
    {
      "constant": true,
      "inputs": [],
      "name": "physicalAddress",
      "outputs": [
        {
          "name": "",
          "type": "string"
        }
      ],
      "payable": false,
      "stateMutability": "view",
      "type": "function"
    },
    {
      "constant": false,
      "inputs": [],
      "name": "receivePartnershipRequest",
      "outputs": [],
      "payable": false,
      "stateMutability": "nonpayable",
      "type": "function"
    },
    {
      "constant": false,
      "inputs": [
        {
          "name": "pID",
          "type": "address"
        }
      ],
      "name": "cancelPartnership",
      "outputs": [],
      "payable": false,
      "stateMutability": "nonpayable",
      "type": "function"
    },
    {
      "constant": true,
      "inputs": [
        {
          "name": "",
          "type": "uint256"
        }
      ],
      "name": "receivedPartnerships",
      "outputs": [
        {
          "name": "",
          "type": "address"
        }
      ],
      "payable": false,
      "stateMutability": "view",
      "type": "function"
    },
    {
      "constant": true,
      "inputs": [
        {
          "name": "",
          "type": "uint256"
        }
      ],
      "name": "pendingItems",
      "outputs": [
        {
          "name": "",
          "type": "address"
        }
      ],
      "payable": false,
      "stateMutability": "view",
      "type": "function"
    },
    {
      "constant": false,
      "inputs": [
        {
          "name": "pID",
          "type": "address"
        }
      ],
      "name": "acceptPartnership",
      "outputs": [],
      "payable": false,
      "stateMutability": "nonpayable",
      "type": "function"
    },
    {
      "constant": true,
      "inputs": [
        {
          "name": "",
          "type": "uint256"
        }
      ],
      "name": "requestedPartnerships",
      "outputs": [
        {
          "name": "",
          "type": "address"
        }
      ],
      "payable": false,
      "stateMutability": "view",
      "type": "function"
    },
    {
      "constant": true,
      "inputs": [
        {
          "name": "",
          "type": "uint256"
        }
      ],
      "name": "manufacturers",
      "outputs": [
        {
          "name": "",
          "type": "address"
        }
      ],
      "payable": false,
      "stateMutability": "view",
      "type": "function"
    },
    {
      "constant": false,
      "inputs": [],
      "name": "receivePartnershipRevert",
      "outputs": [],
      "payable": false,
      "stateMutability": "nonpayable",
      "type": "function"
    },
    {
      "constant": true,
      "inputs": [],
      "name": "id",
      "outputs": [
        {
          "name": "",
          "type": "address"
        }
      ],
      "payable": false,
      "stateMutability": "view",
      "type": "function"
    },
    {
      "constant": false,
      "inputs": [],
      "name": "receivePartnershipCancel",
      "outputs": [],
      "payable": false,
      "stateMutability": "nonpayable",
      "type": "function"
    },
    {
      "constant": true,
      "inputs": [],
      "name": "registrationNumber",
      "outputs": [
        {
          "name": "",
          "type": "string"
        }
      ],
      "payable": false,
      "stateMutability": "view",
      "type": "function"
    },
    {
      "constant": false,
      "inputs": [
        {
          "name": "pID",
          "type": "address"
        }
      ],
      "name": "requestPartnership",
      "outputs": [],
      "payable": false,
      "stateMutability": "nonpayable",
      "type": "function"
    },
    {
      "constant": true,
      "inputs": [],
      "name": "main",
      "outputs": [
        {
          "name": "",
          "type": "address"
        }
      ],
      "payable": false,
      "stateMutability": "view",
      "type": "function"
    },
    {
      "constant": false,
      "inputs": [],
      "name": "receivePartnershipDecline",
      "outputs": [],
      "payable": false,
      "stateMutability": "nonpayable",
      "type": "function"
    },
    {
      "constant": false,
      "inputs": [
        {
          "name": "pID",
          "type": "address"
        }
      ],
      "name": "revertPartnership",
      "outputs": [],
      "payable": false,
      "stateMutability": "nonpayable",
      "type": "function"
    },
    {
      "constant": false,
      "inputs": [
        {
          "name": "pID",
          "type": "address"
        }
      ],
      "name": "declinePartnership",
      "outputs": [],
      "payable": false,
      "stateMutability": "nonpayable",
      "type": "function"
    },
    {
      "inputs": [
        {
          "name": "_ownerID",
          "type": "address"
        },
        {
          "name": "_name",
          "type": "string"
        },
        {
          "name": "_physicalAddress",
          "type": "string"
        },
        {
          "name": "_registrationNumber",
          "type": "string"
        }
      ],
      "payable": false,
      "stateMutability": "nonpayable",
      "type": "constructor"
    }
  ],
  "bytecode": "0x608060405230600160006101000a81548173ffffffffffffffffffffffffffffffffffffffff021916908373ffffffffffffffffffffffffffffffffffffffff1602179055503480156200005257600080fd5b5060405162002c4138038062002c41833981018060405260808110156200007857600080fd5b810190808051906020019092919080516401000000008111156200009b57600080fd5b82810190506020810184811115620000b257600080fd5b8151856001820283011164010000000082111715620000d057600080fd5b50509291906020018051640100000000811115620000ed57600080fd5b828101905060208101848111156200010457600080fd5b81518560018202830111640100000000821117156200012257600080fd5b505092919060200180516401000000008111156200013f57600080fd5b828101905060208101848111156200015657600080fd5b81518560018202830111640100000000821117156200017457600080fd5b50509291905050503373ffffffffffffffffffffffffffffffffffffffff1663dffeadd06040518163ffffffff167c010000000000000000000000000000000000000000000000000000000002815260040160206040518083038186803b158015620001df57600080fd5b505afa158015620001f4573d6000803e3d6000fd5b505050506040513d60208110156200020b57600080fd5b81019080805190602001909291905050506000806101000a81548173ffffffffffffffffffffffffffffffffffffffff021916908373ffffffffffffffffffffffffffffffffffffffff16021790555083600260006101000a81548173ffffffffffffffffffffffffffffffffffffffff021916908373ffffffffffffffffffffffffffffffffffffffff1602179055508260039080519060200190620002b4929190620002f1565b508160049080519060200190620002cd929190620002f1565b508060059080519060200190620002e6929190620002f1565b5050505050620003a0565b828054600181600116156101000203166002900490600052602060002090601f016020900481019282601f106200033457805160ff191683800117855562000365565b8280016001018555821562000365579182015b828111156200036457825182559160200191906001019062000347565b5b50905062000374919062000378565b5090565b6200039d91905b80821115620003995760008160009055506001016200037f565b5090565b90565b61289180620003b06000396000f3fe6080604052600436106100f6576000357c01000000000000000000000000000000000000000000000000000000009004806306fdde03146100fb57806340868fff1461018b5780634f614ffc1461021b5780635606492514610232578063569be9b81461028357806379ac0477146102fe5780637aa29a2614610379578063867a5240146103ca57806390175af114610445578063a1d68880146104c0578063af640d0f146104d7578063b08437fc1461052e578063b2a1a40a14610545578063c937cf37146105d5578063dffeadd014610626578063e0726b0a1461067d578063eaf7c97a14610694578063fbfca3c6146106e5575b600080fd5b34801561010757600080fd5b50610110610736565b6040518080602001828103825283818151815260200191508051906020019080838360005b83811015610150578082015181840152602081019050610135565b50505050905090810190601f16801561017d5780820380516001836020036101000a031916815260200191505b509250505060405180910390f35b34801561019757600080fd5b506101a06107d4565b6040518080602001828103825283818151815260200191508051906020019080838360005b838110156101e05780820151818401526020810190506101c5565b50505050905090810190601f16801561020d5780820380516001836020036101000a031916815260200191505b509250505060405180910390f35b34801561022757600080fd5b50610230610872565b005b34801561023e57600080fd5b506102816004803603602081101561025557600080fd5b81019080803573ffffffffffffffffffffffffffffffffffffffff1690602001909291905050506109d5565b005b34801561028f57600080fd5b506102bc600480360360208110156102a657600080fd5b8101908080359060200190929190505050610b3a565b604051808273ffffffffffffffffffffffffffffffffffffffff1673ffffffffffffffffffffffffffffffffffffffff16815260200191505060405180910390f35b34801561030a57600080fd5b506103376004803603602081101561032157600080fd5b8101908080359060200190929190505050610b78565b604051808273ffffffffffffffffffffffffffffffffffffffff1673ffffffffffffffffffffffffffffffffffffffff16815260200191505060405180910390f35b34801561038557600080fd5b506103c86004803603602081101561039c57600080fd5b81019080803573ffffffffffffffffffffffffffffffffffffffff169060200190929190505050610bb6565b005b3480156103d657600080fd5b50610403600480360360208110156103ed57600080fd5b8101908080359060200190929190505050610d80565b604051808273ffffffffffffffffffffffffffffffffffffffff1673ffffffffffffffffffffffffffffffffffffffff16815260200191505060405180910390f35b34801561045157600080fd5b5061047e6004803603602081101561046857600080fd5b8101908080359060200190929190505050610dbe565b604051808273ffffffffffffffffffffffffffffffffffffffff1673ffffffffffffffffffffffffffffffffffffffff16815260200191505060405180910390f35b3480156104cc57600080fd5b506104d5610dfc565b005b3480156104e357600080fd5b506104ec610ef4565b604051808273ffffffffffffffffffffffffffffffffffffffff1673ffffffffffffffffffffffffffffffffffffffff16815260200191505060405180910390f35b34801561053a57600080fd5b50610543610f1a565b005b34801561055157600080fd5b5061055a610fec565b6040518080602001828103825283818151815260200191508051906020019080838360005b8381101561059a57808201518184015260208101905061057f565b50505050905090810190601f1680156105c75780820380516001836020036101000a031916815260200191505b509250505060405180910390f35b3480156105e157600080fd5b50610624600480360360208110156105f857600080fd5b81019080803573ffffffffffffffffffffffffffffffffffffffff16906020019092919050505061108a565b005b34801561063257600080fd5b5061063b611272565b604051808273ffffffffffffffffffffffffffffffffffffffff1673ffffffffffffffffffffffffffffffffffffffff16815260200191505060405180910390f35b34801561068957600080fd5b50610692611297565b005b3480156106a057600080fd5b506106e3600480360360208110156106b757600080fd5b81019080803573ffffffffffffffffffffffffffffffffffffffff16906020019092919050505061138f565b005b3480156106f157600080fd5b506107346004803603602081101561070857600080fd5b81019080803573ffffffffffffffffffffffffffffffffffffffff169060200190929190505050611550565b005b60038054600181600116156101000203166002900480601f0160208091040260200160405190810160405280929190818152602001828054600181600116156101000203166002900480156107cc5780601f106107a1576101008083540402835291602001916107cc565b820191906000526020600020905b8154815290600101906020018083116107af57829003601f168201915b505050505081565b60048054600181600116156101000203166002900480601f01602080910402602001604051908101604052809291908181526020018280546001816001161561010002031660029004801561086a5780601f1061083f5761010080835404028352916020019161086a565b820191906000526020600020905b81548152906001019060200180831161084d57829003601f168201915b505050505081565b6000339050600960008273ffffffffffffffffffffffffffffffffffffffff1673ffffffffffffffffffffffffffffffffffffffff16815260200190815260200160002060009054906101000a900460ff1615151561095f576040517f08c379a00000000000000000000000000000000000000000000000000000000081526004018080602001828103825260268152602001807f506172746e6572736869702068617320616c7265616479206265656e2072657181526020017f756573746564000000000000000000000000000000000000000000000000000081525060400191505060405180910390fd5b600a60008273ffffffffffffffffffffffffffffffffffffffff1673ffffffffffffffffffffffffffffffffffffffff16815260200190815260200160002060009054906101000a900460ff16156109c8576109ba81611711565b6109c381611775565b6109d2565b6109d181611785565b5b50565b600260009054906101000a900473ffffffffffffffffffffffffffffffffffffffff1673ffffffffffffffffffffffffffffffffffffffff163373ffffffffffffffffffffffffffffffffffffffff161480610ab157508073ffffffffffffffffffffffffffffffffffffffff163373ffffffffffffffffffffffffffffffffffffffff16148015610ab05750600860008273ffffffffffffffffffffffffffffffffffffffff1673ffffffffffffffffffffffffffffffffffffffff16815260200190815260200160002060009054906101000a900460ff165b5b1515610b25576040517f08c379a00000000000000000000000000000000000000000000000000000000081526004018080602001828103825260168152602001807f4e6f7420656e6f756768207065726d697373696f6e730000000000000000000081525060200191505060405180910390fd5b610b2e81611795565b610b37816117f9565b50565b600681815481101515610b4957fe5b906000526020600020016000915054906101000a900473ffffffffffffffffffffffffffffffffffffffff1681565b600c81815481101515610b8757fe5b906000526020600020016000915054906101000a900473ffffffffffffffffffffffffffffffffffffffff1681565b600260009054906101000a900473ffffffffffffffffffffffffffffffffffffffff1673ffffffffffffffffffffffffffffffffffffffff163373ffffffffffffffffffffffffffffffffffffffff16141515610ca1576040517f08c379a00000000000000000000000000000000000000000000000000000000081526004018080602001828103825260218152602001807f4f6e6c79206f776e65722063616e2063616c6c20746869732066756e6374696f81526020017f6e0000000000000000000000000000000000000000000000000000000000000081525060400191505060405180910390fd5b600960008273ffffffffffffffffffffffffffffffffffffffff1673ffffffffffffffffffffffffffffffffffffffff16815260200190815260200160002060009054906101000a900460ff161515610d62576040517f08c379a000000000000000000000000000000000000000000000000000000000815260040180806020018281038252600f8152602001807f4e6f20737563682072657175657374000000000000000000000000000000000081525060200191505060405180910390fd5b610d6b81611711565b610d7481611a5f565b610d7d81611a6f565b50565b600781815481101515610d8f57fe5b906000526020600020016000915054906101000a900473ffffffffffffffffffffffffffffffffffffffff1681565b600b81815481101515610dcd57fe5b906000526020600020016000915054906101000a900473ffffffffffffffffffffffffffffffffffffffff1681565b6000339050600960008273ffffffffffffffffffffffffffffffffffffffff1673ffffffffffffffffffffffffffffffffffffffff16815260200190815260200160002060009054906101000a900460ff161515610ee8576040517f08c379a00000000000000000000000000000000000000000000000000000000081526004018080602001828103825260228152602001807f506172746e65727368697020686173206e6f74206265656e207265717565737481526020017f656400000000000000000000000000000000000000000000000000000000000081525060400191505060405180910390fd5b610ef181611a5f565b50565b600160009054906101000a900473ffffffffffffffffffffffffffffffffffffffff1681565b6000339050600860008273ffffffffffffffffffffffffffffffffffffffff1673ffffffffffffffffffffffffffffffffffffffff16815260200190815260200160002060009054906101000a900460ff161515610fe0576040517f08c379a00000000000000000000000000000000000000000000000000000000081526004018080602001828103825260128152602001807f4e6f7420706172746e657265642077697468000000000000000000000000000081525060200191505060405180910390fd5b610fe981611795565b50565b60058054600181600116156101000203166002900480601f0160208091040260200160405190810160405280929190818152602001828054600181600116156101000203166002900480156110825780601f1061105757610100808354040283529160200191611082565b820191906000526020600020905b81548152906001019060200180831161106557829003601f168201915b505050505081565b600260009054906101000a900473ffffffffffffffffffffffffffffffffffffffff1673ffffffffffffffffffffffffffffffffffffffff163373ffffffffffffffffffffffffffffffffffffffff16141515611175576040517f08c379a00000000000000000000000000000000000000000000000000000000081526004018080602001828103825260218152602001807f4f6e6c79206f776e65722063616e2063616c6c20746869732066756e6374696f81526020017f6e0000000000000000000000000000000000000000000000000000000000000081525060400191505060405180910390fd5b600a60008273ffffffffffffffffffffffffffffffffffffffff1673ffffffffffffffffffffffffffffffffffffffff16815260200190815260200160002060009054906101000a900460ff1615151561125d576040517f08c379a00000000000000000000000000000000000000000000000000000000081526004018080602001828103825260268152602001807f506172746e6572736869702068617320616c7265616479206265656e2072657181526020017f756573746564000000000000000000000000000000000000000000000000000081525060400191505060405180910390fd5b61126681611c7c565b61126f81611a6f565b50565b6000809054906101000a900473ffffffffffffffffffffffffffffffffffffffff1681565b6000339050600a60008273ffffffffffffffffffffffffffffffffffffffff1673ffffffffffffffffffffffffffffffffffffffff16815260200190815260200160002060009054906101000a900460ff161515611383576040517f08c379a00000000000000000000000000000000000000000000000000000000081526004018080602001828103825260228152602001807f506172746e65727368697020686173206e6f74206265656e207265717565737481526020017f656400000000000000000000000000000000000000000000000000000000000081525060400191505060405180910390fd5b61138c81611775565b50565b600260009054906101000a900473ffffffffffffffffffffffffffffffffffffffff1673ffffffffffffffffffffffffffffffffffffffff163373ffffffffffffffffffffffffffffffffffffffff1614151561147a576040517f08c379a00000000000000000000000000000000000000000000000000000000081526004018080602001828103825260218152602001807f4f6e6c79206f776e65722063616e2063616c6c20746869732066756e6374696f81526020017f6e0000000000000000000000000000000000000000000000000000000000000081525060400191505060405180910390fd5b600a60008273ffffffffffffffffffffffffffffffffffffffff1673ffffffffffffffffffffffffffffffffffffffff16815260200190815260200160002060009054906101000a900460ff16151561153b576040517f08c379a000000000000000000000000000000000000000000000000000000000815260040180806020018281038252600f8152602001807f4e6f20737563682072657175657374000000000000000000000000000000000081525060200191505060405180910390fd5b61154481611775565b61154d81611c8c565b50565b600260009054906101000a900473ffffffffffffffffffffffffffffffffffffffff1673ffffffffffffffffffffffffffffffffffffffff163373ffffffffffffffffffffffffffffffffffffffff1614151561163b576040517f08c379a00000000000000000000000000000000000000000000000000000000081526004018080602001828103825260218152602001807f4f6e6c79206f776e65722063616e2063616c6c20746869732066756e6374696f81526020017f6e0000000000000000000000000000000000000000000000000000000000000081525060400191505060405180910390fd5b600960008273ffffffffffffffffffffffffffffffffffffffff1673ffffffffffffffffffffffffffffffffffffffff16815260200190815260200160002060009054906101000a900460ff1615156116fc576040517f08c379a000000000000000000000000000000000000000000000000000000000815260040180806020018281038252600f8152602001807f4e6f20737563682072657175657374000000000000000000000000000000000081525060200191505060405180910390fd5b61170581611a5f565b61170e81611e99565b50565b6001600860008373ffffffffffffffffffffffffffffffffffffffff1673ffffffffffffffffffffffffffffffffffffffff16815260200190815260200160002060006101000a81548160ff021916908315150217905550611772816120a6565b50565b6117826007600a8361223a565b50565b6117926006600983612360565b50565b6000600860008373ffffffffffffffffffffffffffffffffffffffff1673ffffffffffffffffffffffffffffffffffffffff16815260200190815260200160002060006101000a81548160ff0219169083151502179055506117f6816124e2565b50565b60008060009054906101000a900473ffffffffffffffffffffffffffffffffffffffff1673ffffffffffffffffffffffffffffffffffffffff1663e11aa6a2836040518263ffffffff167c0100000000000000000000000000000000000000000000000000000000028152600401808273ffffffffffffffffffffffffffffffffffffffff1673ffffffffffffffffffffffffffffffffffffffff16815260200191505060206040518083038186803b1580156118b557600080fd5b505afa1580156118c9573d6000803e3d6000fd5b505050506040513d60208110156118df57600080fd5b81019080805190602001909291905050509050600360058111156118ff57fe5b81600581111561190b57fe5b141515611980576040517f08c379a00000000000000000000000000000000000000000000000000000000081526004018080602001828103825260138152602001807f57726f6e6720636f6e747261637420747970650000000000000000000000000081525060200191505060405180910390fd5b60008290508073ffffffffffffffffffffffffffffffffffffffff166356064925600160009054906101000a900473ffffffffffffffffffffffffffffffffffffffff166040518263ffffffff167c0100000000000000000000000000000000000000000000000000000000028152600401808273ffffffffffffffffffffffffffffffffffffffff1673ffffffffffffffffffffffffffffffffffffffff168152602001915050600060405180830381600087803b158015611a4257600080fd5b505af1158015611a56573d6000803e3d6000fd5b50505050505050565b611a6c600660098361223a565b50565b60008060009054906101000a900473ffffffffffffffffffffffffffffffffffffffff1673ffffffffffffffffffffffffffffffffffffffff1663e11aa6a2836040518263ffffffff167c0100000000000000000000000000000000000000000000000000000000028152600401808273ffffffffffffffffffffffffffffffffffffffff1673ffffffffffffffffffffffffffffffffffffffff16815260200191505060206040518083038186803b158015611b2b57600080fd5b505afa158015611b3f573d6000803e3d6000fd5b505050506040513d6020811015611b5557600080fd5b8101908080519060200190929190505050905060036005811115611b7557fe5b816005811115611b8157fe5b141515611bf6576040517f08c379a00000000000000000000000000000000000000000000000000000000081526004018080602001828103825260138152602001807f57726f6e6720636f6e747261637420747970650000000000000000000000000081525060200191505060405180910390fd5b60008290508073ffffffffffffffffffffffffffffffffffffffff16634f614ffc6040518163ffffffff167c0100000000000000000000000000000000000000000000000000000000028152600401600060405180830381600087803b158015611c5f57600080fd5b505af1158015611c73573d6000803e3d6000fd5b50505050505050565b611c896007600a83612360565b50565b60008060009054906101000a900473ffffffffffffffffffffffffffffffffffffffff1673ffffffffffffffffffffffffffffffffffffffff1663e11aa6a2836040518263ffffffff167c0100000000000000000000000000000000000000000000000000000000028152600401808273ffffffffffffffffffffffffffffffffffffffff1673ffffffffffffffffffffffffffffffffffffffff16815260200191505060206040518083038186803b158015611d4857600080fd5b505afa158015611d5c573d6000803e3d6000fd5b505050506040513d6020811015611d7257600080fd5b8101908080519060200190929190505050905060036005811115611d9257fe5b816005811115611d9e57fe5b141515611e13576040517f08c379a00000000000000000000000000000000000000000000000000000000081526004018080602001828103825260138152602001807f57726f6e6720636f6e747261637420747970650000000000000000000000000081525060200191505060405180910390fd5b60008290508073ffffffffffffffffffffffffffffffffffffffff1663a1d688806040518163ffffffff167c0100000000000000000000000000000000000000000000000000000000028152600401600060405180830381600087803b158015611e7c57600080fd5b505af1158015611e90573d6000803e3d6000fd5b50505050505050565b60008060009054906101000a900473ffffffffffffffffffffffffffffffffffffffff1673ffffffffffffffffffffffffffffffffffffffff1663e11aa6a2836040518263ffffffff167c0100000000000000000000000000000000000000000000000000000000028152600401808273ffffffffffffffffffffffffffffffffffffffff1673ffffffffffffffffffffffffffffffffffffffff16815260200191505060206040518083038186803b158015611f5557600080fd5b505afa158015611f69573d6000803e3d6000fd5b505050506040513d6020811015611f7f57600080fd5b8101908080519060200190929190505050905060036005811115611f9f57fe5b816005811115611fab57fe5b141515612020576040517f08c379a00000000000000000000000000000000000000000000000000000000081526004018080602001828103825260138152602001807f57726f6e6720636f6e747261637420747970650000000000000000000000000081525060200191505060405180910390fd5b60008290508073ffffffffffffffffffffffffffffffffffffffff1663e0726b0a6040518163ffffffff167c0100000000000000000000000000000000000000000000000000000000028152600401600060405180830381600087803b15801561208957600080fd5b505af115801561209d573d6000803e3d6000fd5b50505050505050565b60008060009054906101000a900473ffffffffffffffffffffffffffffffffffffffff1673ffffffffffffffffffffffffffffffffffffffff1663e11aa6a2836040518263ffffffff167c0100000000000000000000000000000000000000000000000000000000028152600401808273ffffffffffffffffffffffffffffffffffffffff1673ffffffffffffffffffffffffffffffffffffffff16815260200191505060206040518083038186803b15801561216257600080fd5b505afa158015612176573d6000803e3d6000fd5b505050506040513d602081101561218c57600080fd5b81019080805190602001909291905050509050600360058111156121ac57fe5b8160058111156121b857fe5b14151561222d576040517f08c379a00000000000000000000000000000000000000000000000000000000081526004018080602001828103825260138152602001807f57726f6e6720636f6e747261637420747970650000000000000000000000000081525060200191505060405180910390fd5b61223682612676565b5050565b8160008273ffffffffffffffffffffffffffffffffffffffff1673ffffffffffffffffffffffffffffffffffffffff16815260200190815260200160002060009054906101000a900460ff1615156122fa576040517f08c379a00000000000000000000000000000000000000000000000000000000081526004018080602001828103825260098152602001807f4e6f7420666f756e64000000000000000000000000000000000000000000000081525060200191505060405180910390fd5b6123048382612686565b60008260008373ffffffffffffffffffffffffffffffffffffffff1673ffffffffffffffffffffffffffffffffffffffff16815260200190815260200160002060006101000a81548160ff021916908315150217905550505050565b8160008273ffffffffffffffffffffffffffffffffffffffff1673ffffffffffffffffffffffffffffffffffffffff16815260200190815260200160002060009054906101000a900460ff16151515612421576040517f08c379a000000000000000000000000000000000000000000000000000000000815260040180806020018281038252600e8152602001807f416c72656164792065786973747300000000000000000000000000000000000081525060200191505060405180910390fd5b828190806001815401808255809150509060018203906000526020600020016000909192909190916101000a81548173ffffffffffffffffffffffffffffffffffffffff021916908373ffffffffffffffffffffffffffffffffffffffff1602179055505060018260008373ffffffffffffffffffffffffffffffffffffffff1673ffffffffffffffffffffffffffffffffffffffff16815260200190815260200160002060006101000a81548160ff021916908315150217905550505050565b60008060009054906101000a900473ffffffffffffffffffffffffffffffffffffffff1673ffffffffffffffffffffffffffffffffffffffff1663e11aa6a2836040518263ffffffff167c0100000000000000000000000000000000000000000000000000000000028152600401808273ffffffffffffffffffffffffffffffffffffffff1673ffffffffffffffffffffffffffffffffffffffff16815260200191505060206040518083038186803b15801561259e57600080fd5b505afa1580156125b2573d6000803e3d6000fd5b505050506040513d60208110156125c857600080fd5b81019080805190602001909291905050509050600360058111156125e857fe5b8160058111156125f457fe5b141515612669576040517f08c379a00000000000000000000000000000000000000000000000000000000081526004018080602001828103825260138152602001807f57726f6e6720636f6e747261637420747970650000000000000000000000000081525060200191505060405180910390fd5b61267282612804565b5050565b612683600b600d83612360565b50565b60008090505b82805490508110156127ff578173ffffffffffffffffffffffffffffffffffffffff1683828154811015156126bd57fe5b9060005260206000200160009054906101000a900473ffffffffffffffffffffffffffffffffffffffff1673ffffffffffffffffffffffffffffffffffffffff1614156127f25782600184805490500381548110151561271957fe5b9060005260206000200160009054906101000a900473ffffffffffffffffffffffffffffffffffffffff16838281548110151561275257fe5b9060005260206000200160006101000a81548173ffffffffffffffffffffffffffffffffffffffff021916908373ffffffffffffffffffffffffffffffffffffffff1602179055508260018480549050038154811015156127af57fe5b9060005260206000200160006101000a81549073ffffffffffffffffffffffffffffffffffffffff0219169055828054809190600190036127f09190612814565b505b808060010191505061268c565b505050565b612811600b600d8361223a565b50565b81548183558181111561283b5781836000526020600020918201910161283a9190612840565b5b505050565b61286291905b8082111561285e576000816000905550600101612846565b5090565b9056fea165627a7a723058200b62186bbd5ecc2dcfe85658eb83f587d31c85b49cf61decf5999ee785176ff80029",
  "source": "pragma solidity ^0.5.1;\n\nimport \"./Main.sol\";\nimport \"./Organization.sol\";\nimport \"./Item.sol\";\n\ncontract ServiceCenter is Organization {\n    address[] public manufacturers;\n    address[] public pendingItems;\n\n    mapping (address => bool) isInManufacturers;\n    mapping (address => bool) isPendingItem;\n\n\n\n    constructor (address _ownerID, string memory _name, string memory _physicalAddress, string memory _registrationNumber) public {\n        main = Deployer(msg.sender).main();\n        ownerID = _ownerID;\n        name = _name;\n        physicalAddress = _physicalAddress;\n        registrationNumber = _registrationNumber;\n    }\n\n\n\n// Public\n\n\n\n// Internal\n\n\n\n    function _addPartnerMethod (address pID) internal {\n        Main.ContractType cType = main.getContractType(pID);\n        require(cType == Main.ContractType.MANUFACTURER, \"Wrong contract type\");\n\n        _addManufacturer(pID);\n    }\n\n    function _removePartnerMethod (address pID) internal {\n        Main.ContractType cType = main.getContractType(pID);\n        require(cType == Main.ContractType.MANUFACTURER, \"Wrong contract type\");\n\n        _removeManufacturer(pID);\n    }\n\n    function _sendPartnershipRequest (address pID) internal {\n        Main.ContractType cType = main.getContractType(pID);\n        require(cType == Main.ContractType.MANUFACTURER, \"Wrong contract type\");\n\n        Organization oInstance = Organization(pID);\n        oInstance.receivePartnershipRequest();\n    }\n\n    function _sendPartnershipDecline (address pID) internal {\n        Main.ContractType cType = main.getContractType(pID);\n        require(cType == Main.ContractType.MANUFACTURER, \"Wrong contract type\");\n\n        Organization oInstance = Organization(pID);\n        oInstance.receivePartnershipDecline();\n    }\n\n    function _sendPartnershipRevert (address pID) internal {\n        Main.ContractType cType = main.getContractType(pID);\n        require(cType == Main.ContractType.MANUFACTURER, \"Wrong contract type\");\n\n        Organization oInstance = Organization(pID);\n        oInstance.receivePartnershipRevert();\n    }\n\n    function _sendPartnershipCancel (address pID) internal {\n        Main.ContractType cType = main.getContractType(pID);\n        require(cType == Main.ContractType.MANUFACTURER, \"Wrong contract type\");\n\n        Organization oInstance = Organization(pID);\n        oInstance.cancelPartnership(id);\n    }\n\n    function _addPendingItem (address iID) internal { _addTo(pendingItems, isPendingItem, iID); }\n    function _removePendingItem (address iID) internal { _removeFrom(pendingItems, isPendingItem, iID); }\n\n    function _addManufacturer (address mID) internal { _addTo(manufacturers, isInManufacturers, mID); }\n    function _removeManufacturer (address mID) internal { _removeFrom(manufacturers, isInManufacturers, mID); }\n}\n\n",
  "sourcePath": "/Users/viktorgronskiy/Documents/Projects/Fun/GuarantSystem/blockchain/ServiceCenter.sol",
  "compiler": {
    "name": "solc",
    "version": "0.5.1+commit.c8a2cb62.Emscripten.clang"
  },
  "schemaVersion": "3.0.1",
  "updatedAt": "2019-01-31T12:54:06.607Z",
  "devdoc": {
    "methods": {}
  },
  "userdoc": {
    "methods": {}
  }
}