{
  "contractName": "ServiceCenter",
  "abi": [
    {
      "constant": true,
      "inputs": [],
      "name": "name",
      "outputs": [
        {
          "name": "",
          "type": "string"
        }
      ],
      "payable": false,
      "stateMutability": "view",
      "type": "function"
    },
    {
      "constant": false,
      "inputs": [
        {
          "name": "_Type",
          "type": "uint8"
        },
        {
          "name": "_objs",
          "type": "address[]"
        }
      ],
      "name": "receiveRequest",
      "outputs": [],
      "payable": false,
      "stateMutability": "nonpayable",
      "type": "function"
    },
    {
      "constant": false,
      "inputs": [
        {
          "name": "_Type",
          "type": "uint8"
        },
        {
          "name": "_objs",
          "type": "address[]"
        }
      ],
      "name": "receiveCompletedRequestCancel",
      "outputs": [],
      "payable": false,
      "stateMutability": "nonpayable",
      "type": "function"
    },
    {
      "constant": true,
      "inputs": [],
      "name": "physicalAddress",
      "outputs": [
        {
          "name": "",
          "type": "string"
        }
      ],
      "payable": false,
      "stateMutability": "view",
      "type": "function"
    },
    {
      "constant": false,
      "inputs": [
        {
          "name": "pID",
          "type": "address"
        }
      ],
      "name": "cancelPartnership",
      "outputs": [],
      "payable": false,
      "stateMutability": "nonpayable",
      "type": "function"
    },
    {
      "constant": false,
      "inputs": [
        {
          "name": "_Type",
          "type": "uint8"
        },
        {
          "name": "_objs",
          "type": "address[]"
        }
      ],
      "name": "receiveRequestDecline",
      "outputs": [],
      "payable": false,
      "stateMutability": "nonpayable",
      "type": "function"
    },
    {
      "constant": false,
      "inputs": [
        {
          "name": "_Type",
          "type": "uint8"
        },
        {
          "name": "_objs",
          "type": "address[]"
        }
      ],
      "name": "receiveRequestRevert",
      "outputs": [],
      "payable": false,
      "stateMutability": "nonpayable",
      "type": "function"
    },
    {
      "constant": true,
      "inputs": [
        {
          "name": "",
          "type": "uint256"
        }
      ],
      "name": "pendingItems",
      "outputs": [
        {
          "name": "",
          "type": "address"
        }
      ],
      "payable": false,
      "stateMutability": "view",
      "type": "function"
    },
    {
      "constant": false,
      "inputs": [
        {
          "name": "pID",
          "type": "address"
        }
      ],
      "name": "acceptPartnership",
      "outputs": [],
      "payable": false,
      "stateMutability": "nonpayable",
      "type": "function"
    },
    {
      "constant": true,
      "inputs": [
        {
          "name": "",
          "type": "uint256"
        }
      ],
      "name": "manufacturers",
      "outputs": [
        {
          "name": "",
          "type": "address"
        }
      ],
      "payable": false,
      "stateMutability": "view",
      "type": "function"
    },
    {
      "constant": true,
      "inputs": [],
      "name": "id",
      "outputs": [
        {
          "name": "",
          "type": "address"
        }
      ],
      "payable": false,
      "stateMutability": "view",
      "type": "function"
    },
    {
      "constant": true,
      "inputs": [],
      "name": "registrationNumber",
      "outputs": [
        {
          "name": "",
          "type": "string"
        }
      ],
      "payable": false,
      "stateMutability": "view",
      "type": "function"
    },
    {
      "constant": false,
      "inputs": [
        {
          "name": "pID",
          "type": "address"
        }
      ],
      "name": "requestPartnership",
      "outputs": [],
      "payable": false,
      "stateMutability": "nonpayable",
      "type": "function"
    },
    {
      "constant": true,
      "inputs": [],
      "name": "main",
      "outputs": [
        {
          "name": "",
          "type": "address"
        }
      ],
      "payable": false,
      "stateMutability": "view",
      "type": "function"
    },
    {
      "constant": false,
      "inputs": [
        {
          "name": "pID",
          "type": "address"
        }
      ],
      "name": "revertPartnership",
      "outputs": [],
      "payable": false,
      "stateMutability": "nonpayable",
      "type": "function"
    },
    {
      "constant": false,
      "inputs": [
        {
          "name": "pID",
          "type": "address"
        }
      ],
      "name": "declinePartnership",
      "outputs": [],
      "payable": false,
      "stateMutability": "nonpayable",
      "type": "function"
    },
    {
      "inputs": [
        {
          "name": "_main",
          "type": "address"
        },
        {
          "name": "_ownerID",
          "type": "address"
        },
        {
          "name": "_name",
          "type": "string"
        },
        {
          "name": "_physicalAddress",
          "type": "string"
        },
        {
          "name": "_registrationNumber",
          "type": "string"
        }
      ],
      "payable": false,
      "stateMutability": "nonpayable",
      "type": "constructor"
    },
    {
      "constant": true,
      "inputs": [],
      "name": "getInfo",
      "outputs": [
        {
          "name": "",
          "type": "string"
        },
        {
          "name": "",
          "type": "string"
        },
        {
          "name": "",
          "type": "string"
        }
      ],
      "payable": false,
      "stateMutability": "view",
      "type": "function"
    },
    {
      "constant": true,
      "inputs": [],
      "name": "getManufacturers",
      "outputs": [
        {
          "name": "",
          "type": "address[]"
        }
      ],
      "payable": false,
      "stateMutability": "view",
      "type": "function"
    },
    {
      "constant": true,
      "inputs": [],
      "name": "getPendingItems",
      "outputs": [
        {
          "name": "",
          "type": "address[]"
        }
      ],
      "payable": false,
      "stateMutability": "view",
      "type": "function"
    }
  ],
  "bytecode": "0x6080604052306000806101000a81548173ffffffffffffffffffffffffffffffffffffffff021916908373ffffffffffffffffffffffffffffffffffffffff1602179055503480156200005157600080fd5b5060405162003a9238038062003a92833981018060405260a08110156200007757600080fd5b8101908080519060200190929190805190602001909291908051640100000000811115620000a457600080fd5b82810190506020810184811115620000bb57600080fd5b8151856001820283011164010000000082111715620000d957600080fd5b50509291906020018051640100000000811115620000f657600080fd5b828101905060208101848111156200010d57600080fd5b81518560018202830111640100000000821117156200012b57600080fd5b505092919060200180516401000000008111156200014857600080fd5b828101905060208101848111156200015f57600080fd5b81518560018202830111640100000000821117156200017d57600080fd5b505092919050505084600960006101000a81548173ffffffffffffffffffffffffffffffffffffffff021916908373ffffffffffffffffffffffffffffffffffffffff16021790555083600160006101000a81548173ffffffffffffffffffffffffffffffffffffffff021916908373ffffffffffffffffffffffffffffffffffffffff16021790555082600690805190602001906200021f9291906200025d565b508160079080519060200190620002389291906200025d565b508060089080519060200190620002519291906200025d565b5050505050506200030c565b828054600181600116156101000203166002900490600052602060002090601f016020900481019282601f10620002a057805160ff1916838001178555620002d1565b82800160010185558215620002d1579182015b82811115620002d0578251825591602001919060010190620002b3565b5b509050620002e09190620002e4565b5090565b6200030991905b8082111562000305576000816000905550600101620002eb565b5090565b90565b613776806200031c6000396000f3fe608060405260043610610101576000357c01000000000000000000000000000000000000000000000000000000009004806306fdde03146101065780631f37c99114610196578063381f2e9d1461026857806340868fff1461033a5780634353800e146103ca57806356064925146104365780635a9b0b89146104875780635e26e856146105ef5780636e58c294146106c157806379ac0477146107935780637aa29a261461080e57806390175af11461085f578063af640d0f146108da578063b2a1a40a14610931578063bc8a2345146109c1578063c937cf3714610a2d578063dffeadd014610a7e578063eaf7c97a14610ad5578063fbfca3c614610b26575b600080fd5b34801561011257600080fd5b5061011b610b77565b6040518080602001828103825283818151815260200191508051906020019080838360005b8381101561015b578082015181840152602081019050610140565b50505050905090810190601f1680156101885780820380516001836020036101000a031916815260200191505b509250505060405180910390f35b3480156101a257600080fd5b50610266600480360360408110156101b957600080fd5b81019080803560ff169060200190929190803590602001906401000000008111156101e357600080fd5b8201836020820111156101f557600080fd5b8035906020019184602083028401116401000000008311171561021757600080fd5b919080806020026020016040519081016040528093929190818152602001838360200280828437600081840152601f19601f820116905080830192505050505050509192919290505050610c15565b005b34801561027457600080fd5b506103386004803603604081101561028b57600080fd5b81019080803560ff169060200190929190803590602001906401000000008111156102b557600080fd5b8201836020820111156102c757600080fd5b803590602001918460208302840111640100000000831117156102e957600080fd5b919080806020026020016040519081016040528093929190818152602001838360200280828437600081840152601f19601f820116905080830192505050505050509192919290505050610d60565b005b34801561034657600080fd5b5061034f610e3c565b6040518080602001828103825283818151815260200191508051906020019080838360005b8381101561038f578082015181840152602081019050610374565b50505050905090810190601f1680156103bc5780820380516001836020036101000a031916815260200191505b509250505060405180910390f35b3480156103d657600080fd5b506103df610eda565b6040518080602001828103825283818151815260200191508051906020019060200280838360005b83811015610422578082015181840152602081019050610407565b505050509050019250505060405180910390f35b34801561044257600080fd5b506104856004803603602081101561045957600080fd5b81019080803573ffffffffffffffffffffffffffffffffffffffff169060200190929190505050610f68565b005b34801561049357600080fd5b5061049c610fa1565b60405180806020018060200180602001848103845287818151815260200191508051906020019080838360005b838110156104e45780820151818401526020810190506104c9565b50505050905090810190601f1680156105115780820380516001836020036101000a031916815260200191505b50848103835286818151815260200191508051906020019080838360005b8381101561054a57808201518184015260208101905061052f565b50505050905090810190601f1680156105775780820380516001836020036101000a031916815260200191505b50848103825285818151815260200191508051906020019080838360005b838110156105b0578082015181840152602081019050610595565b50505050905090810190601f1680156105dd5780820380516001836020036101000a031916815260200191505b50965050505050505060405180910390f35b3480156105fb57600080fd5b506106bf6004803603604081101561061257600080fd5b81019080803560ff1690602001909291908035906020019064010000000081111561063c57600080fd5b82018360208201111561064e57600080fd5b8035906020019184602083028401116401000000008311171561067057600080fd5b919080806020026020016040519081016040528093929190818152602001838360200280828437600081840152601f19601f82011690508083019250505050505050919291929050505061118b565b005b3480156106cd57600080fd5b50610791600480360360408110156106e457600080fd5b81019080803560ff1690602001909291908035906020019064010000000081111561070e57600080fd5b82018360208201111561072057600080fd5b8035906020019184602083028401116401000000008311171561074257600080fd5b919080806020026020016040519081016040528093929190818152602001838360200280828437600081840152601f19601f820116905080830192505050505050509192919290505050611267565b005b34801561079f57600080fd5b506107cc600480360360208110156107b657600080fd5b8101908080359060200190929190505050611343565b604051808273ffffffffffffffffffffffffffffffffffffffff1673ffffffffffffffffffffffffffffffffffffffff16815260200191505060405180910390f35b34801561081a57600080fd5b5061085d6004803603602081101561083157600080fd5b81019080803573ffffffffffffffffffffffffffffffffffffffff169060200190929190505050611381565b005b34801561086b57600080fd5b506108986004803603602081101561088257600080fd5b81019080803590602001909291905050506114a5565b604051808273ffffffffffffffffffffffffffffffffffffffff1673ffffffffffffffffffffffffffffffffffffffff16815260200191505060405180910390f35b3480156108e657600080fd5b506108ef6114e3565b604051808273ffffffffffffffffffffffffffffffffffffffff1673ffffffffffffffffffffffffffffffffffffffff16815260200191505060405180910390f35b34801561093d57600080fd5b50610946611508565b6040518080602001828103825283818151815260200191508051906020019080838360005b8381101561098657808201518184015260208101905061096b565b50505050905090810190601f1680156109b35780820380516001836020036101000a031916815260200191505b509250505060405180910390f35b3480156109cd57600080fd5b506109d66115a6565b6040518080602001828103825283818151815260200191508051906020019060200280838360005b83811015610a195780820151818401526020810190506109fe565b505050509050019250505060405180910390f35b348015610a3957600080fd5b50610a7c60048036036020811015610a5057600080fd5b81019080803573ffffffffffffffffffffffffffffffffffffffff169060200190929190505050611634565b005b348015610a8a57600080fd5b50610a93611758565b604051808273ffffffffffffffffffffffffffffffffffffffff1673ffffffffffffffffffffffffffffffffffffffff16815260200191505060405180910390f35b348015610ae157600080fd5b50610b2460048036036020811015610af857600080fd5b81019080803573ffffffffffffffffffffffffffffffffffffffff16906020019092919050505061177e565b005b348015610b3257600080fd5b50610b7560048036036020811015610b4957600080fd5b81019080803573ffffffffffffffffffffffffffffffffffffffff1690602001909291905050506118a2565b005b60068054600181600116156101000203166002900480601f016020809104026020016040519081016040528092919081815260200182805460018160011615610100020316600290048015610c0d5780601f10610be257610100808354040283529160200191610c0d565b820191906000526020600020905b815481529060010190602001808311610bf057829003601f168201915b505050505081565b610c1d6136d4565b6040805190810160405280846001811115610c3457fe5b8152602001838152509050600033905060026000610c51846119c6565b815260200190815260200160002060009054906101000a900460ff16151515610d08576040517f08c379a00000000000000000000000000000000000000000000000000000000081526004018080602001828103825260218152602001807f526571756573742068617320616c7265616479206265656e207265636569766581526020017f640000000000000000000000000000000000000000000000000000000000000081525060400191505060405180910390fd5b60036000610d15846119c6565b815260200190815260200160002060009054906101000a900460ff1615610d4f57610d408183611a63565b610d4a8183611aa5565b610d5a565b610d598183611af0565b5b50505050565b610d686136d4565b6040805190810160405280846001811115610d7f57fe5b8152602001838152509050600033905060046000610d9c846119c6565b815260200190815260200160002060009054906101000a900460ff161515610e2c576040517f08c379a00000000000000000000000000000000000000000000000000000000081526004018080602001828103825260188152602001807f52657175657374206973206e6f7420636f6d706c65746564000000000000000081525060200191505060405180910390fd5b610e368183611b32565b50505050565b60078054600181600116156101000203166002900480601f016020809104026020016040519081016040528092919081815260200182805460018160011615610100020316600290048015610ed25780601f10610ea757610100808354040283529160200191610ed2565b820191906000526020600020905b815481529060010190602001808311610eb557829003601f168201915b505050505081565b6060600b805480602002602001604051908101604052809291908181526020018280548015610f5e57602002820191906000526020600020905b8160009054906101000a900473ffffffffffffffffffffffffffffffffffffffff1673ffffffffffffffffffffffffffffffffffffffff1681526020019060010190808311610f14575b5050505050905090565b610f706136d4565b600181600001906001811115610f8257fe5b90816001811115610f8f57fe5b81525050610f9d8282611b74565b5050565b6060806060600660076008828054600181600116156101000203166002900480601f0160208091040260200160405190810160405280929190818152602001828054600181600116156101000203166002900480156110415780601f1061101657610100808354040283529160200191611041565b820191906000526020600020905b81548152906001019060200180831161102457829003601f168201915b50505050509250818054600181600116156101000203166002900480601f0160208091040260200160405190810160405280929190818152602001828054600181600116156101000203166002900480156110dd5780601f106110b2576101008083540402835291602001916110dd565b820191906000526020600020905b8154815290600101906020018083116110c057829003601f168201915b50505050509150808054600181600116156101000203166002900480601f0160208091040260200160405190810160405280929190818152602001828054600181600116156101000203166002900480156111795780601f1061114e57610100808354040283529160200191611179565b820191906000526020600020905b81548152906001019060200180831161115c57829003601f168201915b50505050509050925092509250909192565b6111936136d4565b60408051908101604052808460018111156111aa57fe5b81526020018381525090506000339050600360006111c7846119c6565b815260200190815260200160002060009054906101000a900460ff161515611257576040517f08c379a00000000000000000000000000000000000000000000000000000000081526004018080602001828103825260198152602001807f5265717565737420686173206e6f74206265656e2073656e740000000000000081525060200191505060405180910390fd5b6112618183611aa5565b50505050565b61126f6136d4565b604080519081016040528084600181111561128657fe5b81526020018381525090506000339050600260006112a3846119c6565b815260200190815260200160002060009054906101000a900460ff161515611333576040517f08c379a000000000000000000000000000000000000000000000000000000000815260040180806020018281038252601d8152602001807f5265717565737420686173206e6f74206265656e20726563656976656400000081525060200191505060405180910390fd5b61133d8183611cb8565b50505050565b600b8181548110151561135257fe5b906000526020600020016000915054906101000a900473ffffffffffffffffffffffffffffffffffffffff1681565b600160009054906101000a900473ffffffffffffffffffffffffffffffffffffffff1673ffffffffffffffffffffffffffffffffffffffff163373ffffffffffffffffffffffffffffffffffffffff1614151561146c576040517f08c379a00000000000000000000000000000000000000000000000000000000081526004018080602001828103825260218152602001807f4f6e6c79206f776e65722063616e2063616c6c20746869732066756e6374696f81526020017f6e0000000000000000000000000000000000000000000000000000000000000081525060400191505060405180910390fd5b6114746136d4565b60018160000190600181111561148657fe5b9081600181111561149357fe5b815250506114a18282611cfa565b5050565b600a818154811015156114b457fe5b906000526020600020016000915054906101000a900473ffffffffffffffffffffffffffffffffffffffff1681565b6000809054906101000a900473ffffffffffffffffffffffffffffffffffffffff1681565b60088054600181600116156101000203166002900480601f01602080910402602001604051908101604052809291908181526020018280546001816001161561010002031660029004801561159e5780601f106115735761010080835404028352916020019161159e565b820191906000526020600020905b81548152906001019060200180831161158157829003601f168201915b505050505081565b6060600a80548060200260200160405190810160405280929190818152602001828054801561162a57602002820191906000526020600020905b8160009054906101000a900473ffffffffffffffffffffffffffffffffffffffff1673ffffffffffffffffffffffffffffffffffffffff16815260200190600101908083116115e0575b5050505050905090565b600160009054906101000a900473ffffffffffffffffffffffffffffffffffffffff1673ffffffffffffffffffffffffffffffffffffffff163373ffffffffffffffffffffffffffffffffffffffff1614151561171f576040517f08c379a00000000000000000000000000000000000000000000000000000000081526004018080602001828103825260218152602001807f4f6e6c79206f776e65722063616e2063616c6c20746869732066756e6374696f81526020017f6e0000000000000000000000000000000000000000000000000000000000000081525060400191505060405180910390fd5b6117276136d4565b60018160000190600181111561173957fe5b9081600181111561174657fe5b815250506117548282611ea4565b5050565b600960009054906101000a900473ffffffffffffffffffffffffffffffffffffffff1681565b600160009054906101000a900473ffffffffffffffffffffffffffffffffffffffff1673ffffffffffffffffffffffffffffffffffffffff163373ffffffffffffffffffffffffffffffffffffffff16141515611869576040517f08c379a00000000000000000000000000000000000000000000000000000000081526004018080602001828103825260218152602001807f4f6e6c79206f776e65722063616e2063616c6c20746869732066756e6374696f81526020017f6e0000000000000000000000000000000000000000000000000000000000000081525060400191505060405180910390fd5b6118716136d4565b60018160000190600181111561188357fe5b9081600181111561189057fe5b8152505061189e8282612083565b5050565b600160009054906101000a900473ffffffffffffffffffffffffffffffffffffffff1673ffffffffffffffffffffffffffffffffffffffff163373ffffffffffffffffffffffffffffffffffffffff1614151561198d576040517f08c379a00000000000000000000000000000000000000000000000000000000081526004018080602001828103825260218152602001807f4f6e6c79206f776e65722063616e2063616c6c20746869732066756e6374696f81526020017f6e0000000000000000000000000000000000000000000000000000000000000081525060400191505060405180910390fd5b6119956136d4565b6001816000019060018111156119a757fe5b908160018111156119b457fe5b815250506119c28282612223565b5050565b600081600001518260200151604051602001808360018111156119e557fe5b60ff167f0100000000000000000000000000000000000000000000000000000000000000028152600101828051906020019060200280838360005b83811015611a3b578082015181840152602081019050611a20565b5050505090500192505050604051602081830303815290604052805190602001209050919050565b611a6d82826123c3565b600160046000611a7c846119c6565b815260200190815260200160002060006101000a81548160ff0219169083151502179055505050565b611aaf828261257c565b611ab88161272c565b600060036000611ac7846119c6565b815260200190815260200160002060006101000a81548160ff0219169083151502179055505050565b611afa82826127c3565b600160026000611b09846119c6565b815260200190815260200160002060006101000a81548160ff0219169083151502179055505050565b611b3c8282612973565b600060046000611b4b846119c6565b815260200190815260200160002060006101000a81548160ff0219169083151502179055505050565b600160009054906101000a900473ffffffffffffffffffffffffffffffffffffffff1673ffffffffffffffffffffffffffffffffffffffff163373ffffffffffffffffffffffffffffffffffffffff161480611c2c57508173ffffffffffffffffffffffffffffffffffffffff163373ffffffffffffffffffffffffffffffffffffffff16148015611c2b575060046000611c0e836119c6565b815260200190815260200160002060009054906101000a900460ff165b5b1515611ca0576040517f08c379a00000000000000000000000000000000000000000000000000000000081526004018080602001828103825260168152602001807f4e6f7420656e6f756768207065726d697373696f6e730000000000000000000081525060200191505060405180910390fd5b611caa8282611b32565b611cb48282612b2c565b5050565b611cc28282612c1c565b600060026000611cd1846119c6565b815260200190815260200160002060006101000a81548160ff0219169083151502179055505050565b600160009054906101000a900473ffffffffffffffffffffffffffffffffffffffff1673ffffffffffffffffffffffffffffffffffffffff163373ffffffffffffffffffffffffffffffffffffffff16141515611de5576040517f08c379a00000000000000000000000000000000000000000000000000000000081526004018080602001828103825260218152602001807f4f6e6c79206f776e65722063616e2063616c6c20746869732066756e6374696f81526020017f6e0000000000000000000000000000000000000000000000000000000000000081525060400191505060405180910390fd5b60026000611df2836119c6565b815260200190815260200160002060009054906101000a900460ff161515611e82576040517f08c379a000000000000000000000000000000000000000000000000000000000815260040180806020018281038252600f8152602001807f4e6f20737563682072657175657374000000000000000000000000000000000081525060200191505060405180910390fd5b611e8c8282611a63565b611e968282611cb8565b611ea08282612dcc565b5050565b600160009054906101000a900473ffffffffffffffffffffffffffffffffffffffff1673ffffffffffffffffffffffffffffffffffffffff163373ffffffffffffffffffffffffffffffffffffffff16141515611f8f576040517f08c379a00000000000000000000000000000000000000000000000000000000081526004018080602001828103825260218152602001807f4f6e6c79206f776e65722063616e2063616c6c20746869732066756e6374696f81526020017f6e0000000000000000000000000000000000000000000000000000000000000081525060400191505060405180910390fd5b60036000611f9c836119c6565b815260200190815260200160002060009054906101000a900460ff1615151561202d576040517f08c379a000000000000000000000000000000000000000000000000000000000815260040180806020018281038252601d8152602001807f526571756573742068617320616c7265616479206265656e2073656e7400000081525060200191505060405180910390fd5b6002600061203a836119c6565b815260200190815260200160002060009054906101000a900460ff161561206a576120658282611cfa565b61207f565b6120748282612ebc565b61207e8282612dcc565b5b5050565b600160009054906101000a900473ffffffffffffffffffffffffffffffffffffffff1673ffffffffffffffffffffffffffffffffffffffff163373ffffffffffffffffffffffffffffffffffffffff1614151561216e576040517f08c379a00000000000000000000000000000000000000000000000000000000081526004018080602001828103825260218152602001807f4f6e6c79206f776e65722063616e2063616c6c20746869732066756e6374696f81526020017f6e0000000000000000000000000000000000000000000000000000000000000081525060400191505060405180910390fd5b6003600061217b836119c6565b815260200190815260200160002060009054906101000a900460ff16151561220b576040517f08c379a000000000000000000000000000000000000000000000000000000000815260040180806020018281038252600f8152602001807f4e6f20737563682072657175657374000000000000000000000000000000000081525060200191505060405180910390fd5b6122158282611aa5565b61221f8282612efe565b5050565b600160009054906101000a900473ffffffffffffffffffffffffffffffffffffffff1673ffffffffffffffffffffffffffffffffffffffff163373ffffffffffffffffffffffffffffffffffffffff1614151561230e576040517f08c379a00000000000000000000000000000000000000000000000000000000081526004018080602001828103825260218152602001807f4f6e6c79206f776e65722063616e2063616c6c20746869732066756e6374696f81526020017f6e0000000000000000000000000000000000000000000000000000000000000081525060400191505060405180910390fd5b6002600061231b836119c6565b815260200190815260200160002060009054906101000a900460ff1615156123ab576040517f08c379a000000000000000000000000000000000000000000000000000000000815260040180806020018281038252600f8152602001807f4e6f20737563682072657175657374000000000000000000000000000000000081525060200191505060405180910390fd5b6123b58282611cb8565b6123bf8282612fee565b5050565b6001808111156123cf57fe5b816000015160018111156123df57fe5b1415612578576000600960009054906101000a900473ffffffffffffffffffffffffffffffffffffffff1673ffffffffffffffffffffffffffffffffffffffff1663c5a887c5846040518263ffffffff167c0100000000000000000000000000000000000000000000000000000000028152600401808273ffffffffffffffffffffffffffffffffffffffff1673ffffffffffffffffffffffffffffffffffffffff16815260200191505060206040518083038186803b1580156124a257600080fd5b505afa1580156124b6573d6000803e3d6000fd5b505050506040513d60208110156124cc57600080fd5b81019080805190602001909291905050509050600360058111156124ec57fe5b8160058111156124f857fe5b14151561256d576040517f08c379a00000000000000000000000000000000000000000000000000000000081526004018080602001828103825260138152602001807f57726f6e6720636f6e747261637420747970650000000000000000000000000081525060200191505060405180910390fd5b612576836130de565b505b5050565b60018081111561258857fe5b8160000151600181111561259857fe5b1415612728576000600960009054906101000a900473ffffffffffffffffffffffffffffffffffffffff1673ffffffffffffffffffffffffffffffffffffffff1663c5a887c5846040518263ffffffff167c0100000000000000000000000000000000000000000000000000000000028152600401808273ffffffffffffffffffffffffffffffffffffffff1673ffffffffffffffffffffffffffffffffffffffff16815260200191505060206040518083038186803b15801561265b57600080fd5b505afa15801561266f573d6000803e3d6000fd5b505050506040513d602081101561268557600080fd5b81019080805190602001909291905050509050600360058111156126a557fe5b8160058111156126b157fe5b141515612726576040517f08c379a00000000000000000000000000000000000000000000000000000000081526004018080602001828103825260138152602001807f57726f6e6720636f6e747261637420747970650000000000000000000000000081525060200191505060405180910390fd5b505b5050565b60008090505b8160200151518110156127bf5760006005600084602001518481518110151561275757fe5b9060200190602002015173ffffffffffffffffffffffffffffffffffffffff1673ffffffffffffffffffffffffffffffffffffffff16815260200190815260200160002060006101000a81548160ff0219169083151502179055508080600101915050612732565b5050565b6001808111156127cf57fe5b816000015160018111156127df57fe5b141561296f576000600960009054906101000a900473ffffffffffffffffffffffffffffffffffffffff1673ffffffffffffffffffffffffffffffffffffffff1663c5a887c5846040518263ffffffff167c0100000000000000000000000000000000000000000000000000000000028152600401808273ffffffffffffffffffffffffffffffffffffffff1673ffffffffffffffffffffffffffffffffffffffff16815260200191505060206040518083038186803b1580156128a257600080fd5b505afa1580156128b6573d6000803e3d6000fd5b505050506040513d60208110156128cc57600080fd5b81019080805190602001909291905050509050600360058111156128ec57fe5b8160058111156128f857fe5b14151561296d576040517f08c379a00000000000000000000000000000000000000000000000000000000081526004018080602001828103825260138152602001807f57726f6e6720636f6e747261637420747970650000000000000000000000000081525060200191505060405180910390fd5b505b5050565b60018081111561297f57fe5b8160000151600181111561298f57fe5b1415612b28576000600960009054906101000a900473ffffffffffffffffffffffffffffffffffffffff1673ffffffffffffffffffffffffffffffffffffffff1663c5a887c5846040518263ffffffff167c0100000000000000000000000000000000000000000000000000000000028152600401808273ffffffffffffffffffffffffffffffffffffffff1673ffffffffffffffffffffffffffffffffffffffff16815260200191505060206040518083038186803b158015612a5257600080fd5b505afa158015612a66573d6000803e3d6000fd5b505050506040513d6020811015612a7c57600080fd5b8101908080519060200190929190505050905060036005811115612a9c57fe5b816005811115612aa857fe5b141515612b1d576040517f08c379a00000000000000000000000000000000000000000000000000000000081526004018080602001828103825260138152602001807f57726f6e6720636f6e747261637420747970650000000000000000000000000081525060200191505060405180910390fd5b612b26836130ee565b505b5050565b60008290508073ffffffffffffffffffffffffffffffffffffffff1663381f2e9d836000015184602001516040518363ffffffff167c010000000000000000000000000000000000000000000000000000000002815260040180836001811115612b9257fe5b60ff16815260200180602001828103825283818151815260200191508051906020019060200280838360005b83811015612bd9578082015181840152602081019050612bbe565b505050509050019350505050600060405180830381600087803b158015612bff57600080fd5b505af1158015612c13573d6000803e3d6000fd5b50505050505050565b600180811115612c2857fe5b81600001516001811115612c3857fe5b1415612dc8576000600960009054906101000a900473ffffffffffffffffffffffffffffffffffffffff1673ffffffffffffffffffffffffffffffffffffffff1663c5a887c5846040518263ffffffff167c0100000000000000000000000000000000000000000000000000000000028152600401808273ffffffffffffffffffffffffffffffffffffffff1673ffffffffffffffffffffffffffffffffffffffff16815260200191505060206040518083038186803b158015612cfb57600080fd5b505afa158015612d0f573d6000803e3d6000fd5b505050506040513d6020811015612d2557600080fd5b8101908080519060200190929190505050905060036005811115612d4557fe5b816005811115612d5157fe5b141515612dc6576040517f08c379a00000000000000000000000000000000000000000000000000000000081526004018080602001828103825260138152602001807f57726f6e6720636f6e747261637420747970650000000000000000000000000081525060200191505060405180910390fd5b505b5050565b60008290508073ffffffffffffffffffffffffffffffffffffffff16631f37c991836000015184602001516040518363ffffffff167c010000000000000000000000000000000000000000000000000000000002815260040180836001811115612e3257fe5b60ff16815260200180602001828103825283818151815260200191508051906020019060200280838360005b83811015612e79578082015181840152602081019050612e5e565b505050509050019350505050600060405180830381600087803b158015612e9f57600080fd5b505af1158015612eb3573d6000803e3d6000fd5b50505050505050565b612ec682826130fe565b600160036000612ed5846119c6565b815260200190815260200160002060006101000a81548160ff0219169083151502179055505050565b60008290508073ffffffffffffffffffffffffffffffffffffffff16636e58c294836000015184602001516040518363ffffffff167c010000000000000000000000000000000000000000000000000000000002815260040180836001811115612f6457fe5b60ff16815260200180602001828103825283818151815260200191508051906020019060200280838360005b83811015612fab578082015181840152602081019050612f90565b505050509050019350505050600060405180830381600087803b158015612fd157600080fd5b505af1158015612fe5573d6000803e3d6000fd5b50505050505050565b60008290508073ffffffffffffffffffffffffffffffffffffffff16635e26e856836000015184602001516040518363ffffffff167c01000000000000000000000000000000000000000000000000000000000281526004018083600181111561305457fe5b60ff16815260200180602001828103825283818151815260200191508051906020019060200280838360005b8381101561309b578082015181840152602081019050613080565b505050509050019350505050600060405180830381600087803b1580156130c157600080fd5b505af11580156130d5573d6000803e3d6000fd5b50505050505050565b6130eb600a600c836132ae565b50565b6130fb600a600c83613430565b50565b60018081111561310a57fe5b8160000151600181111561311a57fe5b14156132aa576000600960009054906101000a900473ffffffffffffffffffffffffffffffffffffffff1673ffffffffffffffffffffffffffffffffffffffff1663c5a887c5846040518263ffffffff167c0100000000000000000000000000000000000000000000000000000000028152600401808273ffffffffffffffffffffffffffffffffffffffff1673ffffffffffffffffffffffffffffffffffffffff16815260200191505060206040518083038186803b1580156131dd57600080fd5b505afa1580156131f1573d6000803e3d6000fd5b505050506040513d602081101561320757600080fd5b810190808051906020019092919050505090506003600581111561322757fe5b81600581111561323357fe5b1415156132a8576040517f08c379a00000000000000000000000000000000000000000000000000000000081526004018080602001828103825260138152602001807f57726f6e6720636f6e747261637420747970650000000000000000000000000081525060200191505060405180910390fd5b505b5050565b8160008273ffffffffffffffffffffffffffffffffffffffff1673ffffffffffffffffffffffffffffffffffffffff16815260200190815260200160002060009054906101000a900460ff1615151561336f576040517f08c379a000000000000000000000000000000000000000000000000000000000815260040180806020018281038252600e8152602001807f416c72656164792065786973747300000000000000000000000000000000000081525060200191505060405180910390fd5b828190806001815401808255809150509060018203906000526020600020016000909192909190916101000a81548173ffffffffffffffffffffffffffffffffffffffff021916908373ffffffffffffffffffffffffffffffffffffffff1602179055505060018260008373ffffffffffffffffffffffffffffffffffffffff1673ffffffffffffffffffffffffffffffffffffffff16815260200190815260200160002060006101000a81548160ff021916908315150217905550505050565b8160008273ffffffffffffffffffffffffffffffffffffffff1673ffffffffffffffffffffffffffffffffffffffff16815260200190815260200160002060009054906101000a900460ff1615156134f0576040517f08c379a00000000000000000000000000000000000000000000000000000000081526004018080602001828103825260098152602001807f4e6f7420666f756e64000000000000000000000000000000000000000000000081525060200191505060405180910390fd5b6134fa8382613556565b60008260008373ffffffffffffffffffffffffffffffffffffffff1673ffffffffffffffffffffffffffffffffffffffff16815260200190815260200160002060006101000a81548160ff021916908315150217905550505050565b60008090505b82805490508110156136cf578173ffffffffffffffffffffffffffffffffffffffff16838281548110151561358d57fe5b9060005260206000200160009054906101000a900473ffffffffffffffffffffffffffffffffffffffff1673ffffffffffffffffffffffffffffffffffffffff1614156136c2578260018480549050038154811015156135e957fe5b9060005260206000200160009054906101000a900473ffffffffffffffffffffffffffffffffffffffff16838281548110151561362257fe5b9060005260206000200160006101000a81548173ffffffffffffffffffffffffffffffffffffffff021916908373ffffffffffffffffffffffffffffffffffffffff16021790555082600184805490500381548110151561367f57fe5b9060005260206000200160006101000a81549073ffffffffffffffffffffffffffffffffffffffff0219169055828054809190600190036136c091906136f9565b505b808060010191505061355c565b505050565b6040805190810160405280600060018111156136ec57fe5b8152602001606081525090565b8154818355818111156137205781836000526020600020918201910161371f9190613725565b5b505050565b61374791905b8082111561374357600081600090555060010161372b565b5090565b9056fea165627a7a723058201195c87f6c05d00eeb627deb5fb1ccbae58e8957e1dd32a5efa3049a5eee28310029",
  "source": "pragma solidity ^0.5.1;\n\nimport \"./meta/Organization.sol\";\n\nimport \"./interfaces/Main.sol\";\n\ncontract ServiceCenter is Organization {\n    Main public main;\n\n    address[] public manufacturers;\n    address[] public pendingItems;\n\n    mapping (address => bool) isInManufacturers;\n    mapping (address => bool) isPendingItem;\n\n\n\n    constructor (address _main, address _ownerID, string memory _name, string memory _physicalAddress, string memory _registrationNumber) public {\n        main = Main(_main);\n        ownerID = _ownerID;\n        name = _name;\n        physicalAddress = _physicalAddress;\n        registrationNumber = _registrationNumber;\n    }\n\n\n\n// Getters\n\n\n    \n    function getInfo () view public returns (string memory, string memory, string memory) {\n        return (name, physicalAddress, registrationNumber);\n    }\n\n    function getManufacturers () view public returns (address[] memory) {\n        return manufacturers;\n    }\n    \n    function getPendingItems () view public returns (address[] memory) {\n        return pendingItems;\n    }\n\n\n\n// Internal\n\n\n\n    function addSentRequestHook (address _id, Requestable.Request memory req) internal {\n        if (req.Type == Requestable.RequestType.PARTNERSHIP) {\n            Main.ContractType cType = main.contractType(_id);\n            require(cType == Main.ContractType.MANUFACTURER, \"Wrong contract type\");\n        }\n    }\n    function removeSentRequestHook (address _id, Requestable.Request memory req) internal {\n        if (req.Type == Requestable.RequestType.PARTNERSHIP) {\n            Main.ContractType cType = main.contractType(_id);\n            require(cType == Main.ContractType.MANUFACTURER, \"Wrong contract type\");\n        }\n    }\n\n    function addReceivedRequestHook (address _id, Requestable.Request memory req) internal {\n        if (req.Type == Requestable.RequestType.PARTNERSHIP) {\n            Main.ContractType cType = main.contractType(_id);\n            require(cType == Main.ContractType.MANUFACTURER, \"Wrong contract type\");\n        }\n    }\n    function removeReceivedRequestHook (address _id, Requestable.Request memory req) internal {\n        if (req.Type == Requestable.RequestType.PARTNERSHIP) {\n            Main.ContractType cType = main.contractType(_id);\n            require(cType == Main.ContractType.MANUFACTURER, \"Wrong contract type\");\n        }\n    }\n\n    function addCompletedRequestHook (address _id, Requestable.Request memory req) internal {\n        if (req.Type == Requestable.RequestType.PARTNERSHIP) {\n            Main.ContractType cType = main.contractType(_id);\n            require(cType == Main.ContractType.MANUFACTURER, \"Wrong contract type\");\n\n            addManufacturer(_id);\n        }\n    }\n    function removeCompletedRequestHook (address _id, Requestable.Request memory req) internal {\n        if (req.Type == Requestable.RequestType.PARTNERSHIP) {\n            Main.ContractType cType = main.contractType(_id);\n            require(cType == Main.ContractType.MANUFACTURER, \"Wrong contract type\");\n\n            removeManufacturer(_id);\n        }\n    }\n\n\n\n    function addPendingItem (address iID) internal { addAddress(pendingItems, isPendingItem, iID); }\n    function removePendingItem (address iID) internal { removeAddress(pendingItems, isPendingItem, iID); }\n\n    function addManufacturer (address mID) internal { addAddress(manufacturers, isInManufacturers, mID); }\n    function removeManufacturer (address mID) internal { removeAddress(manufacturers, isInManufacturers, mID); }\n\n\n\n    function addAddress (address[] storage array, mapping (address => bool) storage map, address aID) internal {\n        require(!map[aID], \"Already exists\");\n\n        array.push(aID);\n        map[aID] = true;\n    }\n\n    function removeAddress (address[] storage array, mapping (address => bool) storage map, address aID) internal {\n        require(map[aID], \"Not found\");\n\n        removeFromAddressArray(array, aID);\n        map[aID] = false;\n    }\n\n    function removeFromAddressArray (address[] storage array, address value) internal {\n        for (uint i = 0; i < array.length; i++) {\n            if (array[i] == value) {\n              array[i] = array[array.length - 1];\n              delete array[array.length - 1];\n              array.length--;\n            }\n        }\n    }\n}\n\n",
  "sourcePath": "/Users/viktorgronskiy/Documents/Projects/Fun/GuarantSystem/blockchain/src/ServiceCenter.sol",
  "compiler": {
    "name": "solc",
    "version": "0.5.1+commit.c8a2cb62.Emscripten.clang"
  },
  "schemaVersion": "3.0.1",
  "updatedAt": "2019-02-02T15:05:09.653Z",
  "devdoc": {
    "methods": {}
  },
  "userdoc": {
    "methods": {}
  }
}