{
  "contractName": "UserDeployer",
  "abi": [
    {
      "constant": true,
      "inputs": [],
      "name": "main",
      "outputs": [
        {
          "name": "",
          "type": "address"
        }
      ],
      "payable": false,
      "stateMutability": "view",
      "type": "function"
    },
    {
      "inputs": [],
      "payable": false,
      "stateMutability": "nonpayable",
      "type": "constructor"
    },
    {
      "constant": false,
      "inputs": [
        {
          "name": "_ownerID",
          "type": "address"
        },
        {
          "name": "_name",
          "type": "string"
        },
        {
          "name": "_physicalAddress",
          "type": "string"
        },
        {
          "name": "_registrationNumber",
          "type": "string"
        }
      ],
      "name": "deploy",
      "outputs": [
        {
          "name": "",
          "type": "address"
        }
      ],
      "payable": false,
      "stateMutability": "nonpayable",
      "type": "function"
    }
  ],
  "bytecode": "0x608060405234801561001057600080fd5b50336000806101000a81548173ffffffffffffffffffffffffffffffffffffffff021916908373ffffffffffffffffffffffffffffffffffffffff160217905550610a6b806100606000396000f3fe608060405260043610610046576000357c0100000000000000000000000000000000000000000000000000000000900480630fc595db1461004b578063dffeadd0146102a1575b600080fd5b34801561005757600080fd5b5061025f6004803603608081101561006e57600080fd5b81019080803573ffffffffffffffffffffffffffffffffffffffff169060200190929190803590602001906401000000008111156100ab57600080fd5b8201836020820111156100bd57600080fd5b803590602001918460018302840111640100000000831117156100df57600080fd5b91908080601f016020809104026020016040519081016040528093929190818152602001838380828437600081840152601f19601f8201169050808301925050505050505091929192908035906020019064010000000081111561014257600080fd5b82018360208201111561015457600080fd5b8035906020019184600183028401116401000000008311171561017657600080fd5b91908080601f016020809104026020016040519081016040528093929190818152602001838380828437600081840152601f19601f820116905080830192505050505050509192919290803590602001906401000000008111156101d957600080fd5b8201836020820111156101eb57600080fd5b8035906020019184600183028401116401000000008311171561020d57600080fd5b91908080601f016020809104026020016040519081016040528093929190818152602001838380828437600081840152601f19601f8201169050808301925050505050505091929192905050506102f8565b604051808273ffffffffffffffffffffffffffffffffffffffff1673ffffffffffffffffffffffffffffffffffffffff16815260200191505060405180910390f35b3480156102ad57600080fd5b506102b6610365565b604051808273ffffffffffffffffffffffffffffffffffffffff1673ffffffffffffffffffffffffffffffffffffffff16815260200191505060405180910390f35b6000808561030461038a565b808273ffffffffffffffffffffffffffffffffffffffff1673ffffffffffffffffffffffffffffffffffffffff168152602001915050604051809103906000f080158015610356573d6000803e3d6000fd5b50905080915050949350505050565b6000809054906101000a900473ffffffffffffffffffffffffffffffffffffffff1681565b6040516106a58061039b8339019056fe608060405230600160006101000a81548173ffffffffffffffffffffffffffffffffffffffff021916908373ffffffffffffffffffffffffffffffffffffffff16021790555034801561005157600080fd5b506040516020806106a58339810180604052602081101561007157600080fd5b81019080805190602001909291905050503373ffffffffffffffffffffffffffffffffffffffff1663dffeadd06040518163ffffffff167c010000000000000000000000000000000000000000000000000000000002815260040160206040518083038186803b1580156100e457600080fd5b505afa1580156100f8573d6000803e3d6000fd5b505050506040513d602081101561010e57600080fd5b81019080805190602001909291905050506000806101000a81548173ffffffffffffffffffffffffffffffffffffffff021916908373ffffffffffffffffffffffffffffffffffffffff16021790555080600260006101000a81548173ffffffffffffffffffffffffffffffffffffffff021916908373ffffffffffffffffffffffffffffffffffffffff160217905550506104f6806101af6000396000f3fe608060405260043610610051576000357c010000000000000000000000000000000000000000000000000000000090048063af640d0f14610056578063dffeadd0146100ad578063f00d4b5d14610104575b600080fd5b34801561006257600080fd5b5061006b610175565b604051808273ffffffffffffffffffffffffffffffffffffffff1673ffffffffffffffffffffffffffffffffffffffff16815260200191505060405180910390f35b3480156100b957600080fd5b506100c261019b565b604051808273ffffffffffffffffffffffffffffffffffffffff1673ffffffffffffffffffffffffffffffffffffffff16815260200191505060405180910390f35b34801561011057600080fd5b506101736004803603604081101561012757600080fd5b81019080803573ffffffffffffffffffffffffffffffffffffffff169060200190929190803573ffffffffffffffffffffffffffffffffffffffff1690602001909291905050506101c0565b005b600160009054906101000a900473ffffffffffffffffffffffffffffffffffffffff1681565b6000809054906101000a900473ffffffffffffffffffffffffffffffffffffffff1681565b600260009054906101000a900473ffffffffffffffffffffffffffffffffffffffff1673ffffffffffffffffffffffffffffffffffffffff163373ffffffffffffffffffffffffffffffffffffffff16141515610285576040517f08c379a00000000000000000000000000000000000000000000000000000000081526004018080602001828103825260118152602001807f5065726d697373696f6e2064656e69656400000000000000000000000000000081525060200191505060405180910390fd5b60008060009054906101000a900473ffffffffffffffffffffffffffffffffffffffff1673ffffffffffffffffffffffffffffffffffffffff1663e11aa6a2846040518263ffffffff167c0100000000000000000000000000000000000000000000000000000000028152600401808273ffffffffffffffffffffffffffffffffffffffff1673ffffffffffffffffffffffffffffffffffffffff16815260200191505060206040518083038186803b15801561034157600080fd5b505afa158015610355573d6000803e3d6000fd5b505050506040513d602081101561036b57600080fd5b810190808051906020019092919050505090506002600581111561038b57fe5b81600581111561039757fe5b14151561040c576040517f08c379a00000000000000000000000000000000000000000000000000000000081526004018080602001828103825260138152602001807f57726f6e6720636f6e747261637420747970650000000000000000000000000081525060200191505060405180910390fd5b60008290508073ffffffffffffffffffffffffffffffffffffffff1663a6f9dae1856040518263ffffffff167c0100000000000000000000000000000000000000000000000000000000028152600401808273ffffffffffffffffffffffffffffffffffffffff1673ffffffffffffffffffffffffffffffffffffffff168152602001915050600060405180830381600087803b1580156104ac57600080fd5b505af11580156104c0573d6000803e3d6000fd5b505050505050505056fea165627a7a723058208755888f5ab4ddd84582a339d836fe9e68a18bbba30aa2c53dba9f310bf498ee0029a165627a7a72305820567aab6cec68ef62c854400a655a56c7cee84358ad78f79a0ee11e5204213be70029",
  "source": "pragma solidity ^0.5.1;\r\n\r\nimport \"./User.sol\";\r\nimport \"./Manufacturer.sol\";\r\nimport \"./Vendor.sol\";\r\nimport \"./ServiceCenter.sol\";\r\n\r\ncontract Main {\r\n    Deployer userDeployer;\r\n    Deployer manufacturerDeployer;\r\n    Deployer vendorDeployer;\r\n    Deployer serviceCenterDeployer;\r\n\r\n    enum ContractType {NON_AUTHORIZED, ITEM, USER, MANUFACTURER, VENDOR, SERVICE_CENTER}\r\n    mapping (address => ContractType) contractType;\r\n    function getContractType (address a) view public returns (ContractType) { return contractType[a]; }\r\n\r\n    constructor () public {\r\n        userDeployer = new UserDeployer();\r\n        manufacturerDeployer = new ManufacturerDeployer();\r\n        vendorDeployer = new VendorDeployer();\r\n        serviceCenterDeployer = new ServiceCenterDeployer();\r\n    }\r\n\r\n    function registerUser (address _ownerID) public returns (address) {\r\n        address newUser = userDeployer.deploy(_ownerID, \"\", \"\", \"\");\r\n        contractType[newUser] = ContractType.USER;\r\n        return newUser;\r\n    }\r\n\r\n    function registerManufacturer (address _ownerID, string memory _name, string memory _physicalAddress, string memory _registrationNumber) public returns (address) {\r\n        address newManufacturer = manufacturerDeployer.deploy(_ownerID, _name, _physicalAddress, _registrationNumber);\r\n        contractType[newManufacturer] = ContractType.MANUFACTURER;\r\n        return newManufacturer;\r\n    }\r\n\r\n    function registerVendor (address _ownerID, string memory _name, string memory _physicalAddress, string memory _registrationNumber) public returns (address) {\r\n        address newVendor = vendorDeployer.deploy(_ownerID, _name, _physicalAddress, _registrationNumber);\r\n        contractType[newVendor] = ContractType.VENDOR;\r\n        return newVendor;\r\n    }\r\n\r\n    function registerServiceCenter (address _ownerID, string memory _name, string memory _physicalAddress, string memory _registrationNumber) public returns (address) {\r\n        address newServiceCenter = serviceCenterDeployer.deploy(_ownerID, _name, _physicalAddress, _registrationNumber);\r\n        contractType[newServiceCenter] = ContractType.SERVICE_CENTER;\r\n        return newServiceCenter;\r\n    }\r\n}\r\n\r\ncontract Deployer {\r\n    Main public main;\r\n\r\n    function deploy (address a, string memory s1, string memory s2, string memory s3) public returns (address) {}\r\n}\r\n\r\ncontract UserDeployer is Deployer {\r\n    constructor () public {\r\n        main = Main(msg.sender);\r\n    }\r\n\r\n    function deploy (address _ownerID, string memory _name, string memory _physicalAddress, string memory _registrationNumber) public returns (address) {\r\n        User newUser = new User(_ownerID);\r\n        return address(newUser);\r\n    }\r\n}\r\n\r\ncontract ManufacturerDeployer is Deployer {\r\n    constructor () public {\r\n        main = Main(msg.sender);\r\n    }\r\n\r\n    function deploy (address _ownerID, string memory _name, string memory _physicalAddress, string memory _registrationNumber) public returns (address) {\r\n        Manufacturer newManufacturer = new Manufacturer(_ownerID, _name, _physicalAddress, _registrationNumber);\r\n        return address(newManufacturer);\r\n    }\r\n}\r\n\r\ncontract VendorDeployer is Deployer {\r\n    constructor () public {\r\n        main = Main(msg.sender);\r\n    }\r\n\r\n    function deploy (address _ownerID, string memory _name, string memory _physicalAddress, string memory _registrationNumber) public returns (address) {\r\n        Vendor newVendor = new Vendor(_ownerID, _name, _physicalAddress, _registrationNumber);\r\n        return address(newVendor);\r\n    }\r\n}\r\n\r\ncontract ServiceCenterDeployer is Deployer {\r\n    constructor () public {\r\n        main = Main(msg.sender);\r\n    }\r\n\r\n    function deploy (address _ownerID, string memory _name, string memory _physicalAddress, string memory _registrationNumber) public returns (address) {\r\n        ServiceCenter newServiceCenter = new ServiceCenter(_ownerID, _name, _physicalAddress, _registrationNumber);\r\n        return address(newServiceCenter);\r\n    }\r\n}\r\n",
  "sourcePath": "C:\\Users\\zheny\\Desktop\\git\\GuarantSystem\\blockchain\\Main.sol",
  "compiler": {
    "name": "solc",
    "version": "0.5.1+commit.c8a2cb62.Emscripten.clang"
  },
  "schemaVersion": "3.0.1",
  "updatedAt": "2019-02-01T07:52:03.721Z",
  "devdoc": {
    "methods": {}
  },
  "userdoc": {
    "methods": {}
  }
}