{
  "contractName": "User",
  "abi": [
    {
      "constant": true,
      "inputs": [],
      "name": "id",
      "outputs": [
        {
          "name": "",
          "type": "address"
        }
      ],
      "payable": false,
      "stateMutability": "view",
      "type": "function"
    },
    {
      "constant": true,
      "inputs": [
        {
          "name": "",
          "type": "uint256"
        }
      ],
      "name": "items",
      "outputs": [
        {
          "name": "",
          "type": "address"
        }
      ],
      "payable": false,
      "stateMutability": "view",
      "type": "function"
    },
    {
      "constant": true,
      "inputs": [],
      "name": "main",
      "outputs": [
        {
          "name": "",
          "type": "address"
        }
      ],
      "payable": false,
      "stateMutability": "view",
      "type": "function"
    },
    {
      "inputs": [
        {
          "name": "_main",
          "type": "address"
        },
        {
          "name": "_ownerID",
          "type": "address"
        }
      ],
      "payable": false,
      "stateMutability": "nonpayable",
      "type": "constructor"
    },
    {
      "constant": true,
      "inputs": [],
      "name": "getItems",
      "outputs": [
        {
          "name": "",
          "type": "address[]"
        }
      ],
      "payable": false,
      "stateMutability": "view",
      "type": "function"
    },
    {
      "constant": false,
      "inputs": [
        {
          "name": "uID",
          "type": "address"
        },
        {
          "name": "iID",
          "type": "address"
        }
      ],
      "name": "changeOwner",
      "outputs": [],
      "payable": false,
      "stateMutability": "nonpayable",
      "type": "function"
    }
  ],
  "bytecode": "0x608060405260018054600160a060020a0319163017905534801561002257600080fd5b506040516040806106318339810180604052604081101561004257600080fd5b50805160209091015160008054600160a060020a03938416600160a060020a031991821617909155600280549390921692169190911790556105a8806100896000396000f3fe608060405260043610610066577c01000000000000000000000000000000000000000000000000000000006000350463410d59cc811461006b578063af640d0f146100d0578063bfb231d214610101578063dffeadd01461012b578063f00d4b5d14610140575b600080fd5b34801561007757600080fd5b5061008061017d565b60408051602080825283518183015283519192839290830191858101910280838360005b838110156100bc5781810151838201526020016100a4565b505050509050019250505060405180910390f35b3480156100dc57600080fd5b506100e56101e0565b60408051600160a060020a039092168252519081900360200190f35b34801561010d57600080fd5b506100e56004803603602081101561012457600080fd5b50356101ef565b34801561013757600080fd5b506100e5610217565b34801561014c57600080fd5b5061017b6004803603604081101561016357600080fd5b50600160a060020a0381358116916020013516610226565b005b606060038054806020026020016040519081016040528092919081815260200182805480156101d557602002820191906000526020600020905b8154600160a060020a031681526001909101906020018083116101b7575b505050505090505b90565b600154600160a060020a031681565b60038054829081106101fd57fe5b600091825260209091200154600160a060020a0316905081565b600054600160a060020a031681565b600254600160a060020a0316331461029f57604080517f08c379a000000000000000000000000000000000000000000000000000000000815260206004820152601160248201527f5065726d697373696f6e2064656e696564000000000000000000000000000000604482015290519081900360640190fd5b60008054604080517fc5a887c5000000000000000000000000000000000000000000000000000000008152600160a060020a0386811660048301529151919092169163c5a887c5916024808301926020929190829003018186803b15801561030657600080fd5b505afa15801561031a573d6000803e3d6000fd5b505050506040513d602081101561033057600080fd5b50519050600281600581111561034257fe5b146103ae57604080517f08c379a000000000000000000000000000000000000000000000000000000000815260206004820152601360248201527f57726f6e6720636f6e7472616374207479706500000000000000000000000000604482015290519081900360640190fd5b604080517fa6f9dae1000000000000000000000000000000000000000000000000000000008152600160a060020a0385811660048301529151849283169163a6f9dae191602480830192600092919082900301818387803b15801561041257600080fd5b505af1158015610426573d6000803e3d6000fd5b5050505061043560038461043b565b50505050565b60005b825481101561053a5781600160a060020a0316838281548110151561045f57fe5b600091825260209091200154600160a060020a031614156105325782548390600019810190811061048c57fe5b6000918252602090912001548354600160a060020a03909116908490839081106104b257fe5b6000918252602090912001805473ffffffffffffffffffffffffffffffffffffffff1916600160a060020a03929092169190911790558254839060001981019081106104fa57fe5b6000918252602090912001805473ffffffffffffffffffffffffffffffffffffffff19169055825461053084600019830161053f565b505b60010161043e565b505050565b81548183558181111561053a5760008381526020902061053a9181019083016101dd91905b808211156105785760008155600101610564565b509056fea165627a7a723058201e1f997e464dac28171e803d6d376523c0399489b3c6b828a45ca71b05bbf9610029",
  "source": "pragma solidity ^0.5.1;\n\nimport \"./interfaces/MainInterface.sol\";\nimport \"./interfaces/ItemInterface.sol\";\n\ncontract User {\n    MainInterface public main;\n\n    address public id = address(this);\n    address private ownerID;\n    address[] public items;\n\n    constructor (address _main, address _ownerID) public {\n        main = MainInterface(_main);\n        ownerID = _ownerID;\n    }\n\n\n\n// Public\n\n\n\n    function getItems () view public returns (address[] memory) {\n        return items;\n    }\n\n\n    function changeOwner (address uID, address iID) onlyOwner public {\n        MainInterface.ContractType cType = main.contractType(uID);\n        require((cType == MainInterface.ContractType.USER), \"Wrong contract type\");\n\n        ItemInterface iInstance = ItemInterface(iID);\n        iInstance.changeOwner(uID);\n        removeFromAddressArray(items, iID);\n    }\n\n\n\n// Internal\n\n\n\n    function removeFromAddressArray (address[] storage array, address value) internal {\n        for (uint i = 0; i < array.length; i++) {\n            if (array[i] == value) {\n              array[i] = array[array.length - 1];\n              delete array[array.length - 1];\n              array.length--;\n            }\n        }\n    }\n\n\n\n// Modifiers\n\n\n\n    modifier onlyOwner {\n        require((msg.sender == ownerID), \"Permission denied\");\n        _;\n    }\n}\n",
  "sourcePath": "/Users/viktorgronskiy/Documents/Projects/Fun/GuarantSystem/blockchain/src/User.sol",
  "compiler": {
    "name": "solc",
    "version": "0.5.1+commit.c8a2cb62.Emscripten.clang"
  },
  "schemaVersion": "3.0.1",
  "updatedAt": "2019-02-02T19:34:55.967Z",
  "devdoc": {
    "methods": {}
  },
  "userdoc": {
    "methods": {}
  }
}