{
  "contractName": "Vendor",
  "abi": [
    {
      "constant": true,
      "inputs": [],
      "name": "name",
      "outputs": [
        {
          "name": "",
          "type": "string"
        }
      ],
      "payable": false,
      "stateMutability": "view",
      "type": "function"
    },
    {
      "constant": false,
      "inputs": [
        {
          "name": "_Type",
          "type": "uint8"
        },
        {
          "name": "_objs",
          "type": "address[]"
        }
      ],
      "name": "receiveRequest",
      "outputs": [],
      "payable": false,
      "stateMutability": "nonpayable",
      "type": "function"
    },
    {
      "constant": false,
      "inputs": [
        {
          "name": "_Type",
          "type": "uint8"
        },
        {
          "name": "_objs",
          "type": "address[]"
        }
      ],
      "name": "receiveCompletedRequestCancel",
      "outputs": [],
      "payable": false,
      "stateMutability": "nonpayable",
      "type": "function"
    },
    {
      "constant": true,
      "inputs": [],
      "name": "physicalAddress",
      "outputs": [
        {
          "name": "",
          "type": "string"
        }
      ],
      "payable": false,
      "stateMutability": "view",
      "type": "function"
    },
    {
      "constant": false,
      "inputs": [
        {
          "name": "pID",
          "type": "address"
        }
      ],
      "name": "cancelPartnership",
      "outputs": [],
      "payable": false,
      "stateMutability": "nonpayable",
      "type": "function"
    },
    {
      "constant": false,
      "inputs": [
        {
          "name": "_Type",
          "type": "uint8"
        },
        {
          "name": "_objs",
          "type": "address[]"
        }
      ],
      "name": "receiveRequestDecline",
      "outputs": [],
      "payable": false,
      "stateMutability": "nonpayable",
      "type": "function"
    },
    {
      "constant": false,
      "inputs": [
        {
          "name": "_Type",
          "type": "uint8"
        },
        {
          "name": "_objs",
          "type": "address[]"
        }
      ],
      "name": "receiveRequestRevert",
      "outputs": [],
      "payable": false,
      "stateMutability": "nonpayable",
      "type": "function"
    },
    {
      "constant": true,
      "inputs": [
        {
          "name": "",
          "type": "uint256"
        }
      ],
      "name": "pendingItems",
      "outputs": [
        {
          "name": "",
          "type": "address"
        }
      ],
      "payable": false,
      "stateMutability": "view",
      "type": "function"
    },
    {
      "constant": false,
      "inputs": [
        {
          "name": "pID",
          "type": "address"
        }
      ],
      "name": "acceptPartnership",
      "outputs": [],
      "payable": false,
      "stateMutability": "nonpayable",
      "type": "function"
    },
    {
      "constant": true,
      "inputs": [
        {
          "name": "",
          "type": "uint256"
        }
      ],
      "name": "manufacturers",
      "outputs": [
        {
          "name": "",
          "type": "address"
        }
      ],
      "payable": false,
      "stateMutability": "view",
      "type": "function"
    },
    {
      "constant": true,
      "inputs": [],
      "name": "id",
      "outputs": [
        {
          "name": "",
          "type": "address"
        }
      ],
      "payable": false,
      "stateMutability": "view",
      "type": "function"
    },
    {
      "constant": true,
      "inputs": [],
      "name": "registrationNumber",
      "outputs": [
        {
          "name": "",
          "type": "string"
        }
      ],
      "payable": false,
      "stateMutability": "view",
      "type": "function"
    },
    {
      "constant": false,
      "inputs": [
        {
          "name": "pID",
          "type": "address"
        }
      ],
      "name": "requestPartnership",
      "outputs": [],
      "payable": false,
      "stateMutability": "nonpayable",
      "type": "function"
    },
    {
      "constant": true,
      "inputs": [],
      "name": "main",
      "outputs": [
        {
          "name": "",
          "type": "address"
        }
      ],
      "payable": false,
      "stateMutability": "view",
      "type": "function"
    },
    {
      "constant": false,
      "inputs": [
        {
          "name": "pID",
          "type": "address"
        }
      ],
      "name": "revertPartnership",
      "outputs": [],
      "payable": false,
      "stateMutability": "nonpayable",
      "type": "function"
    },
    {
      "constant": false,
      "inputs": [
        {
          "name": "pID",
          "type": "address"
        }
      ],
      "name": "declinePartnership",
      "outputs": [],
      "payable": false,
      "stateMutability": "nonpayable",
      "type": "function"
    },
    {
      "inputs": [
        {
          "name": "_main",
          "type": "address"
        },
        {
          "name": "_ownerID",
          "type": "address"
        },
        {
          "name": "_name",
          "type": "string"
        },
        {
          "name": "_physicalAddress",
          "type": "string"
        },
        {
          "name": "_registrationNumber",
          "type": "string"
        }
      ],
      "payable": false,
      "stateMutability": "nonpayable",
      "type": "constructor"
    },
    {
      "constant": true,
      "inputs": [],
      "name": "getInfo",
      "outputs": [
        {
          "name": "",
          "type": "string"
        },
        {
          "name": "",
          "type": "string"
        },
        {
          "name": "",
          "type": "string"
        }
      ],
      "payable": false,
      "stateMutability": "view",
      "type": "function"
    },
    {
      "constant": true,
      "inputs": [],
      "name": "getManufacturers",
      "outputs": [
        {
          "name": "",
          "type": "address[]"
        }
      ],
      "payable": false,
      "stateMutability": "view",
      "type": "function"
    },
    {
      "constant": true,
      "inputs": [],
      "name": "getPendingItems",
      "outputs": [
        {
          "name": "",
          "type": "address[]"
        }
      ],
      "payable": false,
      "stateMutability": "view",
      "type": "function"
    },
    {
      "constant": false,
      "inputs": [
        {
          "name": "uID",
          "type": "address"
        },
        {
          "name": "iID",
          "type": "address"
        }
      ],
      "name": "setOwnerToItem",
      "outputs": [],
      "payable": false,
      "stateMutability": "nonpayable",
      "type": "function"
    },
    {
      "constant": false,
      "inputs": [
        {
          "name": "iID",
          "type": "address"
        }
      ],
      "name": "activateWarranty",
      "outputs": [],
      "payable": false,
      "stateMutability": "nonpayable",
      "type": "function"
    }
  ],
  "bytecode": "0x608060405260008054600160a060020a031916301790553480156200002357600080fd5b50604051620024d6380380620024d6833981018060405260a08110156200004957600080fd5b81516020830151604084018051929491938201926401000000008111156200007057600080fd5b820160208101848111156200008457600080fd5b81516401000000008111828201871017156200009f57600080fd5b50509291906020018051640100000000811115620000bc57600080fd5b82016020810184811115620000d057600080fd5b8151640100000000811182820187101715620000eb57600080fd5b505092919060200180516401000000008111156200010857600080fd5b820160208101848111156200011c57600080fd5b81516401000000008111828201871017156200013757600080fd5b505060098054600160a060020a03808b16600160a060020a03199283161790925560018054928a16929091169190911790558551909350620001839250600691506020860190620001bb565b50815162000199906007906020850190620001bb565b508051620001af906008906020840190620001bb565b50505050505062000260565b828054600181600116156101000203166002900490600052602060002090601f016020900481019282601f10620001fe57805160ff19168380011785556200022e565b828001600101855582156200022e579182015b828111156200022e57825182559160200191906001019062000211565b506200023c92915062000240565b5090565b6200025d91905b808211156200023c576000815560010162000247565b90565b61226680620002706000396000f3fe608060405260043610610116577c0100000000000000000000000000000000000000000000000000000000600035046306fdde03811461011b5780631f37c991146101a5578063381f2e9d1461026157806340868fff1461031b5780634353800e1461033057806356064925146103955780635a9b0b89146103c85780635e26e856146105215780636e58c294146105db57806379ac0477146106955780637aa29a26146106db578063812842a11461070e57806390175af114610741578063af640d0f1461076b578063b2a1a40a14610780578063bc8a234514610795578063c937cf37146107aa578063ca21f9fc146107dd578063dffeadd014610818578063eaf7c97a1461082d578063fbfca3c614610860575b600080fd5b34801561012757600080fd5b50610130610893565b6040805160208082528351818301528351919283929083019185019080838360005b8381101561016a578181015183820152602001610152565b50505050905090810190601f1680156101975780820380516001836020036101000a031916815260200191505b509250505060405180910390f35b3480156101b157600080fd5b5061025f600480360360408110156101c857600080fd5b60ff82351691908101906040810160208201356401000000008111156101ed57600080fd5b8201836020820111156101ff57600080fd5b8035906020019184602083028401116401000000008311171561022157600080fd5b919080806020026020016040519081016040528093929190818152602001838360200280828437600092019190915250929550610921945050505050565b005b34801561026d57600080fd5b5061025f6004803603604081101561028457600080fd5b60ff82351691908101906040810160208201356401000000008111156102a957600080fd5b8201836020820111156102bb57600080fd5b803590602001918460208302840111640100000000831117156102dd57600080fd5b919080806020026020016040519081016040528093929190818152602001838360200280828437600092019190915250929550610a36945050505050565b34801561032757600080fd5b50610130610ae1565b34801561033c57600080fd5b50610345610b3c565b60408051602080825283518183015283519192839290830191858101910280838360005b83811015610381578181015183820152602001610369565b505050509050019250505060405180910390f35b3480156103a157600080fd5b5061025f600480360360208110156103b857600080fd5b5035600160a060020a0316610b9f565b3480156103d457600080fd5b506103dd610bb9565b60405180806020018060200180602001848103845287818151815260200191508051906020019080838360005b8381101561042257818101518382015260200161040a565b50505050905090810190601f16801561044f5780820380516001836020036101000a031916815260200191505b50848103835286518152865160209182019188019080838360005b8381101561048257818101518382015260200161046a565b50505050905090810190601f1680156104af5780820380516001836020036101000a031916815260200191505b50848103825285518152855160209182019187019080838360005b838110156104e25781810151838201526020016104ca565b50505050905090810190601f16801561050f5780820380516001836020036101000a031916815260200191505b50965050505050505060405180910390f35b34801561052d57600080fd5b5061025f6004803603604081101561054457600080fd5b60ff823516919081019060408101602082013564010000000081111561056957600080fd5b82018360208201111561057b57600080fd5b8035906020019184602083028401116401000000008311171561059d57600080fd5b919080806020026020016040519081016040528093929190818152602001838360200280828437600092019190915250929550610d7d945050505050565b3480156105e757600080fd5b5061025f600480360360408110156105fe57600080fd5b60ff823516919081019060408101602082013564010000000081111561062357600080fd5b82018360208201111561063557600080fd5b8035906020019184602083028401116401000000008311171561065757600080fd5b919080806020026020016040519081016040528093929190818152602001838360200280828437600092019190915250929550610e28945050505050565b3480156106a157600080fd5b506106bf600480360360208110156106b857600080fd5b5035610ed3565b60408051600160a060020a039092168252519081900360200190f35b3480156106e757600080fd5b5061025f600480360360208110156106fe57600080fd5b5035600160a060020a0316610efb565b34801561071a57600080fd5b5061025f6004803603602081101561073157600080fd5b5035600160a060020a0316610f6e565b34801561074d57600080fd5b506106bf6004803603602081101561076457600080fd5b5035611043565b34801561077757600080fd5b506106bf611051565b34801561078c57600080fd5b50610130611060565b3480156107a157600080fd5b506103456110bb565b3480156107b657600080fd5b5061025f600480360360208110156107cd57600080fd5b5035600160a060020a031661111b565b3480156107e957600080fd5b5061025f6004803603604081101561080057600080fd5b50600160a060020a038135811691602001351661118e565b34801561082457600080fd5b506106bf611343565b34801561083957600080fd5b5061025f6004803603602081101561085057600080fd5b5035600160a060020a0316611352565b34801561086c57600080fd5b5061025f6004803603602081101561088357600080fd5b5035600160a060020a03166113c5565b6006805460408051602060026001851615610100026000190190941693909304601f810184900484028201840190925281815292918301828280156109195780601f106108ee57610100808354040283529160200191610919565b820191906000526020600020905b8154815290600101906020018083116108fc57829003601f168201915b505050505081565b6109296121a5565b604080519081016040528084600181111561094057fe5b81526020018390529050336002600061095884611438565b815260208101919091526040016000205460ff16156109e7576040805160e560020a62461bcd02815260206004820152602160248201527f526571756573742068617320616c7265616479206265656e207265636569766560448201527f6400000000000000000000000000000000000000000000000000000000000000606482015290519081900360840190fd5b600360006109f484611438565b815260208101919091526040016000205460ff1615610a2657610a1781836114d2565b610a21818361150e565b610a30565b610a308183611530565b50505050565b610a3e6121a5565b6040805190810160405280846001811115610a5557fe5b815260200183905290503360046000610a6d84611438565b815260208101919091526040016000205460ff161515610ad7576040805160e560020a62461bcd02815260206004820152601860248201527f52657175657374206973206e6f7420636f6d706c657465640000000000000000604482015290519081900360640190fd5b610a308183611549565b6007805460408051602060026001851615610100026000190190941693909304601f810184900484028201840190925281815292918301828280156109195780601f106108ee57610100808354040283529160200191610919565b6060600b805480602002602001604051908101604052809291908181526020018280548015610b9457602002820191906000526020600020905b8154600160a060020a03168152600190910190602001808311610b76575b505050505090505b90565b610ba76121a5565b60018152610bb58282611562565b5050565b60068054604080516020601f600260001961010060018816150201909516949094049384018190048102820181019092528281526060938493849391926007926008928591830182828015610c4f5780601f10610c2457610100808354040283529160200191610c4f565b820191906000526020600020905b815481529060010190602001808311610c3257829003601f168201915b5050855460408051602060026001851615610100026000190190941693909304601f810184900484028201840190925281815295985087945092508401905082828015610cdd5780601f10610cb257610100808354040283529160200191610cdd565b820191906000526020600020905b815481529060010190602001808311610cc057829003601f168201915b5050845460408051602060026001851615610100026000190190941693909304601f810184900484028201840190925281815295975086945092508401905082828015610d6b5780601f10610d4057610100808354040283529160200191610d6b565b820191906000526020600020905b815481529060010190602001808311610d4e57829003601f168201915b50505050509050925092509250909192565b610d856121a5565b6040805190810160405280846001811115610d9c57fe5b815260200183905290503360036000610db484611438565b815260208101919091526040016000205460ff161515610e1e576040805160e560020a62461bcd02815260206004820152601960248201527f5265717565737420686173206e6f74206265656e2073656e7400000000000000604482015290519081900360640190fd5b610a30818361150e565b610e306121a5565b6040805190810160405280846001811115610e4757fe5b815260200183905290503360026000610e5f84611438565b815260208101919091526040016000205460ff161515610ec9576040805160e560020a62461bcd02815260206004820152601d60248201527f5265717565737420686173206e6f74206265656e207265636569766564000000604482015290519081900360640190fd5b610a308183611615565b600b805482908110610ee157fe5b600091825260209091200154600160a060020a0316905081565b600154600160a060020a03163314610f58576040805160e560020a62461bcd028152602060048201526021602482015260008051602061221b833981519152604482015260f960020a603702606482015290519081900360840190fd5b610f606121a5565b60018152610bb5828261162e565b600154600160a060020a03163314610fcb576040805160e560020a62461bcd028152602060048201526021602482015260008051602061221b833981519152604482015260f960020a603702606482015290519081900360840190fd5b600081905080600160a060020a031663e8d503e96040518163ffffffff167c0100000000000000000000000000000000000000000000000000000000028152600401600060405180830381600087803b15801561102757600080fd5b505af115801561103b573d6000803e3d6000fd5b505050505050565b600a805482908110610ee157fe5b600054600160a060020a031681565b6008805460408051602060026001851615610100026000190190941693909304601f810184900484028201840190925281815292918301828280156109195780601f106108ee57610100808354040283529160200191610919565b6060600a805480602002602001604051908101604052809291908181526020018280548015610b9457602002820191906000526020600020908154600160a060020a03168152600190910190602001808311610b76575050505050905090565b600154600160a060020a03163314611178576040805160e560020a62461bcd028152602060048201526021602482015260008051602061221b833981519152604482015260f960020a603702606482015290519081900360840190fd5b6111806121a5565b60018152610bb58282611720565b600154600160a060020a031633146111eb576040805160e560020a62461bcd028152602060048201526021602482015260008051602061221b833981519152604482015260f960020a603702606482015290519081900360840190fd5b6009546040805160e060020a63c5a887c5028152600160a060020a0385811660048301529151600093929092169163c5a887c591602480820192602092909190829003018186803b15801561123f57600080fd5b505afa158015611253573d6000803e3d6000fd5b505050506040513d602081101561126957600080fd5b50519050600281600581111561127b57fe5b146112be576040805160e560020a62461bcd02815260206004820152601360248201526000805160206121fb833981519152604482015290519081900360640190fd5b604080517f13af4035000000000000000000000000000000000000000000000000000000008152600160a060020a038581166004830152915184928316916313af403591602480830192600092919082900301818387803b15801561132257600080fd5b505af1158015611336573d6000803e3d6000fd5b50505050610a3083611832565b600954600160a060020a031681565b600154600160a060020a031633146113af576040805160e560020a62461bcd028152602060048201526021602482015260008051602061221b833981519152604482015260f960020a603702606482015290519081900360840190fd5b6113b76121a5565b60018152610bb58282611842565b600154600160a060020a03163314611422576040805160e560020a62461bcd028152602060048201526021602482015260008051602061221b833981519152604482015260f960020a603702606482015290519081900360840190fd5b61142a6121a5565b60018152610bb5828261192a565b6000816000015182602001516040516020018083600181111561145757fe5b60ff167f0100000000000000000000000000000000000000000000000000000000000000028152600101828051906020019060200280838360005b838110156114aa578181015183820152602001611492565b5050505090500192505050604051602081830303815290604052805190602001209050919050565b6114dc8282611a12565b6001600460006114eb84611438565b81526020810191909152604001600020805460ff19169115159190911790555050565b6115188282611b08565b61152181611bf0565b6000600360006114eb84611438565b61153a8282611b08565b6001600260006114eb84611438565b6115538282611c52565b6000600460006114eb84611438565b600154600160a060020a03163314806115ab575033600160a060020a0383161480156115ab57506004600061159683611438565b815260208101919091526040016000205460ff165b1515611601576040805160e560020a62461bcd02815260206004820152601660248201527f4e6f7420656e6f756768207065726d697373696f6e7300000000000000000000604482015290519081900360640190fd5b61160b8282611549565b610bb58282611d43565b61161f8282611b08565b6000600260006114eb84611438565b600154600160a060020a0316331461168b576040805160e560020a62461bcd028152602060048201526021602482015260008051602061221b833981519152604482015260f960020a603702606482015290519081900360840190fd5b6002600061169883611438565b815260208101919091526040016000205460ff161515611702576040805160e560020a62461bcd02815260206004820152600f60248201527f4e6f207375636820726571756573740000000000000000000000000000000000604482015290519081900360640190fd5b61170c82826114d2565b6117168282611615565b610bb58282611e1a565b600154600160a060020a0316331461177d576040805160e560020a62461bcd028152602060048201526021602482015260008051602061221b833981519152604482015260f960020a603702606482015290519081900360840190fd5b6003600061178a83611438565b815260208101919091526040016000205460ff16156117f3576040805160e560020a62461bcd02815260206004820152601d60248201527f526571756573742068617320616c7265616479206265656e2073656e74000000604482015290519081900360640190fd5b6002600061180083611438565b815260208101919091526040016000205460ff161561182857611823828261162e565b610bb5565b6117168282611e6a565b61183f600b600d83611e83565b50565b600154600160a060020a0316331461189f576040805160e560020a62461bcd028152602060048201526021602482015260008051602061221b833981519152604482015260f960020a603702606482015290519081900360840190fd5b600360006118ac83611438565b815260208101919091526040016000205460ff161515611916576040805160e560020a62461bcd02815260206004820152600f60248201527f4e6f207375636820726571756573740000000000000000000000000000000000604482015290519081900360640190fd5b611920828261150e565b610bb58282611f22565b600154600160a060020a03163314611987576040805160e560020a62461bcd028152602060048201526021602482015260008051602061221b833981519152604482015260f960020a603702606482015290519081900360840190fd5b6002600061199483611438565b815260208101919091526040016000205460ff1615156119fe576040805160e560020a62461bcd02815260206004820152600f60248201527f4e6f207375636820726571756573740000000000000000000000000000000000604482015290519081900360640190fd5b611a088282611615565b610bb58282611f72565b600181516001811115611a2157fe5b1415610bb5576009546040805160e060020a63c5a887c5028152600160a060020a0385811660048301529151600093929092169163c5a887c591602480820192602092909190829003018186803b158015611a7b57600080fd5b505afa158015611a8f573d6000803e3d6000fd5b505050506040513d6020811015611aa557600080fd5b505190506003816005811115611ab757fe5b14611afa576040805160e560020a62461bcd02815260206004820152601360248201526000805160206121fb833981519152604482015290519081900360640190fd5b611b0383611fc2565b505050565b600181516001811115611b1757fe5b1415610bb5576009546040805160e060020a63c5a887c5028152600160a060020a0385811660048301529151600093929092169163c5a887c591602480820192602092909190829003018186803b158015611b7157600080fd5b505afa158015611b85573d6000803e3d6000fd5b505050506040513d6020811015611b9b57600080fd5b505190506003816005811115611bad57fe5b14611b03576040805160e560020a62461bcd02815260206004820152601360248201526000805160206121fb833981519152604482015290519081900360640190fd5b60005b816020015151811015610bb557600060056000846020015184815181101515611c1857fe5b602090810291909101810151600160a060020a03168252810191909152604001600020805460ff1916911515919091179055600101611bf3565b600181516001811115611c6157fe5b1415610bb5576009546040805160e060020a63c5a887c5028152600160a060020a0385811660048301529151600093929092169163c5a887c591602480820192602092909190829003018186803b158015611cbb57600080fd5b505afa158015611ccf573d6000803e3d6000fd5b505050506040513d6020811015611ce557600080fd5b505190506003816005811115611cf757fe5b14611d3a576040805160e560020a62461bcd02815260206004820152601360248201526000805160206121fb833981519152604482015290519081900360640190fd5b611b0383611fcf565b805160208201516040517f381f2e9d0000000000000000000000000000000000000000000000000000000081528492600160a060020a0384169263381f2e9d9260040180836001811115611d9357fe5b60ff16815260200180602001828103825283818151815260200191508051906020019060200280838360005b83811015611dd7578181015183820152602001611dbf565b505050509050019350505050600060405180830381600087803b158015611dfd57600080fd5b505af1158015611e11573d6000803e3d6000fd5b50505050505050565b805160208201516040517f1f37c9910000000000000000000000000000000000000000000000000000000081528492600160a060020a03841692631f37c9919260040180836001811115611d9357fe5b611e748282611b08565b6001600360006114eb84611438565b600160a060020a03811660009081526020839052604090205460ff161515611ef5576040805160e560020a62461bcd02815260206004820152600960248201527f4e6f7420666f756e640000000000000000000000000000000000000000000000604482015290519081900360640190fd5b611eff8382611fdc565b600160a060020a0316600090815260209190915260409020805460ff1916905550565b805160208201516040517f6e58c2940000000000000000000000000000000000000000000000000000000081528492600160a060020a03841692636e58c2949260040180836001811115611d9357fe5b805160208201516040517f5e26e8560000000000000000000000000000000000000000000000000000000081528492600160a060020a03841692635e26e8569260040180836001811115611d9357fe5b61183f600a600c836120db565b61183f600a600c83611e83565b60005b8254811015611b035781600160a060020a0316838281548110151561200057fe5b600091825260209091200154600160a060020a031614156120d35782548390600019810190811061202d57fe5b6000918252602090912001548354600160a060020a039091169084908390811061205357fe5b6000918252602090912001805473ffffffffffffffffffffffffffffffffffffffff1916600160a060020a039290921691909117905582548390600019810190811061209b57fe5b6000918252602090912001805473ffffffffffffffffffffffffffffffffffffffff1916905582546120d18460001983016121bd565b505b600101611fdf565b600160a060020a03811660009081526020839052604090205460ff161561214c576040805160e560020a62461bcd02815260206004820152600e60248201527f416c726561647920657869737473000000000000000000000000000000000000604482015290519081900360640190fd5b825460018181018555600094855260208086209092018054600160a060020a0390941673ffffffffffffffffffffffffffffffffffffffff1990941684179055918452919091526040909120805460ff19169091179055565b60408051808201909152600081526060602082015290565b815481835581811115611b0357600083815260209020611b03918101908301610b9c91905b808211156121f657600081556001016121e2565b509056fe57726f6e6720636f6e74726163742074797065000000000000000000000000004f6e6c79206f776e65722063616e2063616c6c20746869732066756e6374696fa165627a7a72305820a68a0a7262cd95d3be70833068506a90f556b453777c98d863d04d8f3cf216d40029",
  "source": "pragma solidity ^0.5.1;\n\nimport \"./meta/Organization.sol\";\n\nimport \"./interfaces/Main.sol\";\nimport \"./interfaces/Item.sol\";\n\ncontract Vendor is Organization {\n    Main public main;\n\n    address[] public manufacturers;\n    address[] public pendingItems;\n\n    mapping (address => bool) isInManufacturers;\n    mapping (address => bool) isPendingItem;\n\n\n\n    constructor (address _main, address _ownerID, string memory _name, string memory _physicalAddress, string memory _registrationNumber) public {\n        main = Main(_main);\n        ownerID = _ownerID;\n        name = _name;\n        physicalAddress = _physicalAddress;\n        registrationNumber = _registrationNumber;\n    }\n\n\n\n// Getters\n\n\n\n    function getInfo () view public returns (string memory, string memory, string memory) {\n        return (name, physicalAddress, registrationNumber);\n    }\n\n    function getManufacturers () view public returns (address[] memory) {\n        return manufacturers;\n    }\n    \n    function getPendingItems () view public returns (address[] memory) {\n        return pendingItems;\n    }\n    \n    \n    \n// Public\n\n\n\n    function setOwnerToItem (address uID, address iID) onlyOwner public {\n        Main.ContractType cType = main.contractType(uID);\n        require((cType == Main.ContractType.USER), \"Wrong contract type\");\n\n        Item iInstance = Item(iID);\n        iInstance.setOwner(uID);\n        removePendingItem(iID);\n    }\n\n    function activateWarranty (address iID) onlyOwner public {\n        Item iInstance = Item(iID);\n        iInstance.activateWarranty();\n    }\n\n\n\n// Internal\n\n\n\n    function addSentRequestHook (address _id, Requestable.Request memory req) internal {\n        if (req.Type == Requestable.RequestType.PARTNERSHIP) {\n            Main.ContractType cType = main.contractType(_id);\n            require(cType == Main.ContractType.MANUFACTURER, \"Wrong contract type\");\n        }\n    }\n    function removeSentRequestHook (address _id, Requestable.Request memory req) internal {\n        if (req.Type == Requestable.RequestType.PARTNERSHIP) {\n            Main.ContractType cType = main.contractType(_id);\n            require(cType == Main.ContractType.MANUFACTURER, \"Wrong contract type\");\n        }\n    }\n\n    function addReceivedRequestHook (address _id, Requestable.Request memory req) internal {\n        if (req.Type == Requestable.RequestType.PARTNERSHIP) {\n            Main.ContractType cType = main.contractType(_id);\n            require(cType == Main.ContractType.MANUFACTURER, \"Wrong contract type\");\n        }\n    }\n    function removeReceivedRequestHook (address _id, Requestable.Request memory req) internal {\n        if (req.Type == Requestable.RequestType.PARTNERSHIP) {\n            Main.ContractType cType = main.contractType(_id);\n            require(cType == Main.ContractType.MANUFACTURER, \"Wrong contract type\");\n        }\n    }\n\n    function addCompletedRequestHook (address _id, Requestable.Request memory req) internal {\n        if (req.Type == Requestable.RequestType.PARTNERSHIP) {\n            Main.ContractType cType = main.contractType(_id);\n            require(cType == Main.ContractType.MANUFACTURER, \"Wrong contract type\");\n\n            addManufacturer(_id);\n        }\n    }\n    function removeCompletedRequestHook (address _id, Requestable.Request memory req) internal {\n        if (req.Type == Requestable.RequestType.PARTNERSHIP) {\n            Main.ContractType cType = main.contractType(_id);\n            require(cType == Main.ContractType.MANUFACTURER, \"Wrong contract type\");\n\n            removeManufacturer(_id);\n        }\n    }\n\n\n\n    function addPendingItem (address iID) internal { addAddress(pendingItems, isPendingItem, iID); }\n    function removePendingItem (address iID) internal { removeAddress(pendingItems, isPendingItem, iID); }\n\n    function addManufacturer (address mID) internal { addAddress(manufacturers, isInManufacturers, mID); }\n    function removeManufacturer (address mID) internal { removeAddress(manufacturers, isInManufacturers, mID); }\n\n\n\n    function addAddress (address[] storage array, mapping (address => bool) storage map, address aID) internal {\n        require(!map[aID], \"Already exists\");\n\n        array.push(aID);\n        map[aID] = true;\n    }\n\n    function removeAddress (address[] storage array, mapping (address => bool) storage map, address aID) internal {\n        require(map[aID], \"Not found\");\n\n        removeFromAddressArray(array, aID);\n        map[aID] = false;\n    }\n\n    function removeFromAddressArray (address[] storage array, address value) internal {\n        for (uint i = 0; i < array.length; i++) {\n            if (array[i] == value) {\n              array[i] = array[array.length - 1];\n              delete array[array.length - 1];\n              array.length--;\n            }\n        }\n    }\n}\n",
  "sourcePath": "/Users/viktorgronskiy/Documents/Projects/Fun/GuarantSystem/blockchain/src/Vendor.sol",
  "compiler": {
    "name": "solc",
    "version": "0.5.1+commit.c8a2cb62.Emscripten.clang"
  },
  "schemaVersion": "3.0.1",
  "updatedAt": "2019-02-02T18:52:19.788Z",
  "devdoc": {
    "methods": {}
  },
  "userdoc": {
    "methods": {}
  }
}