{
  "contractName": "Vendor",
  "abi": [
    {
      "constant": true,
      "inputs": [],
      "name": "name",
      "outputs": [
        {
          "name": "",
          "type": "string"
        }
      ],
      "payable": false,
      "stateMutability": "view",
      "type": "function"
    },
    {
      "constant": true,
      "inputs": [],
      "name": "physicalAddress",
      "outputs": [
        {
          "name": "",
          "type": "string"
        }
      ],
      "payable": false,
      "stateMutability": "view",
      "type": "function"
    },
    {
      "constant": false,
      "inputs": [],
      "name": "receivePartnershipRequest",
      "outputs": [],
      "payable": false,
      "stateMutability": "nonpayable",
      "type": "function"
    },
    {
      "constant": false,
      "inputs": [
        {
          "name": "pID",
          "type": "address"
        }
      ],
      "name": "cancelPartnership",
      "outputs": [],
      "payable": false,
      "stateMutability": "nonpayable",
      "type": "function"
    },
    {
      "constant": true,
      "inputs": [
        {
          "name": "",
          "type": "uint256"
        }
      ],
      "name": "receivedPartnerships",
      "outputs": [
        {
          "name": "",
          "type": "address"
        }
      ],
      "payable": false,
      "stateMutability": "view",
      "type": "function"
    },
    {
      "constant": true,
      "inputs": [
        {
          "name": "",
          "type": "uint256"
        }
      ],
      "name": "pendingItems",
      "outputs": [
        {
          "name": "",
          "type": "address"
        }
      ],
      "payable": false,
      "stateMutability": "view",
      "type": "function"
    },
    {
      "constant": false,
      "inputs": [
        {
          "name": "pID",
          "type": "address"
        }
      ],
      "name": "acceptPartnership",
      "outputs": [],
      "payable": false,
      "stateMutability": "nonpayable",
      "type": "function"
    },
    {
      "constant": true,
      "inputs": [
        {
          "name": "",
          "type": "uint256"
        }
      ],
      "name": "requestedPartnerships",
      "outputs": [
        {
          "name": "",
          "type": "address"
        }
      ],
      "payable": false,
      "stateMutability": "view",
      "type": "function"
    },
    {
      "constant": true,
      "inputs": [
        {
          "name": "",
          "type": "uint256"
        }
      ],
      "name": "manufacturers",
      "outputs": [
        {
          "name": "",
          "type": "address"
        }
      ],
      "payable": false,
      "stateMutability": "view",
      "type": "function"
    },
    {
      "constant": false,
      "inputs": [],
      "name": "receivePartnershipRevert",
      "outputs": [],
      "payable": false,
      "stateMutability": "nonpayable",
      "type": "function"
    },
    {
      "constant": true,
      "inputs": [],
      "name": "id",
      "outputs": [
        {
          "name": "",
          "type": "address"
        }
      ],
      "payable": false,
      "stateMutability": "view",
      "type": "function"
    },
    {
      "constant": false,
      "inputs": [],
      "name": "receivePartnershipCancel",
      "outputs": [],
      "payable": false,
      "stateMutability": "nonpayable",
      "type": "function"
    },
    {
      "constant": true,
      "inputs": [],
      "name": "registrationNumber",
      "outputs": [
        {
          "name": "",
          "type": "string"
        }
      ],
      "payable": false,
      "stateMutability": "view",
      "type": "function"
    },
    {
      "constant": false,
      "inputs": [
        {
          "name": "pID",
          "type": "address"
        }
      ],
      "name": "requestPartnership",
      "outputs": [],
      "payable": false,
      "stateMutability": "nonpayable",
      "type": "function"
    },
    {
      "constant": true,
      "inputs": [],
      "name": "main",
      "outputs": [
        {
          "name": "",
          "type": "address"
        }
      ],
      "payable": false,
      "stateMutability": "view",
      "type": "function"
    },
    {
      "constant": false,
      "inputs": [],
      "name": "receivePartnershipDecline",
      "outputs": [],
      "payable": false,
      "stateMutability": "nonpayable",
      "type": "function"
    },
    {
      "constant": false,
      "inputs": [
        {
          "name": "pID",
          "type": "address"
        }
      ],
      "name": "revertPartnership",
      "outputs": [],
      "payable": false,
      "stateMutability": "nonpayable",
      "type": "function"
    },
    {
      "constant": false,
      "inputs": [
        {
          "name": "pID",
          "type": "address"
        }
      ],
      "name": "declinePartnership",
      "outputs": [],
      "payable": false,
      "stateMutability": "nonpayable",
      "type": "function"
    },
    {
      "inputs": [
        {
          "name": "_ownerID",
          "type": "address"
        },
        {
          "name": "_name",
          "type": "string"
        },
        {
          "name": "_physicalAddress",
          "type": "string"
        },
        {
          "name": "_registrationNumber",
          "type": "string"
        }
      ],
      "payable": false,
      "stateMutability": "nonpayable",
      "type": "constructor"
    },
    {
      "constant": false,
      "inputs": [
        {
          "name": "uID",
          "type": "address"
        },
        {
          "name": "iID",
          "type": "address"
        }
      ],
      "name": "setOwnerToItem",
      "outputs": [],
      "payable": false,
      "stateMutability": "nonpayable",
      "type": "function"
    },
    {
      "constant": false,
      "inputs": [
        {
          "name": "iID",
          "type": "address"
        }
      ],
      "name": "activateWarranty",
      "outputs": [],
      "payable": false,
      "stateMutability": "nonpayable",
      "type": "function"
    }
  ],
  "bytecode": "0x608060405230600160006101000a81548173ffffffffffffffffffffffffffffffffffffffff021916908373ffffffffffffffffffffffffffffffffffffffff1602179055503480156200005257600080fd5b50604051620031b9380380620031b9833981018060405260808110156200007857600080fd5b810190808051906020019092919080516401000000008111156200009b57600080fd5b82810190506020810184811115620000b257600080fd5b8151856001820283011164010000000082111715620000d057600080fd5b50509291906020018051640100000000811115620000ed57600080fd5b828101905060208101848111156200010457600080fd5b81518560018202830111640100000000821117156200012257600080fd5b505092919060200180516401000000008111156200013f57600080fd5b828101905060208101848111156200015657600080fd5b81518560018202830111640100000000821117156200017457600080fd5b50509291905050503373ffffffffffffffffffffffffffffffffffffffff1663dffeadd06040518163ffffffff167c010000000000000000000000000000000000000000000000000000000002815260040160206040518083038186803b158015620001df57600080fd5b505afa158015620001f4573d6000803e3d6000fd5b505050506040513d60208110156200020b57600080fd5b81019080805190602001909291905050506000806101000a81548173ffffffffffffffffffffffffffffffffffffffff021916908373ffffffffffffffffffffffffffffffffffffffff16021790555083600260006101000a81548173ffffffffffffffffffffffffffffffffffffffff021916908373ffffffffffffffffffffffffffffffffffffffff1602179055508260039080519060200190620002b4929190620002f1565b508160049080519060200190620002cd929190620002f1565b508060059080519060200190620002e6929190620002f1565b5050505050620003a0565b828054600181600116156101000203166002900490600052602060002090601f016020900481019282601f106200033457805160ff191683800117855562000365565b8280016001018555821562000365579182015b828111156200036457825182559160200191906001019062000347565b5b50905062000374919062000378565b5090565b6200039d91905b80821115620003995760008160009055506001016200037f565b5090565b90565b612e0980620003b06000396000f3fe60806040526004361061010c576000357c01000000000000000000000000000000000000000000000000000000009004806306fdde031461011157806340868fff146101a15780634f614ffc146102315780635606492514610248578063569be9b81461029957806379ac0477146103145780637aa29a261461038f578063812842a1146103e0578063867a52401461043157806390175af1146104ac578063a1d6888014610527578063af640d0f1461053e578063b08437fc14610595578063b2a1a40a146105ac578063c937cf371461063c578063ca21f9fc1461068d578063dffeadd0146106fe578063e0726b0a14610755578063eaf7c97a1461076c578063fbfca3c6146107bd575b600080fd5b34801561011d57600080fd5b5061012661080e565b6040518080602001828103825283818151815260200191508051906020019080838360005b8381101561016657808201518184015260208101905061014b565b50505050905090810190601f1680156101935780820380516001836020036101000a031916815260200191505b509250505060405180910390f35b3480156101ad57600080fd5b506101b66108ac565b6040518080602001828103825283818151815260200191508051906020019080838360005b838110156101f65780820151818401526020810190506101db565b50505050905090810190601f1680156102235780820380516001836020036101000a031916815260200191505b509250505060405180910390f35b34801561023d57600080fd5b5061024661094a565b005b34801561025457600080fd5b506102976004803603602081101561026b57600080fd5b81019080803573ffffffffffffffffffffffffffffffffffffffff169060200190929190505050610aad565b005b3480156102a557600080fd5b506102d2600480360360208110156102bc57600080fd5b8101908080359060200190929190505050610c12565b604051808273ffffffffffffffffffffffffffffffffffffffff1673ffffffffffffffffffffffffffffffffffffffff16815260200191505060405180910390f35b34801561032057600080fd5b5061034d6004803603602081101561033757600080fd5b8101908080359060200190929190505050610c50565b604051808273ffffffffffffffffffffffffffffffffffffffff1673ffffffffffffffffffffffffffffffffffffffff16815260200191505060405180910390f35b34801561039b57600080fd5b506103de600480360360208110156103b257600080fd5b81019080803573ffffffffffffffffffffffffffffffffffffffff169060200190929190505050610c8e565b005b3480156103ec57600080fd5b5061042f6004803603602081101561040357600080fd5b81019080803573ffffffffffffffffffffffffffffffffffffffff169060200190929190505050610e58565b005b34801561043d57600080fd5b5061046a6004803603602081101561045457600080fd5b8101908080359060200190929190505050610fc8565b604051808273ffffffffffffffffffffffffffffffffffffffff1673ffffffffffffffffffffffffffffffffffffffff16815260200191505060405180910390f35b3480156104b857600080fd5b506104e5600480360360208110156104cf57600080fd5b8101908080359060200190929190505050611006565b604051808273ffffffffffffffffffffffffffffffffffffffff1673ffffffffffffffffffffffffffffffffffffffff16815260200191505060405180910390f35b34801561053357600080fd5b5061053c611044565b005b34801561054a57600080fd5b5061055361113c565b604051808273ffffffffffffffffffffffffffffffffffffffff1673ffffffffffffffffffffffffffffffffffffffff16815260200191505060405180910390f35b3480156105a157600080fd5b506105aa611162565b005b3480156105b857600080fd5b506105c1611234565b6040518080602001828103825283818151815260200191508051906020019080838360005b838110156106015780820151818401526020810190506105e6565b50505050905090810190601f16801561062e5780820380516001836020036101000a031916815260200191505b509250505060405180910390f35b34801561064857600080fd5b5061068b6004803603602081101561065f57600080fd5b81019080803573ffffffffffffffffffffffffffffffffffffffff1690602001909291905050506112d2565b005b34801561069957600080fd5b506106fc600480360360408110156106b057600080fd5b81019080803573ffffffffffffffffffffffffffffffffffffffff169060200190929190803573ffffffffffffffffffffffffffffffffffffffff1690602001909291905050506114ba565b005b34801561070a57600080fd5b506107136117ea565b604051808273ffffffffffffffffffffffffffffffffffffffff1673ffffffffffffffffffffffffffffffffffffffff16815260200191505060405180910390f35b34801561076157600080fd5b5061076a61180f565b005b34801561077857600080fd5b506107bb6004803603602081101561078f57600080fd5b81019080803573ffffffffffffffffffffffffffffffffffffffff169060200190929190505050611907565b005b3480156107c957600080fd5b5061080c600480360360208110156107e057600080fd5b81019080803573ffffffffffffffffffffffffffffffffffffffff169060200190929190505050611ac8565b005b60038054600181600116156101000203166002900480601f0160208091040260200160405190810160405280929190818152602001828054600181600116156101000203166002900480156108a45780601f10610879576101008083540402835291602001916108a4565b820191906000526020600020905b81548152906001019060200180831161088757829003601f168201915b505050505081565b60048054600181600116156101000203166002900480601f0160208091040260200160405190810160405280929190818152602001828054600181600116156101000203166002900480156109425780601f1061091757610100808354040283529160200191610942565b820191906000526020600020905b81548152906001019060200180831161092557829003601f168201915b505050505081565b6000339050600960008273ffffffffffffffffffffffffffffffffffffffff1673ffffffffffffffffffffffffffffffffffffffff16815260200190815260200160002060009054906101000a900460ff16151515610a37576040517f08c379a00000000000000000000000000000000000000000000000000000000081526004018080602001828103825260268152602001807f506172746e6572736869702068617320616c7265616479206265656e2072657181526020017f756573746564000000000000000000000000000000000000000000000000000081525060400191505060405180910390fd5b600a60008273ffffffffffffffffffffffffffffffffffffffff1673ffffffffffffffffffffffffffffffffffffffff16815260200190815260200160002060009054906101000a900460ff1615610aa057610a9281611c89565b610a9b81611ced565b610aaa565b610aa981611cfd565b5b50565b600260009054906101000a900473ffffffffffffffffffffffffffffffffffffffff1673ffffffffffffffffffffffffffffffffffffffff163373ffffffffffffffffffffffffffffffffffffffff161480610b8957508073ffffffffffffffffffffffffffffffffffffffff163373ffffffffffffffffffffffffffffffffffffffff16148015610b885750600860008273ffffffffffffffffffffffffffffffffffffffff1673ffffffffffffffffffffffffffffffffffffffff16815260200190815260200160002060009054906101000a900460ff165b5b1515610bfd576040517f08c379a00000000000000000000000000000000000000000000000000000000081526004018080602001828103825260168152602001807f4e6f7420656e6f756768207065726d697373696f6e730000000000000000000081525060200191505060405180910390fd5b610c0681611d0d565b610c0f81611d71565b50565b600681815481101515610c2157fe5b906000526020600020016000915054906101000a900473ffffffffffffffffffffffffffffffffffffffff1681565b600c81815481101515610c5f57fe5b906000526020600020016000915054906101000a900473ffffffffffffffffffffffffffffffffffffffff1681565b600260009054906101000a900473ffffffffffffffffffffffffffffffffffffffff1673ffffffffffffffffffffffffffffffffffffffff163373ffffffffffffffffffffffffffffffffffffffff16141515610d79576040517f08c379a00000000000000000000000000000000000000000000000000000000081526004018080602001828103825260218152602001807f4f6e6c79206f776e65722063616e2063616c6c20746869732066756e6374696f81526020017f6e0000000000000000000000000000000000000000000000000000000000000081525060400191505060405180910390fd5b600960008273ffffffffffffffffffffffffffffffffffffffff1673ffffffffffffffffffffffffffffffffffffffff16815260200190815260200160002060009054906101000a900460ff161515610e3a576040517f08c379a000000000000000000000000000000000000000000000000000000000815260040180806020018281038252600f8152602001807f4e6f20737563682072657175657374000000000000000000000000000000000081525060200191505060405180910390fd5b610e4381611c89565b610e4c81611fd7565b610e5581611fe7565b50565b600260009054906101000a900473ffffffffffffffffffffffffffffffffffffffff1673ffffffffffffffffffffffffffffffffffffffff163373ffffffffffffffffffffffffffffffffffffffff16141515610f43576040517f08c379a00000000000000000000000000000000000000000000000000000000081526004018080602001828103825260218152602001807f4f6e6c79206f776e65722063616e2063616c6c20746869732066756e6374696f81526020017f6e0000000000000000000000000000000000000000000000000000000000000081525060400191505060405180910390fd5b60008190508073ffffffffffffffffffffffffffffffffffffffff1663e8d503e96040518163ffffffff167c0100000000000000000000000000000000000000000000000000000000028152600401600060405180830381600087803b158015610fac57600080fd5b505af1158015610fc0573d6000803e3d6000fd5b505050505050565b600781815481101515610fd757fe5b906000526020600020016000915054906101000a900473ffffffffffffffffffffffffffffffffffffffff1681565b600b8181548110151561101557fe5b906000526020600020016000915054906101000a900473ffffffffffffffffffffffffffffffffffffffff1681565b6000339050600960008273ffffffffffffffffffffffffffffffffffffffff1673ffffffffffffffffffffffffffffffffffffffff16815260200190815260200160002060009054906101000a900460ff161515611130576040517f08c379a00000000000000000000000000000000000000000000000000000000081526004018080602001828103825260228152602001807f506172746e65727368697020686173206e6f74206265656e207265717565737481526020017f656400000000000000000000000000000000000000000000000000000000000081525060400191505060405180910390fd5b61113981611fd7565b50565b600160009054906101000a900473ffffffffffffffffffffffffffffffffffffffff1681565b6000339050600860008273ffffffffffffffffffffffffffffffffffffffff1673ffffffffffffffffffffffffffffffffffffffff16815260200190815260200160002060009054906101000a900460ff161515611228576040517f08c379a00000000000000000000000000000000000000000000000000000000081526004018080602001828103825260128152602001807f4e6f7420706172746e657265642077697468000000000000000000000000000081525060200191505060405180910390fd5b61123181611d0d565b50565b60058054600181600116156101000203166002900480601f0160208091040260200160405190810160405280929190818152602001828054600181600116156101000203166002900480156112ca5780601f1061129f576101008083540402835291602001916112ca565b820191906000526020600020905b8154815290600101906020018083116112ad57829003601f168201915b505050505081565b600260009054906101000a900473ffffffffffffffffffffffffffffffffffffffff1673ffffffffffffffffffffffffffffffffffffffff163373ffffffffffffffffffffffffffffffffffffffff161415156113bd576040517f08c379a00000000000000000000000000000000000000000000000000000000081526004018080602001828103825260218152602001807f4f6e6c79206f776e65722063616e2063616c6c20746869732066756e6374696f81526020017f6e0000000000000000000000000000000000000000000000000000000000000081525060400191505060405180910390fd5b600a60008273ffffffffffffffffffffffffffffffffffffffff1673ffffffffffffffffffffffffffffffffffffffff16815260200190815260200160002060009054906101000a900460ff161515156114a5576040517f08c379a00000000000000000000000000000000000000000000000000000000081526004018080602001828103825260268152602001807f506172746e6572736869702068617320616c7265616479206265656e2072657181526020017f756573746564000000000000000000000000000000000000000000000000000081525060400191505060405180910390fd5b6114ae816121f4565b6114b781611fe7565b50565b600260009054906101000a900473ffffffffffffffffffffffffffffffffffffffff1673ffffffffffffffffffffffffffffffffffffffff163373ffffffffffffffffffffffffffffffffffffffff161415156115a5576040517f08c379a00000000000000000000000000000000000000000000000000000000081526004018080602001828103825260218152602001807f4f6e6c79206f776e65722063616e2063616c6c20746869732066756e6374696f81526020017f6e0000000000000000000000000000000000000000000000000000000000000081525060400191505060405180910390fd5b60008060009054906101000a900473ffffffffffffffffffffffffffffffffffffffff1673ffffffffffffffffffffffffffffffffffffffff1663e11aa6a2846040518263ffffffff167c0100000000000000000000000000000000000000000000000000000000028152600401808273ffffffffffffffffffffffffffffffffffffffff1673ffffffffffffffffffffffffffffffffffffffff16815260200191505060206040518083038186803b15801561166157600080fd5b505afa158015611675573d6000803e3d6000fd5b505050506040513d602081101561168b57600080fd5b81019080805190602001909291905050509050600260058111156116ab57fe5b8160058111156116b757fe5b14151561172c576040517f08c379a00000000000000000000000000000000000000000000000000000000081526004018080602001828103825260138152602001807f57726f6e6720636f6e747261637420747970650000000000000000000000000081525060200191505060405180910390fd5b60008290508073ffffffffffffffffffffffffffffffffffffffff166313af4035856040518263ffffffff167c0100000000000000000000000000000000000000000000000000000000028152600401808273ffffffffffffffffffffffffffffffffffffffff1673ffffffffffffffffffffffffffffffffffffffff168152602001915050600060405180830381600087803b1580156117cc57600080fd5b505af11580156117e0573d6000803e3d6000fd5b5050505050505050565b6000809054906101000a900473ffffffffffffffffffffffffffffffffffffffff1681565b6000339050600a60008273ffffffffffffffffffffffffffffffffffffffff1673ffffffffffffffffffffffffffffffffffffffff16815260200190815260200160002060009054906101000a900460ff1615156118fb576040517f08c379a00000000000000000000000000000000000000000000000000000000081526004018080602001828103825260228152602001807f506172746e65727368697020686173206e6f74206265656e207265717565737481526020017f656400000000000000000000000000000000000000000000000000000000000081525060400191505060405180910390fd5b61190481611ced565b50565b600260009054906101000a900473ffffffffffffffffffffffffffffffffffffffff1673ffffffffffffffffffffffffffffffffffffffff163373ffffffffffffffffffffffffffffffffffffffff161415156119f2576040517f08c379a00000000000000000000000000000000000000000000000000000000081526004018080602001828103825260218152602001807f4f6e6c79206f776e65722063616e2063616c6c20746869732066756e6374696f81526020017f6e0000000000000000000000000000000000000000000000000000000000000081525060400191505060405180910390fd5b600a60008273ffffffffffffffffffffffffffffffffffffffff1673ffffffffffffffffffffffffffffffffffffffff16815260200190815260200160002060009054906101000a900460ff161515611ab3576040517f08c379a000000000000000000000000000000000000000000000000000000000815260040180806020018281038252600f8152602001807f4e6f20737563682072657175657374000000000000000000000000000000000081525060200191505060405180910390fd5b611abc81611ced565b611ac581612204565b50565b600260009054906101000a900473ffffffffffffffffffffffffffffffffffffffff1673ffffffffffffffffffffffffffffffffffffffff163373ffffffffffffffffffffffffffffffffffffffff16141515611bb3576040517f08c379a00000000000000000000000000000000000000000000000000000000081526004018080602001828103825260218152602001807f4f6e6c79206f776e65722063616e2063616c6c20746869732066756e6374696f81526020017f6e0000000000000000000000000000000000000000000000000000000000000081525060400191505060405180910390fd5b600960008273ffffffffffffffffffffffffffffffffffffffff1673ffffffffffffffffffffffffffffffffffffffff16815260200190815260200160002060009054906101000a900460ff161515611c74576040517f08c379a000000000000000000000000000000000000000000000000000000000815260040180806020018281038252600f8152602001807f4e6f20737563682072657175657374000000000000000000000000000000000081525060200191505060405180910390fd5b611c7d81611fd7565b611c8681612411565b50565b6001600860008373ffffffffffffffffffffffffffffffffffffffff1673ffffffffffffffffffffffffffffffffffffffff16815260200190815260200160002060006101000a81548160ff021916908315150217905550611cea8161261e565b50565b611cfa6007600a836127b2565b50565b611d0a60066009836128d8565b50565b6000600860008373ffffffffffffffffffffffffffffffffffffffff1673ffffffffffffffffffffffffffffffffffffffff16815260200190815260200160002060006101000a81548160ff021916908315150217905550611d6e81612a5a565b50565b60008060009054906101000a900473ffffffffffffffffffffffffffffffffffffffff1673ffffffffffffffffffffffffffffffffffffffff1663e11aa6a2836040518263ffffffff167c0100000000000000000000000000000000000000000000000000000000028152600401808273ffffffffffffffffffffffffffffffffffffffff1673ffffffffffffffffffffffffffffffffffffffff16815260200191505060206040518083038186803b158015611e2d57600080fd5b505afa158015611e41573d6000803e3d6000fd5b505050506040513d6020811015611e5757600080fd5b8101908080519060200190929190505050905060036005811115611e7757fe5b816005811115611e8357fe5b141515611ef8576040517f08c379a00000000000000000000000000000000000000000000000000000000081526004018080602001828103825260138152602001807f57726f6e6720636f6e747261637420747970650000000000000000000000000081525060200191505060405180910390fd5b60008290508073ffffffffffffffffffffffffffffffffffffffff166356064925600160009054906101000a900473ffffffffffffffffffffffffffffffffffffffff166040518263ffffffff167c0100000000000000000000000000000000000000000000000000000000028152600401808273ffffffffffffffffffffffffffffffffffffffff1673ffffffffffffffffffffffffffffffffffffffff168152602001915050600060405180830381600087803b158015611fba57600080fd5b505af1158015611fce573d6000803e3d6000fd5b50505050505050565b611fe460066009836127b2565b50565b60008060009054906101000a900473ffffffffffffffffffffffffffffffffffffffff1673ffffffffffffffffffffffffffffffffffffffff1663e11aa6a2836040518263ffffffff167c0100000000000000000000000000000000000000000000000000000000028152600401808273ffffffffffffffffffffffffffffffffffffffff1673ffffffffffffffffffffffffffffffffffffffff16815260200191505060206040518083038186803b1580156120a357600080fd5b505afa1580156120b7573d6000803e3d6000fd5b505050506040513d60208110156120cd57600080fd5b81019080805190602001909291905050509050600360058111156120ed57fe5b8160058111156120f957fe5b14151561216e576040517f08c379a00000000000000000000000000000000000000000000000000000000081526004018080602001828103825260138152602001807f57726f6e6720636f6e747261637420747970650000000000000000000000000081525060200191505060405180910390fd5b60008290508073ffffffffffffffffffffffffffffffffffffffff16634f614ffc6040518163ffffffff167c0100000000000000000000000000000000000000000000000000000000028152600401600060405180830381600087803b1580156121d757600080fd5b505af11580156121eb573d6000803e3d6000fd5b50505050505050565b6122016007600a836128d8565b50565b60008060009054906101000a900473ffffffffffffffffffffffffffffffffffffffff1673ffffffffffffffffffffffffffffffffffffffff1663e11aa6a2836040518263ffffffff167c0100000000000000000000000000000000000000000000000000000000028152600401808273ffffffffffffffffffffffffffffffffffffffff1673ffffffffffffffffffffffffffffffffffffffff16815260200191505060206040518083038186803b1580156122c057600080fd5b505afa1580156122d4573d6000803e3d6000fd5b505050506040513d60208110156122ea57600080fd5b810190808051906020019092919050505090506003600581111561230a57fe5b81600581111561231657fe5b14151561238b576040517f08c379a00000000000000000000000000000000000000000000000000000000081526004018080602001828103825260138152602001807f57726f6e6720636f6e747261637420747970650000000000000000000000000081525060200191505060405180910390fd5b60008290508073ffffffffffffffffffffffffffffffffffffffff1663a1d688806040518163ffffffff167c0100000000000000000000000000000000000000000000000000000000028152600401600060405180830381600087803b1580156123f457600080fd5b505af1158015612408573d6000803e3d6000fd5b50505050505050565b60008060009054906101000a900473ffffffffffffffffffffffffffffffffffffffff1673ffffffffffffffffffffffffffffffffffffffff1663e11aa6a2836040518263ffffffff167c0100000000000000000000000000000000000000000000000000000000028152600401808273ffffffffffffffffffffffffffffffffffffffff1673ffffffffffffffffffffffffffffffffffffffff16815260200191505060206040518083038186803b1580156124cd57600080fd5b505afa1580156124e1573d6000803e3d6000fd5b505050506040513d60208110156124f757600080fd5b810190808051906020019092919050505090506003600581111561251757fe5b81600581111561252357fe5b141515612598576040517f08c379a00000000000000000000000000000000000000000000000000000000081526004018080602001828103825260138152602001807f57726f6e6720636f6e747261637420747970650000000000000000000000000081525060200191505060405180910390fd5b60008290508073ffffffffffffffffffffffffffffffffffffffff1663e0726b0a6040518163ffffffff167c0100000000000000000000000000000000000000000000000000000000028152600401600060405180830381600087803b15801561260157600080fd5b505af1158015612615573d6000803e3d6000fd5b50505050505050565b60008060009054906101000a900473ffffffffffffffffffffffffffffffffffffffff1673ffffffffffffffffffffffffffffffffffffffff1663e11aa6a2836040518263ffffffff167c0100000000000000000000000000000000000000000000000000000000028152600401808273ffffffffffffffffffffffffffffffffffffffff1673ffffffffffffffffffffffffffffffffffffffff16815260200191505060206040518083038186803b1580156126da57600080fd5b505afa1580156126ee573d6000803e3d6000fd5b505050506040513d602081101561270457600080fd5b810190808051906020019092919050505090506003600581111561272457fe5b81600581111561273057fe5b1415156127a5576040517f08c379a00000000000000000000000000000000000000000000000000000000081526004018080602001828103825260138152602001807f57726f6e6720636f6e747261637420747970650000000000000000000000000081525060200191505060405180910390fd5b6127ae82612bee565b5050565b8160008273ffffffffffffffffffffffffffffffffffffffff1673ffffffffffffffffffffffffffffffffffffffff16815260200190815260200160002060009054906101000a900460ff161515612872576040517f08c379a00000000000000000000000000000000000000000000000000000000081526004018080602001828103825260098152602001807f4e6f7420666f756e64000000000000000000000000000000000000000000000081525060200191505060405180910390fd5b61287c8382612bfe565b60008260008373ffffffffffffffffffffffffffffffffffffffff1673ffffffffffffffffffffffffffffffffffffffff16815260200190815260200160002060006101000a81548160ff021916908315150217905550505050565b8160008273ffffffffffffffffffffffffffffffffffffffff1673ffffffffffffffffffffffffffffffffffffffff16815260200190815260200160002060009054906101000a900460ff16151515612999576040517f08c379a000000000000000000000000000000000000000000000000000000000815260040180806020018281038252600e8152602001807f416c72656164792065786973747300000000000000000000000000000000000081525060200191505060405180910390fd5b828190806001815401808255809150509060018203906000526020600020016000909192909190916101000a81548173ffffffffffffffffffffffffffffffffffffffff021916908373ffffffffffffffffffffffffffffffffffffffff1602179055505060018260008373ffffffffffffffffffffffffffffffffffffffff1673ffffffffffffffffffffffffffffffffffffffff16815260200190815260200160002060006101000a81548160ff021916908315150217905550505050565b60008060009054906101000a900473ffffffffffffffffffffffffffffffffffffffff1673ffffffffffffffffffffffffffffffffffffffff1663e11aa6a2836040518263ffffffff167c0100000000000000000000000000000000000000000000000000000000028152600401808273ffffffffffffffffffffffffffffffffffffffff1673ffffffffffffffffffffffffffffffffffffffff16815260200191505060206040518083038186803b158015612b1657600080fd5b505afa158015612b2a573d6000803e3d6000fd5b505050506040513d6020811015612b4057600080fd5b8101908080519060200190929190505050905060036005811115612b6057fe5b816005811115612b6c57fe5b141515612be1576040517f08c379a00000000000000000000000000000000000000000000000000000000081526004018080602001828103825260138152602001807f57726f6e6720636f6e747261637420747970650000000000000000000000000081525060200191505060405180910390fd5b612bea82612d7c565b5050565b612bfb600b600d836128d8565b50565b60008090505b8280549050811015612d77578173ffffffffffffffffffffffffffffffffffffffff168382815481101515612c3557fe5b9060005260206000200160009054906101000a900473ffffffffffffffffffffffffffffffffffffffff1673ffffffffffffffffffffffffffffffffffffffff161415612d6a57826001848054905003815481101515612c9157fe5b9060005260206000200160009054906101000a900473ffffffffffffffffffffffffffffffffffffffff168382815481101515612cca57fe5b9060005260206000200160006101000a81548173ffffffffffffffffffffffffffffffffffffffff021916908373ffffffffffffffffffffffffffffffffffffffff160217905550826001848054905003815481101515612d2757fe5b9060005260206000200160006101000a81549073ffffffffffffffffffffffffffffffffffffffff021916905582805480919060019003612d689190612d8c565b505b8080600101915050612c04565b505050565b612d89600b600d836127b2565b50565b815481835581811115612db357818360005260206000209182019101612db29190612db8565b5b505050565b612dda91905b80821115612dd6576000816000905550600101612dbe565b5090565b9056fea165627a7a72305820b132249f25fff259d34fdbdbd116773a08adfbeeb1570938f8ec4393ffa87f140029",
  "source": "pragma solidity ^0.5.1;\r\n\r\nimport \"./Main.sol\";\r\nimport \"./Organization.sol\";\r\nimport \"./Item.sol\";\r\n\r\ncontract Vendor is Organization {\r\n    address[] public manufacturers;\r\n    address[] public pendingItems;\r\n\r\n    mapping (address => bool) isInManufacturers;\r\n    mapping (address => bool) isPendingItem;\r\n\r\n\r\n\r\n    constructor (address _ownerID, string memory _name, string memory _physicalAddress, string memory _registrationNumber) public {\r\n        main = Deployer(msg.sender).main();\r\n        ownerID = _ownerID;\r\n        name = _name;\r\n        physicalAddress = _physicalAddress;\r\n        registrationNumber = _registrationNumber;\r\n    }\r\n\r\n\r\n\r\n// Public\r\n\r\n\r\n\r\n    function setOwnerToItem (address uID, address iID) onlyOwner public {\r\n        Main.ContractType cType = main.getContractType(uID);\r\n        require((cType == Main.ContractType.USER), \"Wrong contract type\");\r\n\r\n        Item iInstance = Item(iID);\r\n        iInstance.setOwner(uID);\r\n    }\r\n\r\n    function activateWarranty (address iID) onlyOwner public {\r\n        Item iInstance = Item(iID);\r\n        iInstance.activateWarranty();\r\n    }\r\n\r\n\r\n\r\n// Internal\r\n\r\n\r\n\r\n    function _addPartnerMethod (address pID) internal {\r\n        Main.ContractType cType = main.getContractType(pID);\r\n        require(cType == Main.ContractType.MANUFACTURER, \"Wrong contract type\");\r\n\r\n        _addManufacturer(pID);\r\n    }\r\n\r\n    function _removePartnerMethod (address pID) internal {\r\n        Main.ContractType cType = main.getContractType(pID);\r\n        require(cType == Main.ContractType.MANUFACTURER, \"Wrong contract type\");\r\n\r\n        _removeManufacturer(pID);\r\n    }\r\n\r\n    function _sendPartnershipRequest (address pID) internal {\r\n        Main.ContractType cType = main.getContractType(pID);\r\n        require(cType == Main.ContractType.MANUFACTURER, \"Wrong contract type\");\r\n\r\n        Organization oInstance = Organization(pID);\r\n        oInstance.receivePartnershipRequest();\r\n    }\r\n\r\n    function _sendPartnershipDecline (address pID) internal {\r\n        Main.ContractType cType = main.getContractType(pID);\r\n        require(cType == Main.ContractType.MANUFACTURER, \"Wrong contract type\");\r\n\r\n        Organization oInstance = Organization(pID);\r\n        oInstance.receivePartnershipDecline();\r\n    }\r\n\r\n    function _sendPartnershipRevert (address pID) internal {\r\n        Main.ContractType cType = main.getContractType(pID);\r\n        require(cType == Main.ContractType.MANUFACTURER, \"Wrong contract type\");\r\n\r\n        Organization oInstance = Organization(pID);\r\n        oInstance.receivePartnershipRevert();\r\n    }\r\n\r\n    function _sendPartnershipCancel (address pID) internal {\r\n        Main.ContractType cType = main.getContractType(pID);\r\n        require(cType == Main.ContractType.MANUFACTURER, \"Wrong contract type\");\r\n\r\n        Organization oInstance = Organization(pID);\r\n        oInstance.cancelPartnership(id);\r\n    }\r\n\r\n    function _addPendingItem (address iID) internal { _addTo(pendingItems, isPendingItem, iID); }\r\n    function _removePendingItem (address iID) internal { _removeFrom(pendingItems, isPendingItem, iID); }\r\n\r\n    function _addManufacturer (address mID) internal { _addTo(manufacturers, isInManufacturers, mID); }\r\n    function _removeManufacturer (address mID) internal { _removeFrom(manufacturers, isInManufacturers, mID); }\r\n}\r\n",
  "sourcePath": "C:\\Users\\zheny\\Desktop\\git\\GuarantSystem\\blockchain\\Vendor.sol",
  "compiler": {
    "name": "solc",
    "version": "0.5.1+commit.c8a2cb62.Emscripten.clang"
  },
  "schemaVersion": "3.0.1",
  "updatedAt": "2019-02-01T07:52:03.840Z",
  "devdoc": {
    "methods": {}
  },
  "userdoc": {
    "methods": {}
  }
}