{
  "contractName": "Vendor",
  "abi": [
    {
      "constant": true,
      "inputs": [],
      "name": "name",
      "outputs": [
        {
          "name": "",
          "type": "string"
        }
      ],
      "payable": false,
      "stateMutability": "view",
      "type": "function"
    },
    {
      "constant": false,
      "inputs": [
        {
          "name": "_Type",
          "type": "uint8"
        },
        {
          "name": "_objs",
          "type": "address[]"
        }
      ],
      "name": "receiveRequest",
      "outputs": [],
      "payable": false,
      "stateMutability": "nonpayable",
      "type": "function"
    },
    {
      "constant": false,
      "inputs": [
        {
          "name": "_Type",
          "type": "uint8"
        },
        {
          "name": "_objs",
          "type": "address[]"
        }
      ],
      "name": "receiveCompletedRequestCancel",
      "outputs": [],
      "payable": false,
      "stateMutability": "nonpayable",
      "type": "function"
    },
    {
      "constant": true,
      "inputs": [],
      "name": "physicalAddress",
      "outputs": [
        {
          "name": "",
          "type": "string"
        }
      ],
      "payable": false,
      "stateMutability": "view",
      "type": "function"
    },
    {
      "constant": false,
      "inputs": [
        {
          "name": "pID",
          "type": "address"
        }
      ],
      "name": "cancelPartnership",
      "outputs": [],
      "payable": false,
      "stateMutability": "nonpayable",
      "type": "function"
    },
    {
      "constant": false,
      "inputs": [
        {
          "name": "_Type",
          "type": "uint8"
        },
        {
          "name": "_objs",
          "type": "address[]"
        }
      ],
      "name": "receiveRequestDecline",
      "outputs": [],
      "payable": false,
      "stateMutability": "nonpayable",
      "type": "function"
    },
    {
      "constant": false,
      "inputs": [
        {
          "name": "_Type",
          "type": "uint8"
        },
        {
          "name": "_objs",
          "type": "address[]"
        }
      ],
      "name": "receiveRequestRevert",
      "outputs": [],
      "payable": false,
      "stateMutability": "nonpayable",
      "type": "function"
    },
    {
      "constant": true,
      "inputs": [
        {
          "name": "",
          "type": "uint256"
        }
      ],
      "name": "pendingItems",
      "outputs": [
        {
          "name": "",
          "type": "address"
        }
      ],
      "payable": false,
      "stateMutability": "view",
      "type": "function"
    },
    {
      "constant": false,
      "inputs": [
        {
          "name": "pID",
          "type": "address"
        }
      ],
      "name": "acceptPartnership",
      "outputs": [],
      "payable": false,
      "stateMutability": "nonpayable",
      "type": "function"
    },
    {
      "constant": true,
      "inputs": [
        {
          "name": "",
          "type": "uint256"
        }
      ],
      "name": "manufacturers",
      "outputs": [
        {
          "name": "",
          "type": "address"
        }
      ],
      "payable": false,
      "stateMutability": "view",
      "type": "function"
    },
    {
      "constant": true,
      "inputs": [],
      "name": "id",
      "outputs": [
        {
          "name": "",
          "type": "address"
        }
      ],
      "payable": false,
      "stateMutability": "view",
      "type": "function"
    },
    {
      "constant": true,
      "inputs": [],
      "name": "registrationNumber",
      "outputs": [
        {
          "name": "",
          "type": "string"
        }
      ],
      "payable": false,
      "stateMutability": "view",
      "type": "function"
    },
    {
      "constant": false,
      "inputs": [
        {
          "name": "pID",
          "type": "address"
        }
      ],
      "name": "requestPartnership",
      "outputs": [],
      "payable": false,
      "stateMutability": "nonpayable",
      "type": "function"
    },
    {
      "constant": true,
      "inputs": [],
      "name": "main",
      "outputs": [
        {
          "name": "",
          "type": "address"
        }
      ],
      "payable": false,
      "stateMutability": "view",
      "type": "function"
    },
    {
      "constant": false,
      "inputs": [
        {
          "name": "pID",
          "type": "address"
        }
      ],
      "name": "revertPartnership",
      "outputs": [],
      "payable": false,
      "stateMutability": "nonpayable",
      "type": "function"
    },
    {
      "constant": false,
      "inputs": [
        {
          "name": "pID",
          "type": "address"
        }
      ],
      "name": "declinePartnership",
      "outputs": [],
      "payable": false,
      "stateMutability": "nonpayable",
      "type": "function"
    },
    {
      "inputs": [
        {
          "name": "_main",
          "type": "address"
        },
        {
          "name": "_ownerID",
          "type": "address"
        },
        {
          "name": "_name",
          "type": "string"
        },
        {
          "name": "_physicalAddress",
          "type": "string"
        },
        {
          "name": "_registrationNumber",
          "type": "string"
        }
      ],
      "payable": false,
      "stateMutability": "nonpayable",
      "type": "constructor"
    },
    {
      "constant": true,
      "inputs": [],
      "name": "getInfo",
      "outputs": [
        {
          "name": "",
          "type": "string"
        },
        {
          "name": "",
          "type": "string"
        },
        {
          "name": "",
          "type": "string"
        }
      ],
      "payable": false,
      "stateMutability": "view",
      "type": "function"
    },
    {
      "constant": true,
      "inputs": [],
      "name": "getManufacturers",
      "outputs": [
        {
          "name": "",
          "type": "address[]"
        }
      ],
      "payable": false,
      "stateMutability": "view",
      "type": "function"
    },
    {
      "constant": true,
      "inputs": [],
      "name": "getPendingItems",
      "outputs": [
        {
          "name": "",
          "type": "address[]"
        }
      ],
      "payable": false,
      "stateMutability": "view",
      "type": "function"
    },
    {
      "constant": false,
      "inputs": [
        {
          "name": "uID",
          "type": "address"
        },
        {
          "name": "iID",
          "type": "address"
        }
      ],
      "name": "setOwnerToItem",
      "outputs": [],
      "payable": false,
      "stateMutability": "nonpayable",
      "type": "function"
    },
    {
      "constant": false,
      "inputs": [
        {
          "name": "iID",
          "type": "address"
        }
      ],
      "name": "activateWarranty",
      "outputs": [],
      "payable": false,
      "stateMutability": "nonpayable",
      "type": "function"
    }
  ],
  "bytecode": "0x6080604052306000806101000a81548173ffffffffffffffffffffffffffffffffffffffff021916908373ffffffffffffffffffffffffffffffffffffffff1602179055503480156200005157600080fd5b506040516200402438038062004024833981018060405260a08110156200007757600080fd5b8101908080519060200190929190805190602001909291908051640100000000811115620000a457600080fd5b82810190506020810184811115620000bb57600080fd5b8151856001820283011164010000000082111715620000d957600080fd5b50509291906020018051640100000000811115620000f657600080fd5b828101905060208101848111156200010d57600080fd5b81518560018202830111640100000000821117156200012b57600080fd5b505092919060200180516401000000008111156200014857600080fd5b828101905060208101848111156200015f57600080fd5b81518560018202830111640100000000821117156200017d57600080fd5b505092919050505084600960006101000a81548173ffffffffffffffffffffffffffffffffffffffff021916908373ffffffffffffffffffffffffffffffffffffffff16021790555083600160006101000a81548173ffffffffffffffffffffffffffffffffffffffff021916908373ffffffffffffffffffffffffffffffffffffffff16021790555082600690805190602001906200021f9291906200025d565b508160079080519060200190620002389291906200025d565b508060089080519060200190620002519291906200025d565b5050505050506200030c565b828054600181600116156101000203166002900490600052602060002090601f016020900481019282601f10620002a057805160ff1916838001178555620002d1565b82800160010185558215620002d1579182015b82811115620002d0578251825591602001919060010190620002b3565b5b509050620002e09190620002e4565b5090565b6200030991905b8082111562000305576000816000905550600101620002eb565b5090565b90565b613d08806200031c6000396000f3fe608060405260043610610117576000357c01000000000000000000000000000000000000000000000000000000009004806306fdde031461011c5780631f37c991146101ac578063381f2e9d1461027e57806340868fff146103505780634353800e146103e0578063560649251461044c5780635a9b0b891461049d5780635e26e856146106055780636e58c294146106d757806379ac0477146107a95780637aa29a2614610824578063812842a11461087557806390175af1146108c6578063af640d0f14610941578063b2a1a40a14610998578063bc8a234514610a28578063c937cf3714610a94578063ca21f9fc14610ae5578063dffeadd014610b56578063eaf7c97a14610bad578063fbfca3c614610bfe575b600080fd5b34801561012857600080fd5b50610131610c4f565b6040518080602001828103825283818151815260200191508051906020019080838360005b83811015610171578082015181840152602081019050610156565b50505050905090810190601f16801561019e5780820380516001836020036101000a031916815260200191505b509250505060405180910390f35b3480156101b857600080fd5b5061027c600480360360408110156101cf57600080fd5b81019080803560ff169060200190929190803590602001906401000000008111156101f957600080fd5b82018360208201111561020b57600080fd5b8035906020019184602083028401116401000000008311171561022d57600080fd5b919080806020026020016040519081016040528093929190818152602001838360200280828437600081840152601f19601f820116905080830192505050505050509192919290505050610ced565b005b34801561028a57600080fd5b5061034e600480360360408110156102a157600080fd5b81019080803560ff169060200190929190803590602001906401000000008111156102cb57600080fd5b8201836020820111156102dd57600080fd5b803590602001918460208302840111640100000000831117156102ff57600080fd5b919080806020026020016040519081016040528093929190818152602001838360200280828437600081840152601f19601f820116905080830192505050505050509192919290505050610e38565b005b34801561035c57600080fd5b50610365610f14565b6040518080602001828103825283818151815260200191508051906020019080838360005b838110156103a557808201518184015260208101905061038a565b50505050905090810190601f1680156103d25780820380516001836020036101000a031916815260200191505b509250505060405180910390f35b3480156103ec57600080fd5b506103f5610fb2565b6040518080602001828103825283818151815260200191508051906020019060200280838360005b8381101561043857808201518184015260208101905061041d565b505050509050019250505060405180910390f35b34801561045857600080fd5b5061049b6004803603602081101561046f57600080fd5b81019080803573ffffffffffffffffffffffffffffffffffffffff169060200190929190505050611040565b005b3480156104a957600080fd5b506104b2611079565b60405180806020018060200180602001848103845287818151815260200191508051906020019080838360005b838110156104fa5780820151818401526020810190506104df565b50505050905090810190601f1680156105275780820380516001836020036101000a031916815260200191505b50848103835286818151815260200191508051906020019080838360005b83811015610560578082015181840152602081019050610545565b50505050905090810190601f16801561058d5780820380516001836020036101000a031916815260200191505b50848103825285818151815260200191508051906020019080838360005b838110156105c65780820151818401526020810190506105ab565b50505050905090810190601f1680156105f35780820380516001836020036101000a031916815260200191505b50965050505050505060405180910390f35b34801561061157600080fd5b506106d56004803603604081101561062857600080fd5b81019080803560ff1690602001909291908035906020019064010000000081111561065257600080fd5b82018360208201111561066457600080fd5b8035906020019184602083028401116401000000008311171561068657600080fd5b919080806020026020016040519081016040528093929190818152602001838360200280828437600081840152601f19601f820116905080830192505050505050509192919290505050611263565b005b3480156106e357600080fd5b506107a7600480360360408110156106fa57600080fd5b81019080803560ff1690602001909291908035906020019064010000000081111561072457600080fd5b82018360208201111561073657600080fd5b8035906020019184602083028401116401000000008311171561075857600080fd5b919080806020026020016040519081016040528093929190818152602001838360200280828437600081840152601f19601f82011690508083019250505050505050919291929050505061133f565b005b3480156107b557600080fd5b506107e2600480360360208110156107cc57600080fd5b810190808035906020019092919050505061141b565b604051808273ffffffffffffffffffffffffffffffffffffffff1673ffffffffffffffffffffffffffffffffffffffff16815260200191505060405180910390f35b34801561083057600080fd5b506108736004803603602081101561084757600080fd5b81019080803573ffffffffffffffffffffffffffffffffffffffff169060200190929190505050611459565b005b34801561088157600080fd5b506108c46004803603602081101561089857600080fd5b81019080803573ffffffffffffffffffffffffffffffffffffffff16906020019092919050505061157d565b005b3480156108d257600080fd5b506108ff600480360360208110156108e957600080fd5b81019080803590602001909291905050506116ed565b604051808273ffffffffffffffffffffffffffffffffffffffff1673ffffffffffffffffffffffffffffffffffffffff16815260200191505060405180910390f35b34801561094d57600080fd5b5061095661172b565b604051808273ffffffffffffffffffffffffffffffffffffffff1673ffffffffffffffffffffffffffffffffffffffff16815260200191505060405180910390f35b3480156109a457600080fd5b506109ad611750565b6040518080602001828103825283818151815260200191508051906020019080838360005b838110156109ed5780820151818401526020810190506109d2565b50505050905090810190601f168015610a1a5780820380516001836020036101000a031916815260200191505b509250505060405180910390f35b348015610a3457600080fd5b50610a3d6117ee565b6040518080602001828103825283818151815260200191508051906020019060200280838360005b83811015610a80578082015181840152602081019050610a65565b505050509050019250505060405180910390f35b348015610aa057600080fd5b50610ae360048036036020811015610ab757600080fd5b81019080803573ffffffffffffffffffffffffffffffffffffffff16906020019092919050505061187c565b005b348015610af157600080fd5b50610b5460048036036040811015610b0857600080fd5b81019080803573ffffffffffffffffffffffffffffffffffffffff169060200190929190803573ffffffffffffffffffffffffffffffffffffffff1690602001909291905050506119a0565b005b348015610b6257600080fd5b50610b6b611cda565b604051808273ffffffffffffffffffffffffffffffffffffffff1673ffffffffffffffffffffffffffffffffffffffff16815260200191505060405180910390f35b348015610bb957600080fd5b50610bfc60048036036020811015610bd057600080fd5b81019080803573ffffffffffffffffffffffffffffffffffffffff169060200190929190505050611d00565b005b348015610c0a57600080fd5b50610c4d60048036036020811015610c2157600080fd5b81019080803573ffffffffffffffffffffffffffffffffffffffff169060200190929190505050611e24565b005b60068054600181600116156101000203166002900480601f016020809104026020016040519081016040528092919081815260200182805460018160011615610100020316600290048015610ce55780601f10610cba57610100808354040283529160200191610ce5565b820191906000526020600020905b815481529060010190602001808311610cc857829003601f168201915b505050505081565b610cf5613c66565b6040805190810160405280846001811115610d0c57fe5b8152602001838152509050600033905060026000610d2984611f48565b815260200190815260200160002060009054906101000a900460ff16151515610de0576040517f08c379a00000000000000000000000000000000000000000000000000000000081526004018080602001828103825260218152602001807f526571756573742068617320616c7265616479206265656e207265636569766581526020017f640000000000000000000000000000000000000000000000000000000000000081525060400191505060405180910390fd5b60036000610ded84611f48565b815260200190815260200160002060009054906101000a900460ff1615610e2757610e188183611fe5565b610e228183612027565b610e32565b610e318183612072565b5b50505050565b610e40613c66565b6040805190810160405280846001811115610e5757fe5b8152602001838152509050600033905060046000610e7484611f48565b815260200190815260200160002060009054906101000a900460ff161515610f04576040517f08c379a00000000000000000000000000000000000000000000000000000000081526004018080602001828103825260188152602001807f52657175657374206973206e6f7420636f6d706c65746564000000000000000081525060200191505060405180910390fd5b610f0e81836120b4565b50505050565b60078054600181600116156101000203166002900480601f016020809104026020016040519081016040528092919081815260200182805460018160011615610100020316600290048015610faa5780601f10610f7f57610100808354040283529160200191610faa565b820191906000526020600020905b815481529060010190602001808311610f8d57829003601f168201915b505050505081565b6060600b80548060200260200160405190810160405280929190818152602001828054801561103657602002820191906000526020600020905b8160009054906101000a900473ffffffffffffffffffffffffffffffffffffffff1673ffffffffffffffffffffffffffffffffffffffff1681526020019060010190808311610fec575b5050505050905090565b611048613c66565b60018160000190600181111561105a57fe5b9081600181111561106757fe5b8152505061107582826120f6565b5050565b6060806060600660076008828054600181600116156101000203166002900480601f0160208091040260200160405190810160405280929190818152602001828054600181600116156101000203166002900480156111195780601f106110ee57610100808354040283529160200191611119565b820191906000526020600020905b8154815290600101906020018083116110fc57829003601f168201915b50505050509250818054600181600116156101000203166002900480601f0160208091040260200160405190810160405280929190818152602001828054600181600116156101000203166002900480156111b55780601f1061118a576101008083540402835291602001916111b5565b820191906000526020600020905b81548152906001019060200180831161119857829003601f168201915b50505050509150808054600181600116156101000203166002900480601f0160208091040260200160405190810160405280929190818152602001828054600181600116156101000203166002900480156112515780601f1061122657610100808354040283529160200191611251565b820191906000526020600020905b81548152906001019060200180831161123457829003601f168201915b50505050509050925092509250909192565b61126b613c66565b604080519081016040528084600181111561128257fe5b815260200183815250905060003390506003600061129f84611f48565b815260200190815260200160002060009054906101000a900460ff16151561132f576040517f08c379a00000000000000000000000000000000000000000000000000000000081526004018080602001828103825260198152602001807f5265717565737420686173206e6f74206265656e2073656e740000000000000081525060200191505060405180910390fd5b6113398183612027565b50505050565b611347613c66565b604080519081016040528084600181111561135e57fe5b815260200183815250905060003390506002600061137b84611f48565b815260200190815260200160002060009054906101000a900460ff16151561140b576040517f08c379a000000000000000000000000000000000000000000000000000000000815260040180806020018281038252601d8152602001807f5265717565737420686173206e6f74206265656e20726563656976656400000081525060200191505060405180910390fd5b611415818361223a565b50505050565b600b8181548110151561142a57fe5b906000526020600020016000915054906101000a900473ffffffffffffffffffffffffffffffffffffffff1681565b600160009054906101000a900473ffffffffffffffffffffffffffffffffffffffff1673ffffffffffffffffffffffffffffffffffffffff163373ffffffffffffffffffffffffffffffffffffffff16141515611544576040517f08c379a00000000000000000000000000000000000000000000000000000000081526004018080602001828103825260218152602001807f4f6e6c79206f776e65722063616e2063616c6c20746869732066756e6374696f81526020017f6e0000000000000000000000000000000000000000000000000000000000000081525060400191505060405180910390fd5b61154c613c66565b60018160000190600181111561155e57fe5b9081600181111561156b57fe5b81525050611579828261227c565b5050565b600160009054906101000a900473ffffffffffffffffffffffffffffffffffffffff1673ffffffffffffffffffffffffffffffffffffffff163373ffffffffffffffffffffffffffffffffffffffff16141515611668576040517f08c379a00000000000000000000000000000000000000000000000000000000081526004018080602001828103825260218152602001807f4f6e6c79206f776e65722063616e2063616c6c20746869732066756e6374696f81526020017f6e0000000000000000000000000000000000000000000000000000000000000081525060400191505060405180910390fd5b60008190508073ffffffffffffffffffffffffffffffffffffffff1663e8d503e96040518163ffffffff167c0100000000000000000000000000000000000000000000000000000000028152600401600060405180830381600087803b1580156116d157600080fd5b505af11580156116e5573d6000803e3d6000fd5b505050505050565b600a818154811015156116fc57fe5b906000526020600020016000915054906101000a900473ffffffffffffffffffffffffffffffffffffffff1681565b6000809054906101000a900473ffffffffffffffffffffffffffffffffffffffff1681565b60088054600181600116156101000203166002900480601f0160208091040260200160405190810160405280929190818152602001828054600181600116156101000203166002900480156117e65780601f106117bb576101008083540402835291602001916117e6565b820191906000526020600020905b8154815290600101906020018083116117c957829003601f168201915b505050505081565b6060600a80548060200260200160405190810160405280929190818152602001828054801561187257602002820191906000526020600020905b8160009054906101000a900473ffffffffffffffffffffffffffffffffffffffff1673ffffffffffffffffffffffffffffffffffffffff1681526020019060010190808311611828575b5050505050905090565b600160009054906101000a900473ffffffffffffffffffffffffffffffffffffffff1673ffffffffffffffffffffffffffffffffffffffff163373ffffffffffffffffffffffffffffffffffffffff16141515611967576040517f08c379a00000000000000000000000000000000000000000000000000000000081526004018080602001828103825260218152602001807f4f6e6c79206f776e65722063616e2063616c6c20746869732066756e6374696f81526020017f6e0000000000000000000000000000000000000000000000000000000000000081525060400191505060405180910390fd5b61196f613c66565b60018160000190600181111561198157fe5b9081600181111561198e57fe5b8152505061199c8282612426565b5050565b600160009054906101000a900473ffffffffffffffffffffffffffffffffffffffff1673ffffffffffffffffffffffffffffffffffffffff163373ffffffffffffffffffffffffffffffffffffffff16141515611a8b576040517f08c379a00000000000000000000000000000000000000000000000000000000081526004018080602001828103825260218152602001807f4f6e6c79206f776e65722063616e2063616c6c20746869732066756e6374696f81526020017f6e0000000000000000000000000000000000000000000000000000000000000081525060400191505060405180910390fd5b6000600960009054906101000a900473ffffffffffffffffffffffffffffffffffffffff1673ffffffffffffffffffffffffffffffffffffffff1663c5a887c5846040518263ffffffff167c0100000000000000000000000000000000000000000000000000000000028152600401808273ffffffffffffffffffffffffffffffffffffffff1673ffffffffffffffffffffffffffffffffffffffff16815260200191505060206040518083038186803b158015611b4857600080fd5b505afa158015611b5c573d6000803e3d6000fd5b505050506040513d6020811015611b7257600080fd5b8101908080519060200190929190505050905060026005811115611b9257fe5b816005811115611b9e57fe5b141515611c13576040517f08c379a00000000000000000000000000000000000000000000000000000000081526004018080602001828103825260138152602001807f57726f6e6720636f6e747261637420747970650000000000000000000000000081525060200191505060405180910390fd5b60008290508073ffffffffffffffffffffffffffffffffffffffff166313af4035856040518263ffffffff167c0100000000000000000000000000000000000000000000000000000000028152600401808273ffffffffffffffffffffffffffffffffffffffff1673ffffffffffffffffffffffffffffffffffffffff168152602001915050600060405180830381600087803b158015611cb357600080fd5b505af1158015611cc7573d6000803e3d6000fd5b50505050611cd483612605565b50505050565b600960009054906101000a900473ffffffffffffffffffffffffffffffffffffffff1681565b600160009054906101000a900473ffffffffffffffffffffffffffffffffffffffff1673ffffffffffffffffffffffffffffffffffffffff163373ffffffffffffffffffffffffffffffffffffffff16141515611deb576040517f08c379a00000000000000000000000000000000000000000000000000000000081526004018080602001828103825260218152602001807f4f6e6c79206f776e65722063616e2063616c6c20746869732066756e6374696f81526020017f6e0000000000000000000000000000000000000000000000000000000000000081525060400191505060405180910390fd5b611df3613c66565b600181600001906001811115611e0557fe5b90816001811115611e1257fe5b81525050611e208282612615565b5050565b600160009054906101000a900473ffffffffffffffffffffffffffffffffffffffff1673ffffffffffffffffffffffffffffffffffffffff163373ffffffffffffffffffffffffffffffffffffffff16141515611f0f576040517f08c379a00000000000000000000000000000000000000000000000000000000081526004018080602001828103825260218152602001807f4f6e6c79206f776e65722063616e2063616c6c20746869732066756e6374696f81526020017f6e0000000000000000000000000000000000000000000000000000000000000081525060400191505060405180910390fd5b611f17613c66565b600181600001906001811115611f2957fe5b90816001811115611f3657fe5b81525050611f4482826127b5565b5050565b60008160000151826020015160405160200180836001811115611f6757fe5b60ff167f0100000000000000000000000000000000000000000000000000000000000000028152600101828051906020019060200280838360005b83811015611fbd578082015181840152602081019050611fa2565b5050505090500192505050604051602081830303815290604052805190602001209050919050565b611fef8282612955565b600160046000611ffe84611f48565b815260200190815260200160002060006101000a81548160ff0219169083151502179055505050565b6120318282612b0e565b61203a81612cbe565b60006003600061204984611f48565b815260200190815260200160002060006101000a81548160ff0219169083151502179055505050565b61207c8282612d55565b60016002600061208b84611f48565b815260200190815260200160002060006101000a81548160ff0219169083151502179055505050565b6120be8282612f05565b6000600460006120cd84611f48565b815260200190815260200160002060006101000a81548160ff0219169083151502179055505050565b600160009054906101000a900473ffffffffffffffffffffffffffffffffffffffff1673ffffffffffffffffffffffffffffffffffffffff163373ffffffffffffffffffffffffffffffffffffffff1614806121ae57508173ffffffffffffffffffffffffffffffffffffffff163373ffffffffffffffffffffffffffffffffffffffff161480156121ad57506004600061219083611f48565b815260200190815260200160002060009054906101000a900460ff165b5b1515612222576040517f08c379a00000000000000000000000000000000000000000000000000000000081526004018080602001828103825260168152602001807f4e6f7420656e6f756768207065726d697373696f6e730000000000000000000081525060200191505060405180910390fd5b61222c82826120b4565b61223682826130be565b5050565b61224482826131ae565b60006002600061225384611f48565b815260200190815260200160002060006101000a81548160ff0219169083151502179055505050565b600160009054906101000a900473ffffffffffffffffffffffffffffffffffffffff1673ffffffffffffffffffffffffffffffffffffffff163373ffffffffffffffffffffffffffffffffffffffff16141515612367576040517f08c379a00000000000000000000000000000000000000000000000000000000081526004018080602001828103825260218152602001807f4f6e6c79206f776e65722063616e2063616c6c20746869732066756e6374696f81526020017f6e0000000000000000000000000000000000000000000000000000000000000081525060400191505060405180910390fd5b6002600061237483611f48565b815260200190815260200160002060009054906101000a900460ff161515612404576040517f08c379a000000000000000000000000000000000000000000000000000000000815260040180806020018281038252600f8152602001807f4e6f20737563682072657175657374000000000000000000000000000000000081525060200191505060405180910390fd5b61240e8282611fe5565b612418828261223a565b612422828261335e565b5050565b600160009054906101000a900473ffffffffffffffffffffffffffffffffffffffff1673ffffffffffffffffffffffffffffffffffffffff163373ffffffffffffffffffffffffffffffffffffffff16141515612511576040517f08c379a00000000000000000000000000000000000000000000000000000000081526004018080602001828103825260218152602001807f4f6e6c79206f776e65722063616e2063616c6c20746869732066756e6374696f81526020017f6e0000000000000000000000000000000000000000000000000000000000000081525060400191505060405180910390fd5b6003600061251e83611f48565b815260200190815260200160002060009054906101000a900460ff161515156125af576040517f08c379a000000000000000000000000000000000000000000000000000000000815260040180806020018281038252601d8152602001807f526571756573742068617320616c7265616479206265656e2073656e7400000081525060200191505060405180910390fd5b600260006125bc83611f48565b815260200190815260200160002060009054906101000a900460ff16156125ec576125e7828261227c565b612601565b6125f6828261344e565b612600828261335e565b5b5050565b612612600b600d83613490565b50565b600160009054906101000a900473ffffffffffffffffffffffffffffffffffffffff1673ffffffffffffffffffffffffffffffffffffffff163373ffffffffffffffffffffffffffffffffffffffff16141515612700576040517f08c379a00000000000000000000000000000000000000000000000000000000081526004018080602001828103825260218152602001807f4f6e6c79206f776e65722063616e2063616c6c20746869732066756e6374696f81526020017f6e0000000000000000000000000000000000000000000000000000000000000081525060400191505060405180910390fd5b6003600061270d83611f48565b815260200190815260200160002060009054906101000a900460ff16151561279d576040517f08c379a000000000000000000000000000000000000000000000000000000000815260040180806020018281038252600f8152602001807f4e6f20737563682072657175657374000000000000000000000000000000000081525060200191505060405180910390fd5b6127a78282612027565b6127b182826135b6565b5050565b600160009054906101000a900473ffffffffffffffffffffffffffffffffffffffff1673ffffffffffffffffffffffffffffffffffffffff163373ffffffffffffffffffffffffffffffffffffffff161415156128a0576040517f08c379a00000000000000000000000000000000000000000000000000000000081526004018080602001828103825260218152602001807f4f6e6c79206f776e65722063616e2063616c6c20746869732066756e6374696f81526020017f6e0000000000000000000000000000000000000000000000000000000000000081525060400191505060405180910390fd5b600260006128ad83611f48565b815260200190815260200160002060009054906101000a900460ff16151561293d576040517f08c379a000000000000000000000000000000000000000000000000000000000815260040180806020018281038252600f8152602001807f4e6f20737563682072657175657374000000000000000000000000000000000081525060200191505060405180910390fd5b612947828261223a565b61295182826136a6565b5050565b60018081111561296157fe5b8160000151600181111561297157fe5b1415612b0a576000600960009054906101000a900473ffffffffffffffffffffffffffffffffffffffff1673ffffffffffffffffffffffffffffffffffffffff1663c5a887c5846040518263ffffffff167c0100000000000000000000000000000000000000000000000000000000028152600401808273ffffffffffffffffffffffffffffffffffffffff1673ffffffffffffffffffffffffffffffffffffffff16815260200191505060206040518083038186803b158015612a3457600080fd5b505afa158015612a48573d6000803e3d6000fd5b505050506040513d6020811015612a5e57600080fd5b8101908080519060200190929190505050905060036005811115612a7e57fe5b816005811115612a8a57fe5b141515612aff576040517f08c379a00000000000000000000000000000000000000000000000000000000081526004018080602001828103825260138152602001807f57726f6e6720636f6e747261637420747970650000000000000000000000000081525060200191505060405180910390fd5b612b0883613796565b505b5050565b600180811115612b1a57fe5b81600001516001811115612b2a57fe5b1415612cba576000600960009054906101000a900473ffffffffffffffffffffffffffffffffffffffff1673ffffffffffffffffffffffffffffffffffffffff1663c5a887c5846040518263ffffffff167c0100000000000000000000000000000000000000000000000000000000028152600401808273ffffffffffffffffffffffffffffffffffffffff1673ffffffffffffffffffffffffffffffffffffffff16815260200191505060206040518083038186803b158015612bed57600080fd5b505afa158015612c01573d6000803e3d6000fd5b505050506040513d6020811015612c1757600080fd5b8101908080519060200190929190505050905060036005811115612c3757fe5b816005811115612c4357fe5b141515612cb8576040517f08c379a00000000000000000000000000000000000000000000000000000000081526004018080602001828103825260138152602001807f57726f6e6720636f6e747261637420747970650000000000000000000000000081525060200191505060405180910390fd5b505b5050565b60008090505b816020015151811015612d5157600060056000846020015184815181101515612ce957fe5b9060200190602002015173ffffffffffffffffffffffffffffffffffffffff1673ffffffffffffffffffffffffffffffffffffffff16815260200190815260200160002060006101000a81548160ff0219169083151502179055508080600101915050612cc4565b5050565b600180811115612d6157fe5b81600001516001811115612d7157fe5b1415612f01576000600960009054906101000a900473ffffffffffffffffffffffffffffffffffffffff1673ffffffffffffffffffffffffffffffffffffffff1663c5a887c5846040518263ffffffff167c0100000000000000000000000000000000000000000000000000000000028152600401808273ffffffffffffffffffffffffffffffffffffffff1673ffffffffffffffffffffffffffffffffffffffff16815260200191505060206040518083038186803b158015612e3457600080fd5b505afa158015612e48573d6000803e3d6000fd5b505050506040513d6020811015612e5e57600080fd5b8101908080519060200190929190505050905060036005811115612e7e57fe5b816005811115612e8a57fe5b141515612eff576040517f08c379a00000000000000000000000000000000000000000000000000000000081526004018080602001828103825260138152602001807f57726f6e6720636f6e747261637420747970650000000000000000000000000081525060200191505060405180910390fd5b505b5050565b600180811115612f1157fe5b81600001516001811115612f2157fe5b14156130ba576000600960009054906101000a900473ffffffffffffffffffffffffffffffffffffffff1673ffffffffffffffffffffffffffffffffffffffff1663c5a887c5846040518263ffffffff167c0100000000000000000000000000000000000000000000000000000000028152600401808273ffffffffffffffffffffffffffffffffffffffff1673ffffffffffffffffffffffffffffffffffffffff16815260200191505060206040518083038186803b158015612fe457600080fd5b505afa158015612ff8573d6000803e3d6000fd5b505050506040513d602081101561300e57600080fd5b810190808051906020019092919050505090506003600581111561302e57fe5b81600581111561303a57fe5b1415156130af576040517f08c379a00000000000000000000000000000000000000000000000000000000081526004018080602001828103825260138152602001807f57726f6e6720636f6e747261637420747970650000000000000000000000000081525060200191505060405180910390fd5b6130b8836137a6565b505b5050565b60008290508073ffffffffffffffffffffffffffffffffffffffff1663381f2e9d836000015184602001516040518363ffffffff167c01000000000000000000000000000000000000000000000000000000000281526004018083600181111561312457fe5b60ff16815260200180602001828103825283818151815260200191508051906020019060200280838360005b8381101561316b578082015181840152602081019050613150565b505050509050019350505050600060405180830381600087803b15801561319157600080fd5b505af11580156131a5573d6000803e3d6000fd5b50505050505050565b6001808111156131ba57fe5b816000015160018111156131ca57fe5b141561335a576000600960009054906101000a900473ffffffffffffffffffffffffffffffffffffffff1673ffffffffffffffffffffffffffffffffffffffff1663c5a887c5846040518263ffffffff167c0100000000000000000000000000000000000000000000000000000000028152600401808273ffffffffffffffffffffffffffffffffffffffff1673ffffffffffffffffffffffffffffffffffffffff16815260200191505060206040518083038186803b15801561328d57600080fd5b505afa1580156132a1573d6000803e3d6000fd5b505050506040513d60208110156132b757600080fd5b81019080805190602001909291905050509050600360058111156132d757fe5b8160058111156132e357fe5b141515613358576040517f08c379a00000000000000000000000000000000000000000000000000000000081526004018080602001828103825260138152602001807f57726f6e6720636f6e747261637420747970650000000000000000000000000081525060200191505060405180910390fd5b505b5050565b60008290508073ffffffffffffffffffffffffffffffffffffffff16631f37c991836000015184602001516040518363ffffffff167c0100000000000000000000000000000000000000000000000000000000028152600401808360018111156133c457fe5b60ff16815260200180602001828103825283818151815260200191508051906020019060200280838360005b8381101561340b5780820151818401526020810190506133f0565b505050509050019350505050600060405180830381600087803b15801561343157600080fd5b505af1158015613445573d6000803e3d6000fd5b50505050505050565b61345882826137b6565b60016003600061346784611f48565b815260200190815260200160002060006101000a81548160ff0219169083151502179055505050565b8160008273ffffffffffffffffffffffffffffffffffffffff1673ffffffffffffffffffffffffffffffffffffffff16815260200190815260200160002060009054906101000a900460ff161515613550576040517f08c379a00000000000000000000000000000000000000000000000000000000081526004018080602001828103825260098152602001807f4e6f7420666f756e64000000000000000000000000000000000000000000000081525060200191505060405180910390fd5b61355a8382613966565b60008260008373ffffffffffffffffffffffffffffffffffffffff1673ffffffffffffffffffffffffffffffffffffffff16815260200190815260200160002060006101000a81548160ff021916908315150217905550505050565b60008290508073ffffffffffffffffffffffffffffffffffffffff16636e58c294836000015184602001516040518363ffffffff167c01000000000000000000000000000000000000000000000000000000000281526004018083600181111561361c57fe5b60ff16815260200180602001828103825283818151815260200191508051906020019060200280838360005b83811015613663578082015181840152602081019050613648565b505050509050019350505050600060405180830381600087803b15801561368957600080fd5b505af115801561369d573d6000803e3d6000fd5b50505050505050565b60008290508073ffffffffffffffffffffffffffffffffffffffff16635e26e856836000015184602001516040518363ffffffff167c01000000000000000000000000000000000000000000000000000000000281526004018083600181111561370c57fe5b60ff16815260200180602001828103825283818151815260200191508051906020019060200280838360005b83811015613753578082015181840152602081019050613738565b505050509050019350505050600060405180830381600087803b15801561377957600080fd5b505af115801561378d573d6000803e3d6000fd5b50505050505050565b6137a3600a600c83613ae4565b50565b6137b3600a600c83613490565b50565b6001808111156137c257fe5b816000015160018111156137d257fe5b1415613962576000600960009054906101000a900473ffffffffffffffffffffffffffffffffffffffff1673ffffffffffffffffffffffffffffffffffffffff1663c5a887c5846040518263ffffffff167c0100000000000000000000000000000000000000000000000000000000028152600401808273ffffffffffffffffffffffffffffffffffffffff1673ffffffffffffffffffffffffffffffffffffffff16815260200191505060206040518083038186803b15801561389557600080fd5b505afa1580156138a9573d6000803e3d6000fd5b505050506040513d60208110156138bf57600080fd5b81019080805190602001909291905050509050600360058111156138df57fe5b8160058111156138eb57fe5b141515613960576040517f08c379a00000000000000000000000000000000000000000000000000000000081526004018080602001828103825260138152602001807f57726f6e6720636f6e747261637420747970650000000000000000000000000081525060200191505060405180910390fd5b505b5050565b60008090505b8280549050811015613adf578173ffffffffffffffffffffffffffffffffffffffff16838281548110151561399d57fe5b9060005260206000200160009054906101000a900473ffffffffffffffffffffffffffffffffffffffff1673ffffffffffffffffffffffffffffffffffffffff161415613ad2578260018480549050038154811015156139f957fe5b9060005260206000200160009054906101000a900473ffffffffffffffffffffffffffffffffffffffff168382815481101515613a3257fe5b9060005260206000200160006101000a81548173ffffffffffffffffffffffffffffffffffffffff021916908373ffffffffffffffffffffffffffffffffffffffff160217905550826001848054905003815481101515613a8f57fe5b9060005260206000200160006101000a81549073ffffffffffffffffffffffffffffffffffffffff021916905582805480919060019003613ad09190613c8b565b505b808060010191505061396c565b505050565b8160008273ffffffffffffffffffffffffffffffffffffffff1673ffffffffffffffffffffffffffffffffffffffff16815260200190815260200160002060009054906101000a900460ff16151515613ba5576040517f08c379a000000000000000000000000000000000000000000000000000000000815260040180806020018281038252600e8152602001807f416c72656164792065786973747300000000000000000000000000000000000081525060200191505060405180910390fd5b828190806001815401808255809150509060018203906000526020600020016000909192909190916101000a81548173ffffffffffffffffffffffffffffffffffffffff021916908373ffffffffffffffffffffffffffffffffffffffff1602179055505060018260008373ffffffffffffffffffffffffffffffffffffffff1673ffffffffffffffffffffffffffffffffffffffff16815260200190815260200160002060006101000a81548160ff021916908315150217905550505050565b604080519081016040528060006001811115613c7e57fe5b8152602001606081525090565b815481835581811115613cb257818360005260206000209182019101613cb19190613cb7565b5b505050565b613cd991905b80821115613cd5576000816000905550600101613cbd565b5090565b9056fea165627a7a72305820ed9743bca1fa301f910946b0218ef79b3b78c6f40d8dc6a8202b8eb93162bab20029",
  "source": "pragma solidity ^0.5.1;\n\nimport \"./meta/Organization.sol\";\n\nimport \"./interfaces/Main.sol\";\nimport \"./interfaces/Item.sol\";\n\ncontract Vendor is Organization {\n    Main public main;\n\n    address[] public manufacturers;\n    address[] public pendingItems;\n\n    mapping (address => bool) isInManufacturers;\n    mapping (address => bool) isPendingItem;\n\n\n\n    constructor (address _main, address _ownerID, string memory _name, string memory _physicalAddress, string memory _registrationNumber) public {\n        main = Main(_main);\n        ownerID = _ownerID;\n        name = _name;\n        physicalAddress = _physicalAddress;\n        registrationNumber = _registrationNumber;\n    }\n\n\n\n// Getters\n\n\n\n    function getInfo () view public returns (string memory, string memory, string memory) {\n        return (name, physicalAddress, registrationNumber);\n    }\n\n    function getManufacturers () view public returns (address[] memory) {\n        return manufacturers;\n    }\n    \n    function getPendingItems () view public returns (address[] memory) {\n        return pendingItems;\n    }\n    \n    \n    \n// Public\n\n\n\n    function setOwnerToItem (address uID, address iID) onlyOwner public {\n        Main.ContractType cType = main.contractType(uID);\n        require((cType == Main.ContractType.USER), \"Wrong contract type\");\n\n        Item iInstance = Item(iID);\n        iInstance.setOwner(uID);\n        removePendingItem(iID);\n    }\n\n    function activateWarranty (address iID) onlyOwner public {\n        Item iInstance = Item(iID);\n        iInstance.activateWarranty();\n    }\n\n\n\n// Internal\n\n\n\n    function addSentRequestHook (address _id, Requestable.Request memory req) internal {\n        if (req.Type == Requestable.RequestType.PARTNERSHIP) {\n            Main.ContractType cType = main.contractType(_id);\n            require(cType == Main.ContractType.MANUFACTURER, \"Wrong contract type\");\n        }\n    }\n    function removeSentRequestHook (address _id, Requestable.Request memory req) internal {\n        if (req.Type == Requestable.RequestType.PARTNERSHIP) {\n            Main.ContractType cType = main.contractType(_id);\n            require(cType == Main.ContractType.MANUFACTURER, \"Wrong contract type\");\n        }\n    }\n\n    function addReceivedRequestHook (address _id, Requestable.Request memory req) internal {\n        if (req.Type == Requestable.RequestType.PARTNERSHIP) {\n            Main.ContractType cType = main.contractType(_id);\n            require(cType == Main.ContractType.MANUFACTURER, \"Wrong contract type\");\n        }\n    }\n    function removeReceivedRequestHook (address _id, Requestable.Request memory req) internal {\n        if (req.Type == Requestable.RequestType.PARTNERSHIP) {\n            Main.ContractType cType = main.contractType(_id);\n            require(cType == Main.ContractType.MANUFACTURER, \"Wrong contract type\");\n        }\n    }\n\n    function addCompletedRequestHook (address _id, Requestable.Request memory req) internal {\n        if (req.Type == Requestable.RequestType.PARTNERSHIP) {\n            Main.ContractType cType = main.contractType(_id);\n            require(cType == Main.ContractType.MANUFACTURER, \"Wrong contract type\");\n\n            addManufacturer(_id);\n        }\n    }\n    function removeCompletedRequestHook (address _id, Requestable.Request memory req) internal {\n        if (req.Type == Requestable.RequestType.PARTNERSHIP) {\n            Main.ContractType cType = main.contractType(_id);\n            require(cType == Main.ContractType.MANUFACTURER, \"Wrong contract type\");\n\n            removeManufacturer(_id);\n        }\n    }\n\n\n\n    function addPendingItem (address iID) internal { addAddress(pendingItems, isPendingItem, iID); }\n    function removePendingItem (address iID) internal { removeAddress(pendingItems, isPendingItem, iID); }\n\n    function addManufacturer (address mID) internal { addAddress(manufacturers, isInManufacturers, mID); }\n    function removeManufacturer (address mID) internal { removeAddress(manufacturers, isInManufacturers, mID); }\n\n\n\n    function addAddress (address[] storage array, mapping (address => bool) storage map, address aID) internal {\n        require(!map[aID], \"Already exists\");\n\n        array.push(aID);\n        map[aID] = true;\n    }\n\n    function removeAddress (address[] storage array, mapping (address => bool) storage map, address aID) internal {\n        require(map[aID], \"Not found\");\n\n        removeFromAddressArray(array, aID);\n        map[aID] = false;\n    }\n\n    function removeFromAddressArray (address[] storage array, address value) internal {\n        for (uint i = 0; i < array.length; i++) {\n            if (array[i] == value) {\n              array[i] = array[array.length - 1];\n              delete array[array.length - 1];\n              array.length--;\n            }\n        }\n    }\n}\n",
  "sourcePath": "/Users/viktorgronskiy/Documents/Projects/Fun/GuarantSystem/blockchain/src/Vendor.sol",
  "compiler": {
    "name": "solc",
    "version": "0.5.1+commit.c8a2cb62.Emscripten.clang"
  },
  "schemaVersion": "3.0.1",
  "updatedAt": "2019-02-02T15:05:09.670Z",
  "devdoc": {
    "methods": {}
  },
  "userdoc": {
    "methods": {}
  }
}